{
	"crowd_funding.sol": {
		"CrowdFunding": {
			"abi": [
				{
					"inputs": [
						{
							"internalType": "uint256",
							"name": "_target",
							"type": "uint256"
						},
						{
							"internalType": "uint256",
							"name": "_deadline",
							"type": "uint256"
						}
					],
					"stateMutability": "nonpayable",
					"type": "constructor"
				},
				{
					"inputs": [
						{
							"internalType": "address",
							"name": "",
							"type": "address"
						}
					],
					"name": "contributers",
					"outputs": [
						{
							"internalType": "uint256",
							"name": "",
							"type": "uint256"
						}
					],
					"stateMutability": "view",
					"type": "function"
				},
				{
					"inputs": [],
					"name": "deadline",
					"outputs": [
						{
							"internalType": "uint256",
							"name": "",
							"type": "uint256"
						}
					],
					"stateMutability": "view",
					"type": "function"
				},
				{
					"inputs": [],
					"name": "getContractBalance",
					"outputs": [
						{
							"internalType": "uint256",
							"name": "",
							"type": "uint256"
						}
					],
					"stateMutability": "view",
					"type": "function"
				},
				{
					"inputs": [],
					"name": "manager",
					"outputs": [
						{
							"internalType": "address",
							"name": "",
							"type": "address"
						}
					],
					"stateMutability": "view",
					"type": "function"
				},
				{
					"inputs": [],
					"name": "minimumContribution",
					"outputs": [
						{
							"internalType": "uint256",
							"name": "",
							"type": "uint256"
						}
					],
					"stateMutability": "view",
					"type": "function"
				},
				{
					"inputs": [],
					"name": "noOfContributers",
					"outputs": [
						{
							"internalType": "uint256",
							"name": "",
							"type": "uint256"
						}
					],
					"stateMutability": "view",
					"type": "function"
				},
				{
					"inputs": [],
					"name": "numRequests",
					"outputs": [
						{
							"internalType": "uint256",
							"name": "",
							"type": "uint256"
						}
					],
					"stateMutability": "view",
					"type": "function"
				},
				{
					"inputs": [],
					"name": "raisedAmount",
					"outputs": [
						{
							"internalType": "uint256",
							"name": "",
							"type": "uint256"
						}
					],
					"stateMutability": "view",
					"type": "function"
				},
				{
					"inputs": [],
					"name": "refund",
					"outputs": [],
					"stateMutability": "nonpayable",
					"type": "function"
				},
				{
					"inputs": [
						{
							"internalType": "uint256",
							"name": "",
							"type": "uint256"
						}
					],
					"name": "requets",
					"outputs": [
						{
							"internalType": "string",
							"name": "description",
							"type": "string"
						},
						{
							"internalType": "address payable",
							"name": "recipient",
							"type": "address"
						},
						{
							"internalType": "uint256",
							"name": "value",
							"type": "uint256"
						},
						{
							"internalType": "bool",
							"name": "completed",
							"type": "bool"
						},
						{
							"internalType": "uint256",
							"name": "noofvoters",
							"type": "uint256"
						}
					],
					"stateMutability": "view",
					"type": "function"
				},
				{
					"inputs": [],
					"name": "sedEth",
					"outputs": [],
					"stateMutability": "payable",
					"type": "function"
				},
				{
					"inputs": [],
					"name": "target",
					"outputs": [
						{
							"internalType": "uint256",
							"name": "",
							"type": "uint256"
						}
					],
					"stateMutability": "view",
					"type": "function"
				}
			],
			"devdoc": {
				"kind": "dev",
				"methods": {},
				"version": 1
			},
			"evm": {
				"assembly": "    /* \"crowd_funding.sol\":76:2005  contract CrowdFunding{\r... */\n  mstore(0x40, 0x80)\n    /* \"crowd_funding.sol\":675:968  constructor(uint _target,uint _deadline){\r... */\n  callvalue\n  dup1\n  iszero\n  tag_1\n  jumpi\n  0x00\n  dup1\n  revert\ntag_1:\n  pop\n  mload(0x40)\n  sub(codesize, bytecodeSize)\n  dup1\n  bytecodeSize\n  dup4\n  codecopy\n  dup2\n  dup2\n  add\n  0x40\n  mstore\n  dup2\n  add\n  swap1\n  tag_2\n  swap2\n  swap1\n  tag_3\n  jump\t// in\ntag_2:\n    /* \"crowd_funding.sol\":733:740  _target */\n  dup2\n    /* \"crowd_funding.sol\":726:732  target */\n  0x03\n    /* \"crowd_funding.sol\":726:740  target=_target */\n  dup2\n  swap1\n  sstore\n  pop\n    /* \"crowd_funding.sol\":776:785  _deadline */\n  dup1\n    /* \"crowd_funding.sol\":760:775  block.timestamp */\n  timestamp\n    /* \"crowd_funding.sol\":760:785  block.timestamp+_deadline */\n  tag_6\n  swap2\n  swap1\n  tag_7\n  jump\t// in\ntag_6:\n    /* \"crowd_funding.sol\":751:759  deadline */\n  0x02\n    /* \"crowd_funding.sol\":751:785  deadline=block.timestamp+_deadline */\n  dup2\n  swap1\n  sstore\n  pop\n    /* \"crowd_funding.sol\":833:840  100 wei */\n  0x64\n    /* \"crowd_funding.sol\":813:832  minimumContribution */\n  0x06\n    /* \"crowd_funding.sol\":813:840  minimumContribution=100 wei */\n  dup2\n  swap1\n  sstore\n  pop\n    /* \"crowd_funding.sol\":859:869  msg.sender */\n  caller\n    /* \"crowd_funding.sol\":851:858  manager */\n  0x01\n  0x00\n    /* \"crowd_funding.sol\":851:869  manager=msg.sender */\n  0x0100\n  exp\n  dup2\n  sload\n  dup2\n  0xffffffffffffffffffffffffffffffffffffffff\n  mul\n  not\n  and\n  swap1\n  dup4\n  0xffffffffffffffffffffffffffffffffffffffff\n  and\n  mul\n  or\n  swap1\n  sstore\n  pop\n    /* \"crowd_funding.sol\":675:968  constructor(uint _target,uint _deadline){\r... */\n  pop\n  pop\n    /* \"crowd_funding.sol\":76:2005  contract CrowdFunding{\r... */\n  jump(tag_8)\n    /* \"#utility.yul\":7:150   */\ntag_10:\n    /* \"#utility.yul\":64:69   */\n  0x00\n    /* \"#utility.yul\":95:101   */\n  dup2\n    /* \"#utility.yul\":89:102   */\n  mload\n    /* \"#utility.yul\":80:102   */\n  swap1\n  pop\n    /* \"#utility.yul\":111:144   */\n  tag_12\n    /* \"#utility.yul\":138:143   */\n  dup2\n    /* \"#utility.yul\":111:144   */\n  tag_13\n  jump\t// in\ntag_12:\n    /* \"#utility.yul\":7:150   */\n  swap3\n  swap2\n  pop\n  pop\n  jump\t// out\n    /* \"#utility.yul\":156:663   */\ntag_3:\n    /* \"#utility.yul\":235:241   */\n  0x00\n    /* \"#utility.yul\":243:249   */\n  dup1\n    /* \"#utility.yul\":292:294   */\n  0x40\n    /* \"#utility.yul\":280:289   */\n  dup4\n    /* \"#utility.yul\":271:278   */\n  dup6\n    /* \"#utility.yul\":267:290   */\n  sub\n    /* \"#utility.yul\":263:295   */\n  slt\n    /* \"#utility.yul\":260:379   */\n  iszero\n  tag_15\n  jumpi\n    /* \"#utility.yul\":298:377   */\n  tag_16\n  tag_17\n  jump\t// in\ntag_16:\n    /* \"#utility.yul\":260:379   */\ntag_15:\n    /* \"#utility.yul\":418:419   */\n  0x00\n    /* \"#utility.yul\":443:507   */\n  tag_18\n    /* \"#utility.yul\":499:506   */\n  dup6\n    /* \"#utility.yul\":490:496   */\n  dup3\n    /* \"#utility.yul\":479:488   */\n  dup7\n    /* \"#utility.yul\":475:497   */\n  add\n    /* \"#utility.yul\":443:507   */\n  tag_10\n  jump\t// in\ntag_18:\n    /* \"#utility.yul\":433:507   */\n  swap3\n  pop\n    /* \"#utility.yul\":389:517   */\n  pop\n    /* \"#utility.yul\":556:558   */\n  0x20\n    /* \"#utility.yul\":582:646   */\n  tag_19\n    /* \"#utility.yul\":638:645   */\n  dup6\n    /* \"#utility.yul\":629:635   */\n  dup3\n    /* \"#utility.yul\":618:627   */\n  dup7\n    /* \"#utility.yul\":614:636   */\n  add\n    /* \"#utility.yul\":582:646   */\n  tag_10\n  jump\t// in\ntag_19:\n    /* \"#utility.yul\":572:646   */\n  swap2\n  pop\n    /* \"#utility.yul\":527:656   */\n  pop\n    /* \"#utility.yul\":156:663   */\n  swap3\n  pop\n  swap3\n  swap1\n  pop\n  jump\t// out\n    /* \"#utility.yul\":750:1055   */\ntag_7:\n    /* \"#utility.yul\":790:793   */\n  0x00\n    /* \"#utility.yul\":809:829   */\n  tag_23\n    /* \"#utility.yul\":827:828   */\n  dup3\n    /* \"#utility.yul\":809:829   */\n  tag_24\n  jump\t// in\ntag_23:\n    /* \"#utility.yul\":804:829   */\n  swap2\n  pop\n    /* \"#utility.yul\":843:863   */\n  tag_25\n    /* \"#utility.yul\":861:862   */\n  dup4\n    /* \"#utility.yul\":843:863   */\n  tag_24\n  jump\t// in\ntag_25:\n    /* \"#utility.yul\":838:863   */\n  swap3\n  pop\n    /* \"#utility.yul\":997:998   */\n  dup3\n    /* \"#utility.yul\":929:995   */\n  0xffffffffffffffffffffffffffffffffffffffffffffffffffffffffffffffff\n    /* \"#utility.yul\":925:999   */\n  sub\n    /* \"#utility.yul\":922:923   */\n  dup3\n    /* \"#utility.yul\":919:1000   */\n  gt\n    /* \"#utility.yul\":916:1023   */\n  iszero\n  tag_26\n  jumpi\n    /* \"#utility.yul\":1003:1021   */\n  tag_27\n  tag_28\n  jump\t// in\ntag_27:\n    /* \"#utility.yul\":916:1023   */\ntag_26:\n    /* \"#utility.yul\":1047:1048   */\n  dup3\n    /* \"#utility.yul\":1044:1045   */\n  dup3\n    /* \"#utility.yul\":1040:1049   */\n  add\n    /* \"#utility.yul\":1033:1049   */\n  swap1\n  pop\n    /* \"#utility.yul\":750:1055   */\n  swap3\n  swap2\n  pop\n  pop\n  jump\t// out\n    /* \"#utility.yul\":1061:1138   */\ntag_24:\n    /* \"#utility.yul\":1098:1105   */\n  0x00\n    /* \"#utility.yul\":1127:1132   */\n  dup2\n    /* \"#utility.yul\":1116:1132   */\n  swap1\n  pop\n    /* \"#utility.yul\":1061:1138   */\n  swap2\n  swap1\n  pop\n  jump\t// out\n    /* \"#utility.yul\":1144:1324   */\ntag_28:\n    /* \"#utility.yul\":1192:1269   */\n  0x4e487b7100000000000000000000000000000000000000000000000000000000\n    /* \"#utility.yul\":1189:1190   */\n  0x00\n    /* \"#utility.yul\":1182:1270   */\n  mstore\n    /* \"#utility.yul\":1289:1293   */\n  0x11\n    /* \"#utility.yul\":1286:1287   */\n  0x04\n    /* \"#utility.yul\":1279:1294   */\n  mstore\n    /* \"#utility.yul\":1313:1317   */\n  0x24\n    /* \"#utility.yul\":1310:1311   */\n  0x00\n    /* \"#utility.yul\":1303:1318   */\n  revert\n    /* \"#utility.yul\":1453:1570   */\ntag_17:\n    /* \"#utility.yul\":1562:1563   */\n  0x00\n    /* \"#utility.yul\":1559:1560   */\n  dup1\n    /* \"#utility.yul\":1552:1564   */\n  revert\n    /* \"#utility.yul\":1576:1698   */\ntag_13:\n    /* \"#utility.yul\":1649:1673   */\n  tag_35\n    /* \"#utility.yul\":1667:1672   */\n  dup2\n    /* \"#utility.yul\":1649:1673   */\n  tag_24\n  jump\t// in\ntag_35:\n    /* \"#utility.yul\":1642:1647   */\n  dup2\n    /* \"#utility.yul\":1639:1674   */\n  eq\n    /* \"#utility.yul\":1629:1692   */\n  tag_36\n  jumpi\n    /* \"#utility.yul\":1688:1689   */\n  0x00\n    /* \"#utility.yul\":1685:1686   */\n  dup1\n    /* \"#utility.yul\":1678:1690   */\n  revert\n    /* \"#utility.yul\":1629:1692   */\ntag_36:\n    /* \"#utility.yul\":1576:1698   */\n  pop\n  jump\t// out\n    /* \"crowd_funding.sol\":76:2005  contract CrowdFunding{\r... */\ntag_8:\n  dataSize(sub_0)\n  dup1\n  dataOffset(sub_0)\n  0x00\n  codecopy\n  0x00\n  return\nstop\n\nsub_0: assembly {\n        /* \"crowd_funding.sol\":76:2005  contract CrowdFunding{\r... */\n      mstore(0x40, 0x80)\n      jumpi(tag_1, lt(calldatasize, 0x04))\n      shr(0xe0, calldataload(0x00))\n      dup1\n      0x6f9fb98a\n      gt\n      tag_14\n      jumpi\n      dup1\n      0x6f9fb98a\n      eq\n      tag_8\n      jumpi\n      dup1\n      0x937e09b1\n      eq\n      tag_9\n      jumpi\n      dup1\n      0x9fb42b1f\n      eq\n      tag_10\n      jumpi\n      dup1\n      0xc59ee1dc\n      eq\n      tag_11\n      jumpi\n      dup1\n      0xd4b83992\n      eq\n      tag_12\n      jumpi\n      dup1\n      0xff386d32\n      eq\n      tag_13\n      jumpi\n      jump(tag_1)\n    tag_14:\n      dup1\n      0x24274ee9\n      eq\n      tag_2\n      jumpi\n      dup1\n      0x29dcb0cf\n      eq\n      tag_3\n      jumpi\n      dup1\n      0x34b66460\n      eq\n      tag_4\n      jumpi\n      dup1\n      0x481c6a75\n      eq\n      tag_5\n      jumpi\n      dup1\n      0x590e1ae3\n      eq\n      tag_6\n      jumpi\n      dup1\n      0x5edec2c4\n      eq\n      tag_7\n      jumpi\n    tag_1:\n      0x00\n      dup1\n      revert\n        /* \"crowd_funding.sol\":266:294  uint public noOfContributers */\n    tag_2:\n      callvalue\n      dup1\n      iszero\n      tag_15\n      jumpi\n      0x00\n      dup1\n      revert\n    tag_15:\n      pop\n      tag_16\n      tag_17\n      jump\t// in\n    tag_16:\n      mload(0x40)\n      tag_18\n      swap2\n      swap1\n      tag_19\n      jump\t// in\n    tag_18:\n      mload(0x40)\n      dup1\n      swap2\n      sub\n      swap1\n      return\n        /* \"crowd_funding.sol\":183:203  uint public deadline */\n    tag_3:\n      callvalue\n      dup1\n      iszero\n      tag_20\n      jumpi\n      0x00\n      dup1\n      revert\n    tag_20:\n      pop\n      tag_21\n      tag_22\n      jump\t// in\n    tag_21:\n      mload(0x40)\n      tag_23\n      swap2\n      swap1\n      tag_19\n      jump\t// in\n    tag_23:\n      mload(0x40)\n      dup1\n      swap2\n      sub\n      swap1\n      return\n        /* \"crowd_funding.sol\":104:146  mapping(address=>uint) public contributers */\n    tag_4:\n      callvalue\n      dup1\n      iszero\n      tag_24\n      jumpi\n      0x00\n      dup1\n      revert\n    tag_24:\n      pop\n      tag_25\n      0x04\n      dup1\n      calldatasize\n      sub\n      dup2\n      add\n      swap1\n      tag_26\n      swap2\n      swap1\n      tag_27\n      jump\t// in\n    tag_26:\n      tag_28\n      jump\t// in\n    tag_25:\n      mload(0x40)\n      tag_29\n      swap2\n      swap1\n      tag_19\n      jump\t// in\n    tag_29:\n      mload(0x40)\n      dup1\n      swap2\n      sub\n      swap1\n      return\n        /* \"crowd_funding.sol\":154:176  address public manager */\n    tag_5:\n      callvalue\n      dup1\n      iszero\n      tag_30\n      jumpi\n      0x00\n      dup1\n      revert\n    tag_30:\n      pop\n      tag_31\n      tag_32\n      jump\t// in\n    tag_31:\n      mload(0x40)\n      tag_33\n      swap2\n      swap1\n      tag_34\n      jump\t// in\n    tag_33:\n      mload(0x40)\n      dup1\n      swap2\n      sub\n      swap1\n      return\n        /* \"crowd_funding.sol\":1600:1991  function refund() public{\r... */\n    tag_6:\n      callvalue\n      dup1\n      iszero\n      tag_35\n      jumpi\n      0x00\n      dup1\n      revert\n    tag_35:\n      pop\n      tag_36\n      tag_37\n      jump\t// in\n    tag_36:\n      stop\n        /* \"crowd_funding.sol\":976:1482  function sedEth() public payable{\r... */\n    tag_7:\n      tag_38\n      tag_39\n      jump\t// in\n    tag_38:\n      stop\n        /* \"crowd_funding.sol\":1490:1592  function getContractBalance() public view returns(uint){\r... */\n    tag_8:\n      callvalue\n      dup1\n      iszero\n      tag_40\n      jumpi\n      0x00\n      dup1\n      revert\n    tag_40:\n      pop\n      tag_41\n      tag_42\n      jump\t// in\n    tag_41:\n      mload(0x40)\n      tag_43\n      swap2\n      swap1\n      tag_19\n      jump\t// in\n    tag_43:\n      mload(0x40)\n      dup1\n      swap2\n      sub\n      swap1\n      return\n        /* \"crowd_funding.sol\":301:332  uint public minimumContribution */\n    tag_9:\n      callvalue\n      dup1\n      iszero\n      tag_44\n      jumpi\n      0x00\n      dup1\n      revert\n    tag_44:\n      pop\n      tag_45\n      tag_46\n      jump\t// in\n    tag_45:\n      mload(0x40)\n      tag_47\n      swap2\n      swap1\n      tag_19\n      jump\t// in\n    tag_47:\n      mload(0x40)\n      dup1\n      swap2\n      sub\n      swap1\n      return\n        /* \"crowd_funding.sol\":641:664  uint public numRequests */\n    tag_10:\n      callvalue\n      dup1\n      iszero\n      tag_48\n      jumpi\n      0x00\n      dup1\n      revert\n    tag_48:\n      pop\n      tag_49\n      tag_50\n      jump\t// in\n    tag_49:\n      mload(0x40)\n      tag_51\n      swap2\n      swap1\n      tag_19\n      jump\t// in\n    tag_51:\n      mload(0x40)\n      dup1\n      swap2\n      sub\n      swap1\n      return\n        /* \"crowd_funding.sol\":235:259  uint public raisedAmount */\n    tag_11:\n      callvalue\n      dup1\n      iszero\n      tag_52\n      jumpi\n      0x00\n      dup1\n      revert\n    tag_52:\n      pop\n      tag_53\n      tag_54\n      jump\t// in\n    tag_53:\n      mload(0x40)\n      tag_55\n      swap2\n      swap1\n      tag_19\n      jump\t// in\n    tag_55:\n      mload(0x40)\n      dup1\n      swap2\n      sub\n      swap1\n      return\n        /* \"crowd_funding.sol\":210:228  uint public target */\n    tag_12:\n      callvalue\n      dup1\n      iszero\n      tag_56\n      jumpi\n      0x00\n      dup1\n      revert\n    tag_56:\n      pop\n      tag_57\n      tag_58\n      jump\t// in\n    tag_57:\n      mload(0x40)\n      tag_59\n      swap2\n      swap1\n      tag_19\n      jump\t// in\n    tag_59:\n      mload(0x40)\n      dup1\n      swap2\n      sub\n      swap1\n      return\n        /* \"crowd_funding.sol\":546:583  mapping(uint=>Request) public requets */\n    tag_13:\n      callvalue\n      dup1\n      iszero\n      tag_60\n      jumpi\n      0x00\n      dup1\n      revert\n    tag_60:\n      pop\n      tag_61\n      0x04\n      dup1\n      calldatasize\n      sub\n      dup2\n      add\n      swap1\n      tag_62\n      swap2\n      swap1\n      tag_63\n      jump\t// in\n    tag_62:\n      tag_64\n      jump\t// in\n    tag_61:\n      mload(0x40)\n      tag_65\n      swap6\n      swap5\n      swap4\n      swap3\n      swap2\n      swap1\n      tag_66\n      jump\t// in\n    tag_65:\n      mload(0x40)\n      dup1\n      swap2\n      sub\n      swap1\n      return\n        /* \"crowd_funding.sol\":266:294  uint public noOfContributers */\n    tag_17:\n      sload(0x05)\n      dup2\n      jump\t// out\n        /* \"crowd_funding.sol\":183:203  uint public deadline */\n    tag_22:\n      sload(0x02)\n      dup2\n      jump\t// out\n        /* \"crowd_funding.sol\":104:146  mapping(address=>uint) public contributers */\n    tag_28:\n      mstore(0x20, 0x00)\n      dup1\n      0x00\n      mstore\n      keccak256(0x00, 0x40)\n      0x00\n      swap2\n      pop\n      swap1\n      pop\n      sload\n      dup2\n      jump\t// out\n        /* \"crowd_funding.sol\":154:176  address public manager */\n    tag_32:\n      0x01\n      0x00\n      swap1\n      sload\n      swap1\n      0x0100\n      exp\n      swap1\n      div\n      0xffffffffffffffffffffffffffffffffffffffff\n      and\n      dup2\n      jump\t// out\n        /* \"crowd_funding.sol\":1600:1991  function refund() public{\r... */\n    tag_37:\n        /* \"crowd_funding.sol\":1659:1667  deadline */\n      sload(0x02)\n        /* \"crowd_funding.sol\":1643:1658  block.timestamp */\n      timestamp\n        /* \"crowd_funding.sol\":1643:1667  block.timestamp>deadline */\n      gt\n        /* \"crowd_funding.sol\":1643:1690  block.timestamp>deadline && raisedAmount<target */\n      dup1\n      iszero\n      tag_68\n      jumpi\n      pop\n        /* \"crowd_funding.sol\":1684:1690  target */\n      sload(0x03)\n        /* \"crowd_funding.sol\":1671:1683  raisedAmount */\n      sload(0x04)\n        /* \"crowd_funding.sol\":1671:1690  raisedAmount<target */\n      lt\n        /* \"crowd_funding.sol\":1643:1690  block.timestamp>deadline && raisedAmount<target */\n    tag_68:\n        /* \"crowd_funding.sol\":1635:1725  require(block.timestamp>deadline && raisedAmount<target,\"you are not eligible for refund\") */\n      tag_69\n      jumpi\n      mload(0x40)\n      0x08c379a000000000000000000000000000000000000000000000000000000000\n      dup2\n      mstore\n      0x04\n      add\n      tag_70\n      swap1\n      tag_71\n      jump\t// in\n    tag_70:\n      mload(0x40)\n      dup1\n      swap2\n      sub\n      swap1\n      revert\n    tag_69:\n        /* \"crowd_funding.sol\":1769:1770  0 */\n      0x00\n        /* \"crowd_funding.sol\":1744:1756  contributers */\n      dup1\n        /* \"crowd_funding.sol\":1744:1768  contributers[msg.sender] */\n      0x00\n        /* \"crowd_funding.sol\":1757:1767  msg.sender */\n      caller\n        /* \"crowd_funding.sol\":1744:1768  contributers[msg.sender] */\n      0xffffffffffffffffffffffffffffffffffffffff\n      and\n      0xffffffffffffffffffffffffffffffffffffffff\n      and\n      dup2\n      mstore\n      0x20\n      add\n      swap1\n      dup2\n      mstore\n      0x20\n      add\n      0x00\n      keccak256\n      sload\n        /* \"crowd_funding.sol\":1744:1770  contributers[msg.sender]>0 */\n      gt\n        /* \"crowd_funding.sol\":1736:1771  require(contributers[msg.sender]>0) */\n      tag_72\n      jumpi\n      0x00\n      dup1\n      revert\n    tag_72:\n        /* \"crowd_funding.sol\":1853:1873  address payable user */\n      0x00\n        /* \"crowd_funding.sol\":1884:1894  msg.sender */\n      caller\n        /* \"crowd_funding.sol\":1853:1895  address payable user = payable(msg.sender) */\n      swap1\n      pop\n        /* \"crowd_funding.sol\":1907:1911  user */\n      dup1\n        /* \"crowd_funding.sol\":1907:1920  user.transfer */\n      0xffffffffffffffffffffffffffffffffffffffff\n      and\n        /* \"crowd_funding.sol\":1907:1946  user.transfer(contributers[msg.sender]) */\n      0x08fc\n        /* \"crowd_funding.sol\":1921:1933  contributers */\n      0x00\n        /* \"crowd_funding.sol\":1921:1945  contributers[msg.sender] */\n      dup1\n        /* \"crowd_funding.sol\":1934:1944  msg.sender */\n      caller\n        /* \"crowd_funding.sol\":1921:1945  contributers[msg.sender] */\n      0xffffffffffffffffffffffffffffffffffffffff\n      and\n      0xffffffffffffffffffffffffffffffffffffffff\n      and\n      dup2\n      mstore\n      0x20\n      add\n      swap1\n      dup2\n      mstore\n      0x20\n      add\n      0x00\n      keccak256\n      sload\n        /* \"crowd_funding.sol\":1907:1946  user.transfer(contributers[msg.sender]) */\n      swap1\n      dup2\n      iszero\n      mul\n      swap1\n      mload(0x40)\n      0x00\n      mload(0x40)\n      dup1\n      dup4\n      sub\n      dup2\n      dup6\n      dup9\n      dup9\n      call\n      swap4\n      pop\n      pop\n      pop\n      pop\n      iszero\n      dup1\n      iszero\n      tag_74\n      jumpi\n      returndatasize\n      0x00\n      dup1\n      returndatacopy\n      revert(0x00, returndatasize)\n    tag_74:\n      pop\n        /* \"crowd_funding.sol\":1982:1983  0 */\n      0x00\n        /* \"crowd_funding.sol\":1957:1969  contributers */\n      dup1\n        /* \"crowd_funding.sol\":1957:1981  contributers[msg.sender] */\n      0x00\n        /* \"crowd_funding.sol\":1970:1980  msg.sender */\n      caller\n        /* \"crowd_funding.sol\":1957:1981  contributers[msg.sender] */\n      0xffffffffffffffffffffffffffffffffffffffff\n      and\n      0xffffffffffffffffffffffffffffffffffffffff\n      and\n      dup2\n      mstore\n      0x20\n      add\n      swap1\n      dup2\n      mstore\n      0x20\n      add\n      0x00\n      keccak256\n        /* \"crowd_funding.sol\":1957:1983  contributers[msg.sender]=0 */\n      dup2\n      swap1\n      sstore\n      pop\n        /* \"crowd_funding.sol\":1624:1991  {\r... */\n      pop\n        /* \"crowd_funding.sol\":1600:1991  function refund() public{\r... */\n      jump\t// out\n        /* \"crowd_funding.sol\":976:1482  function sedEth() public payable{\r... */\n    tag_39:\n        /* \"crowd_funding.sol\":1043:1051  deadline */\n      sload(0x02)\n        /* \"crowd_funding.sol\":1027:1042  block.timestamp */\n      timestamp\n        /* \"crowd_funding.sol\":1027:1051  block.timestamp<deadline */\n      lt\n        /* \"crowd_funding.sol\":1019:1074  require(block.timestamp<deadline,\"deadline has passed\") */\n      tag_76\n      jumpi\n      mload(0x40)\n      0x08c379a000000000000000000000000000000000000000000000000000000000\n      dup2\n      mstore\n      0x04\n      add\n      tag_77\n      swap1\n      tag_78\n      jump\t// in\n    tag_77:\n      mload(0x40)\n      dup1\n      swap2\n      sub\n      swap1\n      revert\n    tag_76:\n        /* \"crowd_funding.sol\":1104:1123  minimumContribution */\n      sload(0x06)\n        /* \"crowd_funding.sol\":1093:1102  msg.value */\n      callvalue\n        /* \"crowd_funding.sol\":1093:1123  msg.value>=minimumContribution */\n      lt\n      iszero\n        /* \"crowd_funding.sol\":1085:1157  require(msg.value>=minimumContribution,\"minimun Contrbution is not met\") */\n      tag_79\n      jumpi\n      mload(0x40)\n      0x08c379a000000000000000000000000000000000000000000000000000000000\n      dup2\n      mstore\n      0x04\n      add\n      tag_80\n      swap1\n      tag_81\n      jump\t// in\n    tag_80:\n      mload(0x40)\n      dup1\n      swap2\n      sub\n      swap1\n      revert\n    tag_79:\n        /* \"crowd_funding.sol\":1199:1200  0 */\n      0x00\n        /* \"crowd_funding.sol\":1173:1185  contributers */\n      dup1\n        /* \"crowd_funding.sol\":1173:1197  contributers[msg.sender] */\n      0x00\n        /* \"crowd_funding.sol\":1186:1196  msg.sender */\n      caller\n        /* \"crowd_funding.sol\":1173:1197  contributers[msg.sender] */\n      0xffffffffffffffffffffffffffffffffffffffff\n      and\n      0xffffffffffffffffffffffffffffffffffffffff\n      and\n      dup2\n      mstore\n      0x20\n      add\n      swap1\n      dup2\n      mstore\n      0x20\n      add\n      0x00\n      keccak256\n      sload\n        /* \"crowd_funding.sol\":1173:1200  contributers[msg.sender]==0 */\n      eq\n        /* \"crowd_funding.sol\":1170:1395  if(contributers[msg.sender]==0){ \r... */\n      iszero\n      tag_82\n      jumpi\n        /* \"crowd_funding.sol\":1365:1381  noOfContributers */\n      0x05\n      0x00\n        /* \"crowd_funding.sol\":1365:1383  noOfContributers++ */\n      dup2\n      sload\n      dup1\n      swap3\n      swap2\n      swap1\n      tag_83\n      swap1\n      tag_84\n      jump\t// in\n    tag_83:\n      swap2\n      swap1\n      pop\n      sstore\n      pop\n        /* \"crowd_funding.sol\":1170:1395  if(contributers[msg.sender]==0){ \r... */\n    tag_82:\n        /* \"crowd_funding.sol\":1431:1440  msg.value */\n      callvalue\n        /* \"crowd_funding.sol\":1405:1417  contributers */\n      0x00\n        /* \"crowd_funding.sol\":1405:1429  contributers[msg.sender] */\n      dup1\n        /* \"crowd_funding.sol\":1418:1428  msg.sender */\n      caller\n        /* \"crowd_funding.sol\":1405:1429  contributers[msg.sender] */\n      0xffffffffffffffffffffffffffffffffffffffff\n      and\n      0xffffffffffffffffffffffffffffffffffffffff\n      and\n      dup2\n      mstore\n      0x20\n      add\n      swap1\n      dup2\n      mstore\n      0x20\n      add\n      0x00\n      keccak256\n      0x00\n        /* \"crowd_funding.sol\":1405:1440  contributers[msg.sender]+=msg.value */\n      dup3\n      dup3\n      sload\n      tag_85\n      swap2\n      swap1\n      tag_86\n      jump\t// in\n    tag_85:\n      swap3\n      pop\n      pop\n      dup2\n      swap1\n      sstore\n      pop\n        /* \"crowd_funding.sol\":1465:1474  msg.value */\n      callvalue\n        /* \"crowd_funding.sol\":1451:1463  raisedAmount */\n      0x04\n      0x00\n        /* \"crowd_funding.sol\":1451:1474  raisedAmount+=msg.value */\n      dup3\n      dup3\n      sload\n      tag_87\n      swap2\n      swap1\n      tag_86\n      jump\t// in\n    tag_87:\n      swap3\n      pop\n      pop\n      dup2\n      swap1\n      sstore\n      pop\n        /* \"crowd_funding.sol\":976:1482  function sedEth() public payable{\r... */\n      jump\t// out\n        /* \"crowd_funding.sol\":1490:1592  function getContractBalance() public view returns(uint){\r... */\n    tag_42:\n        /* \"crowd_funding.sol\":1540:1544  uint */\n      0x00\n        /* \"crowd_funding.sol\":1563:1584  address(this).balance */\n      selfbalance\n        /* \"crowd_funding.sol\":1556:1584  return address(this).balance */\n      swap1\n      pop\n        /* \"crowd_funding.sol\":1490:1592  function getContractBalance() public view returns(uint){\r... */\n      swap1\n      jump\t// out\n        /* \"crowd_funding.sol\":301:332  uint public minimumContribution */\n    tag_46:\n      sload(0x06)\n      dup2\n      jump\t// out\n        /* \"crowd_funding.sol\":641:664  uint public numRequests */\n    tag_50:\n      sload(0x08)\n      dup2\n      jump\t// out\n        /* \"crowd_funding.sol\":235:259  uint public raisedAmount */\n    tag_54:\n      sload(0x04)\n      dup2\n      jump\t// out\n        /* \"crowd_funding.sol\":210:228  uint public target */\n    tag_58:\n      sload(0x03)\n      dup2\n      jump\t// out\n        /* \"crowd_funding.sol\":546:583  mapping(uint=>Request) public requets */\n    tag_64:\n      mstore(0x20, 0x07)\n      dup1\n      0x00\n      mstore\n      keccak256(0x00, 0x40)\n      0x00\n      swap2\n      pop\n      swap1\n      pop\n      dup1\n      0x00\n      add\n      dup1\n      sload\n      tag_89\n      swap1\n      tag_90\n      jump\t// in\n    tag_89:\n      dup1\n      0x1f\n      add\n      0x20\n      dup1\n      swap2\n      div\n      mul\n      0x20\n      add\n      mload(0x40)\n      swap1\n      dup2\n      add\n      0x40\n      mstore\n      dup1\n      swap3\n      swap2\n      swap1\n      dup2\n      dup2\n      mstore\n      0x20\n      add\n      dup3\n      dup1\n      sload\n      tag_91\n      swap1\n      tag_90\n      jump\t// in\n    tag_91:\n      dup1\n      iszero\n      tag_92\n      jumpi\n      dup1\n      0x1f\n      lt\n      tag_93\n      jumpi\n      0x0100\n      dup1\n      dup4\n      sload\n      div\n      mul\n      dup4\n      mstore\n      swap2\n      0x20\n      add\n      swap2\n      jump(tag_92)\n    tag_93:\n      dup3\n      add\n      swap2\n      swap1\n      0x00\n      mstore\n      keccak256(0x00, 0x20)\n      swap1\n    tag_94:\n      dup2\n      sload\n      dup2\n      mstore\n      swap1\n      0x01\n      add\n      swap1\n      0x20\n      add\n      dup1\n      dup4\n      gt\n      tag_94\n      jumpi\n      dup3\n      swap1\n      sub\n      0x1f\n      and\n      dup3\n      add\n      swap2\n    tag_92:\n      pop\n      pop\n      pop\n      pop\n      pop\n      swap1\n      dup1\n      0x01\n      add\n      0x00\n      swap1\n      sload\n      swap1\n      0x0100\n      exp\n      swap1\n      div\n      0xffffffffffffffffffffffffffffffffffffffff\n      and\n      swap1\n      dup1\n      0x02\n      add\n      sload\n      swap1\n      dup1\n      0x03\n      add\n      0x00\n      swap1\n      sload\n      swap1\n      0x0100\n      exp\n      swap1\n      div\n      0xff\n      and\n      swap1\n      dup1\n      0x04\n      add\n      sload\n      swap1\n      pop\n      dup6\n      jump\t// out\n        /* \"#utility.yul\":7:146   */\n    tag_96:\n        /* \"#utility.yul\":53:58   */\n      0x00\n        /* \"#utility.yul\":91:97   */\n      dup2\n        /* \"#utility.yul\":78:98   */\n      calldataload\n        /* \"#utility.yul\":69:98   */\n      swap1\n      pop\n        /* \"#utility.yul\":107:140   */\n      tag_98\n        /* \"#utility.yul\":134:139   */\n      dup2\n        /* \"#utility.yul\":107:140   */\n      tag_99\n      jump\t// in\n    tag_98:\n        /* \"#utility.yul\":7:146   */\n      swap3\n      swap2\n      pop\n      pop\n      jump\t// out\n        /* \"#utility.yul\":152:291   */\n    tag_100:\n        /* \"#utility.yul\":198:203   */\n      0x00\n        /* \"#utility.yul\":236:242   */\n      dup2\n        /* \"#utility.yul\":223:243   */\n      calldataload\n        /* \"#utility.yul\":214:243   */\n      swap1\n      pop\n        /* \"#utility.yul\":252:285   */\n      tag_102\n        /* \"#utility.yul\":279:284   */\n      dup2\n        /* \"#utility.yul\":252:285   */\n      tag_103\n      jump\t// in\n    tag_102:\n        /* \"#utility.yul\":152:291   */\n      swap3\n      swap2\n      pop\n      pop\n      jump\t// out\n        /* \"#utility.yul\":297:626   */\n    tag_27:\n        /* \"#utility.yul\":356:362   */\n      0x00\n        /* \"#utility.yul\":405:407   */\n      0x20\n        /* \"#utility.yul\":393:402   */\n      dup3\n        /* \"#utility.yul\":384:391   */\n      dup5\n        /* \"#utility.yul\":380:403   */\n      sub\n        /* \"#utility.yul\":376:408   */\n      slt\n        /* \"#utility.yul\":373:492   */\n      iszero\n      tag_105\n      jumpi\n        /* \"#utility.yul\":411:490   */\n      tag_106\n      tag_107\n      jump\t// in\n    tag_106:\n        /* \"#utility.yul\":373:492   */\n    tag_105:\n        /* \"#utility.yul\":531:532   */\n      0x00\n        /* \"#utility.yul\":556:609   */\n      tag_108\n        /* \"#utility.yul\":601:608   */\n      dup5\n        /* \"#utility.yul\":592:598   */\n      dup3\n        /* \"#utility.yul\":581:590   */\n      dup6\n        /* \"#utility.yul\":577:599   */\n      add\n        /* \"#utility.yul\":556:609   */\n      tag_96\n      jump\t// in\n    tag_108:\n        /* \"#utility.yul\":546:609   */\n      swap2\n      pop\n        /* \"#utility.yul\":502:619   */\n      pop\n        /* \"#utility.yul\":297:626   */\n      swap3\n      swap2\n      pop\n      pop\n      jump\t// out\n        /* \"#utility.yul\":632:961   */\n    tag_63:\n        /* \"#utility.yul\":691:697   */\n      0x00\n        /* \"#utility.yul\":740:742   */\n      0x20\n        /* \"#utility.yul\":728:737   */\n      dup3\n        /* \"#utility.yul\":719:726   */\n      dup5\n        /* \"#utility.yul\":715:738   */\n      sub\n        /* \"#utility.yul\":711:743   */\n      slt\n        /* \"#utility.yul\":708:827   */\n      iszero\n      tag_110\n      jumpi\n        /* \"#utility.yul\":746:825   */\n      tag_111\n      tag_107\n      jump\t// in\n    tag_111:\n        /* \"#utility.yul\":708:827   */\n    tag_110:\n        /* \"#utility.yul\":866:867   */\n      0x00\n        /* \"#utility.yul\":891:944   */\n      tag_112\n        /* \"#utility.yul\":936:943   */\n      dup5\n        /* \"#utility.yul\":927:933   */\n      dup3\n        /* \"#utility.yul\":916:925   */\n      dup6\n        /* \"#utility.yul\":912:934   */\n      add\n        /* \"#utility.yul\":891:944   */\n      tag_100\n      jump\t// in\n    tag_112:\n        /* \"#utility.yul\":881:944   */\n      swap2\n      pop\n        /* \"#utility.yul\":837:954   */\n      pop\n        /* \"#utility.yul\":632:961   */\n      swap3\n      swap2\n      pop\n      pop\n      jump\t// out\n        /* \"#utility.yul\":967:1109   */\n    tag_113:\n        /* \"#utility.yul\":1070:1102   */\n      tag_115\n        /* \"#utility.yul\":1096:1101   */\n      dup2\n        /* \"#utility.yul\":1070:1102   */\n      tag_116\n      jump\t// in\n    tag_115:\n        /* \"#utility.yul\":1065:1068   */\n      dup3\n        /* \"#utility.yul\":1058:1103   */\n      mstore\n        /* \"#utility.yul\":967:1109   */\n      pop\n      pop\n      jump\t// out\n        /* \"#utility.yul\":1115:1233   */\n    tag_117:\n        /* \"#utility.yul\":1202:1226   */\n      tag_119\n        /* \"#utility.yul\":1220:1225   */\n      dup2\n        /* \"#utility.yul\":1202:1226   */\n      tag_120\n      jump\t// in\n    tag_119:\n        /* \"#utility.yul\":1197:1200   */\n      dup3\n        /* \"#utility.yul\":1190:1227   */\n      mstore\n        /* \"#utility.yul\":1115:1233   */\n      pop\n      pop\n      jump\t// out\n        /* \"#utility.yul\":1239:1348   */\n    tag_121:\n        /* \"#utility.yul\":1320:1341   */\n      tag_123\n        /* \"#utility.yul\":1335:1340   */\n      dup2\n        /* \"#utility.yul\":1320:1341   */\n      tag_124\n      jump\t// in\n    tag_123:\n        /* \"#utility.yul\":1315:1318   */\n      dup3\n        /* \"#utility.yul\":1308:1342   */\n      mstore\n        /* \"#utility.yul\":1239:1348   */\n      pop\n      pop\n      jump\t// out\n        /* \"#utility.yul\":1354:1718   */\n    tag_125:\n        /* \"#utility.yul\":1442:1445   */\n      0x00\n        /* \"#utility.yul\":1470:1509   */\n      tag_127\n        /* \"#utility.yul\":1503:1508   */\n      dup3\n        /* \"#utility.yul\":1470:1509   */\n      tag_128\n      jump\t// in\n    tag_127:\n        /* \"#utility.yul\":1525:1596   */\n      tag_129\n        /* \"#utility.yul\":1589:1595   */\n      dup2\n        /* \"#utility.yul\":1584:1587   */\n      dup6\n        /* \"#utility.yul\":1525:1596   */\n      tag_130\n      jump\t// in\n    tag_129:\n        /* \"#utility.yul\":1518:1596   */\n      swap4\n      pop\n        /* \"#utility.yul\":1605:1657   */\n      tag_131\n        /* \"#utility.yul\":1650:1656   */\n      dup2\n        /* \"#utility.yul\":1645:1648   */\n      dup6\n        /* \"#utility.yul\":1638:1642   */\n      0x20\n        /* \"#utility.yul\":1631:1636   */\n      dup7\n        /* \"#utility.yul\":1627:1643   */\n      add\n        /* \"#utility.yul\":1605:1657   */\n      tag_132\n      jump\t// in\n    tag_131:\n        /* \"#utility.yul\":1682:1711   */\n      tag_133\n        /* \"#utility.yul\":1704:1710   */\n      dup2\n        /* \"#utility.yul\":1682:1711   */\n      tag_134\n      jump\t// in\n    tag_133:\n        /* \"#utility.yul\":1677:1680   */\n      dup5\n        /* \"#utility.yul\":1673:1712   */\n      add\n        /* \"#utility.yul\":1666:1712   */\n      swap2\n      pop\n        /* \"#utility.yul\":1446:1718   */\n      pop\n        /* \"#utility.yul\":1354:1718   */\n      swap3\n      swap2\n      pop\n      pop\n      jump\t// out\n        /* \"#utility.yul\":1724:2090   */\n    tag_135:\n        /* \"#utility.yul\":1866:1869   */\n      0x00\n        /* \"#utility.yul\":1887:1954   */\n      tag_137\n        /* \"#utility.yul\":1951:1953   */\n      0x1e\n        /* \"#utility.yul\":1946:1949   */\n      dup4\n        /* \"#utility.yul\":1887:1954   */\n      tag_130\n      jump\t// in\n    tag_137:\n        /* \"#utility.yul\":1880:1954   */\n      swap2\n      pop\n        /* \"#utility.yul\":1963:2056   */\n      tag_138\n        /* \"#utility.yul\":2052:2055   */\n      dup3\n        /* \"#utility.yul\":1963:2056   */\n      tag_139\n      jump\t// in\n    tag_138:\n        /* \"#utility.yul\":2081:2083   */\n      0x20\n        /* \"#utility.yul\":2076:2079   */\n      dup3\n        /* \"#utility.yul\":2072:2084   */\n      add\n        /* \"#utility.yul\":2065:2084   */\n      swap1\n      pop\n        /* \"#utility.yul\":1724:2090   */\n      swap2\n      swap1\n      pop\n      jump\t// out\n        /* \"#utility.yul\":2096:2462   */\n    tag_140:\n        /* \"#utility.yul\":2238:2241   */\n      0x00\n        /* \"#utility.yul\":2259:2326   */\n      tag_142\n        /* \"#utility.yul\":2323:2325   */\n      0x13\n        /* \"#utility.yul\":2318:2321   */\n      dup4\n        /* \"#utility.yul\":2259:2326   */\n      tag_130\n      jump\t// in\n    tag_142:\n        /* \"#utility.yul\":2252:2326   */\n      swap2\n      pop\n        /* \"#utility.yul\":2335:2428   */\n      tag_143\n        /* \"#utility.yul\":2424:2427   */\n      dup3\n        /* \"#utility.yul\":2335:2428   */\n      tag_144\n      jump\t// in\n    tag_143:\n        /* \"#utility.yul\":2453:2455   */\n      0x20\n        /* \"#utility.yul\":2448:2451   */\n      dup3\n        /* \"#utility.yul\":2444:2456   */\n      add\n        /* \"#utility.yul\":2437:2456   */\n      swap1\n      pop\n        /* \"#utility.yul\":2096:2462   */\n      swap2\n      swap1\n      pop\n      jump\t// out\n        /* \"#utility.yul\":2468:2834   */\n    tag_145:\n        /* \"#utility.yul\":2610:2613   */\n      0x00\n        /* \"#utility.yul\":2631:2698   */\n      tag_147\n        /* \"#utility.yul\":2695:2697   */\n      0x1f\n        /* \"#utility.yul\":2690:2693   */\n      dup4\n        /* \"#utility.yul\":2631:2698   */\n      tag_130\n      jump\t// in\n    tag_147:\n        /* \"#utility.yul\":2624:2698   */\n      swap2\n      pop\n        /* \"#utility.yul\":2707:2800   */\n      tag_148\n        /* \"#utility.yul\":2796:2799   */\n      dup3\n        /* \"#utility.yul\":2707:2800   */\n      tag_149\n      jump\t// in\n    tag_148:\n        /* \"#utility.yul\":2825:2827   */\n      0x20\n        /* \"#utility.yul\":2820:2823   */\n      dup3\n        /* \"#utility.yul\":2816:2828   */\n      add\n        /* \"#utility.yul\":2809:2828   */\n      swap1\n      pop\n        /* \"#utility.yul\":2468:2834   */\n      swap2\n      swap1\n      pop\n      jump\t// out\n        /* \"#utility.yul\":2840:2958   */\n    tag_150:\n        /* \"#utility.yul\":2927:2951   */\n      tag_152\n        /* \"#utility.yul\":2945:2950   */\n      dup2\n        /* \"#utility.yul\":2927:2951   */\n      tag_153\n      jump\t// in\n    tag_152:\n        /* \"#utility.yul\":2922:2925   */\n      dup3\n        /* \"#utility.yul\":2915:2952   */\n      mstore\n        /* \"#utility.yul\":2840:2958   */\n      pop\n      pop\n      jump\t// out\n        /* \"#utility.yul\":2964:3186   */\n    tag_34:\n        /* \"#utility.yul\":3057:3061   */\n      0x00\n        /* \"#utility.yul\":3095:3097   */\n      0x20\n        /* \"#utility.yul\":3084:3093   */\n      dup3\n        /* \"#utility.yul\":3080:3098   */\n      add\n        /* \"#utility.yul\":3072:3098   */\n      swap1\n      pop\n        /* \"#utility.yul\":3108:3179   */\n      tag_155\n        /* \"#utility.yul\":3176:3177   */\n      0x00\n        /* \"#utility.yul\":3165:3174   */\n      dup4\n        /* \"#utility.yul\":3161:3178   */\n      add\n        /* \"#utility.yul\":3152:3158   */\n      dup5\n        /* \"#utility.yul\":3108:3179   */\n      tag_117\n      jump\t// in\n    tag_155:\n        /* \"#utility.yul\":2964:3186   */\n      swap3\n      swap2\n      pop\n      pop\n      jump\t// out\n        /* \"#utility.yul\":3192:3967   */\n    tag_66:\n        /* \"#utility.yul\":3427:3431   */\n      0x00\n        /* \"#utility.yul\":3465:3468   */\n      0xa0\n        /* \"#utility.yul\":3454:3463   */\n      dup3\n        /* \"#utility.yul\":3450:3469   */\n      add\n        /* \"#utility.yul\":3442:3469   */\n      swap1\n      pop\n        /* \"#utility.yul\":3515:3524   */\n      dup2\n        /* \"#utility.yul\":3509:3513   */\n      dup2\n        /* \"#utility.yul\":3505:3525   */\n      sub\n        /* \"#utility.yul\":3501:3502   */\n      0x00\n        /* \"#utility.yul\":3490:3499   */\n      dup4\n        /* \"#utility.yul\":3486:3503   */\n      add\n        /* \"#utility.yul\":3479:3526   */\n      mstore\n        /* \"#utility.yul\":3543:3621   */\n      tag_157\n        /* \"#utility.yul\":3616:3620   */\n      dup2\n        /* \"#utility.yul\":3607:3613   */\n      dup9\n        /* \"#utility.yul\":3543:3621   */\n      tag_125\n      jump\t// in\n    tag_157:\n        /* \"#utility.yul\":3535:3621   */\n      swap1\n      pop\n        /* \"#utility.yul\":3631:3719   */\n      tag_158\n        /* \"#utility.yul\":3715:3717   */\n      0x20\n        /* \"#utility.yul\":3704:3713   */\n      dup4\n        /* \"#utility.yul\":3700:3718   */\n      add\n        /* \"#utility.yul\":3691:3697   */\n      dup8\n        /* \"#utility.yul\":3631:3719   */\n      tag_113\n      jump\t// in\n    tag_158:\n        /* \"#utility.yul\":3729:3801   */\n      tag_159\n        /* \"#utility.yul\":3797:3799   */\n      0x40\n        /* \"#utility.yul\":3786:3795   */\n      dup4\n        /* \"#utility.yul\":3782:3800   */\n      add\n        /* \"#utility.yul\":3773:3779   */\n      dup7\n        /* \"#utility.yul\":3729:3801   */\n      tag_150\n      jump\t// in\n    tag_159:\n        /* \"#utility.yul\":3811:3877   */\n      tag_160\n        /* \"#utility.yul\":3873:3875   */\n      0x60\n        /* \"#utility.yul\":3862:3871   */\n      dup4\n        /* \"#utility.yul\":3858:3876   */\n      add\n        /* \"#utility.yul\":3849:3855   */\n      dup6\n        /* \"#utility.yul\":3811:3877   */\n      tag_121\n      jump\t// in\n    tag_160:\n        /* \"#utility.yul\":3887:3960   */\n      tag_161\n        /* \"#utility.yul\":3955:3958   */\n      0x80\n        /* \"#utility.yul\":3944:3953   */\n      dup4\n        /* \"#utility.yul\":3940:3959   */\n      add\n        /* \"#utility.yul\":3931:3937   */\n      dup5\n        /* \"#utility.yul\":3887:3960   */\n      tag_150\n      jump\t// in\n    tag_161:\n        /* \"#utility.yul\":3192:3967   */\n      swap7\n      swap6\n      pop\n      pop\n      pop\n      pop\n      pop\n      pop\n      jump\t// out\n        /* \"#utility.yul\":3973:4392   */\n    tag_81:\n        /* \"#utility.yul\":4139:4143   */\n      0x00\n        /* \"#utility.yul\":4177:4179   */\n      0x20\n        /* \"#utility.yul\":4166:4175   */\n      dup3\n        /* \"#utility.yul\":4162:4180   */\n      add\n        /* \"#utility.yul\":4154:4180   */\n      swap1\n      pop\n        /* \"#utility.yul\":4226:4235   */\n      dup2\n        /* \"#utility.yul\":4220:4224   */\n      dup2\n        /* \"#utility.yul\":4216:4236   */\n      sub\n        /* \"#utility.yul\":4212:4213   */\n      0x00\n        /* \"#utility.yul\":4201:4210   */\n      dup4\n        /* \"#utility.yul\":4197:4214   */\n      add\n        /* \"#utility.yul\":4190:4237   */\n      mstore\n        /* \"#utility.yul\":4254:4385   */\n      tag_163\n        /* \"#utility.yul\":4380:4384   */\n      dup2\n        /* \"#utility.yul\":4254:4385   */\n      tag_135\n      jump\t// in\n    tag_163:\n        /* \"#utility.yul\":4246:4385   */\n      swap1\n      pop\n        /* \"#utility.yul\":3973:4392   */\n      swap2\n      swap1\n      pop\n      jump\t// out\n        /* \"#utility.yul\":4398:4817   */\n    tag_78:\n        /* \"#utility.yul\":4564:4568   */\n      0x00\n        /* \"#utility.yul\":4602:4604   */\n      0x20\n        /* \"#utility.yul\":4591:4600   */\n      dup3\n        /* \"#utility.yul\":4587:4605   */\n      add\n        /* \"#utility.yul\":4579:4605   */\n      swap1\n      pop\n        /* \"#utility.yul\":4651:4660   */\n      dup2\n        /* \"#utility.yul\":4645:4649   */\n      dup2\n        /* \"#utility.yul\":4641:4661   */\n      sub\n        /* \"#utility.yul\":4637:4638   */\n      0x00\n        /* \"#utility.yul\":4626:4635   */\n      dup4\n        /* \"#utility.yul\":4622:4639   */\n      add\n        /* \"#utility.yul\":4615:4662   */\n      mstore\n        /* \"#utility.yul\":4679:4810   */\n      tag_165\n        /* \"#utility.yul\":4805:4809   */\n      dup2\n        /* \"#utility.yul\":4679:4810   */\n      tag_140\n      jump\t// in\n    tag_165:\n        /* \"#utility.yul\":4671:4810   */\n      swap1\n      pop\n        /* \"#utility.yul\":4398:4817   */\n      swap2\n      swap1\n      pop\n      jump\t// out\n        /* \"#utility.yul\":4823:5242   */\n    tag_71:\n        /* \"#utility.yul\":4989:4993   */\n      0x00\n        /* \"#utility.yul\":5027:5029   */\n      0x20\n        /* \"#utility.yul\":5016:5025   */\n      dup3\n        /* \"#utility.yul\":5012:5030   */\n      add\n        /* \"#utility.yul\":5004:5030   */\n      swap1\n      pop\n        /* \"#utility.yul\":5076:5085   */\n      dup2\n        /* \"#utility.yul\":5070:5074   */\n      dup2\n        /* \"#utility.yul\":5066:5086   */\n      sub\n        /* \"#utility.yul\":5062:5063   */\n      0x00\n        /* \"#utility.yul\":5051:5060   */\n      dup4\n        /* \"#utility.yul\":5047:5064   */\n      add\n        /* \"#utility.yul\":5040:5087   */\n      mstore\n        /* \"#utility.yul\":5104:5235   */\n      tag_167\n        /* \"#utility.yul\":5230:5234   */\n      dup2\n        /* \"#utility.yul\":5104:5235   */\n      tag_145\n      jump\t// in\n    tag_167:\n        /* \"#utility.yul\":5096:5235   */\n      swap1\n      pop\n        /* \"#utility.yul\":4823:5242   */\n      swap2\n      swap1\n      pop\n      jump\t// out\n        /* \"#utility.yul\":5248:5470   */\n    tag_19:\n        /* \"#utility.yul\":5341:5345   */\n      0x00\n        /* \"#utility.yul\":5379:5381   */\n      0x20\n        /* \"#utility.yul\":5368:5377   */\n      dup3\n        /* \"#utility.yul\":5364:5382   */\n      add\n        /* \"#utility.yul\":5356:5382   */\n      swap1\n      pop\n        /* \"#utility.yul\":5392:5463   */\n      tag_169\n        /* \"#utility.yul\":5460:5461   */\n      0x00\n        /* \"#utility.yul\":5449:5458   */\n      dup4\n        /* \"#utility.yul\":5445:5462   */\n      add\n        /* \"#utility.yul\":5436:5442   */\n      dup5\n        /* \"#utility.yul\":5392:5463   */\n      tag_150\n      jump\t// in\n    tag_169:\n        /* \"#utility.yul\":5248:5470   */\n      swap3\n      swap2\n      pop\n      pop\n      jump\t// out\n        /* \"#utility.yul\":5557:5656   */\n    tag_128:\n        /* \"#utility.yul\":5609:5615   */\n      0x00\n        /* \"#utility.yul\":5643:5648   */\n      dup2\n        /* \"#utility.yul\":5637:5649   */\n      mload\n        /* \"#utility.yul\":5627:5649   */\n      swap1\n      pop\n        /* \"#utility.yul\":5557:5656   */\n      swap2\n      swap1\n      pop\n      jump\t// out\n        /* \"#utility.yul\":5662:5831   */\n    tag_130:\n        /* \"#utility.yul\":5746:5757   */\n      0x00\n        /* \"#utility.yul\":5780:5786   */\n      dup3\n        /* \"#utility.yul\":5775:5778   */\n      dup3\n        /* \"#utility.yul\":5768:5787   */\n      mstore\n        /* \"#utility.yul\":5820:5824   */\n      0x20\n        /* \"#utility.yul\":5815:5818   */\n      dup3\n        /* \"#utility.yul\":5811:5825   */\n      add\n        /* \"#utility.yul\":5796:5825   */\n      swap1\n      pop\n        /* \"#utility.yul\":5662:5831   */\n      swap3\n      swap2\n      pop\n      pop\n      jump\t// out\n        /* \"#utility.yul\":5837:6142   */\n    tag_86:\n        /* \"#utility.yul\":5877:5880   */\n      0x00\n        /* \"#utility.yul\":5896:5916   */\n      tag_175\n        /* \"#utility.yul\":5914:5915   */\n      dup3\n        /* \"#utility.yul\":5896:5916   */\n      tag_153\n      jump\t// in\n    tag_175:\n        /* \"#utility.yul\":5891:5916   */\n      swap2\n      pop\n        /* \"#utility.yul\":5930:5950   */\n      tag_176\n        /* \"#utility.yul\":5948:5949   */\n      dup4\n        /* \"#utility.yul\":5930:5950   */\n      tag_153\n      jump\t// in\n    tag_176:\n        /* \"#utility.yul\":5925:5950   */\n      swap3\n      pop\n        /* \"#utility.yul\":6084:6085   */\n      dup3\n        /* \"#utility.yul\":6016:6082   */\n      0xffffffffffffffffffffffffffffffffffffffffffffffffffffffffffffffff\n        /* \"#utility.yul\":6012:6086   */\n      sub\n        /* \"#utility.yul\":6009:6010   */\n      dup3\n        /* \"#utility.yul\":6006:6087   */\n      gt\n        /* \"#utility.yul\":6003:6110   */\n      iszero\n      tag_177\n      jumpi\n        /* \"#utility.yul\":6090:6108   */\n      tag_178\n      tag_179\n      jump\t// in\n    tag_178:\n        /* \"#utility.yul\":6003:6110   */\n    tag_177:\n        /* \"#utility.yul\":6134:6135   */\n      dup3\n        /* \"#utility.yul\":6131:6132   */\n      dup3\n        /* \"#utility.yul\":6127:6136   */\n      add\n        /* \"#utility.yul\":6120:6136   */\n      swap1\n      pop\n        /* \"#utility.yul\":5837:6142   */\n      swap3\n      swap2\n      pop\n      pop\n      jump\t// out\n        /* \"#utility.yul\":6148:6244   */\n    tag_120:\n        /* \"#utility.yul\":6185:6192   */\n      0x00\n        /* \"#utility.yul\":6214:6238   */\n      tag_181\n        /* \"#utility.yul\":6232:6237   */\n      dup3\n        /* \"#utility.yul\":6214:6238   */\n      tag_182\n      jump\t// in\n    tag_181:\n        /* \"#utility.yul\":6203:6238   */\n      swap1\n      pop\n        /* \"#utility.yul\":6148:6244   */\n      swap2\n      swap1\n      pop\n      jump\t// out\n        /* \"#utility.yul\":6250:6354   */\n    tag_116:\n        /* \"#utility.yul\":6295:6302   */\n      0x00\n        /* \"#utility.yul\":6324:6348   */\n      tag_184\n        /* \"#utility.yul\":6342:6347   */\n      dup3\n        /* \"#utility.yul\":6324:6348   */\n      tag_182\n      jump\t// in\n    tag_184:\n        /* \"#utility.yul\":6313:6348   */\n      swap1\n      pop\n        /* \"#utility.yul\":6250:6354   */\n      swap2\n      swap1\n      pop\n      jump\t// out\n        /* \"#utility.yul\":6360:6450   */\n    tag_124:\n        /* \"#utility.yul\":6394:6401   */\n      0x00\n        /* \"#utility.yul\":6437:6442   */\n      dup2\n        /* \"#utility.yul\":6430:6443   */\n      iszero\n        /* \"#utility.yul\":6423:6444   */\n      iszero\n        /* \"#utility.yul\":6412:6444   */\n      swap1\n      pop\n        /* \"#utility.yul\":6360:6450   */\n      swap2\n      swap1\n      pop\n      jump\t// out\n        /* \"#utility.yul\":6456:6582   */\n    tag_182:\n        /* \"#utility.yul\":6493:6500   */\n      0x00\n        /* \"#utility.yul\":6533:6575   */\n      0xffffffffffffffffffffffffffffffffffffffff\n        /* \"#utility.yul\":6526:6531   */\n      dup3\n        /* \"#utility.yul\":6522:6576   */\n      and\n        /* \"#utility.yul\":6511:6576   */\n      swap1\n      pop\n        /* \"#utility.yul\":6456:6582   */\n      swap2\n      swap1\n      pop\n      jump\t// out\n        /* \"#utility.yul\":6588:6665   */\n    tag_153:\n        /* \"#utility.yul\":6625:6632   */\n      0x00\n        /* \"#utility.yul\":6654:6659   */\n      dup2\n        /* \"#utility.yul\":6643:6659   */\n      swap1\n      pop\n        /* \"#utility.yul\":6588:6665   */\n      swap2\n      swap1\n      pop\n      jump\t// out\n        /* \"#utility.yul\":6671:6978   */\n    tag_132:\n        /* \"#utility.yul\":6739:6740   */\n      0x00\n        /* \"#utility.yul\":6749:6862   */\n    tag_189:\n        /* \"#utility.yul\":6763:6769   */\n      dup4\n        /* \"#utility.yul\":6760:6761   */\n      dup2\n        /* \"#utility.yul\":6757:6770   */\n      lt\n        /* \"#utility.yul\":6749:6862   */\n      iszero\n      tag_191\n      jumpi\n        /* \"#utility.yul\":6848:6849   */\n      dup1\n        /* \"#utility.yul\":6843:6846   */\n      dup3\n        /* \"#utility.yul\":6839:6850   */\n      add\n        /* \"#utility.yul\":6833:6851   */\n      mload\n        /* \"#utility.yul\":6829:6830   */\n      dup2\n        /* \"#utility.yul\":6824:6827   */\n      dup5\n        /* \"#utility.yul\":6820:6831   */\n      add\n        /* \"#utility.yul\":6813:6852   */\n      mstore\n        /* \"#utility.yul\":6785:6787   */\n      0x20\n        /* \"#utility.yul\":6782:6783   */\n      dup2\n        /* \"#utility.yul\":6778:6788   */\n      add\n        /* \"#utility.yul\":6773:6788   */\n      swap1\n      pop\n        /* \"#utility.yul\":6749:6862   */\n      jump(tag_189)\n    tag_191:\n        /* \"#utility.yul\":6880:6886   */\n      dup4\n        /* \"#utility.yul\":6877:6878   */\n      dup2\n        /* \"#utility.yul\":6874:6887   */\n      gt\n        /* \"#utility.yul\":6871:6972   */\n      iszero\n      tag_192\n      jumpi\n        /* \"#utility.yul\":6960:6961   */\n      0x00\n        /* \"#utility.yul\":6951:6957   */\n      dup5\n        /* \"#utility.yul\":6946:6949   */\n      dup5\n        /* \"#utility.yul\":6942:6958   */\n      add\n        /* \"#utility.yul\":6935:6962   */\n      mstore\n        /* \"#utility.yul\":6871:6972   */\n    tag_192:\n        /* \"#utility.yul\":6720:6978   */\n      pop\n        /* \"#utility.yul\":6671:6978   */\n      pop\n      pop\n      pop\n      jump\t// out\n        /* \"#utility.yul\":6984:7304   */\n    tag_90:\n        /* \"#utility.yul\":7028:7034   */\n      0x00\n        /* \"#utility.yul\":7065:7066   */\n      0x02\n        /* \"#utility.yul\":7059:7063   */\n      dup3\n        /* \"#utility.yul\":7055:7067   */\n      div\n        /* \"#utility.yul\":7045:7067   */\n      swap1\n      pop\n        /* \"#utility.yul\":7112:7113   */\n      0x01\n        /* \"#utility.yul\":7106:7110   */\n      dup3\n        /* \"#utility.yul\":7102:7114   */\n      and\n        /* \"#utility.yul\":7133:7151   */\n      dup1\n        /* \"#utility.yul\":7123:7204   */\n      tag_194\n      jumpi\n        /* \"#utility.yul\":7189:7193   */\n      0x7f\n        /* \"#utility.yul\":7181:7187   */\n      dup3\n        /* \"#utility.yul\":7177:7194   */\n      and\n        /* \"#utility.yul\":7167:7194   */\n      swap2\n      pop\n        /* \"#utility.yul\":7123:7204   */\n    tag_194:\n        /* \"#utility.yul\":7251:7253   */\n      0x20\n        /* \"#utility.yul\":7243:7249   */\n      dup3\n        /* \"#utility.yul\":7240:7254   */\n      lt\n        /* \"#utility.yul\":7220:7238   */\n      dup2\n        /* \"#utility.yul\":7217:7255   */\n      eq\n        /* \"#utility.yul\":7214:7298   */\n      iszero\n      tag_195\n      jumpi\n        /* \"#utility.yul\":7270:7288   */\n      tag_196\n      tag_197\n      jump\t// in\n    tag_196:\n        /* \"#utility.yul\":7214:7298   */\n    tag_195:\n        /* \"#utility.yul\":7035:7304   */\n      pop\n        /* \"#utility.yul\":6984:7304   */\n      swap2\n      swap1\n      pop\n      jump\t// out\n        /* \"#utility.yul\":7310:7543   */\n    tag_84:\n        /* \"#utility.yul\":7349:7352   */\n      0x00\n        /* \"#utility.yul\":7372:7396   */\n      tag_199\n        /* \"#utility.yul\":7390:7395   */\n      dup3\n        /* \"#utility.yul\":7372:7396   */\n      tag_153\n      jump\t// in\n    tag_199:\n        /* \"#utility.yul\":7363:7396   */\n      swap2\n      pop\n        /* \"#utility.yul\":7418:7484   */\n      0xffffffffffffffffffffffffffffffffffffffffffffffffffffffffffffffff\n        /* \"#utility.yul\":7411:7416   */\n      dup3\n        /* \"#utility.yul\":7408:7485   */\n      eq\n        /* \"#utility.yul\":7405:7508   */\n      iszero\n      tag_200\n      jumpi\n        /* \"#utility.yul\":7488:7506   */\n      tag_201\n      tag_179\n      jump\t// in\n    tag_201:\n        /* \"#utility.yul\":7405:7508   */\n    tag_200:\n        /* \"#utility.yul\":7535:7536   */\n      0x01\n        /* \"#utility.yul\":7528:7533   */\n      dup3\n        /* \"#utility.yul\":7524:7537   */\n      add\n        /* \"#utility.yul\":7517:7537   */\n      swap1\n      pop\n        /* \"#utility.yul\":7310:7543   */\n      swap2\n      swap1\n      pop\n      jump\t// out\n        /* \"#utility.yul\":7549:7729   */\n    tag_179:\n        /* \"#utility.yul\":7597:7674   */\n      0x4e487b7100000000000000000000000000000000000000000000000000000000\n        /* \"#utility.yul\":7594:7595   */\n      0x00\n        /* \"#utility.yul\":7587:7675   */\n      mstore\n        /* \"#utility.yul\":7694:7698   */\n      0x11\n        /* \"#utility.yul\":7691:7692   */\n      0x04\n        /* \"#utility.yul\":7684:7699   */\n      mstore\n        /* \"#utility.yul\":7718:7722   */\n      0x24\n        /* \"#utility.yul\":7715:7716   */\n      0x00\n        /* \"#utility.yul\":7708:7723   */\n      revert\n        /* \"#utility.yul\":7735:7915   */\n    tag_197:\n        /* \"#utility.yul\":7783:7860   */\n      0x4e487b7100000000000000000000000000000000000000000000000000000000\n        /* \"#utility.yul\":7780:7781   */\n      0x00\n        /* \"#utility.yul\":7773:7861   */\n      mstore\n        /* \"#utility.yul\":7880:7884   */\n      0x22\n        /* \"#utility.yul\":7877:7878   */\n      0x04\n        /* \"#utility.yul\":7870:7885   */\n      mstore\n        /* \"#utility.yul\":7904:7908   */\n      0x24\n        /* \"#utility.yul\":7901:7902   */\n      0x00\n        /* \"#utility.yul\":7894:7909   */\n      revert\n        /* \"#utility.yul\":8044:8161   */\n    tag_107:\n        /* \"#utility.yul\":8153:8154   */\n      0x00\n        /* \"#utility.yul\":8150:8151   */\n      dup1\n        /* \"#utility.yul\":8143:8155   */\n      revert\n        /* \"#utility.yul\":8167:8269   */\n    tag_134:\n        /* \"#utility.yul\":8208:8214   */\n      0x00\n        /* \"#utility.yul\":8259:8261   */\n      0x1f\n        /* \"#utility.yul\":8255:8262   */\n      not\n        /* \"#utility.yul\":8250:8252   */\n      0x1f\n        /* \"#utility.yul\":8243:8248   */\n      dup4\n        /* \"#utility.yul\":8239:8253   */\n      add\n        /* \"#utility.yul\":8235:8263   */\n      and\n        /* \"#utility.yul\":8225:8263   */\n      swap1\n      pop\n        /* \"#utility.yul\":8167:8269   */\n      swap2\n      swap1\n      pop\n      jump\t// out\n        /* \"#utility.yul\":8275:8455   */\n    tag_139:\n        /* \"#utility.yul\":8415:8447   */\n      0x6d696e696d756e20436f6e7472627574696f6e206973206e6f74206d65740000\n        /* \"#utility.yul\":8411:8412   */\n      0x00\n        /* \"#utility.yul\":8403:8409   */\n      dup3\n        /* \"#utility.yul\":8399:8413   */\n      add\n        /* \"#utility.yul\":8392:8448   */\n      mstore\n        /* \"#utility.yul\":8275:8455   */\n      pop\n      jump\t// out\n        /* \"#utility.yul\":8461:8630   */\n    tag_144:\n        /* \"#utility.yul\":8601:8622   */\n      0x646561646c696e65206861732070617373656400000000000000000000000000\n        /* \"#utility.yul\":8597:8598   */\n      0x00\n        /* \"#utility.yul\":8589:8595   */\n      dup3\n        /* \"#utility.yul\":8585:8599   */\n      add\n        /* \"#utility.yul\":8578:8623   */\n      mstore\n        /* \"#utility.yul\":8461:8630   */\n      pop\n      jump\t// out\n        /* \"#utility.yul\":8636:8817   */\n    tag_149:\n        /* \"#utility.yul\":8776:8809   */\n      0x796f7520617265206e6f7420656c696769626c6520666f7220726566756e6400\n        /* \"#utility.yul\":8772:8773   */\n      0x00\n        /* \"#utility.yul\":8764:8770   */\n      dup3\n        /* \"#utility.yul\":8760:8774   */\n      add\n        /* \"#utility.yul\":8753:8810   */\n      mstore\n        /* \"#utility.yul\":8636:8817   */\n      pop\n      jump\t// out\n        /* \"#utility.yul\":8823:8945   */\n    tag_99:\n        /* \"#utility.yul\":8896:8920   */\n      tag_212\n        /* \"#utility.yul\":8914:8919   */\n      dup2\n        /* \"#utility.yul\":8896:8920   */\n      tag_120\n      jump\t// in\n    tag_212:\n        /* \"#utility.yul\":8889:8894   */\n      dup2\n        /* \"#utility.yul\":8886:8921   */\n      eq\n        /* \"#utility.yul\":8876:8939   */\n      tag_213\n      jumpi\n        /* \"#utility.yul\":8935:8936   */\n      0x00\n        /* \"#utility.yul\":8932:8933   */\n      dup1\n        /* \"#utility.yul\":8925:8937   */\n      revert\n        /* \"#utility.yul\":8876:8939   */\n    tag_213:\n        /* \"#utility.yul\":8823:8945   */\n      pop\n      jump\t// out\n        /* \"#utility.yul\":8951:9073   */\n    tag_103:\n        /* \"#utility.yul\":9024:9048   */\n      tag_215\n        /* \"#utility.yul\":9042:9047   */\n      dup2\n        /* \"#utility.yul\":9024:9048   */\n      tag_153\n      jump\t// in\n    tag_215:\n        /* \"#utility.yul\":9017:9022   */\n      dup2\n        /* \"#utility.yul\":9014:9049   */\n      eq\n        /* \"#utility.yul\":9004:9067   */\n      tag_216\n      jumpi\n        /* \"#utility.yul\":9063:9064   */\n      0x00\n        /* \"#utility.yul\":9060:9061   */\n      dup1\n        /* \"#utility.yul\":9053:9065   */\n      revert\n        /* \"#utility.yul\":9004:9067   */\n    tag_216:\n        /* \"#utility.yul\":8951:9073   */\n      pop\n      jump\t// out\n\n    auxdata: 0xa2646970667358221220a56dfc9aa8063c66ed060ba5cbb6410ff8e0efeaddc633366920b45c25d3627264736f6c63430008070033\n}\n",
				"bytecode": {
					"linkReferences": {},
					"object": "60806040523480156200001157600080fd5b5060405162000da538038062000da58339818101604052810190620000379190620000ba565b8160038190555080426200004c919062000101565b600281905550606460068190555033600160006101000a81548173ffffffffffffffffffffffffffffffffffffffff021916908373ffffffffffffffffffffffffffffffffffffffff1602179055505050620001b6565b600081519050620000b4816200019c565b92915050565b60008060408385031215620000d457620000d362000197565b5b6000620000e485828601620000a3565b9250506020620000f785828601620000a3565b9150509250929050565b60006200010e826200015e565b91506200011b836200015e565b9250827fffffffffffffffffffffffffffffffffffffffffffffffffffffffffffffffff0382111562000153576200015262000168565b5b828201905092915050565b6000819050919050565b7f4e487b7100000000000000000000000000000000000000000000000000000000600052601160045260246000fd5b600080fd5b620001a7816200015e565b8114620001b357600080fd5b50565b610bdf80620001c66000396000f3fe6080604052600436106100a75760003560e01c80636f9fb98a116100645780636f9fb98a1461018b578063937e09b1146101b65780639fb42b1f146101e1578063c59ee1dc1461020c578063d4b8399214610237578063ff386d3214610262576100a7565b806324274ee9146100ac57806329dcb0cf146100d757806334b6646014610102578063481c6a751461013f578063590e1ae31461016a5780635edec2c414610181575b600080fd5b3480156100b857600080fd5b506100c16102a3565b6040516100ce91906108f7565b60405180910390f35b3480156100e357600080fd5b506100ec6102a9565b6040516100f991906108f7565b60405180910390f35b34801561010e57600080fd5b50610129600480360381019061012491906106ea565b6102af565b60405161013691906108f7565b60405180910390f35b34801561014b57600080fd5b506101546102c7565b6040516101619190610822565b60405180910390f35b34801561017657600080fd5b5061017f6102ed565b005b61018961045c565b005b34801561019757600080fd5b506101a06105b5565b6040516101ad91906108f7565b60405180910390f35b3480156101c257600080fd5b506101cb6105bd565b6040516101d891906108f7565b60405180910390f35b3480156101ed57600080fd5b506101f66105c3565b60405161020391906108f7565b60405180910390f35b34801561021857600080fd5b506102216105c9565b60405161022e91906108f7565b60405180910390f35b34801561024357600080fd5b5061024c6105cf565b60405161025991906108f7565b60405180910390f35b34801561026e57600080fd5b5061028960048036038101906102849190610717565b6105d5565b60405161029a95949392919061083d565b60405180910390f35b60055481565b60025481565b60006020528060005260406000206000915090505481565b600160009054906101000a900473ffffffffffffffffffffffffffffffffffffffff1681565b600254421180156103015750600354600454105b610340576040517f08c379a0000000000000000000000000000000000000000000000000000000008152600401610337906108d7565b60405180910390fd5b60008060003373ffffffffffffffffffffffffffffffffffffffff1673ffffffffffffffffffffffffffffffffffffffff168152602001908152602001600020541161038b57600080fd5b60003390508073ffffffffffffffffffffffffffffffffffffffff166108fc6000803373ffffffffffffffffffffffffffffffffffffffff1673ffffffffffffffffffffffffffffffffffffffff168152602001908152602001600020549081150290604051600060405180830381858888f19350505050158015610414573d6000803e3d6000fd5b5060008060003373ffffffffffffffffffffffffffffffffffffffff1673ffffffffffffffffffffffffffffffffffffffff1681526020019081526020016000208190555050565b60025442106104a0576040517f08c379a0000000000000000000000000000000000000000000000000000000008152600401610497906108b7565b60405180910390fd5b6006543410156104e5576040517f08c379a00000000000000000000000000000000000000000000000000000000081526004016104dc90610897565b60405180910390fd5b60008060003373ffffffffffffffffffffffffffffffffffffffff1673ffffffffffffffffffffffffffffffffffffffff168152602001908152602001600020541415610545576005600081548092919061053f90610a43565b91905055505b346000803373ffffffffffffffffffffffffffffffffffffffff1673ffffffffffffffffffffffffffffffffffffffff1681526020019081526020016000206000828254610593919061092e565b9250508190555034600460008282546105ac919061092e565b92505081905550565b600047905090565b60065481565b60085481565b60045481565b60035481565b60076020528060005260406000206000915090508060000180546105f890610a11565b80601f016020809104026020016040519081016040528092919081815260200182805461062490610a11565b80156106715780601f1061064657610100808354040283529160200191610671565b820191906000526020600020905b81548152906001019060200180831161065457829003601f168201915b5050505050908060010160009054906101000a900473ffffffffffffffffffffffffffffffffffffffff16908060020154908060030160009054906101000a900460ff16908060040154905085565b6000813590506106cf81610b7b565b92915050565b6000813590506106e481610b92565b92915050565b600060208284031215610700576106ff610aea565b5b600061070e848285016106c0565b91505092915050565b60006020828403121561072d5761072c610aea565b5b600061073b848285016106d5565b91505092915050565b61074d81610996565b82525050565b61075c81610984565b82525050565b61076b816109a8565b82525050565b600061077c82610912565b610786818561091d565b93506107968185602086016109de565b61079f81610aef565b840191505092915050565b60006107b7601e8361091d565b91506107c282610b00565b602082019050919050565b60006107da60138361091d565b91506107e582610b29565b602082019050919050565b60006107fd601f8361091d565b915061080882610b52565b602082019050919050565b61081c816109d4565b82525050565b60006020820190506108376000830184610753565b92915050565b600060a08201905081810360008301526108578188610771565b90506108666020830187610744565b6108736040830186610813565b6108806060830185610762565b61088d6080830184610813565b9695505050505050565b600060208201905081810360008301526108b0816107aa565b9050919050565b600060208201905081810360008301526108d0816107cd565b9050919050565b600060208201905081810360008301526108f0816107f0565b9050919050565b600060208201905061090c6000830184610813565b92915050565b600081519050919050565b600082825260208201905092915050565b6000610939826109d4565b9150610944836109d4565b9250827fffffffffffffffffffffffffffffffffffffffffffffffffffffffffffffffff0382111561097957610978610a8c565b5b828201905092915050565b600061098f826109b4565b9050919050565b60006109a1826109b4565b9050919050565b60008115159050919050565b600073ffffffffffffffffffffffffffffffffffffffff82169050919050565b6000819050919050565b60005b838110156109fc5780820151818401526020810190506109e1565b83811115610a0b576000848401525b50505050565b60006002820490506001821680610a2957607f821691505b60208210811415610a3d57610a3c610abb565b5b50919050565b6000610a4e826109d4565b91507fffffffffffffffffffffffffffffffffffffffffffffffffffffffffffffffff821415610a8157610a80610a8c565b5b600182019050919050565b7f4e487b7100000000000000000000000000000000000000000000000000000000600052601160045260246000fd5b7f4e487b7100000000000000000000000000000000000000000000000000000000600052602260045260246000fd5b600080fd5b6000601f19601f8301169050919050565b7f6d696e696d756e20436f6e7472627574696f6e206973206e6f74206d65740000600082015250565b7f646561646c696e65206861732070617373656400000000000000000000000000600082015250565b7f796f7520617265206e6f7420656c696769626c6520666f7220726566756e6400600082015250565b610b8481610984565b8114610b8f57600080fd5b50565b610b9b816109d4565b8114610ba657600080fd5b5056fea2646970667358221220a56dfc9aa8063c66ed060ba5cbb6410ff8e0efeaddc633366920b45c25d3627264736f6c63430008070033",
					"opcodes": "PUSH1 0x80 PUSH1 0x40 MSTORE CALLVALUE DUP1 ISZERO PUSH3 0x11 JUMPI PUSH1 0x0 DUP1 REVERT JUMPDEST POP PUSH1 0x40 MLOAD PUSH3 0xDA5 CODESIZE SUB DUP1 PUSH3 0xDA5 DUP4 CODECOPY DUP2 DUP2 ADD PUSH1 0x40 MSTORE DUP2 ADD SWAP1 PUSH3 0x37 SWAP2 SWAP1 PUSH3 0xBA JUMP JUMPDEST DUP2 PUSH1 0x3 DUP2 SWAP1 SSTORE POP DUP1 TIMESTAMP PUSH3 0x4C SWAP2 SWAP1 PUSH3 0x101 JUMP JUMPDEST PUSH1 0x2 DUP2 SWAP1 SSTORE POP PUSH1 0x64 PUSH1 0x6 DUP2 SWAP1 SSTORE POP CALLER PUSH1 0x1 PUSH1 0x0 PUSH2 0x100 EXP DUP2 SLOAD DUP2 PUSH20 0xFFFFFFFFFFFFFFFFFFFFFFFFFFFFFFFFFFFFFFFF MUL NOT AND SWAP1 DUP4 PUSH20 0xFFFFFFFFFFFFFFFFFFFFFFFFFFFFFFFFFFFFFFFF AND MUL OR SWAP1 SSTORE POP POP POP PUSH3 0x1B6 JUMP JUMPDEST PUSH1 0x0 DUP2 MLOAD SWAP1 POP PUSH3 0xB4 DUP2 PUSH3 0x19C JUMP JUMPDEST SWAP3 SWAP2 POP POP JUMP JUMPDEST PUSH1 0x0 DUP1 PUSH1 0x40 DUP4 DUP6 SUB SLT ISZERO PUSH3 0xD4 JUMPI PUSH3 0xD3 PUSH3 0x197 JUMP JUMPDEST JUMPDEST PUSH1 0x0 PUSH3 0xE4 DUP6 DUP3 DUP7 ADD PUSH3 0xA3 JUMP JUMPDEST SWAP3 POP POP PUSH1 0x20 PUSH3 0xF7 DUP6 DUP3 DUP7 ADD PUSH3 0xA3 JUMP JUMPDEST SWAP2 POP POP SWAP3 POP SWAP3 SWAP1 POP JUMP JUMPDEST PUSH1 0x0 PUSH3 0x10E DUP3 PUSH3 0x15E JUMP JUMPDEST SWAP2 POP PUSH3 0x11B DUP4 PUSH3 0x15E JUMP JUMPDEST SWAP3 POP DUP3 PUSH32 0xFFFFFFFFFFFFFFFFFFFFFFFFFFFFFFFFFFFFFFFFFFFFFFFFFFFFFFFFFFFFFFFF SUB DUP3 GT ISZERO PUSH3 0x153 JUMPI PUSH3 0x152 PUSH3 0x168 JUMP JUMPDEST JUMPDEST DUP3 DUP3 ADD SWAP1 POP SWAP3 SWAP2 POP POP JUMP JUMPDEST PUSH1 0x0 DUP2 SWAP1 POP SWAP2 SWAP1 POP JUMP JUMPDEST PUSH32 0x4E487B7100000000000000000000000000000000000000000000000000000000 PUSH1 0x0 MSTORE PUSH1 0x11 PUSH1 0x4 MSTORE PUSH1 0x24 PUSH1 0x0 REVERT JUMPDEST PUSH1 0x0 DUP1 REVERT JUMPDEST PUSH3 0x1A7 DUP2 PUSH3 0x15E JUMP JUMPDEST DUP2 EQ PUSH3 0x1B3 JUMPI PUSH1 0x0 DUP1 REVERT JUMPDEST POP JUMP JUMPDEST PUSH2 0xBDF DUP1 PUSH3 0x1C6 PUSH1 0x0 CODECOPY PUSH1 0x0 RETURN INVALID PUSH1 0x80 PUSH1 0x40 MSTORE PUSH1 0x4 CALLDATASIZE LT PUSH2 0xA7 JUMPI PUSH1 0x0 CALLDATALOAD PUSH1 0xE0 SHR DUP1 PUSH4 0x6F9FB98A GT PUSH2 0x64 JUMPI DUP1 PUSH4 0x6F9FB98A EQ PUSH2 0x18B JUMPI DUP1 PUSH4 0x937E09B1 EQ PUSH2 0x1B6 JUMPI DUP1 PUSH4 0x9FB42B1F EQ PUSH2 0x1E1 JUMPI DUP1 PUSH4 0xC59EE1DC EQ PUSH2 0x20C JUMPI DUP1 PUSH4 0xD4B83992 EQ PUSH2 0x237 JUMPI DUP1 PUSH4 0xFF386D32 EQ PUSH2 0x262 JUMPI PUSH2 0xA7 JUMP JUMPDEST DUP1 PUSH4 0x24274EE9 EQ PUSH2 0xAC JUMPI DUP1 PUSH4 0x29DCB0CF EQ PUSH2 0xD7 JUMPI DUP1 PUSH4 0x34B66460 EQ PUSH2 0x102 JUMPI DUP1 PUSH4 0x481C6A75 EQ PUSH2 0x13F JUMPI DUP1 PUSH4 0x590E1AE3 EQ PUSH2 0x16A JUMPI DUP1 PUSH4 0x5EDEC2C4 EQ PUSH2 0x181 JUMPI JUMPDEST PUSH1 0x0 DUP1 REVERT JUMPDEST CALLVALUE DUP1 ISZERO PUSH2 0xB8 JUMPI PUSH1 0x0 DUP1 REVERT JUMPDEST POP PUSH2 0xC1 PUSH2 0x2A3 JUMP JUMPDEST PUSH1 0x40 MLOAD PUSH2 0xCE SWAP2 SWAP1 PUSH2 0x8F7 JUMP JUMPDEST PUSH1 0x40 MLOAD DUP1 SWAP2 SUB SWAP1 RETURN JUMPDEST CALLVALUE DUP1 ISZERO PUSH2 0xE3 JUMPI PUSH1 0x0 DUP1 REVERT JUMPDEST POP PUSH2 0xEC PUSH2 0x2A9 JUMP JUMPDEST PUSH1 0x40 MLOAD PUSH2 0xF9 SWAP2 SWAP1 PUSH2 0x8F7 JUMP JUMPDEST PUSH1 0x40 MLOAD DUP1 SWAP2 SUB SWAP1 RETURN JUMPDEST CALLVALUE DUP1 ISZERO PUSH2 0x10E JUMPI PUSH1 0x0 DUP1 REVERT JUMPDEST POP PUSH2 0x129 PUSH1 0x4 DUP1 CALLDATASIZE SUB DUP2 ADD SWAP1 PUSH2 0x124 SWAP2 SWAP1 PUSH2 0x6EA JUMP JUMPDEST PUSH2 0x2AF JUMP JUMPDEST PUSH1 0x40 MLOAD PUSH2 0x136 SWAP2 SWAP1 PUSH2 0x8F7 JUMP JUMPDEST PUSH1 0x40 MLOAD DUP1 SWAP2 SUB SWAP1 RETURN JUMPDEST CALLVALUE DUP1 ISZERO PUSH2 0x14B JUMPI PUSH1 0x0 DUP1 REVERT JUMPDEST POP PUSH2 0x154 PUSH2 0x2C7 JUMP JUMPDEST PUSH1 0x40 MLOAD PUSH2 0x161 SWAP2 SWAP1 PUSH2 0x822 JUMP JUMPDEST PUSH1 0x40 MLOAD DUP1 SWAP2 SUB SWAP1 RETURN JUMPDEST CALLVALUE DUP1 ISZERO PUSH2 0x176 JUMPI PUSH1 0x0 DUP1 REVERT JUMPDEST POP PUSH2 0x17F PUSH2 0x2ED JUMP JUMPDEST STOP JUMPDEST PUSH2 0x189 PUSH2 0x45C JUMP JUMPDEST STOP JUMPDEST CALLVALUE DUP1 ISZERO PUSH2 0x197 JUMPI PUSH1 0x0 DUP1 REVERT JUMPDEST POP PUSH2 0x1A0 PUSH2 0x5B5 JUMP JUMPDEST PUSH1 0x40 MLOAD PUSH2 0x1AD SWAP2 SWAP1 PUSH2 0x8F7 JUMP JUMPDEST PUSH1 0x40 MLOAD DUP1 SWAP2 SUB SWAP1 RETURN JUMPDEST CALLVALUE DUP1 ISZERO PUSH2 0x1C2 JUMPI PUSH1 0x0 DUP1 REVERT JUMPDEST POP PUSH2 0x1CB PUSH2 0x5BD JUMP JUMPDEST PUSH1 0x40 MLOAD PUSH2 0x1D8 SWAP2 SWAP1 PUSH2 0x8F7 JUMP JUMPDEST PUSH1 0x40 MLOAD DUP1 SWAP2 SUB SWAP1 RETURN JUMPDEST CALLVALUE DUP1 ISZERO PUSH2 0x1ED JUMPI PUSH1 0x0 DUP1 REVERT JUMPDEST POP PUSH2 0x1F6 PUSH2 0x5C3 JUMP JUMPDEST PUSH1 0x40 MLOAD PUSH2 0x203 SWAP2 SWAP1 PUSH2 0x8F7 JUMP JUMPDEST PUSH1 0x40 MLOAD DUP1 SWAP2 SUB SWAP1 RETURN JUMPDEST CALLVALUE DUP1 ISZERO PUSH2 0x218 JUMPI PUSH1 0x0 DUP1 REVERT JUMPDEST POP PUSH2 0x221 PUSH2 0x5C9 JUMP JUMPDEST PUSH1 0x40 MLOAD PUSH2 0x22E SWAP2 SWAP1 PUSH2 0x8F7 JUMP JUMPDEST PUSH1 0x40 MLOAD DUP1 SWAP2 SUB SWAP1 RETURN JUMPDEST CALLVALUE DUP1 ISZERO PUSH2 0x243 JUMPI PUSH1 0x0 DUP1 REVERT JUMPDEST POP PUSH2 0x24C PUSH2 0x5CF JUMP JUMPDEST PUSH1 0x40 MLOAD PUSH2 0x259 SWAP2 SWAP1 PUSH2 0x8F7 JUMP JUMPDEST PUSH1 0x40 MLOAD DUP1 SWAP2 SUB SWAP1 RETURN JUMPDEST CALLVALUE DUP1 ISZERO PUSH2 0x26E JUMPI PUSH1 0x0 DUP1 REVERT JUMPDEST POP PUSH2 0x289 PUSH1 0x4 DUP1 CALLDATASIZE SUB DUP2 ADD SWAP1 PUSH2 0x284 SWAP2 SWAP1 PUSH2 0x717 JUMP JUMPDEST PUSH2 0x5D5 JUMP JUMPDEST PUSH1 0x40 MLOAD PUSH2 0x29A SWAP6 SWAP5 SWAP4 SWAP3 SWAP2 SWAP1 PUSH2 0x83D JUMP JUMPDEST PUSH1 0x40 MLOAD DUP1 SWAP2 SUB SWAP1 RETURN JUMPDEST PUSH1 0x5 SLOAD DUP2 JUMP JUMPDEST PUSH1 0x2 SLOAD DUP2 JUMP JUMPDEST PUSH1 0x0 PUSH1 0x20 MSTORE DUP1 PUSH1 0x0 MSTORE PUSH1 0x40 PUSH1 0x0 KECCAK256 PUSH1 0x0 SWAP2 POP SWAP1 POP SLOAD DUP2 JUMP JUMPDEST PUSH1 0x1 PUSH1 0x0 SWAP1 SLOAD SWAP1 PUSH2 0x100 EXP SWAP1 DIV PUSH20 0xFFFFFFFFFFFFFFFFFFFFFFFFFFFFFFFFFFFFFFFF AND DUP2 JUMP JUMPDEST PUSH1 0x2 SLOAD TIMESTAMP GT DUP1 ISZERO PUSH2 0x301 JUMPI POP PUSH1 0x3 SLOAD PUSH1 0x4 SLOAD LT JUMPDEST PUSH2 0x340 JUMPI PUSH1 0x40 MLOAD PUSH32 0x8C379A000000000000000000000000000000000000000000000000000000000 DUP2 MSTORE PUSH1 0x4 ADD PUSH2 0x337 SWAP1 PUSH2 0x8D7 JUMP JUMPDEST PUSH1 0x40 MLOAD DUP1 SWAP2 SUB SWAP1 REVERT JUMPDEST PUSH1 0x0 DUP1 PUSH1 0x0 CALLER PUSH20 0xFFFFFFFFFFFFFFFFFFFFFFFFFFFFFFFFFFFFFFFF AND PUSH20 0xFFFFFFFFFFFFFFFFFFFFFFFFFFFFFFFFFFFFFFFF AND DUP2 MSTORE PUSH1 0x20 ADD SWAP1 DUP2 MSTORE PUSH1 0x20 ADD PUSH1 0x0 KECCAK256 SLOAD GT PUSH2 0x38B JUMPI PUSH1 0x0 DUP1 REVERT JUMPDEST PUSH1 0x0 CALLER SWAP1 POP DUP1 PUSH20 0xFFFFFFFFFFFFFFFFFFFFFFFFFFFFFFFFFFFFFFFF AND PUSH2 0x8FC PUSH1 0x0 DUP1 CALLER PUSH20 0xFFFFFFFFFFFFFFFFFFFFFFFFFFFFFFFFFFFFFFFF AND PUSH20 0xFFFFFFFFFFFFFFFFFFFFFFFFFFFFFFFFFFFFFFFF AND DUP2 MSTORE PUSH1 0x20 ADD SWAP1 DUP2 MSTORE PUSH1 0x20 ADD PUSH1 0x0 KECCAK256 SLOAD SWAP1 DUP2 ISZERO MUL SWAP1 PUSH1 0x40 MLOAD PUSH1 0x0 PUSH1 0x40 MLOAD DUP1 DUP4 SUB DUP2 DUP6 DUP9 DUP9 CALL SWAP4 POP POP POP POP ISZERO DUP1 ISZERO PUSH2 0x414 JUMPI RETURNDATASIZE PUSH1 0x0 DUP1 RETURNDATACOPY RETURNDATASIZE PUSH1 0x0 REVERT JUMPDEST POP PUSH1 0x0 DUP1 PUSH1 0x0 CALLER PUSH20 0xFFFFFFFFFFFFFFFFFFFFFFFFFFFFFFFFFFFFFFFF AND PUSH20 0xFFFFFFFFFFFFFFFFFFFFFFFFFFFFFFFFFFFFFFFF AND DUP2 MSTORE PUSH1 0x20 ADD SWAP1 DUP2 MSTORE PUSH1 0x20 ADD PUSH1 0x0 KECCAK256 DUP2 SWAP1 SSTORE POP POP JUMP JUMPDEST PUSH1 0x2 SLOAD TIMESTAMP LT PUSH2 0x4A0 JUMPI PUSH1 0x40 MLOAD PUSH32 0x8C379A000000000000000000000000000000000000000000000000000000000 DUP2 MSTORE PUSH1 0x4 ADD PUSH2 0x497 SWAP1 PUSH2 0x8B7 JUMP JUMPDEST PUSH1 0x40 MLOAD DUP1 SWAP2 SUB SWAP1 REVERT JUMPDEST PUSH1 0x6 SLOAD CALLVALUE LT ISZERO PUSH2 0x4E5 JUMPI PUSH1 0x40 MLOAD PUSH32 0x8C379A000000000000000000000000000000000000000000000000000000000 DUP2 MSTORE PUSH1 0x4 ADD PUSH2 0x4DC SWAP1 PUSH2 0x897 JUMP JUMPDEST PUSH1 0x40 MLOAD DUP1 SWAP2 SUB SWAP1 REVERT JUMPDEST PUSH1 0x0 DUP1 PUSH1 0x0 CALLER PUSH20 0xFFFFFFFFFFFFFFFFFFFFFFFFFFFFFFFFFFFFFFFF AND PUSH20 0xFFFFFFFFFFFFFFFFFFFFFFFFFFFFFFFFFFFFFFFF AND DUP2 MSTORE PUSH1 0x20 ADD SWAP1 DUP2 MSTORE PUSH1 0x20 ADD PUSH1 0x0 KECCAK256 SLOAD EQ ISZERO PUSH2 0x545 JUMPI PUSH1 0x5 PUSH1 0x0 DUP2 SLOAD DUP1 SWAP3 SWAP2 SWAP1 PUSH2 0x53F SWAP1 PUSH2 0xA43 JUMP JUMPDEST SWAP2 SWAP1 POP SSTORE POP JUMPDEST CALLVALUE PUSH1 0x0 DUP1 CALLER PUSH20 0xFFFFFFFFFFFFFFFFFFFFFFFFFFFFFFFFFFFFFFFF AND PUSH20 0xFFFFFFFFFFFFFFFFFFFFFFFFFFFFFFFFFFFFFFFF AND DUP2 MSTORE PUSH1 0x20 ADD SWAP1 DUP2 MSTORE PUSH1 0x20 ADD PUSH1 0x0 KECCAK256 PUSH1 0x0 DUP3 DUP3 SLOAD PUSH2 0x593 SWAP2 SWAP1 PUSH2 0x92E JUMP JUMPDEST SWAP3 POP POP DUP2 SWAP1 SSTORE POP CALLVALUE PUSH1 0x4 PUSH1 0x0 DUP3 DUP3 SLOAD PUSH2 0x5AC SWAP2 SWAP1 PUSH2 0x92E JUMP JUMPDEST SWAP3 POP POP DUP2 SWAP1 SSTORE POP JUMP JUMPDEST PUSH1 0x0 SELFBALANCE SWAP1 POP SWAP1 JUMP JUMPDEST PUSH1 0x6 SLOAD DUP2 JUMP JUMPDEST PUSH1 0x8 SLOAD DUP2 JUMP JUMPDEST PUSH1 0x4 SLOAD DUP2 JUMP JUMPDEST PUSH1 0x3 SLOAD DUP2 JUMP JUMPDEST PUSH1 0x7 PUSH1 0x20 MSTORE DUP1 PUSH1 0x0 MSTORE PUSH1 0x40 PUSH1 0x0 KECCAK256 PUSH1 0x0 SWAP2 POP SWAP1 POP DUP1 PUSH1 0x0 ADD DUP1 SLOAD PUSH2 0x5F8 SWAP1 PUSH2 0xA11 JUMP JUMPDEST DUP1 PUSH1 0x1F ADD PUSH1 0x20 DUP1 SWAP2 DIV MUL PUSH1 0x20 ADD PUSH1 0x40 MLOAD SWAP1 DUP2 ADD PUSH1 0x40 MSTORE DUP1 SWAP3 SWAP2 SWAP1 DUP2 DUP2 MSTORE PUSH1 0x20 ADD DUP3 DUP1 SLOAD PUSH2 0x624 SWAP1 PUSH2 0xA11 JUMP JUMPDEST DUP1 ISZERO PUSH2 0x671 JUMPI DUP1 PUSH1 0x1F LT PUSH2 0x646 JUMPI PUSH2 0x100 DUP1 DUP4 SLOAD DIV MUL DUP4 MSTORE SWAP2 PUSH1 0x20 ADD SWAP2 PUSH2 0x671 JUMP JUMPDEST DUP3 ADD SWAP2 SWAP1 PUSH1 0x0 MSTORE PUSH1 0x20 PUSH1 0x0 KECCAK256 SWAP1 JUMPDEST DUP2 SLOAD DUP2 MSTORE SWAP1 PUSH1 0x1 ADD SWAP1 PUSH1 0x20 ADD DUP1 DUP4 GT PUSH2 0x654 JUMPI DUP3 SWAP1 SUB PUSH1 0x1F AND DUP3 ADD SWAP2 JUMPDEST POP POP POP POP POP SWAP1 DUP1 PUSH1 0x1 ADD PUSH1 0x0 SWAP1 SLOAD SWAP1 PUSH2 0x100 EXP SWAP1 DIV PUSH20 0xFFFFFFFFFFFFFFFFFFFFFFFFFFFFFFFFFFFFFFFF AND SWAP1 DUP1 PUSH1 0x2 ADD SLOAD SWAP1 DUP1 PUSH1 0x3 ADD PUSH1 0x0 SWAP1 SLOAD SWAP1 PUSH2 0x100 EXP SWAP1 DIV PUSH1 0xFF AND SWAP1 DUP1 PUSH1 0x4 ADD SLOAD SWAP1 POP DUP6 JUMP JUMPDEST PUSH1 0x0 DUP2 CALLDATALOAD SWAP1 POP PUSH2 0x6CF DUP2 PUSH2 0xB7B JUMP JUMPDEST SWAP3 SWAP2 POP POP JUMP JUMPDEST PUSH1 0x0 DUP2 CALLDATALOAD SWAP1 POP PUSH2 0x6E4 DUP2 PUSH2 0xB92 JUMP JUMPDEST SWAP3 SWAP2 POP POP JUMP JUMPDEST PUSH1 0x0 PUSH1 0x20 DUP3 DUP5 SUB SLT ISZERO PUSH2 0x700 JUMPI PUSH2 0x6FF PUSH2 0xAEA JUMP JUMPDEST JUMPDEST PUSH1 0x0 PUSH2 0x70E DUP5 DUP3 DUP6 ADD PUSH2 0x6C0 JUMP JUMPDEST SWAP2 POP POP SWAP3 SWAP2 POP POP JUMP JUMPDEST PUSH1 0x0 PUSH1 0x20 DUP3 DUP5 SUB SLT ISZERO PUSH2 0x72D JUMPI PUSH2 0x72C PUSH2 0xAEA JUMP JUMPDEST JUMPDEST PUSH1 0x0 PUSH2 0x73B DUP5 DUP3 DUP6 ADD PUSH2 0x6D5 JUMP JUMPDEST SWAP2 POP POP SWAP3 SWAP2 POP POP JUMP JUMPDEST PUSH2 0x74D DUP2 PUSH2 0x996 JUMP JUMPDEST DUP3 MSTORE POP POP JUMP JUMPDEST PUSH2 0x75C DUP2 PUSH2 0x984 JUMP JUMPDEST DUP3 MSTORE POP POP JUMP JUMPDEST PUSH2 0x76B DUP2 PUSH2 0x9A8 JUMP JUMPDEST DUP3 MSTORE POP POP JUMP JUMPDEST PUSH1 0x0 PUSH2 0x77C DUP3 PUSH2 0x912 JUMP JUMPDEST PUSH2 0x786 DUP2 DUP6 PUSH2 0x91D JUMP JUMPDEST SWAP4 POP PUSH2 0x796 DUP2 DUP6 PUSH1 0x20 DUP7 ADD PUSH2 0x9DE JUMP JUMPDEST PUSH2 0x79F DUP2 PUSH2 0xAEF JUMP JUMPDEST DUP5 ADD SWAP2 POP POP SWAP3 SWAP2 POP POP JUMP JUMPDEST PUSH1 0x0 PUSH2 0x7B7 PUSH1 0x1E DUP4 PUSH2 0x91D JUMP JUMPDEST SWAP2 POP PUSH2 0x7C2 DUP3 PUSH2 0xB00 JUMP JUMPDEST PUSH1 0x20 DUP3 ADD SWAP1 POP SWAP2 SWAP1 POP JUMP JUMPDEST PUSH1 0x0 PUSH2 0x7DA PUSH1 0x13 DUP4 PUSH2 0x91D JUMP JUMPDEST SWAP2 POP PUSH2 0x7E5 DUP3 PUSH2 0xB29 JUMP JUMPDEST PUSH1 0x20 DUP3 ADD SWAP1 POP SWAP2 SWAP1 POP JUMP JUMPDEST PUSH1 0x0 PUSH2 0x7FD PUSH1 0x1F DUP4 PUSH2 0x91D JUMP JUMPDEST SWAP2 POP PUSH2 0x808 DUP3 PUSH2 0xB52 JUMP JUMPDEST PUSH1 0x20 DUP3 ADD SWAP1 POP SWAP2 SWAP1 POP JUMP JUMPDEST PUSH2 0x81C DUP2 PUSH2 0x9D4 JUMP JUMPDEST DUP3 MSTORE POP POP JUMP JUMPDEST PUSH1 0x0 PUSH1 0x20 DUP3 ADD SWAP1 POP PUSH2 0x837 PUSH1 0x0 DUP4 ADD DUP5 PUSH2 0x753 JUMP JUMPDEST SWAP3 SWAP2 POP POP JUMP JUMPDEST PUSH1 0x0 PUSH1 0xA0 DUP3 ADD SWAP1 POP DUP2 DUP2 SUB PUSH1 0x0 DUP4 ADD MSTORE PUSH2 0x857 DUP2 DUP9 PUSH2 0x771 JUMP JUMPDEST SWAP1 POP PUSH2 0x866 PUSH1 0x20 DUP4 ADD DUP8 PUSH2 0x744 JUMP JUMPDEST PUSH2 0x873 PUSH1 0x40 DUP4 ADD DUP7 PUSH2 0x813 JUMP JUMPDEST PUSH2 0x880 PUSH1 0x60 DUP4 ADD DUP6 PUSH2 0x762 JUMP JUMPDEST PUSH2 0x88D PUSH1 0x80 DUP4 ADD DUP5 PUSH2 0x813 JUMP JUMPDEST SWAP7 SWAP6 POP POP POP POP POP POP JUMP JUMPDEST PUSH1 0x0 PUSH1 0x20 DUP3 ADD SWAP1 POP DUP2 DUP2 SUB PUSH1 0x0 DUP4 ADD MSTORE PUSH2 0x8B0 DUP2 PUSH2 0x7AA JUMP JUMPDEST SWAP1 POP SWAP2 SWAP1 POP JUMP JUMPDEST PUSH1 0x0 PUSH1 0x20 DUP3 ADD SWAP1 POP DUP2 DUP2 SUB PUSH1 0x0 DUP4 ADD MSTORE PUSH2 0x8D0 DUP2 PUSH2 0x7CD JUMP JUMPDEST SWAP1 POP SWAP2 SWAP1 POP JUMP JUMPDEST PUSH1 0x0 PUSH1 0x20 DUP3 ADD SWAP1 POP DUP2 DUP2 SUB PUSH1 0x0 DUP4 ADD MSTORE PUSH2 0x8F0 DUP2 PUSH2 0x7F0 JUMP JUMPDEST SWAP1 POP SWAP2 SWAP1 POP JUMP JUMPDEST PUSH1 0x0 PUSH1 0x20 DUP3 ADD SWAP1 POP PUSH2 0x90C PUSH1 0x0 DUP4 ADD DUP5 PUSH2 0x813 JUMP JUMPDEST SWAP3 SWAP2 POP POP JUMP JUMPDEST PUSH1 0x0 DUP2 MLOAD SWAP1 POP SWAP2 SWAP1 POP JUMP JUMPDEST PUSH1 0x0 DUP3 DUP3 MSTORE PUSH1 0x20 DUP3 ADD SWAP1 POP SWAP3 SWAP2 POP POP JUMP JUMPDEST PUSH1 0x0 PUSH2 0x939 DUP3 PUSH2 0x9D4 JUMP JUMPDEST SWAP2 POP PUSH2 0x944 DUP4 PUSH2 0x9D4 JUMP JUMPDEST SWAP3 POP DUP3 PUSH32 0xFFFFFFFFFFFFFFFFFFFFFFFFFFFFFFFFFFFFFFFFFFFFFFFFFFFFFFFFFFFFFFFF SUB DUP3 GT ISZERO PUSH2 0x979 JUMPI PUSH2 0x978 PUSH2 0xA8C JUMP JUMPDEST JUMPDEST DUP3 DUP3 ADD SWAP1 POP SWAP3 SWAP2 POP POP JUMP JUMPDEST PUSH1 0x0 PUSH2 0x98F DUP3 PUSH2 0x9B4 JUMP JUMPDEST SWAP1 POP SWAP2 SWAP1 POP JUMP JUMPDEST PUSH1 0x0 PUSH2 0x9A1 DUP3 PUSH2 0x9B4 JUMP JUMPDEST SWAP1 POP SWAP2 SWAP1 POP JUMP JUMPDEST PUSH1 0x0 DUP2 ISZERO ISZERO SWAP1 POP SWAP2 SWAP1 POP JUMP JUMPDEST PUSH1 0x0 PUSH20 0xFFFFFFFFFFFFFFFFFFFFFFFFFFFFFFFFFFFFFFFF DUP3 AND SWAP1 POP SWAP2 SWAP1 POP JUMP JUMPDEST PUSH1 0x0 DUP2 SWAP1 POP SWAP2 SWAP1 POP JUMP JUMPDEST PUSH1 0x0 JUMPDEST DUP4 DUP2 LT ISZERO PUSH2 0x9FC JUMPI DUP1 DUP3 ADD MLOAD DUP2 DUP5 ADD MSTORE PUSH1 0x20 DUP2 ADD SWAP1 POP PUSH2 0x9E1 JUMP JUMPDEST DUP4 DUP2 GT ISZERO PUSH2 0xA0B JUMPI PUSH1 0x0 DUP5 DUP5 ADD MSTORE JUMPDEST POP POP POP POP JUMP JUMPDEST PUSH1 0x0 PUSH1 0x2 DUP3 DIV SWAP1 POP PUSH1 0x1 DUP3 AND DUP1 PUSH2 0xA29 JUMPI PUSH1 0x7F DUP3 AND SWAP2 POP JUMPDEST PUSH1 0x20 DUP3 LT DUP2 EQ ISZERO PUSH2 0xA3D JUMPI PUSH2 0xA3C PUSH2 0xABB JUMP JUMPDEST JUMPDEST POP SWAP2 SWAP1 POP JUMP JUMPDEST PUSH1 0x0 PUSH2 0xA4E DUP3 PUSH2 0x9D4 JUMP JUMPDEST SWAP2 POP PUSH32 0xFFFFFFFFFFFFFFFFFFFFFFFFFFFFFFFFFFFFFFFFFFFFFFFFFFFFFFFFFFFFFFFF DUP3 EQ ISZERO PUSH2 0xA81 JUMPI PUSH2 0xA80 PUSH2 0xA8C JUMP JUMPDEST JUMPDEST PUSH1 0x1 DUP3 ADD SWAP1 POP SWAP2 SWAP1 POP JUMP JUMPDEST PUSH32 0x4E487B7100000000000000000000000000000000000000000000000000000000 PUSH1 0x0 MSTORE PUSH1 0x11 PUSH1 0x4 MSTORE PUSH1 0x24 PUSH1 0x0 REVERT JUMPDEST PUSH32 0x4E487B7100000000000000000000000000000000000000000000000000000000 PUSH1 0x0 MSTORE PUSH1 0x22 PUSH1 0x4 MSTORE PUSH1 0x24 PUSH1 0x0 REVERT JUMPDEST PUSH1 0x0 DUP1 REVERT JUMPDEST PUSH1 0x0 PUSH1 0x1F NOT PUSH1 0x1F DUP4 ADD AND SWAP1 POP SWAP2 SWAP1 POP JUMP JUMPDEST PUSH32 0x6D696E696D756E20436F6E7472627574696F6E206973206E6F74206D65740000 PUSH1 0x0 DUP3 ADD MSTORE POP JUMP JUMPDEST PUSH32 0x646561646C696E65206861732070617373656400000000000000000000000000 PUSH1 0x0 DUP3 ADD MSTORE POP JUMP JUMPDEST PUSH32 0x796F7520617265206E6F7420656C696769626C6520666F7220726566756E6400 PUSH1 0x0 DUP3 ADD MSTORE POP JUMP JUMPDEST PUSH2 0xB84 DUP2 PUSH2 0x984 JUMP JUMPDEST DUP2 EQ PUSH2 0xB8F JUMPI PUSH1 0x0 DUP1 REVERT JUMPDEST POP JUMP JUMPDEST PUSH2 0xB9B DUP2 PUSH2 0x9D4 JUMP JUMPDEST DUP2 EQ PUSH2 0xBA6 JUMPI PUSH1 0x0 DUP1 REVERT JUMPDEST POP JUMP INVALID LOG2 PUSH5 0x6970667358 0x22 SLT KECCAK256 0xA5 PUSH14 0xFC9AA8063C66ED060BA5CBB6410F 0xF8 0xE0 0xEF 0xEA 0xDD 0xC6 CALLER CALLDATASIZE PUSH10 0x20B45C25D3627264736F PUSH13 0x63430008070033000000000000 "
				},
				"gasEstimates": {
					"creation": {
						"codeDepositCost": "607800",
						"executionCost": "infinite",
						"totalCost": "infinite"
					},
					"external": {
						"contributers(address)": "2859",
						"deadline()": "2452",
						"getContractBalance()": "339",
						"manager()": "2581",
						"minimumContribution()": "2451",
						"noOfContributers()": "2430",
						"numRequests()": "2473",
						"raisedAmount()": "2495",
						"refund()": "infinite",
						"requets(uint256)": "infinite",
						"sedEth()": "infinite",
						"target()": "2517"
					}
				},
				"methodIdentifiers": {
					"contributers(address)": "34b66460",
					"deadline()": "29dcb0cf",
					"getContractBalance()": "6f9fb98a",
					"manager()": "481c6a75",
					"minimumContribution()": "937e09b1",
					"noOfContributers()": "24274ee9",
					"numRequests()": "9fb42b1f",
					"raisedAmount()": "c59ee1dc",
					"refund()": "590e1ae3",
					"requets(uint256)": "ff386d32",
					"sedEth()": "5edec2c4",
					"target()": "d4b83992"
				}
			},
			"storageLayout": {
				"storage": [
					{
						"astId": 5,
						"contract": "crowd_funding.sol:CrowdFunding",
						"label": "contributers",
						"offset": 0,
						"slot": "0",
						"type": "t_mapping(t_address,t_uint256)"
					},
					{
						"astId": 7,
						"contract": "crowd_funding.sol:CrowdFunding",
						"label": "manager",
						"offset": 0,
						"slot": "1",
						"type": "t_address"
					},
					{
						"astId": 9,
						"contract": "crowd_funding.sol:CrowdFunding",
						"label": "deadline",
						"offset": 0,
						"slot": "2",
						"type": "t_uint256"
					},
					{
						"astId": 11,
						"contract": "crowd_funding.sol:CrowdFunding",
						"label": "target",
						"offset": 0,
						"slot": "3",
						"type": "t_uint256"
					},
					{
						"astId": 13,
						"contract": "crowd_funding.sol:CrowdFunding",
						"label": "raisedAmount",
						"offset": 0,
						"slot": "4",
						"type": "t_uint256"
					},
					{
						"astId": 15,
						"contract": "crowd_funding.sol:CrowdFunding",
						"label": "noOfContributers",
						"offset": 0,
						"slot": "5",
						"type": "t_uint256"
					},
					{
						"astId": 17,
						"contract": "crowd_funding.sol:CrowdFunding",
						"label": "minimumContribution",
						"offset": 0,
						"slot": "6",
						"type": "t_uint256"
					},
					{
						"astId": 37,
						"contract": "crowd_funding.sol:CrowdFunding",
						"label": "requets",
						"offset": 0,
						"slot": "7",
						"type": "t_mapping(t_uint256,t_struct(Request)32_storage)"
					},
					{
						"astId": 39,
						"contract": "crowd_funding.sol:CrowdFunding",
						"label": "numRequests",
						"offset": 0,
						"slot": "8",
						"type": "t_uint256"
					}
				],
				"types": {
					"t_address": {
						"encoding": "inplace",
						"label": "address",
						"numberOfBytes": "20"
					},
					"t_address_payable": {
						"encoding": "inplace",
						"label": "address payable",
						"numberOfBytes": "20"
					},
					"t_bool": {
						"encoding": "inplace",
						"label": "bool",
						"numberOfBytes": "1"
					},
					"t_mapping(t_address,t_bool)": {
						"encoding": "mapping",
						"key": "t_address",
						"label": "mapping(address => bool)",
						"numberOfBytes": "32",
						"value": "t_bool"
					},
					"t_mapping(t_address,t_uint256)": {
						"encoding": "mapping",
						"key": "t_address",
						"label": "mapping(address => uint256)",
						"numberOfBytes": "32",
						"value": "t_uint256"
					},
					"t_mapping(t_uint256,t_struct(Request)32_storage)": {
						"encoding": "mapping",
						"key": "t_uint256",
						"label": "mapping(uint256 => struct CrowdFunding.Request)",
						"numberOfBytes": "32",
						"value": "t_struct(Request)32_storage"
					},
					"t_string_storage": {
						"encoding": "bytes",
						"label": "string",
						"numberOfBytes": "32"
					},
					"t_struct(Request)32_storage": {
						"encoding": "inplace",
						"label": "struct CrowdFunding.Request",
						"members": [
							{
								"astId": 19,
								"contract": "crowd_funding.sol:CrowdFunding",
								"label": "description",
								"offset": 0,
								"slot": "0",
								"type": "t_string_storage"
							},
							{
								"astId": 21,
								"contract": "crowd_funding.sol:CrowdFunding",
								"label": "recipient",
								"offset": 0,
								"slot": "1",
								"type": "t_address_payable"
							},
							{
								"astId": 23,
								"contract": "crowd_funding.sol:CrowdFunding",
								"label": "value",
								"offset": 0,
								"slot": "2",
								"type": "t_uint256"
							},
							{
								"astId": 25,
								"contract": "crowd_funding.sol:CrowdFunding",
								"label": "completed",
								"offset": 0,
								"slot": "3",
								"type": "t_bool"
							},
							{
								"astId": 27,
								"contract": "crowd_funding.sol:CrowdFunding",
								"label": "noofvoters",
								"offset": 0,
								"slot": "4",
								"type": "t_uint256"
							},
							{
								"astId": 31,
								"contract": "crowd_funding.sol:CrowdFunding",
								"label": "voters",
								"offset": 0,
								"slot": "5",
								"type": "t_mapping(t_address,t_bool)"
							}
						],
						"numberOfBytes": "192"
					},
					"t_uint256": {
						"encoding": "inplace",
						"label": "uint256",
						"numberOfBytes": "32"
					}
				}
			},
			"userdoc": {
				"kind": "user",
				"methods": {},
				"version": 1
			}
		}
	}
}