{
	"crowd_funding.sol": {
		"CrowdFunding": {
			"abi": [
				{
					"inputs": [
						{
							"internalType": "uint256",
							"name": "_target",
							"type": "uint256"
						},
						{
							"internalType": "uint256",
							"name": "_deadline",
							"type": "uint256"
						}
					],
					"stateMutability": "nonpayable",
					"type": "constructor"
				},
				{
					"inputs": [
						{
							"internalType": "address",
							"name": "",
							"type": "address"
						}
					],
					"name": "contributers",
					"outputs": [
						{
							"internalType": "uint256",
							"name": "",
							"type": "uint256"
						}
					],
					"stateMutability": "view",
					"type": "function"
				},
				{
					"inputs": [],
					"name": "deadline",
					"outputs": [
						{
							"internalType": "uint256",
							"name": "",
							"type": "uint256"
						}
					],
					"stateMutability": "view",
					"type": "function"
				},
				{
					"inputs": [],
					"name": "manager",
					"outputs": [
						{
							"internalType": "address",
							"name": "",
							"type": "address"
						}
					],
					"stateMutability": "view",
					"type": "function"
				},
				{
					"inputs": [],
					"name": "minimumContribution",
					"outputs": [
						{
							"internalType": "uint256",
							"name": "",
							"type": "uint256"
						}
					],
					"stateMutability": "view",
					"type": "function"
				},
				{
					"inputs": [],
					"name": "noOfContributers",
					"outputs": [
						{
							"internalType": "uint256",
							"name": "",
							"type": "uint256"
						}
					],
					"stateMutability": "view",
					"type": "function"
				},
				{
					"inputs": [],
					"name": "raisedAmount",
					"outputs": [
						{
							"internalType": "uint256",
							"name": "",
							"type": "uint256"
						}
					],
					"stateMutability": "view",
					"type": "function"
				},
				{
					"inputs": [],
					"name": "sedEth",
					"outputs": [],
					"stateMutability": "payable",
					"type": "function"
				},
				{
					"inputs": [],
					"name": "target",
					"outputs": [
						{
							"internalType": "uint256",
							"name": "",
							"type": "uint256"
						}
					],
					"stateMutability": "view",
					"type": "function"
				}
			],
			"devdoc": {
				"kind": "dev",
				"methods": {},
				"version": 1
			},
			"evm": {
				"assembly": "    /* \"crowd_funding.sol\":76:882  contract CrowdFunding{\r... */\n  mstore(0x40, 0x80)\n    /* \"crowd_funding.sol\":340:542  constructor(uint _target,uint _deadline){\r... */\n  callvalue\n  dup1\n  iszero\n  tag_1\n  jumpi\n  0x00\n  dup1\n  revert\ntag_1:\n  pop\n  mload(0x40)\n  sub(codesize, bytecodeSize)\n  dup1\n  bytecodeSize\n  dup4\n  codecopy\n  dup2\n  dup2\n  add\n  0x40\n  mstore\n  dup2\n  add\n  swap1\n  tag_2\n  swap2\n  swap1\n  tag_3\n  jump\t// in\ntag_2:\n    /* \"crowd_funding.sol\":398:405  _target */\n  dup2\n    /* \"crowd_funding.sol\":391:397  target */\n  0x03\n    /* \"crowd_funding.sol\":391:405  target=_target */\n  dup2\n  swap1\n  sstore\n  pop\n    /* \"crowd_funding.sol\":441:450  _deadline */\n  dup1\n    /* \"crowd_funding.sol\":425:440  block.timestamp */\n  timestamp\n    /* \"crowd_funding.sol\":425:450  block.timestamp+_deadline */\n  tag_6\n  swap2\n  swap1\n  tag_7\n  jump\t// in\ntag_6:\n    /* \"crowd_funding.sol\":416:424  deadline */\n  0x02\n    /* \"crowd_funding.sol\":416:450  deadline=block.timestamp+_deadline */\n  dup2\n  swap1\n  sstore\n  pop\n    /* \"crowd_funding.sol\":498:505  100 wei */\n  0x64\n    /* \"crowd_funding.sol\":478:497  minimumContribution */\n  0x06\n    /* \"crowd_funding.sol\":478:505  minimumContribution=100 wei */\n  dup2\n  swap1\n  sstore\n  pop\n    /* \"crowd_funding.sol\":524:534  msg.sender */\n  caller\n    /* \"crowd_funding.sol\":516:523  manager */\n  0x01\n  0x00\n    /* \"crowd_funding.sol\":516:534  manager=msg.sender */\n  0x0100\n  exp\n  dup2\n  sload\n  dup2\n  0xffffffffffffffffffffffffffffffffffffffff\n  mul\n  not\n  and\n  swap1\n  dup4\n  0xffffffffffffffffffffffffffffffffffffffff\n  and\n  mul\n  or\n  swap1\n  sstore\n  pop\n    /* \"crowd_funding.sol\":340:542  constructor(uint _target,uint _deadline){\r... */\n  pop\n  pop\n    /* \"crowd_funding.sol\":76:882  contract CrowdFunding{\r... */\n  jump(tag_8)\n    /* \"#utility.yul\":7:150   */\ntag_10:\n    /* \"#utility.yul\":64:69   */\n  0x00\n    /* \"#utility.yul\":95:101   */\n  dup2\n    /* \"#utility.yul\":89:102   */\n  mload\n    /* \"#utility.yul\":80:102   */\n  swap1\n  pop\n    /* \"#utility.yul\":111:144   */\n  tag_12\n    /* \"#utility.yul\":138:143   */\n  dup2\n    /* \"#utility.yul\":111:144   */\n  tag_13\n  jump\t// in\ntag_12:\n    /* \"#utility.yul\":70:150   */\n  swap3\n  swap2\n  pop\n  pop\n  jump\t// out\n    /* \"#utility.yul\":156:596   */\ntag_3:\n    /* \"#utility.yul\":235:241   */\n  0x00\n    /* \"#utility.yul\":243:249   */\n  dup1\n    /* \"#utility.yul\":292:294   */\n  0x40\n    /* \"#utility.yul\":280:289   */\n  dup4\n    /* \"#utility.yul\":271:278   */\n  dup6\n    /* \"#utility.yul\":267:290   */\n  sub\n    /* \"#utility.yul\":263:295   */\n  slt\n    /* \"#utility.yul\":260:262   */\n  iszero\n  tag_15\n  jumpi\n    /* \"#utility.yul\":308:309   */\n  0x00\n    /* \"#utility.yul\":305:306   */\n  dup1\n    /* \"#utility.yul\":298:310   */\n  revert\n    /* \"#utility.yul\":260:262   */\ntag_15:\n    /* \"#utility.yul\":351:352   */\n  0x00\n    /* \"#utility.yul\":376:440   */\n  tag_16\n    /* \"#utility.yul\":432:439   */\n  dup6\n    /* \"#utility.yul\":423:429   */\n  dup3\n    /* \"#utility.yul\":412:421   */\n  dup7\n    /* \"#utility.yul\":408:430   */\n  add\n    /* \"#utility.yul\":376:440   */\n  tag_10\n  jump\t// in\ntag_16:\n    /* \"#utility.yul\":366:440   */\n  swap3\n  pop\n    /* \"#utility.yul\":322:450   */\n  pop\n    /* \"#utility.yul\":489:491   */\n  0x20\n    /* \"#utility.yul\":515:579   */\n  tag_17\n    /* \"#utility.yul\":571:578   */\n  dup6\n    /* \"#utility.yul\":562:568   */\n  dup3\n    /* \"#utility.yul\":551:560   */\n  dup7\n    /* \"#utility.yul\":547:569   */\n  add\n    /* \"#utility.yul\":515:579   */\n  tag_10\n  jump\t// in\ntag_17:\n    /* \"#utility.yul\":505:579   */\n  swap2\n  pop\n    /* \"#utility.yul\":460:589   */\n  pop\n    /* \"#utility.yul\":250:596   */\n  swap3\n  pop\n  swap3\n  swap1\n  pop\n  jump\t// out\n    /* \"#utility.yul\":602:907   */\ntag_7:\n    /* \"#utility.yul\":642:645   */\n  0x00\n    /* \"#utility.yul\":661:681   */\n  tag_19\n    /* \"#utility.yul\":679:680   */\n  dup3\n    /* \"#utility.yul\":661:681   */\n  tag_20\n  jump\t// in\ntag_19:\n    /* \"#utility.yul\":656:681   */\n  swap2\n  pop\n    /* \"#utility.yul\":695:715   */\n  tag_21\n    /* \"#utility.yul\":713:714   */\n  dup4\n    /* \"#utility.yul\":695:715   */\n  tag_20\n  jump\t// in\ntag_21:\n    /* \"#utility.yul\":690:715   */\n  swap3\n  pop\n    /* \"#utility.yul\":849:850   */\n  dup3\n    /* \"#utility.yul\":781:847   */\n  0xffffffffffffffffffffffffffffffffffffffffffffffffffffffffffffffff\n    /* \"#utility.yul\":777:851   */\n  sub\n    /* \"#utility.yul\":774:775   */\n  dup3\n    /* \"#utility.yul\":771:852   */\n  gt\n    /* \"#utility.yul\":768:770   */\n  iszero\n  tag_22\n  jumpi\n    /* \"#utility.yul\":855:873   */\n  tag_23\n  tag_24\n  jump\t// in\ntag_23:\n    /* \"#utility.yul\":768:770   */\ntag_22:\n    /* \"#utility.yul\":899:900   */\n  dup3\n    /* \"#utility.yul\":896:897   */\n  dup3\n    /* \"#utility.yul\":892:901   */\n  add\n    /* \"#utility.yul\":885:901   */\n  swap1\n  pop\n    /* \"#utility.yul\":646:907   */\n  swap3\n  swap2\n  pop\n  pop\n  jump\t// out\n    /* \"#utility.yul\":913:990   */\ntag_20:\n    /* \"#utility.yul\":950:957   */\n  0x00\n    /* \"#utility.yul\":979:984   */\n  dup2\n    /* \"#utility.yul\":968:984   */\n  swap1\n  pop\n    /* \"#utility.yul\":958:990   */\n  swap2\n  swap1\n  pop\n  jump\t// out\n    /* \"#utility.yul\":996:1176   */\ntag_24:\n    /* \"#utility.yul\":1044:1121   */\n  0x4e487b7100000000000000000000000000000000000000000000000000000000\n    /* \"#utility.yul\":1041:1042   */\n  0x00\n    /* \"#utility.yul\":1034:1122   */\n  mstore\n    /* \"#utility.yul\":1141:1145   */\n  0x11\n    /* \"#utility.yul\":1138:1139   */\n  0x04\n    /* \"#utility.yul\":1131:1146   */\n  mstore\n    /* \"#utility.yul\":1165:1169   */\n  0x24\n    /* \"#utility.yul\":1162:1163   */\n  0x00\n    /* \"#utility.yul\":1155:1170   */\n  revert\n    /* \"#utility.yul\":1182:1304   */\ntag_13:\n    /* \"#utility.yul\":1255:1279   */\n  tag_28\n    /* \"#utility.yul\":1273:1278   */\n  dup2\n    /* \"#utility.yul\":1255:1279   */\n  tag_20\n  jump\t// in\ntag_28:\n    /* \"#utility.yul\":1248:1253   */\n  dup2\n    /* \"#utility.yul\":1245:1280   */\n  eq\n    /* \"#utility.yul\":1235:1237   */\n  tag_29\n  jumpi\n    /* \"#utility.yul\":1294:1295   */\n  0x00\n    /* \"#utility.yul\":1291:1292   */\n  dup1\n    /* \"#utility.yul\":1284:1296   */\n  revert\n    /* \"#utility.yul\":1235:1237   */\ntag_29:\n    /* \"#utility.yul\":1225:1304   */\n  pop\n  jump\t// out\n    /* \"crowd_funding.sol\":76:882  contract CrowdFunding{\r... */\ntag_8:\n  dataSize(sub_0)\n  dup1\n  dataOffset(sub_0)\n  0x00\n  codecopy\n  0x00\n  return\nstop\n\nsub_0: assembly {\n        /* \"crowd_funding.sol\":76:882  contract CrowdFunding{\r... */\n      mstore(0x40, 0x80)\n      jumpi(tag_1, lt(calldatasize, 0x04))\n      shr(0xe0, calldataload(0x00))\n      dup1\n      0x5edec2c4\n      gt\n      tag_10\n      jumpi\n      dup1\n      0x5edec2c4\n      eq\n      tag_6\n      jumpi\n      dup1\n      0x937e09b1\n      eq\n      tag_7\n      jumpi\n      dup1\n      0xc59ee1dc\n      eq\n      tag_8\n      jumpi\n      dup1\n      0xd4b83992\n      eq\n      tag_9\n      jumpi\n      jump(tag_1)\n    tag_10:\n      dup1\n      0x24274ee9\n      eq\n      tag_2\n      jumpi\n      dup1\n      0x29dcb0cf\n      eq\n      tag_3\n      jumpi\n      dup1\n      0x34b66460\n      eq\n      tag_4\n      jumpi\n      dup1\n      0x481c6a75\n      eq\n      tag_5\n      jumpi\n    tag_1:\n      0x00\n      dup1\n      revert\n        /* \"crowd_funding.sol\":265:293  uint public noOfContributers */\n    tag_2:\n      callvalue\n      dup1\n      iszero\n      tag_11\n      jumpi\n      0x00\n      dup1\n      revert\n    tag_11:\n      pop\n      tag_12\n      tag_13\n      jump\t// in\n    tag_12:\n      mload(0x40)\n      tag_14\n      swap2\n      swap1\n      tag_15\n      jump\t// in\n    tag_14:\n      mload(0x40)\n      dup1\n      swap2\n      sub\n      swap1\n      return\n        /* \"crowd_funding.sol\":182:202  uint public deadline */\n    tag_3:\n      callvalue\n      dup1\n      iszero\n      tag_16\n      jumpi\n      0x00\n      dup1\n      revert\n    tag_16:\n      pop\n      tag_17\n      tag_18\n      jump\t// in\n    tag_17:\n      mload(0x40)\n      tag_19\n      swap2\n      swap1\n      tag_15\n      jump\t// in\n    tag_19:\n      mload(0x40)\n      dup1\n      swap2\n      sub\n      swap1\n      return\n        /* \"crowd_funding.sol\":104:146  mapping(address=>uint) public contributers */\n    tag_4:\n      callvalue\n      dup1\n      iszero\n      tag_20\n      jumpi\n      0x00\n      dup1\n      revert\n    tag_20:\n      pop\n      tag_21\n      0x04\n      dup1\n      calldatasize\n      sub\n      dup2\n      add\n      swap1\n      tag_22\n      swap2\n      swap1\n      tag_23\n      jump\t// in\n    tag_22:\n      tag_24\n      jump\t// in\n    tag_21:\n      mload(0x40)\n      tag_25\n      swap2\n      swap1\n      tag_15\n      jump\t// in\n    tag_25:\n      mload(0x40)\n      dup1\n      swap2\n      sub\n      swap1\n      return\n        /* \"crowd_funding.sol\":153:175  address public manager */\n    tag_5:\n      callvalue\n      dup1\n      iszero\n      tag_26\n      jumpi\n      0x00\n      dup1\n      revert\n    tag_26:\n      pop\n      tag_27\n      tag_28\n      jump\t// in\n    tag_27:\n      mload(0x40)\n      tag_29\n      swap2\n      swap1\n      tag_30\n      jump\t// in\n    tag_29:\n      mload(0x40)\n      dup1\n      swap2\n      sub\n      swap1\n      return\n        /* \"crowd_funding.sol\":550:879  function sedEth() public payable{\r... */\n    tag_6:\n      tag_31\n      tag_32\n      jump\t// in\n    tag_31:\n      stop\n        /* \"crowd_funding.sol\":300:331  uint public minimumContribution */\n    tag_7:\n      callvalue\n      dup1\n      iszero\n      tag_33\n      jumpi\n      0x00\n      dup1\n      revert\n    tag_33:\n      pop\n      tag_34\n      tag_35\n      jump\t// in\n    tag_34:\n      mload(0x40)\n      tag_36\n      swap2\n      swap1\n      tag_15\n      jump\t// in\n    tag_36:\n      mload(0x40)\n      dup1\n      swap2\n      sub\n      swap1\n      return\n        /* \"crowd_funding.sol\":234:258  uint public raisedAmount */\n    tag_8:\n      callvalue\n      dup1\n      iszero\n      tag_37\n      jumpi\n      0x00\n      dup1\n      revert\n    tag_37:\n      pop\n      tag_38\n      tag_39\n      jump\t// in\n    tag_38:\n      mload(0x40)\n      tag_40\n      swap2\n      swap1\n      tag_15\n      jump\t// in\n    tag_40:\n      mload(0x40)\n      dup1\n      swap2\n      sub\n      swap1\n      return\n        /* \"crowd_funding.sol\":209:227  uint public target */\n    tag_9:\n      callvalue\n      dup1\n      iszero\n      tag_41\n      jumpi\n      0x00\n      dup1\n      revert\n    tag_41:\n      pop\n      tag_42\n      tag_43\n      jump\t// in\n    tag_42:\n      mload(0x40)\n      tag_44\n      swap2\n      swap1\n      tag_15\n      jump\t// in\n    tag_44:\n      mload(0x40)\n      dup1\n      swap2\n      sub\n      swap1\n      return\n        /* \"crowd_funding.sol\":265:293  uint public noOfContributers */\n    tag_13:\n      sload(0x05)\n      dup2\n      jump\t// out\n        /* \"crowd_funding.sol\":182:202  uint public deadline */\n    tag_18:\n      sload(0x02)\n      dup2\n      jump\t// out\n        /* \"crowd_funding.sol\":104:146  mapping(address=>uint) public contributers */\n    tag_24:\n      mstore(0x20, 0x00)\n      dup1\n      0x00\n      mstore\n      keccak256(0x00, 0x40)\n      0x00\n      swap2\n      pop\n      swap1\n      pop\n      sload\n      dup2\n      jump\t// out\n        /* \"crowd_funding.sol\":153:175  address public manager */\n    tag_28:\n      0x01\n      0x00\n      swap1\n      sload\n      swap1\n      0x0100\n      exp\n      swap1\n      div\n      0xffffffffffffffffffffffffffffffffffffffff\n      and\n      dup2\n      jump\t// out\n        /* \"crowd_funding.sol\":550:879  function sedEth() public payable{\r... */\n    tag_32:\n        /* \"crowd_funding.sol\":617:625  deadline */\n      sload(0x02)\n        /* \"crowd_funding.sol\":601:616  block.timestamp */\n      timestamp\n        /* \"crowd_funding.sol\":601:625  block.timestamp<deadline */\n      lt\n        /* \"crowd_funding.sol\":593:648  require(block.timestamp<deadline,\"deadline has passed\") */\n      tag_46\n      jumpi\n      mload(0x40)\n      0x08c379a000000000000000000000000000000000000000000000000000000000\n      dup2\n      mstore\n      0x04\n      add\n      tag_47\n      swap1\n      tag_48\n      jump\t// in\n    tag_47:\n      mload(0x40)\n      dup1\n      swap2\n      sub\n      swap1\n      revert\n    tag_46:\n        /* \"crowd_funding.sol\":678:697  minimumContribution */\n      sload(0x06)\n        /* \"crowd_funding.sol\":667:676  msg.value */\n      callvalue\n        /* \"crowd_funding.sol\":667:697  msg.value>=minimumContribution */\n      lt\n      iszero\n        /* \"crowd_funding.sol\":659:731  require(msg.value>=minimumContribution,\"minimun Contrbution is not met\") */\n      tag_49\n      jumpi\n      mload(0x40)\n      0x08c379a000000000000000000000000000000000000000000000000000000000\n      dup2\n      mstore\n      0x04\n      add\n      tag_50\n      swap1\n      tag_51\n      jump\t// in\n    tag_50:\n      mload(0x40)\n      dup1\n      swap2\n      sub\n      swap1\n      revert\n    tag_49:\n        /* \"crowd_funding.sol\":773:774  0 */\n      0x00\n        /* \"crowd_funding.sol\":747:759  contributers */\n      dup1\n        /* \"crowd_funding.sol\":747:771  contributers[msg.sender] */\n      0x00\n        /* \"crowd_funding.sol\":760:770  msg.sender */\n      caller\n        /* \"crowd_funding.sol\":747:771  contributers[msg.sender] */\n      0xffffffffffffffffffffffffffffffffffffffff\n      and\n      0xffffffffffffffffffffffffffffffffffffffff\n      and\n      dup2\n      mstore\n      0x20\n      add\n      swap1\n      dup2\n      mstore\n      0x20\n      add\n      0x00\n      keccak256\n      sload\n        /* \"crowd_funding.sol\":747:774  contributers[msg.sender]==0 */\n      eq\n        /* \"crowd_funding.sol\":744:872  if(contributers[msg.sender]==0){ \r... */\n      iszero\n      tag_52\n      jumpi\n        /* \"crowd_funding.sol\":842:858  noOfContributers */\n      0x05\n      0x00\n        /* \"crowd_funding.sol\":842:860  noOfContributers++ */\n      dup2\n      sload\n      dup1\n      swap3\n      swap2\n      swap1\n      tag_53\n      swap1\n      tag_54\n      jump\t// in\n    tag_53:\n      swap2\n      swap1\n      pop\n      sstore\n      pop\n        /* \"crowd_funding.sol\":744:872  if(contributers[msg.sender]==0){ \r... */\n    tag_52:\n        /* \"crowd_funding.sol\":550:879  function sedEth() public payable{\r... */\n      jump\t// out\n        /* \"crowd_funding.sol\":300:331  uint public minimumContribution */\n    tag_35:\n      sload(0x06)\n      dup2\n      jump\t// out\n        /* \"crowd_funding.sol\":234:258  uint public raisedAmount */\n    tag_39:\n      sload(0x04)\n      dup2\n      jump\t// out\n        /* \"crowd_funding.sol\":209:227  uint public target */\n    tag_43:\n      sload(0x03)\n      dup2\n      jump\t// out\n        /* \"#utility.yul\":7:146   */\n    tag_56:\n        /* \"#utility.yul\":53:58   */\n      0x00\n        /* \"#utility.yul\":91:97   */\n      dup2\n        /* \"#utility.yul\":78:98   */\n      calldataload\n        /* \"#utility.yul\":69:98   */\n      swap1\n      pop\n        /* \"#utility.yul\":107:140   */\n      tag_58\n        /* \"#utility.yul\":134:139   */\n      dup2\n        /* \"#utility.yul\":107:140   */\n      tag_59\n      jump\t// in\n    tag_58:\n        /* \"#utility.yul\":59:146   */\n      swap3\n      swap2\n      pop\n      pop\n      jump\t// out\n        /* \"#utility.yul\":152:414   */\n    tag_23:\n        /* \"#utility.yul\":211:217   */\n      0x00\n        /* \"#utility.yul\":260:262   */\n      0x20\n        /* \"#utility.yul\":248:257   */\n      dup3\n        /* \"#utility.yul\":239:246   */\n      dup5\n        /* \"#utility.yul\":235:258   */\n      sub\n        /* \"#utility.yul\":231:263   */\n      slt\n        /* \"#utility.yul\":228:230   */\n      iszero\n      tag_61\n      jumpi\n        /* \"#utility.yul\":276:277   */\n      0x00\n        /* \"#utility.yul\":273:274   */\n      dup1\n        /* \"#utility.yul\":266:278   */\n      revert\n        /* \"#utility.yul\":228:230   */\n    tag_61:\n        /* \"#utility.yul\":319:320   */\n      0x00\n        /* \"#utility.yul\":344:397   */\n      tag_62\n        /* \"#utility.yul\":389:396   */\n      dup5\n        /* \"#utility.yul\":380:386   */\n      dup3\n        /* \"#utility.yul\":369:378   */\n      dup6\n        /* \"#utility.yul\":365:387   */\n      add\n        /* \"#utility.yul\":344:397   */\n      tag_56\n      jump\t// in\n    tag_62:\n        /* \"#utility.yul\":334:397   */\n      swap2\n      pop\n        /* \"#utility.yul\":290:407   */\n      pop\n        /* \"#utility.yul\":218:414   */\n      swap3\n      swap2\n      pop\n      pop\n      jump\t// out\n        /* \"#utility.yul\":420:538   */\n    tag_63:\n        /* \"#utility.yul\":507:531   */\n      tag_65\n        /* \"#utility.yul\":525:530   */\n      dup2\n        /* \"#utility.yul\":507:531   */\n      tag_66\n      jump\t// in\n    tag_65:\n        /* \"#utility.yul\":502:505   */\n      dup3\n        /* \"#utility.yul\":495:532   */\n      mstore\n        /* \"#utility.yul\":485:538   */\n      pop\n      pop\n      jump\t// out\n        /* \"#utility.yul\":544:910   */\n    tag_67:\n        /* \"#utility.yul\":686:689   */\n      0x00\n        /* \"#utility.yul\":707:774   */\n      tag_69\n        /* \"#utility.yul\":771:773   */\n      0x1e\n        /* \"#utility.yul\":766:769   */\n      dup4\n        /* \"#utility.yul\":707:774   */\n      tag_70\n      jump\t// in\n    tag_69:\n        /* \"#utility.yul\":700:774   */\n      swap2\n      pop\n        /* \"#utility.yul\":783:876   */\n      tag_71\n        /* \"#utility.yul\":872:875   */\n      dup3\n        /* \"#utility.yul\":783:876   */\n      tag_72\n      jump\t// in\n    tag_71:\n        /* \"#utility.yul\":901:903   */\n      0x20\n        /* \"#utility.yul\":896:899   */\n      dup3\n        /* \"#utility.yul\":892:904   */\n      add\n        /* \"#utility.yul\":885:904   */\n      swap1\n      pop\n        /* \"#utility.yul\":690:910   */\n      swap2\n      swap1\n      pop\n      jump\t// out\n        /* \"#utility.yul\":916:1282   */\n    tag_73:\n        /* \"#utility.yul\":1058:1061   */\n      0x00\n        /* \"#utility.yul\":1079:1146   */\n      tag_75\n        /* \"#utility.yul\":1143:1145   */\n      0x13\n        /* \"#utility.yul\":1138:1141   */\n      dup4\n        /* \"#utility.yul\":1079:1146   */\n      tag_70\n      jump\t// in\n    tag_75:\n        /* \"#utility.yul\":1072:1146   */\n      swap2\n      pop\n        /* \"#utility.yul\":1155:1248   */\n      tag_76\n        /* \"#utility.yul\":1244:1247   */\n      dup3\n        /* \"#utility.yul\":1155:1248   */\n      tag_77\n      jump\t// in\n    tag_76:\n        /* \"#utility.yul\":1273:1275   */\n      0x20\n        /* \"#utility.yul\":1268:1271   */\n      dup3\n        /* \"#utility.yul\":1264:1276   */\n      add\n        /* \"#utility.yul\":1257:1276   */\n      swap1\n      pop\n        /* \"#utility.yul\":1062:1282   */\n      swap2\n      swap1\n      pop\n      jump\t// out\n        /* \"#utility.yul\":1288:1406   */\n    tag_78:\n        /* \"#utility.yul\":1375:1399   */\n      tag_80\n        /* \"#utility.yul\":1393:1398   */\n      dup2\n        /* \"#utility.yul\":1375:1399   */\n      tag_81\n      jump\t// in\n    tag_80:\n        /* \"#utility.yul\":1370:1373   */\n      dup3\n        /* \"#utility.yul\":1363:1400   */\n      mstore\n        /* \"#utility.yul\":1353:1406   */\n      pop\n      pop\n      jump\t// out\n        /* \"#utility.yul\":1412:1634   */\n    tag_30:\n        /* \"#utility.yul\":1505:1509   */\n      0x00\n        /* \"#utility.yul\":1543:1545   */\n      0x20\n        /* \"#utility.yul\":1532:1541   */\n      dup3\n        /* \"#utility.yul\":1528:1546   */\n      add\n        /* \"#utility.yul\":1520:1546   */\n      swap1\n      pop\n        /* \"#utility.yul\":1556:1627   */\n      tag_83\n        /* \"#utility.yul\":1624:1625   */\n      0x00\n        /* \"#utility.yul\":1613:1622   */\n      dup4\n        /* \"#utility.yul\":1609:1626   */\n      add\n        /* \"#utility.yul\":1600:1606   */\n      dup5\n        /* \"#utility.yul\":1556:1627   */\n      tag_63\n      jump\t// in\n    tag_83:\n        /* \"#utility.yul\":1510:1634   */\n      swap3\n      swap2\n      pop\n      pop\n      jump\t// out\n        /* \"#utility.yul\":1640:2059   */\n    tag_51:\n        /* \"#utility.yul\":1806:1810   */\n      0x00\n        /* \"#utility.yul\":1844:1846   */\n      0x20\n        /* \"#utility.yul\":1833:1842   */\n      dup3\n        /* \"#utility.yul\":1829:1847   */\n      add\n        /* \"#utility.yul\":1821:1847   */\n      swap1\n      pop\n        /* \"#utility.yul\":1893:1902   */\n      dup2\n        /* \"#utility.yul\":1887:1891   */\n      dup2\n        /* \"#utility.yul\":1883:1903   */\n      sub\n        /* \"#utility.yul\":1879:1880   */\n      0x00\n        /* \"#utility.yul\":1868:1877   */\n      dup4\n        /* \"#utility.yul\":1864:1881   */\n      add\n        /* \"#utility.yul\":1857:1904   */\n      mstore\n        /* \"#utility.yul\":1921:2052   */\n      tag_85\n        /* \"#utility.yul\":2047:2051   */\n      dup2\n        /* \"#utility.yul\":1921:2052   */\n      tag_67\n      jump\t// in\n    tag_85:\n        /* \"#utility.yul\":1913:2052   */\n      swap1\n      pop\n        /* \"#utility.yul\":1811:2059   */\n      swap2\n      swap1\n      pop\n      jump\t// out\n        /* \"#utility.yul\":2065:2484   */\n    tag_48:\n        /* \"#utility.yul\":2231:2235   */\n      0x00\n        /* \"#utility.yul\":2269:2271   */\n      0x20\n        /* \"#utility.yul\":2258:2267   */\n      dup3\n        /* \"#utility.yul\":2254:2272   */\n      add\n        /* \"#utility.yul\":2246:2272   */\n      swap1\n      pop\n        /* \"#utility.yul\":2318:2327   */\n      dup2\n        /* \"#utility.yul\":2312:2316   */\n      dup2\n        /* \"#utility.yul\":2308:2328   */\n      sub\n        /* \"#utility.yul\":2304:2305   */\n      0x00\n        /* \"#utility.yul\":2293:2302   */\n      dup4\n        /* \"#utility.yul\":2289:2306   */\n      add\n        /* \"#utility.yul\":2282:2329   */\n      mstore\n        /* \"#utility.yul\":2346:2477   */\n      tag_87\n        /* \"#utility.yul\":2472:2476   */\n      dup2\n        /* \"#utility.yul\":2346:2477   */\n      tag_73\n      jump\t// in\n    tag_87:\n        /* \"#utility.yul\":2338:2477   */\n      swap1\n      pop\n        /* \"#utility.yul\":2236:2484   */\n      swap2\n      swap1\n      pop\n      jump\t// out\n        /* \"#utility.yul\":2490:2712   */\n    tag_15:\n        /* \"#utility.yul\":2583:2587   */\n      0x00\n        /* \"#utility.yul\":2621:2623   */\n      0x20\n        /* \"#utility.yul\":2610:2619   */\n      dup3\n        /* \"#utility.yul\":2606:2624   */\n      add\n        /* \"#utility.yul\":2598:2624   */\n      swap1\n      pop\n        /* \"#utility.yul\":2634:2705   */\n      tag_89\n        /* \"#utility.yul\":2702:2703   */\n      0x00\n        /* \"#utility.yul\":2691:2700   */\n      dup4\n        /* \"#utility.yul\":2687:2704   */\n      add\n        /* \"#utility.yul\":2678:2684   */\n      dup5\n        /* \"#utility.yul\":2634:2705   */\n      tag_78\n      jump\t// in\n    tag_89:\n        /* \"#utility.yul\":2588:2712   */\n      swap3\n      swap2\n      pop\n      pop\n      jump\t// out\n        /* \"#utility.yul\":2718:2887   */\n    tag_70:\n        /* \"#utility.yul\":2802:2813   */\n      0x00\n        /* \"#utility.yul\":2836:2842   */\n      dup3\n        /* \"#utility.yul\":2831:2834   */\n      dup3\n        /* \"#utility.yul\":2824:2843   */\n      mstore\n        /* \"#utility.yul\":2876:2880   */\n      0x20\n        /* \"#utility.yul\":2871:2874   */\n      dup3\n        /* \"#utility.yul\":2867:2881   */\n      add\n        /* \"#utility.yul\":2852:2881   */\n      swap1\n      pop\n        /* \"#utility.yul\":2814:2887   */\n      swap3\n      swap2\n      pop\n      pop\n      jump\t// out\n        /* \"#utility.yul\":2893:2989   */\n    tag_66:\n        /* \"#utility.yul\":2930:2937   */\n      0x00\n        /* \"#utility.yul\":2959:2983   */\n      tag_92\n        /* \"#utility.yul\":2977:2982   */\n      dup3\n        /* \"#utility.yul\":2959:2983   */\n      tag_93\n      jump\t// in\n    tag_92:\n        /* \"#utility.yul\":2948:2983   */\n      swap1\n      pop\n        /* \"#utility.yul\":2938:2989   */\n      swap2\n      swap1\n      pop\n      jump\t// out\n        /* \"#utility.yul\":2995:3121   */\n    tag_93:\n        /* \"#utility.yul\":3032:3039   */\n      0x00\n        /* \"#utility.yul\":3072:3114   */\n      0xffffffffffffffffffffffffffffffffffffffff\n        /* \"#utility.yul\":3065:3070   */\n      dup3\n        /* \"#utility.yul\":3061:3115   */\n      and\n        /* \"#utility.yul\":3050:3115   */\n      swap1\n      pop\n        /* \"#utility.yul\":3040:3121   */\n      swap2\n      swap1\n      pop\n      jump\t// out\n        /* \"#utility.yul\":3127:3204   */\n    tag_81:\n        /* \"#utility.yul\":3164:3171   */\n      0x00\n        /* \"#utility.yul\":3193:3198   */\n      dup2\n        /* \"#utility.yul\":3182:3198   */\n      swap1\n      pop\n        /* \"#utility.yul\":3172:3204   */\n      swap2\n      swap1\n      pop\n      jump\t// out\n        /* \"#utility.yul\":3210:3443   */\n    tag_54:\n        /* \"#utility.yul\":3249:3252   */\n      0x00\n        /* \"#utility.yul\":3272:3296   */\n      tag_97\n        /* \"#utility.yul\":3290:3295   */\n      dup3\n        /* \"#utility.yul\":3272:3296   */\n      tag_81\n      jump\t// in\n    tag_97:\n        /* \"#utility.yul\":3263:3296   */\n      swap2\n      pop\n        /* \"#utility.yul\":3318:3384   */\n      0xffffffffffffffffffffffffffffffffffffffffffffffffffffffffffffffff\n        /* \"#utility.yul\":3311:3316   */\n      dup3\n        /* \"#utility.yul\":3308:3385   */\n      eq\n        /* \"#utility.yul\":3305:3307   */\n      iszero\n      tag_98\n      jumpi\n        /* \"#utility.yul\":3388:3406   */\n      tag_99\n      tag_100\n      jump\t// in\n    tag_99:\n        /* \"#utility.yul\":3305:3307   */\n    tag_98:\n        /* \"#utility.yul\":3435:3436   */\n      0x01\n        /* \"#utility.yul\":3428:3433   */\n      dup3\n        /* \"#utility.yul\":3424:3437   */\n      add\n        /* \"#utility.yul\":3417:3437   */\n      swap1\n      pop\n        /* \"#utility.yul\":3253:3443   */\n      swap2\n      swap1\n      pop\n      jump\t// out\n        /* \"#utility.yul\":3449:3629   */\n    tag_100:\n        /* \"#utility.yul\":3497:3574   */\n      0x4e487b7100000000000000000000000000000000000000000000000000000000\n        /* \"#utility.yul\":3494:3495   */\n      0x00\n        /* \"#utility.yul\":3487:3575   */\n      mstore\n        /* \"#utility.yul\":3594:3598   */\n      0x11\n        /* \"#utility.yul\":3591:3592   */\n      0x04\n        /* \"#utility.yul\":3584:3599   */\n      mstore\n        /* \"#utility.yul\":3618:3622   */\n      0x24\n        /* \"#utility.yul\":3615:3616   */\n      0x00\n        /* \"#utility.yul\":3608:3623   */\n      revert\n        /* \"#utility.yul\":3635:3815   */\n    tag_72:\n        /* \"#utility.yul\":3775:3807   */\n      0x6d696e696d756e20436f6e7472627574696f6e206973206e6f74206d65740000\n        /* \"#utility.yul\":3771:3772   */\n      0x00\n        /* \"#utility.yul\":3763:3769   */\n      dup3\n        /* \"#utility.yul\":3759:3773   */\n      add\n        /* \"#utility.yul\":3752:3808   */\n      mstore\n        /* \"#utility.yul\":3741:3815   */\n      pop\n      jump\t// out\n        /* \"#utility.yul\":3821:3990   */\n    tag_77:\n        /* \"#utility.yul\":3961:3982   */\n      0x646561646c696e65206861732070617373656400000000000000000000000000\n        /* \"#utility.yul\":3957:3958   */\n      0x00\n        /* \"#utility.yul\":3949:3955   */\n      dup3\n        /* \"#utility.yul\":3945:3959   */\n      add\n        /* \"#utility.yul\":3938:3983   */\n      mstore\n        /* \"#utility.yul\":3927:3990   */\n      pop\n      jump\t// out\n        /* \"#utility.yul\":3996:4118   */\n    tag_59:\n        /* \"#utility.yul\":4069:4093   */\n      tag_105\n        /* \"#utility.yul\":4087:4092   */\n      dup2\n        /* \"#utility.yul\":4069:4093   */\n      tag_66\n      jump\t// in\n    tag_105:\n        /* \"#utility.yul\":4062:4067   */\n      dup2\n        /* \"#utility.yul\":4059:4094   */\n      eq\n        /* \"#utility.yul\":4049:4051   */\n      tag_106\n      jumpi\n        /* \"#utility.yul\":4108:4109   */\n      0x00\n        /* \"#utility.yul\":4105:4106   */\n      dup1\n        /* \"#utility.yul\":4098:4110   */\n      revert\n        /* \"#utility.yul\":4049:4051   */\n    tag_106:\n        /* \"#utility.yul\":4039:4118   */\n      pop\n      jump\t// out\n\n    auxdata: 0xa2646970667358221220cac74447e9a1816ff7529d8da5fca1f36bb49aff01cab9fe990410e87514140f64736f6c63430008040033\n}\n",
				"bytecode": {
					"linkReferences": {},
					"object": "608060405234801561001057600080fd5b5060405161072d38038061072d833981810160405281019061003291906100b0565b81600381905550804261004591906100ec565b600281905550606460068190555033600160006101000a81548173ffffffffffffffffffffffffffffffffffffffff021916908373ffffffffffffffffffffffffffffffffffffffff1602179055505050610192565b6000815190506100aa8161017b565b92915050565b600080604083850312156100c357600080fd5b60006100d18582860161009b565b92505060206100e28582860161009b565b9150509250929050565b60006100f782610142565b915061010283610142565b9250827fffffffffffffffffffffffffffffffffffffffffffffffffffffffffffffffff038211156101375761013661014c565b5b828201905092915050565b6000819050919050565b7f4e487b7100000000000000000000000000000000000000000000000000000000600052601160045260246000fd5b61018481610142565b811461018f57600080fd5b50565b61058c806101a16000396000f3fe60806040526004361061007b5760003560e01c80635edec2c41161004e5780635edec2c41461013e578063937e09b114610148578063c59ee1dc14610173578063d4b839921461019e5761007b565b806324274ee91461008057806329dcb0cf146100ab57806334b66460146100d6578063481c6a7514610113575b600080fd5b34801561008c57600080fd5b506100956101c9565b6040516100a2919061040d565b60405180910390f35b3480156100b757600080fd5b506100c06101cf565b6040516100cd919061040d565b60405180910390f35b3480156100e257600080fd5b506100fd60048036038101906100f89190610325565b6101d5565b60405161010a919061040d565b60405180910390f35b34801561011f57600080fd5b506101286101ed565b60405161013591906103b2565b60405180910390f35b610146610213565b005b34801561015457600080fd5b5061015d6102fe565b60405161016a919061040d565b60405180910390f35b34801561017f57600080fd5b50610188610304565b604051610195919061040d565b60405180910390f35b3480156101aa57600080fd5b506101b361030a565b6040516101c0919061040d565b60405180910390f35b60055481565b60025481565b60006020528060005260406000206000915090505481565b600160009054906101000a900473ffffffffffffffffffffffffffffffffffffffff1681565b6002544210610257576040517f08c379a000000000000000000000000000000000000000000000000000000000815260040161024e906103ed565b60405180910390fd5b60065434101561029c576040517f08c379a0000000000000000000000000000000000000000000000000000000008152600401610293906103cd565b60405180910390fd5b60008060003373ffffffffffffffffffffffffffffffffffffffff1673ffffffffffffffffffffffffffffffffffffffff1681526020019081526020016000205414156102fc57600560008154809291906102f690610475565b91905055505b565b60065481565b60045481565b60035481565b60008135905061031f8161053f565b92915050565b60006020828403121561033757600080fd5b600061034584828501610310565b91505092915050565b61035781610439565b82525050565b600061036a601e83610428565b9150610375826104ed565b602082019050919050565b600061038d601383610428565b915061039882610516565b602082019050919050565b6103ac8161046b565b82525050565b60006020820190506103c7600083018461034e565b92915050565b600060208201905081810360008301526103e68161035d565b9050919050565b6000602082019050818103600083015261040681610380565b9050919050565b600060208201905061042260008301846103a3565b92915050565b600082825260208201905092915050565b60006104448261044b565b9050919050565b600073ffffffffffffffffffffffffffffffffffffffff82169050919050565b6000819050919050565b60006104808261046b565b91507fffffffffffffffffffffffffffffffffffffffffffffffffffffffffffffffff8214156104b3576104b26104be565b5b600182019050919050565b7f4e487b7100000000000000000000000000000000000000000000000000000000600052601160045260246000fd5b7f6d696e696d756e20436f6e7472627574696f6e206973206e6f74206d65740000600082015250565b7f646561646c696e65206861732070617373656400000000000000000000000000600082015250565b61054881610439565b811461055357600080fd5b5056fea2646970667358221220cac74447e9a1816ff7529d8da5fca1f36bb49aff01cab9fe990410e87514140f64736f6c63430008040033",
					"opcodes": "PUSH1 0x80 PUSH1 0x40 MSTORE CALLVALUE DUP1 ISZERO PUSH2 0x10 JUMPI PUSH1 0x0 DUP1 REVERT JUMPDEST POP PUSH1 0x40 MLOAD PUSH2 0x72D CODESIZE SUB DUP1 PUSH2 0x72D DUP4 CODECOPY DUP2 DUP2 ADD PUSH1 0x40 MSTORE DUP2 ADD SWAP1 PUSH2 0x32 SWAP2 SWAP1 PUSH2 0xB0 JUMP JUMPDEST DUP2 PUSH1 0x3 DUP2 SWAP1 SSTORE POP DUP1 TIMESTAMP PUSH2 0x45 SWAP2 SWAP1 PUSH2 0xEC JUMP JUMPDEST PUSH1 0x2 DUP2 SWAP1 SSTORE POP PUSH1 0x64 PUSH1 0x6 DUP2 SWAP1 SSTORE POP CALLER PUSH1 0x1 PUSH1 0x0 PUSH2 0x100 EXP DUP2 SLOAD DUP2 PUSH20 0xFFFFFFFFFFFFFFFFFFFFFFFFFFFFFFFFFFFFFFFF MUL NOT AND SWAP1 DUP4 PUSH20 0xFFFFFFFFFFFFFFFFFFFFFFFFFFFFFFFFFFFFFFFF AND MUL OR SWAP1 SSTORE POP POP POP PUSH2 0x192 JUMP JUMPDEST PUSH1 0x0 DUP2 MLOAD SWAP1 POP PUSH2 0xAA DUP2 PUSH2 0x17B JUMP JUMPDEST SWAP3 SWAP2 POP POP JUMP JUMPDEST PUSH1 0x0 DUP1 PUSH1 0x40 DUP4 DUP6 SUB SLT ISZERO PUSH2 0xC3 JUMPI PUSH1 0x0 DUP1 REVERT JUMPDEST PUSH1 0x0 PUSH2 0xD1 DUP6 DUP3 DUP7 ADD PUSH2 0x9B JUMP JUMPDEST SWAP3 POP POP PUSH1 0x20 PUSH2 0xE2 DUP6 DUP3 DUP7 ADD PUSH2 0x9B JUMP JUMPDEST SWAP2 POP POP SWAP3 POP SWAP3 SWAP1 POP JUMP JUMPDEST PUSH1 0x0 PUSH2 0xF7 DUP3 PUSH2 0x142 JUMP JUMPDEST SWAP2 POP PUSH2 0x102 DUP4 PUSH2 0x142 JUMP JUMPDEST SWAP3 POP DUP3 PUSH32 0xFFFFFFFFFFFFFFFFFFFFFFFFFFFFFFFFFFFFFFFFFFFFFFFFFFFFFFFFFFFFFFFF SUB DUP3 GT ISZERO PUSH2 0x137 JUMPI PUSH2 0x136 PUSH2 0x14C JUMP JUMPDEST JUMPDEST DUP3 DUP3 ADD SWAP1 POP SWAP3 SWAP2 POP POP JUMP JUMPDEST PUSH1 0x0 DUP2 SWAP1 POP SWAP2 SWAP1 POP JUMP JUMPDEST PUSH32 0x4E487B7100000000000000000000000000000000000000000000000000000000 PUSH1 0x0 MSTORE PUSH1 0x11 PUSH1 0x4 MSTORE PUSH1 0x24 PUSH1 0x0 REVERT JUMPDEST PUSH2 0x184 DUP2 PUSH2 0x142 JUMP JUMPDEST DUP2 EQ PUSH2 0x18F JUMPI PUSH1 0x0 DUP1 REVERT JUMPDEST POP JUMP JUMPDEST PUSH2 0x58C DUP1 PUSH2 0x1A1 PUSH1 0x0 CODECOPY PUSH1 0x0 RETURN INVALID PUSH1 0x80 PUSH1 0x40 MSTORE PUSH1 0x4 CALLDATASIZE LT PUSH2 0x7B JUMPI PUSH1 0x0 CALLDATALOAD PUSH1 0xE0 SHR DUP1 PUSH4 0x5EDEC2C4 GT PUSH2 0x4E JUMPI DUP1 PUSH4 0x5EDEC2C4 EQ PUSH2 0x13E JUMPI DUP1 PUSH4 0x937E09B1 EQ PUSH2 0x148 JUMPI DUP1 PUSH4 0xC59EE1DC EQ PUSH2 0x173 JUMPI DUP1 PUSH4 0xD4B83992 EQ PUSH2 0x19E JUMPI PUSH2 0x7B JUMP JUMPDEST DUP1 PUSH4 0x24274EE9 EQ PUSH2 0x80 JUMPI DUP1 PUSH4 0x29DCB0CF EQ PUSH2 0xAB JUMPI DUP1 PUSH4 0x34B66460 EQ PUSH2 0xD6 JUMPI DUP1 PUSH4 0x481C6A75 EQ PUSH2 0x113 JUMPI JUMPDEST PUSH1 0x0 DUP1 REVERT JUMPDEST CALLVALUE DUP1 ISZERO PUSH2 0x8C JUMPI PUSH1 0x0 DUP1 REVERT JUMPDEST POP PUSH2 0x95 PUSH2 0x1C9 JUMP JUMPDEST PUSH1 0x40 MLOAD PUSH2 0xA2 SWAP2 SWAP1 PUSH2 0x40D JUMP JUMPDEST PUSH1 0x40 MLOAD DUP1 SWAP2 SUB SWAP1 RETURN JUMPDEST CALLVALUE DUP1 ISZERO PUSH2 0xB7 JUMPI PUSH1 0x0 DUP1 REVERT JUMPDEST POP PUSH2 0xC0 PUSH2 0x1CF JUMP JUMPDEST PUSH1 0x40 MLOAD PUSH2 0xCD SWAP2 SWAP1 PUSH2 0x40D JUMP JUMPDEST PUSH1 0x40 MLOAD DUP1 SWAP2 SUB SWAP1 RETURN JUMPDEST CALLVALUE DUP1 ISZERO PUSH2 0xE2 JUMPI PUSH1 0x0 DUP1 REVERT JUMPDEST POP PUSH2 0xFD PUSH1 0x4 DUP1 CALLDATASIZE SUB DUP2 ADD SWAP1 PUSH2 0xF8 SWAP2 SWAP1 PUSH2 0x325 JUMP JUMPDEST PUSH2 0x1D5 JUMP JUMPDEST PUSH1 0x40 MLOAD PUSH2 0x10A SWAP2 SWAP1 PUSH2 0x40D JUMP JUMPDEST PUSH1 0x40 MLOAD DUP1 SWAP2 SUB SWAP1 RETURN JUMPDEST CALLVALUE DUP1 ISZERO PUSH2 0x11F JUMPI PUSH1 0x0 DUP1 REVERT JUMPDEST POP PUSH2 0x128 PUSH2 0x1ED JUMP JUMPDEST PUSH1 0x40 MLOAD PUSH2 0x135 SWAP2 SWAP1 PUSH2 0x3B2 JUMP JUMPDEST PUSH1 0x40 MLOAD DUP1 SWAP2 SUB SWAP1 RETURN JUMPDEST PUSH2 0x146 PUSH2 0x213 JUMP JUMPDEST STOP JUMPDEST CALLVALUE DUP1 ISZERO PUSH2 0x154 JUMPI PUSH1 0x0 DUP1 REVERT JUMPDEST POP PUSH2 0x15D PUSH2 0x2FE JUMP JUMPDEST PUSH1 0x40 MLOAD PUSH2 0x16A SWAP2 SWAP1 PUSH2 0x40D JUMP JUMPDEST PUSH1 0x40 MLOAD DUP1 SWAP2 SUB SWAP1 RETURN JUMPDEST CALLVALUE DUP1 ISZERO PUSH2 0x17F JUMPI PUSH1 0x0 DUP1 REVERT JUMPDEST POP PUSH2 0x188 PUSH2 0x304 JUMP JUMPDEST PUSH1 0x40 MLOAD PUSH2 0x195 SWAP2 SWAP1 PUSH2 0x40D JUMP JUMPDEST PUSH1 0x40 MLOAD DUP1 SWAP2 SUB SWAP1 RETURN JUMPDEST CALLVALUE DUP1 ISZERO PUSH2 0x1AA JUMPI PUSH1 0x0 DUP1 REVERT JUMPDEST POP PUSH2 0x1B3 PUSH2 0x30A JUMP JUMPDEST PUSH1 0x40 MLOAD PUSH2 0x1C0 SWAP2 SWAP1 PUSH2 0x40D JUMP JUMPDEST PUSH1 0x40 MLOAD DUP1 SWAP2 SUB SWAP1 RETURN JUMPDEST PUSH1 0x5 SLOAD DUP2 JUMP JUMPDEST PUSH1 0x2 SLOAD DUP2 JUMP JUMPDEST PUSH1 0x0 PUSH1 0x20 MSTORE DUP1 PUSH1 0x0 MSTORE PUSH1 0x40 PUSH1 0x0 KECCAK256 PUSH1 0x0 SWAP2 POP SWAP1 POP SLOAD DUP2 JUMP JUMPDEST PUSH1 0x1 PUSH1 0x0 SWAP1 SLOAD SWAP1 PUSH2 0x100 EXP SWAP1 DIV PUSH20 0xFFFFFFFFFFFFFFFFFFFFFFFFFFFFFFFFFFFFFFFF AND DUP2 JUMP JUMPDEST PUSH1 0x2 SLOAD TIMESTAMP LT PUSH2 0x257 JUMPI PUSH1 0x40 MLOAD PUSH32 0x8C379A000000000000000000000000000000000000000000000000000000000 DUP2 MSTORE PUSH1 0x4 ADD PUSH2 0x24E SWAP1 PUSH2 0x3ED JUMP JUMPDEST PUSH1 0x40 MLOAD DUP1 SWAP2 SUB SWAP1 REVERT JUMPDEST PUSH1 0x6 SLOAD CALLVALUE LT ISZERO PUSH2 0x29C JUMPI PUSH1 0x40 MLOAD PUSH32 0x8C379A000000000000000000000000000000000000000000000000000000000 DUP2 MSTORE PUSH1 0x4 ADD PUSH2 0x293 SWAP1 PUSH2 0x3CD JUMP JUMPDEST PUSH1 0x40 MLOAD DUP1 SWAP2 SUB SWAP1 REVERT JUMPDEST PUSH1 0x0 DUP1 PUSH1 0x0 CALLER PUSH20 0xFFFFFFFFFFFFFFFFFFFFFFFFFFFFFFFFFFFFFFFF AND PUSH20 0xFFFFFFFFFFFFFFFFFFFFFFFFFFFFFFFFFFFFFFFF AND DUP2 MSTORE PUSH1 0x20 ADD SWAP1 DUP2 MSTORE PUSH1 0x20 ADD PUSH1 0x0 KECCAK256 SLOAD EQ ISZERO PUSH2 0x2FC JUMPI PUSH1 0x5 PUSH1 0x0 DUP2 SLOAD DUP1 SWAP3 SWAP2 SWAP1 PUSH2 0x2F6 SWAP1 PUSH2 0x475 JUMP JUMPDEST SWAP2 SWAP1 POP SSTORE POP JUMPDEST JUMP JUMPDEST PUSH1 0x6 SLOAD DUP2 JUMP JUMPDEST PUSH1 0x4 SLOAD DUP2 JUMP JUMPDEST PUSH1 0x3 SLOAD DUP2 JUMP JUMPDEST PUSH1 0x0 DUP2 CALLDATALOAD SWAP1 POP PUSH2 0x31F DUP2 PUSH2 0x53F JUMP JUMPDEST SWAP3 SWAP2 POP POP JUMP JUMPDEST PUSH1 0x0 PUSH1 0x20 DUP3 DUP5 SUB SLT ISZERO PUSH2 0x337 JUMPI PUSH1 0x0 DUP1 REVERT JUMPDEST PUSH1 0x0 PUSH2 0x345 DUP5 DUP3 DUP6 ADD PUSH2 0x310 JUMP JUMPDEST SWAP2 POP POP SWAP3 SWAP2 POP POP JUMP JUMPDEST PUSH2 0x357 DUP2 PUSH2 0x439 JUMP JUMPDEST DUP3 MSTORE POP POP JUMP JUMPDEST PUSH1 0x0 PUSH2 0x36A PUSH1 0x1E DUP4 PUSH2 0x428 JUMP JUMPDEST SWAP2 POP PUSH2 0x375 DUP3 PUSH2 0x4ED JUMP JUMPDEST PUSH1 0x20 DUP3 ADD SWAP1 POP SWAP2 SWAP1 POP JUMP JUMPDEST PUSH1 0x0 PUSH2 0x38D PUSH1 0x13 DUP4 PUSH2 0x428 JUMP JUMPDEST SWAP2 POP PUSH2 0x398 DUP3 PUSH2 0x516 JUMP JUMPDEST PUSH1 0x20 DUP3 ADD SWAP1 POP SWAP2 SWAP1 POP JUMP JUMPDEST PUSH2 0x3AC DUP2 PUSH2 0x46B JUMP JUMPDEST DUP3 MSTORE POP POP JUMP JUMPDEST PUSH1 0x0 PUSH1 0x20 DUP3 ADD SWAP1 POP PUSH2 0x3C7 PUSH1 0x0 DUP4 ADD DUP5 PUSH2 0x34E JUMP JUMPDEST SWAP3 SWAP2 POP POP JUMP JUMPDEST PUSH1 0x0 PUSH1 0x20 DUP3 ADD SWAP1 POP DUP2 DUP2 SUB PUSH1 0x0 DUP4 ADD MSTORE PUSH2 0x3E6 DUP2 PUSH2 0x35D JUMP JUMPDEST SWAP1 POP SWAP2 SWAP1 POP JUMP JUMPDEST PUSH1 0x0 PUSH1 0x20 DUP3 ADD SWAP1 POP DUP2 DUP2 SUB PUSH1 0x0 DUP4 ADD MSTORE PUSH2 0x406 DUP2 PUSH2 0x380 JUMP JUMPDEST SWAP1 POP SWAP2 SWAP1 POP JUMP JUMPDEST PUSH1 0x0 PUSH1 0x20 DUP3 ADD SWAP1 POP PUSH2 0x422 PUSH1 0x0 DUP4 ADD DUP5 PUSH2 0x3A3 JUMP JUMPDEST SWAP3 SWAP2 POP POP JUMP JUMPDEST PUSH1 0x0 DUP3 DUP3 MSTORE PUSH1 0x20 DUP3 ADD SWAP1 POP SWAP3 SWAP2 POP POP JUMP JUMPDEST PUSH1 0x0 PUSH2 0x444 DUP3 PUSH2 0x44B JUMP JUMPDEST SWAP1 POP SWAP2 SWAP1 POP JUMP JUMPDEST PUSH1 0x0 PUSH20 0xFFFFFFFFFFFFFFFFFFFFFFFFFFFFFFFFFFFFFFFF DUP3 AND SWAP1 POP SWAP2 SWAP1 POP JUMP JUMPDEST PUSH1 0x0 DUP2 SWAP1 POP SWAP2 SWAP1 POP JUMP JUMPDEST PUSH1 0x0 PUSH2 0x480 DUP3 PUSH2 0x46B JUMP JUMPDEST SWAP2 POP PUSH32 0xFFFFFFFFFFFFFFFFFFFFFFFFFFFFFFFFFFFFFFFFFFFFFFFFFFFFFFFFFFFFFFFF DUP3 EQ ISZERO PUSH2 0x4B3 JUMPI PUSH2 0x4B2 PUSH2 0x4BE JUMP JUMPDEST JUMPDEST PUSH1 0x1 DUP3 ADD SWAP1 POP SWAP2 SWAP1 POP JUMP JUMPDEST PUSH32 0x4E487B7100000000000000000000000000000000000000000000000000000000 PUSH1 0x0 MSTORE PUSH1 0x11 PUSH1 0x4 MSTORE PUSH1 0x24 PUSH1 0x0 REVERT JUMPDEST PUSH32 0x6D696E696D756E20436F6E7472627574696F6E206973206E6F74206D65740000 PUSH1 0x0 DUP3 ADD MSTORE POP JUMP JUMPDEST PUSH32 0x646561646C696E65206861732070617373656400000000000000000000000000 PUSH1 0x0 DUP3 ADD MSTORE POP JUMP JUMPDEST PUSH2 0x548 DUP2 PUSH2 0x439 JUMP JUMPDEST DUP2 EQ PUSH2 0x553 JUMPI PUSH1 0x0 DUP1 REVERT JUMPDEST POP JUMP INVALID LOG2 PUSH5 0x6970667358 0x22 SLT KECCAK256 0xCA 0xC7 DIFFICULTY SELFBALANCE 0xE9 LOG1 DUP2 PUSH16 0xF7529D8DA5FCA1F36BB49AFF01CAB9FE SWAP10 DIV LT 0xE8 PUSH22 0x14140F64736F6C634300080400330000000000000000 "
				},
				"gasEstimates": {
					"creation": {
						"codeDepositCost": "284000",
						"executionCost": "infinite",
						"totalCost": "infinite"
					},
					"external": {
						"contributers(address)": "1559",
						"deadline()": "1152",
						"manager()": "1281",
						"minimumContribution()": "1151",
						"noOfContributers()": "1130",
						"raisedAmount()": "1173",
						"sedEth()": "23642",
						"target()": "1195"
					}
				},
				"methodIdentifiers": {
					"contributers(address)": "34b66460",
					"deadline()": "29dcb0cf",
					"manager()": "481c6a75",
					"minimumContribution()": "937e09b1",
					"noOfContributers()": "24274ee9",
					"raisedAmount()": "c59ee1dc",
					"sedEth()": "5edec2c4",
					"target()": "d4b83992"
				}
			},
			"storageLayout": {
				"storage": [
					{
						"astId": 5,
						"contract": "crowd_funding.sol:CrowdFunding",
						"label": "contributers",
						"offset": 0,
						"slot": "0",
						"type": "t_mapping(t_address,t_uint256)"
					},
					{
						"astId": 7,
						"contract": "crowd_funding.sol:CrowdFunding",
						"label": "manager",
						"offset": 0,
						"slot": "1",
						"type": "t_address"
					},
					{
						"astId": 9,
						"contract": "crowd_funding.sol:CrowdFunding",
						"label": "deadline",
						"offset": 0,
						"slot": "2",
						"type": "t_uint256"
					},
					{
						"astId": 11,
						"contract": "crowd_funding.sol:CrowdFunding",
						"label": "target",
						"offset": 0,
						"slot": "3",
						"type": "t_uint256"
					},
					{
						"astId": 13,
						"contract": "crowd_funding.sol:CrowdFunding",
						"label": "raisedAmount",
						"offset": 0,
						"slot": "4",
						"type": "t_uint256"
					},
					{
						"astId": 15,
						"contract": "crowd_funding.sol:CrowdFunding",
						"label": "noOfContributers",
						"offset": 0,
						"slot": "5",
						"type": "t_uint256"
					},
					{
						"astId": 17,
						"contract": "crowd_funding.sol:CrowdFunding",
						"label": "minimumContribution",
						"offset": 0,
						"slot": "6",
						"type": "t_uint256"
					}
				],
				"types": {
					"t_address": {
						"encoding": "inplace",
						"label": "address",
						"numberOfBytes": "20"
					},
					"t_mapping(t_address,t_uint256)": {
						"encoding": "mapping",
						"key": "t_address",
						"label": "mapping(address => uint256)",
						"numberOfBytes": "32",
						"value": "t_uint256"
					},
					"t_uint256": {
						"encoding": "inplace",
						"label": "uint256",
						"numberOfBytes": "32"
					}
				}
			},
			"userdoc": {
				"kind": "user",
				"methods": {},
				"version": 1
			}
		}
	}
}