{
	"crowd_funding.sol": {
		"CrowdFunding": {
			"abi": [
				{
					"inputs": [
						{
							"internalType": "uint256",
							"name": "_target",
							"type": "uint256"
						},
						{
							"internalType": "uint256",
							"name": "_deadline",
							"type": "uint256"
						}
					],
					"stateMutability": "nonpayable",
					"type": "constructor"
				},
				{
					"inputs": [
						{
							"internalType": "address",
							"name": "",
							"type": "address"
						}
					],
					"name": "contributers",
					"outputs": [
						{
							"internalType": "uint256",
							"name": "",
							"type": "uint256"
						}
					],
					"stateMutability": "view",
					"type": "function"
				},
				{
					"inputs": [],
					"name": "deadline",
					"outputs": [
						{
							"internalType": "uint256",
							"name": "",
							"type": "uint256"
						}
					],
					"stateMutability": "view",
					"type": "function"
				},
				{
					"inputs": [],
					"name": "getContractBalance",
					"outputs": [
						{
							"internalType": "uint256",
							"name": "",
							"type": "uint256"
						}
					],
					"stateMutability": "view",
					"type": "function"
				},
				{
					"inputs": [],
					"name": "manager",
					"outputs": [
						{
							"internalType": "address",
							"name": "",
							"type": "address"
						}
					],
					"stateMutability": "view",
					"type": "function"
				},
				{
					"inputs": [],
					"name": "minimumContribution",
					"outputs": [
						{
							"internalType": "uint256",
							"name": "",
							"type": "uint256"
						}
					],
					"stateMutability": "view",
					"type": "function"
				},
				{
					"inputs": [],
					"name": "noOfContributers",
					"outputs": [
						{
							"internalType": "uint256",
							"name": "",
							"type": "uint256"
						}
					],
					"stateMutability": "view",
					"type": "function"
				},
				{
					"inputs": [],
					"name": "raisedAmount",
					"outputs": [
						{
							"internalType": "uint256",
							"name": "",
							"type": "uint256"
						}
					],
					"stateMutability": "view",
					"type": "function"
				},
				{
					"inputs": [],
					"name": "refund",
					"outputs": [],
					"stateMutability": "nonpayable",
					"type": "function"
				},
				{
					"inputs": [],
					"name": "sedEth",
					"outputs": [],
					"stateMutability": "payable",
					"type": "function"
				},
				{
					"inputs": [],
					"name": "target",
					"outputs": [
						{
							"internalType": "uint256",
							"name": "",
							"type": "uint256"
						}
					],
					"stateMutability": "view",
					"type": "function"
				}
			],
			"devdoc": {
				"kind": "dev",
				"methods": {},
				"version": 1
			},
			"evm": {
				"assembly": "    /* \"crowd_funding.sol\":76:1371  contract CrowdFunding{\r... */\n  mstore(0x40, 0x80)\n    /* \"crowd_funding.sol\":340:633  constructor(uint _target,uint _deadline){\r... */\n  callvalue\n  dup1\n  iszero\n  tag_1\n  jumpi\n  0x00\n  dup1\n  revert\ntag_1:\n  pop\n  mload(0x40)\n  sub(codesize, bytecodeSize)\n  dup1\n  bytecodeSize\n  dup4\n  codecopy\n  dup2\n  dup2\n  add\n  0x40\n  mstore\n  dup2\n  add\n  swap1\n  tag_2\n  swap2\n  swap1\n  tag_3\n  jump\t// in\ntag_2:\n    /* \"crowd_funding.sol\":398:405  _target */\n  dup2\n    /* \"crowd_funding.sol\":391:397  target */\n  0x03\n    /* \"crowd_funding.sol\":391:405  target=_target */\n  dup2\n  swap1\n  sstore\n  pop\n    /* \"crowd_funding.sol\":441:450  _deadline */\n  dup1\n    /* \"crowd_funding.sol\":425:440  block.timestamp */\n  timestamp\n    /* \"crowd_funding.sol\":425:450  block.timestamp+_deadline */\n  tag_6\n  swap2\n  swap1\n  tag_7\n  jump\t// in\ntag_6:\n    /* \"crowd_funding.sol\":416:424  deadline */\n  0x02\n    /* \"crowd_funding.sol\":416:450  deadline=block.timestamp+_deadline */\n  dup2\n  swap1\n  sstore\n  pop\n    /* \"crowd_funding.sol\":498:505  100 wei */\n  0x64\n    /* \"crowd_funding.sol\":478:497  minimumContribution */\n  0x06\n    /* \"crowd_funding.sol\":478:505  minimumContribution=100 wei */\n  dup2\n  swap1\n  sstore\n  pop\n    /* \"crowd_funding.sol\":524:534  msg.sender */\n  caller\n    /* \"crowd_funding.sol\":516:523  manager */\n  0x01\n  0x00\n    /* \"crowd_funding.sol\":516:534  manager=msg.sender */\n  0x0100\n  exp\n  dup2\n  sload\n  dup2\n  0xffffffffffffffffffffffffffffffffffffffff\n  mul\n  not\n  and\n  swap1\n  dup4\n  0xffffffffffffffffffffffffffffffffffffffff\n  and\n  mul\n  or\n  swap1\n  sstore\n  pop\n    /* \"crowd_funding.sol\":340:633  constructor(uint _target,uint _deadline){\r... */\n  pop\n  pop\n    /* \"crowd_funding.sol\":76:1371  contract CrowdFunding{\r... */\n  jump(tag_8)\n    /* \"#utility.yul\":7:150   */\ntag_10:\n    /* \"#utility.yul\":64:69   */\n  0x00\n    /* \"#utility.yul\":95:101   */\n  dup2\n    /* \"#utility.yul\":89:102   */\n  mload\n    /* \"#utility.yul\":80:102   */\n  swap1\n  pop\n    /* \"#utility.yul\":111:144   */\n  tag_12\n    /* \"#utility.yul\":138:143   */\n  dup2\n    /* \"#utility.yul\":111:144   */\n  tag_13\n  jump\t// in\ntag_12:\n    /* \"#utility.yul\":70:150   */\n  swap3\n  swap2\n  pop\n  pop\n  jump\t// out\n    /* \"#utility.yul\":156:596   */\ntag_3:\n    /* \"#utility.yul\":235:241   */\n  0x00\n    /* \"#utility.yul\":243:249   */\n  dup1\n    /* \"#utility.yul\":292:294   */\n  0x40\n    /* \"#utility.yul\":280:289   */\n  dup4\n    /* \"#utility.yul\":271:278   */\n  dup6\n    /* \"#utility.yul\":267:290   */\n  sub\n    /* \"#utility.yul\":263:295   */\n  slt\n    /* \"#utility.yul\":260:262   */\n  iszero\n  tag_15\n  jumpi\n    /* \"#utility.yul\":308:309   */\n  0x00\n    /* \"#utility.yul\":305:306   */\n  dup1\n    /* \"#utility.yul\":298:310   */\n  revert\n    /* \"#utility.yul\":260:262   */\ntag_15:\n    /* \"#utility.yul\":351:352   */\n  0x00\n    /* \"#utility.yul\":376:440   */\n  tag_16\n    /* \"#utility.yul\":432:439   */\n  dup6\n    /* \"#utility.yul\":423:429   */\n  dup3\n    /* \"#utility.yul\":412:421   */\n  dup7\n    /* \"#utility.yul\":408:430   */\n  add\n    /* \"#utility.yul\":376:440   */\n  tag_10\n  jump\t// in\ntag_16:\n    /* \"#utility.yul\":366:440   */\n  swap3\n  pop\n    /* \"#utility.yul\":322:450   */\n  pop\n    /* \"#utility.yul\":489:491   */\n  0x20\n    /* \"#utility.yul\":515:579   */\n  tag_17\n    /* \"#utility.yul\":571:578   */\n  dup6\n    /* \"#utility.yul\":562:568   */\n  dup3\n    /* \"#utility.yul\":551:560   */\n  dup7\n    /* \"#utility.yul\":547:569   */\n  add\n    /* \"#utility.yul\":515:579   */\n  tag_10\n  jump\t// in\ntag_17:\n    /* \"#utility.yul\":505:579   */\n  swap2\n  pop\n    /* \"#utility.yul\":460:589   */\n  pop\n    /* \"#utility.yul\":250:596   */\n  swap3\n  pop\n  swap3\n  swap1\n  pop\n  jump\t// out\n    /* \"#utility.yul\":602:907   */\ntag_7:\n    /* \"#utility.yul\":642:645   */\n  0x00\n    /* \"#utility.yul\":661:681   */\n  tag_19\n    /* \"#utility.yul\":679:680   */\n  dup3\n    /* \"#utility.yul\":661:681   */\n  tag_20\n  jump\t// in\ntag_19:\n    /* \"#utility.yul\":656:681   */\n  swap2\n  pop\n    /* \"#utility.yul\":695:715   */\n  tag_21\n    /* \"#utility.yul\":713:714   */\n  dup4\n    /* \"#utility.yul\":695:715   */\n  tag_20\n  jump\t// in\ntag_21:\n    /* \"#utility.yul\":690:715   */\n  swap3\n  pop\n    /* \"#utility.yul\":849:850   */\n  dup3\n    /* \"#utility.yul\":781:847   */\n  0xffffffffffffffffffffffffffffffffffffffffffffffffffffffffffffffff\n    /* \"#utility.yul\":777:851   */\n  sub\n    /* \"#utility.yul\":774:775   */\n  dup3\n    /* \"#utility.yul\":771:852   */\n  gt\n    /* \"#utility.yul\":768:770   */\n  iszero\n  tag_22\n  jumpi\n    /* \"#utility.yul\":855:873   */\n  tag_23\n  tag_24\n  jump\t// in\ntag_23:\n    /* \"#utility.yul\":768:770   */\ntag_22:\n    /* \"#utility.yul\":899:900   */\n  dup3\n    /* \"#utility.yul\":896:897   */\n  dup3\n    /* \"#utility.yul\":892:901   */\n  add\n    /* \"#utility.yul\":885:901   */\n  swap1\n  pop\n    /* \"#utility.yul\":646:907   */\n  swap3\n  swap2\n  pop\n  pop\n  jump\t// out\n    /* \"#utility.yul\":913:990   */\ntag_20:\n    /* \"#utility.yul\":950:957   */\n  0x00\n    /* \"#utility.yul\":979:984   */\n  dup2\n    /* \"#utility.yul\":968:984   */\n  swap1\n  pop\n    /* \"#utility.yul\":958:990   */\n  swap2\n  swap1\n  pop\n  jump\t// out\n    /* \"#utility.yul\":996:1176   */\ntag_24:\n    /* \"#utility.yul\":1044:1121   */\n  0x4e487b7100000000000000000000000000000000000000000000000000000000\n    /* \"#utility.yul\":1041:1042   */\n  0x00\n    /* \"#utility.yul\":1034:1122   */\n  mstore\n    /* \"#utility.yul\":1141:1145   */\n  0x11\n    /* \"#utility.yul\":1138:1139   */\n  0x04\n    /* \"#utility.yul\":1131:1146   */\n  mstore\n    /* \"#utility.yul\":1165:1169   */\n  0x24\n    /* \"#utility.yul\":1162:1163   */\n  0x00\n    /* \"#utility.yul\":1155:1170   */\n  revert\n    /* \"#utility.yul\":1182:1304   */\ntag_13:\n    /* \"#utility.yul\":1255:1279   */\n  tag_28\n    /* \"#utility.yul\":1273:1278   */\n  dup2\n    /* \"#utility.yul\":1255:1279   */\n  tag_20\n  jump\t// in\ntag_28:\n    /* \"#utility.yul\":1248:1253   */\n  dup2\n    /* \"#utility.yul\":1245:1280   */\n  eq\n    /* \"#utility.yul\":1235:1237   */\n  tag_29\n  jumpi\n    /* \"#utility.yul\":1294:1295   */\n  0x00\n    /* \"#utility.yul\":1291:1292   */\n  dup1\n    /* \"#utility.yul\":1284:1296   */\n  revert\n    /* \"#utility.yul\":1235:1237   */\ntag_29:\n    /* \"#utility.yul\":1225:1304   */\n  pop\n  jump\t// out\n    /* \"crowd_funding.sol\":76:1371  contract CrowdFunding{\r... */\ntag_8:\n  dataSize(sub_0)\n  dup1\n  dataOffset(sub_0)\n  0x00\n  codecopy\n  0x00\n  return\nstop\n\nsub_0: assembly {\n        /* \"crowd_funding.sol\":76:1371  contract CrowdFunding{\r... */\n      mstore(0x40, 0x80)\n      jumpi(tag_1, lt(calldatasize, 0x04))\n      shr(0xe0, calldataload(0x00))\n      dup1\n      0x5edec2c4\n      gt\n      tag_12\n      jumpi\n      dup1\n      0x5edec2c4\n      eq\n      tag_7\n      jumpi\n      dup1\n      0x6f9fb98a\n      eq\n      tag_8\n      jumpi\n      dup1\n      0x937e09b1\n      eq\n      tag_9\n      jumpi\n      dup1\n      0xc59ee1dc\n      eq\n      tag_10\n      jumpi\n      dup1\n      0xd4b83992\n      eq\n      tag_11\n      jumpi\n      jump(tag_1)\n    tag_12:\n      dup1\n      0x24274ee9\n      eq\n      tag_2\n      jumpi\n      dup1\n      0x29dcb0cf\n      eq\n      tag_3\n      jumpi\n      dup1\n      0x34b66460\n      eq\n      tag_4\n      jumpi\n      dup1\n      0x481c6a75\n      eq\n      tag_5\n      jumpi\n      dup1\n      0x590e1ae3\n      eq\n      tag_6\n      jumpi\n    tag_1:\n      0x00\n      dup1\n      revert\n        /* \"crowd_funding.sol\":265:293  uint public noOfContributers */\n    tag_2:\n      callvalue\n      dup1\n      iszero\n      tag_13\n      jumpi\n      0x00\n      dup1\n      revert\n    tag_13:\n      pop\n      tag_14\n      tag_15\n      jump\t// in\n    tag_14:\n      mload(0x40)\n      tag_16\n      swap2\n      swap1\n      tag_17\n      jump\t// in\n    tag_16:\n      mload(0x40)\n      dup1\n      swap2\n      sub\n      swap1\n      return\n        /* \"crowd_funding.sol\":182:202  uint public deadline */\n    tag_3:\n      callvalue\n      dup1\n      iszero\n      tag_18\n      jumpi\n      0x00\n      dup1\n      revert\n    tag_18:\n      pop\n      tag_19\n      tag_20\n      jump\t// in\n    tag_19:\n      mload(0x40)\n      tag_21\n      swap2\n      swap1\n      tag_17\n      jump\t// in\n    tag_21:\n      mload(0x40)\n      dup1\n      swap2\n      sub\n      swap1\n      return\n        /* \"crowd_funding.sol\":104:146  mapping(address=>uint) public contributers */\n    tag_4:\n      callvalue\n      dup1\n      iszero\n      tag_22\n      jumpi\n      0x00\n      dup1\n      revert\n    tag_22:\n      pop\n      tag_23\n      0x04\n      dup1\n      calldatasize\n      sub\n      dup2\n      add\n      swap1\n      tag_24\n      swap2\n      swap1\n      tag_25\n      jump\t// in\n    tag_24:\n      tag_26\n      jump\t// in\n    tag_23:\n      mload(0x40)\n      tag_27\n      swap2\n      swap1\n      tag_17\n      jump\t// in\n    tag_27:\n      mload(0x40)\n      dup1\n      swap2\n      sub\n      swap1\n      return\n        /* \"crowd_funding.sol\":153:175  address public manager */\n    tag_5:\n      callvalue\n      dup1\n      iszero\n      tag_28\n      jumpi\n      0x00\n      dup1\n      revert\n    tag_28:\n      pop\n      tag_29\n      tag_30\n      jump\t// in\n    tag_29:\n      mload(0x40)\n      tag_31\n      swap2\n      swap1\n      tag_32\n      jump\t// in\n    tag_31:\n      mload(0x40)\n      dup1\n      swap2\n      sub\n      swap1\n      return\n        /* \"crowd_funding.sol\":1265:1368  function refund() public{\r... */\n    tag_6:\n      callvalue\n      dup1\n      iszero\n      tag_33\n      jumpi\n      0x00\n      dup1\n      revert\n    tag_33:\n      pop\n      tag_34\n      tag_35\n      jump\t// in\n    tag_34:\n      stop\n        /* \"crowd_funding.sol\":641:1147  function sedEth() public payable{\r... */\n    tag_7:\n      tag_36\n      tag_37\n      jump\t// in\n    tag_36:\n      stop\n        /* \"crowd_funding.sol\":1155:1257  function getContractBalance() public view returns(uint){\r... */\n    tag_8:\n      callvalue\n      dup1\n      iszero\n      tag_38\n      jumpi\n      0x00\n      dup1\n      revert\n    tag_38:\n      pop\n      tag_39\n      tag_40\n      jump\t// in\n    tag_39:\n      mload(0x40)\n      tag_41\n      swap2\n      swap1\n      tag_17\n      jump\t// in\n    tag_41:\n      mload(0x40)\n      dup1\n      swap2\n      sub\n      swap1\n      return\n        /* \"crowd_funding.sol\":300:331  uint public minimumContribution */\n    tag_9:\n      callvalue\n      dup1\n      iszero\n      tag_42\n      jumpi\n      0x00\n      dup1\n      revert\n    tag_42:\n      pop\n      tag_43\n      tag_44\n      jump\t// in\n    tag_43:\n      mload(0x40)\n      tag_45\n      swap2\n      swap1\n      tag_17\n      jump\t// in\n    tag_45:\n      mload(0x40)\n      dup1\n      swap2\n      sub\n      swap1\n      return\n        /* \"crowd_funding.sol\":234:258  uint public raisedAmount */\n    tag_10:\n      callvalue\n      dup1\n      iszero\n      tag_46\n      jumpi\n      0x00\n      dup1\n      revert\n    tag_46:\n      pop\n      tag_47\n      tag_48\n      jump\t// in\n    tag_47:\n      mload(0x40)\n      tag_49\n      swap2\n      swap1\n      tag_17\n      jump\t// in\n    tag_49:\n      mload(0x40)\n      dup1\n      swap2\n      sub\n      swap1\n      return\n        /* \"crowd_funding.sol\":209:227  uint public target */\n    tag_11:\n      callvalue\n      dup1\n      iszero\n      tag_50\n      jumpi\n      0x00\n      dup1\n      revert\n    tag_50:\n      pop\n      tag_51\n      tag_52\n      jump\t// in\n    tag_51:\n      mload(0x40)\n      tag_53\n      swap2\n      swap1\n      tag_17\n      jump\t// in\n    tag_53:\n      mload(0x40)\n      dup1\n      swap2\n      sub\n      swap1\n      return\n        /* \"crowd_funding.sol\":265:293  uint public noOfContributers */\n    tag_15:\n      sload(0x05)\n      dup2\n      jump\t// out\n        /* \"crowd_funding.sol\":182:202  uint public deadline */\n    tag_20:\n      sload(0x02)\n      dup2\n      jump\t// out\n        /* \"crowd_funding.sol\":104:146  mapping(address=>uint) public contributers */\n    tag_26:\n      mstore(0x20, 0x00)\n      dup1\n      0x00\n      mstore\n      keccak256(0x00, 0x40)\n      0x00\n      swap2\n      pop\n      swap1\n      pop\n      sload\n      dup2\n      jump\t// out\n        /* \"crowd_funding.sol\":153:175  address public manager */\n    tag_30:\n      0x01\n      0x00\n      swap1\n      sload\n      swap1\n      0x0100\n      exp\n      swap1\n      div\n      0xffffffffffffffffffffffffffffffffffffffff\n      and\n      dup2\n      jump\t// out\n        /* \"crowd_funding.sol\":1265:1368  function refund() public{\r... */\n    tag_35:\n        /* \"crowd_funding.sol\":1324:1332  deadline */\n      sload(0x02)\n        /* \"crowd_funding.sol\":1308:1323  block.timestamp */\n      timestamp\n        /* \"crowd_funding.sol\":1308:1332  block.timestamp>deadline */\n      gt\n        /* \"crowd_funding.sol\":1308:1355  block.timestamp>deadline && raisedAmount<target */\n      dup1\n      iszero\n      tag_55\n      jumpi\n      pop\n        /* \"crowd_funding.sol\":1349:1355  target */\n      sload(0x03)\n        /* \"crowd_funding.sol\":1336:1348  raisedAmount */\n      sload(0x04)\n        /* \"crowd_funding.sol\":1336:1355  raisedAmount<target */\n      lt\n        /* \"crowd_funding.sol\":1308:1355  block.timestamp>deadline && raisedAmount<target */\n    tag_55:\n        /* \"crowd_funding.sol\":1300:1360  require(block.timestamp>deadline && raisedAmount<target,\"t\") */\n      tag_56\n      jumpi\n      mload(0x40)\n      0x08c379a000000000000000000000000000000000000000000000000000000000\n      dup2\n      mstore\n      0x04\n      add\n      tag_57\n      swap1\n      tag_58\n      jump\t// in\n    tag_57:\n      mload(0x40)\n      dup1\n      swap2\n      sub\n      swap1\n      revert\n    tag_56:\n        /* \"crowd_funding.sol\":1265:1368  function refund() public{\r... */\n      jump\t// out\n        /* \"crowd_funding.sol\":641:1147  function sedEth() public payable{\r... */\n    tag_37:\n        /* \"crowd_funding.sol\":708:716  deadline */\n      sload(0x02)\n        /* \"crowd_funding.sol\":692:707  block.timestamp */\n      timestamp\n        /* \"crowd_funding.sol\":692:716  block.timestamp<deadline */\n      lt\n        /* \"crowd_funding.sol\":684:739  require(block.timestamp<deadline,\"deadline has passed\") */\n      tag_60\n      jumpi\n      mload(0x40)\n      0x08c379a000000000000000000000000000000000000000000000000000000000\n      dup2\n      mstore\n      0x04\n      add\n      tag_61\n      swap1\n      tag_62\n      jump\t// in\n    tag_61:\n      mload(0x40)\n      dup1\n      swap2\n      sub\n      swap1\n      revert\n    tag_60:\n        /* \"crowd_funding.sol\":769:788  minimumContribution */\n      sload(0x06)\n        /* \"crowd_funding.sol\":758:767  msg.value */\n      callvalue\n        /* \"crowd_funding.sol\":758:788  msg.value>=minimumContribution */\n      lt\n      iszero\n        /* \"crowd_funding.sol\":750:822  require(msg.value>=minimumContribution,\"minimun Contrbution is not met\") */\n      tag_63\n      jumpi\n      mload(0x40)\n      0x08c379a000000000000000000000000000000000000000000000000000000000\n      dup2\n      mstore\n      0x04\n      add\n      tag_64\n      swap1\n      tag_65\n      jump\t// in\n    tag_64:\n      mload(0x40)\n      dup1\n      swap2\n      sub\n      swap1\n      revert\n    tag_63:\n        /* \"crowd_funding.sol\":864:865  0 */\n      0x00\n        /* \"crowd_funding.sol\":838:850  contributers */\n      dup1\n        /* \"crowd_funding.sol\":838:862  contributers[msg.sender] */\n      0x00\n        /* \"crowd_funding.sol\":851:861  msg.sender */\n      caller\n        /* \"crowd_funding.sol\":838:862  contributers[msg.sender] */\n      0xffffffffffffffffffffffffffffffffffffffff\n      and\n      0xffffffffffffffffffffffffffffffffffffffff\n      and\n      dup2\n      mstore\n      0x20\n      add\n      swap1\n      dup2\n      mstore\n      0x20\n      add\n      0x00\n      keccak256\n      sload\n        /* \"crowd_funding.sol\":838:865  contributers[msg.sender]==0 */\n      eq\n        /* \"crowd_funding.sol\":835:1060  if(contributers[msg.sender]==0){ \r... */\n      iszero\n      tag_66\n      jumpi\n        /* \"crowd_funding.sol\":1030:1046  noOfContributers */\n      0x05\n      0x00\n        /* \"crowd_funding.sol\":1030:1048  noOfContributers++ */\n      dup2\n      sload\n      dup1\n      swap3\n      swap2\n      swap1\n      tag_67\n      swap1\n      tag_68\n      jump\t// in\n    tag_67:\n      swap2\n      swap1\n      pop\n      sstore\n      pop\n        /* \"crowd_funding.sol\":835:1060  if(contributers[msg.sender]==0){ \r... */\n    tag_66:\n        /* \"crowd_funding.sol\":1096:1105  msg.value */\n      callvalue\n        /* \"crowd_funding.sol\":1070:1082  contributers */\n      0x00\n        /* \"crowd_funding.sol\":1070:1094  contributers[msg.sender] */\n      dup1\n        /* \"crowd_funding.sol\":1083:1093  msg.sender */\n      caller\n        /* \"crowd_funding.sol\":1070:1094  contributers[msg.sender] */\n      0xffffffffffffffffffffffffffffffffffffffff\n      and\n      0xffffffffffffffffffffffffffffffffffffffff\n      and\n      dup2\n      mstore\n      0x20\n      add\n      swap1\n      dup2\n      mstore\n      0x20\n      add\n      0x00\n      keccak256\n      0x00\n        /* \"crowd_funding.sol\":1070:1105  contributers[msg.sender]+=msg.value */\n      dup3\n      dup3\n      sload\n      tag_69\n      swap2\n      swap1\n      tag_70\n      jump\t// in\n    tag_69:\n      swap3\n      pop\n      pop\n      dup2\n      swap1\n      sstore\n      pop\n        /* \"crowd_funding.sol\":1130:1139  msg.value */\n      callvalue\n        /* \"crowd_funding.sol\":1116:1128  raisedAmount */\n      0x04\n      0x00\n        /* \"crowd_funding.sol\":1116:1139  raisedAmount+=msg.value */\n      dup3\n      dup3\n      sload\n      tag_71\n      swap2\n      swap1\n      tag_70\n      jump\t// in\n    tag_71:\n      swap3\n      pop\n      pop\n      dup2\n      swap1\n      sstore\n      pop\n        /* \"crowd_funding.sol\":641:1147  function sedEth() public payable{\r... */\n      jump\t// out\n        /* \"crowd_funding.sol\":1155:1257  function getContractBalance() public view returns(uint){\r... */\n    tag_40:\n        /* \"crowd_funding.sol\":1205:1209  uint */\n      0x00\n        /* \"crowd_funding.sol\":1228:1249  address(this).balance */\n      selfbalance\n        /* \"crowd_funding.sol\":1221:1249  return address(this).balance */\n      swap1\n      pop\n        /* \"crowd_funding.sol\":1155:1257  function getContractBalance() public view returns(uint){\r... */\n      swap1\n      jump\t// out\n        /* \"crowd_funding.sol\":300:331  uint public minimumContribution */\n    tag_44:\n      sload(0x06)\n      dup2\n      jump\t// out\n        /* \"crowd_funding.sol\":234:258  uint public raisedAmount */\n    tag_48:\n      sload(0x04)\n      dup2\n      jump\t// out\n        /* \"crowd_funding.sol\":209:227  uint public target */\n    tag_52:\n      sload(0x03)\n      dup2\n      jump\t// out\n        /* \"#utility.yul\":7:146   */\n    tag_74:\n        /* \"#utility.yul\":53:58   */\n      0x00\n        /* \"#utility.yul\":91:97   */\n      dup2\n        /* \"#utility.yul\":78:98   */\n      calldataload\n        /* \"#utility.yul\":69:98   */\n      swap1\n      pop\n        /* \"#utility.yul\":107:140   */\n      tag_76\n        /* \"#utility.yul\":134:139   */\n      dup2\n        /* \"#utility.yul\":107:140   */\n      tag_77\n      jump\t// in\n    tag_76:\n        /* \"#utility.yul\":59:146   */\n      swap3\n      swap2\n      pop\n      pop\n      jump\t// out\n        /* \"#utility.yul\":152:414   */\n    tag_25:\n        /* \"#utility.yul\":211:217   */\n      0x00\n        /* \"#utility.yul\":260:262   */\n      0x20\n        /* \"#utility.yul\":248:257   */\n      dup3\n        /* \"#utility.yul\":239:246   */\n      dup5\n        /* \"#utility.yul\":235:258   */\n      sub\n        /* \"#utility.yul\":231:263   */\n      slt\n        /* \"#utility.yul\":228:230   */\n      iszero\n      tag_79\n      jumpi\n        /* \"#utility.yul\":276:277   */\n      0x00\n        /* \"#utility.yul\":273:274   */\n      dup1\n        /* \"#utility.yul\":266:278   */\n      revert\n        /* \"#utility.yul\":228:230   */\n    tag_79:\n        /* \"#utility.yul\":319:320   */\n      0x00\n        /* \"#utility.yul\":344:397   */\n      tag_80\n        /* \"#utility.yul\":389:396   */\n      dup5\n        /* \"#utility.yul\":380:386   */\n      dup3\n        /* \"#utility.yul\":369:378   */\n      dup6\n        /* \"#utility.yul\":365:387   */\n      add\n        /* \"#utility.yul\":344:397   */\n      tag_74\n      jump\t// in\n    tag_80:\n        /* \"#utility.yul\":334:397   */\n      swap2\n      pop\n        /* \"#utility.yul\":290:407   */\n      pop\n        /* \"#utility.yul\":218:414   */\n      swap3\n      swap2\n      pop\n      pop\n      jump\t// out\n        /* \"#utility.yul\":420:538   */\n    tag_81:\n        /* \"#utility.yul\":507:531   */\n      tag_83\n        /* \"#utility.yul\":525:530   */\n      dup2\n        /* \"#utility.yul\":507:531   */\n      tag_84\n      jump\t// in\n    tag_83:\n        /* \"#utility.yul\":502:505   */\n      dup3\n        /* \"#utility.yul\":495:532   */\n      mstore\n        /* \"#utility.yul\":485:538   */\n      pop\n      pop\n      jump\t// out\n        /* \"#utility.yul\":544:910   */\n    tag_85:\n        /* \"#utility.yul\":686:689   */\n      0x00\n        /* \"#utility.yul\":707:774   */\n      tag_87\n        /* \"#utility.yul\":771:773   */\n      0x1e\n        /* \"#utility.yul\":766:769   */\n      dup4\n        /* \"#utility.yul\":707:774   */\n      tag_88\n      jump\t// in\n    tag_87:\n        /* \"#utility.yul\":700:774   */\n      swap2\n      pop\n        /* \"#utility.yul\":783:876   */\n      tag_89\n        /* \"#utility.yul\":872:875   */\n      dup3\n        /* \"#utility.yul\":783:876   */\n      tag_90\n      jump\t// in\n    tag_89:\n        /* \"#utility.yul\":901:903   */\n      0x20\n        /* \"#utility.yul\":896:899   */\n      dup3\n        /* \"#utility.yul\":892:904   */\n      add\n        /* \"#utility.yul\":885:904   */\n      swap1\n      pop\n        /* \"#utility.yul\":690:910   */\n      swap2\n      swap1\n      pop\n      jump\t// out\n        /* \"#utility.yul\":916:1282   */\n    tag_91:\n        /* \"#utility.yul\":1058:1061   */\n      0x00\n        /* \"#utility.yul\":1079:1146   */\n      tag_93\n        /* \"#utility.yul\":1143:1145   */\n      0x13\n        /* \"#utility.yul\":1138:1141   */\n      dup4\n        /* \"#utility.yul\":1079:1146   */\n      tag_88\n      jump\t// in\n    tag_93:\n        /* \"#utility.yul\":1072:1146   */\n      swap2\n      pop\n        /* \"#utility.yul\":1155:1248   */\n      tag_94\n        /* \"#utility.yul\":1244:1247   */\n      dup3\n        /* \"#utility.yul\":1155:1248   */\n      tag_95\n      jump\t// in\n    tag_94:\n        /* \"#utility.yul\":1273:1275   */\n      0x20\n        /* \"#utility.yul\":1268:1271   */\n      dup3\n        /* \"#utility.yul\":1264:1276   */\n      add\n        /* \"#utility.yul\":1257:1276   */\n      swap1\n      pop\n        /* \"#utility.yul\":1062:1282   */\n      swap2\n      swap1\n      pop\n      jump\t// out\n        /* \"#utility.yul\":1288:1653   */\n    tag_96:\n        /* \"#utility.yul\":1430:1433   */\n      0x00\n        /* \"#utility.yul\":1451:1517   */\n      tag_98\n        /* \"#utility.yul\":1515:1516   */\n      0x01\n        /* \"#utility.yul\":1510:1513   */\n      dup4\n        /* \"#utility.yul\":1451:1517   */\n      tag_88\n      jump\t// in\n    tag_98:\n        /* \"#utility.yul\":1444:1517   */\n      swap2\n      pop\n        /* \"#utility.yul\":1526:1619   */\n      tag_99\n        /* \"#utility.yul\":1615:1618   */\n      dup3\n        /* \"#utility.yul\":1526:1619   */\n      tag_100\n      jump\t// in\n    tag_99:\n        /* \"#utility.yul\":1644:1646   */\n      0x20\n        /* \"#utility.yul\":1639:1642   */\n      dup3\n        /* \"#utility.yul\":1635:1647   */\n      add\n        /* \"#utility.yul\":1628:1647   */\n      swap1\n      pop\n        /* \"#utility.yul\":1434:1653   */\n      swap2\n      swap1\n      pop\n      jump\t// out\n        /* \"#utility.yul\":1659:1777   */\n    tag_101:\n        /* \"#utility.yul\":1746:1770   */\n      tag_103\n        /* \"#utility.yul\":1764:1769   */\n      dup2\n        /* \"#utility.yul\":1746:1770   */\n      tag_104\n      jump\t// in\n    tag_103:\n        /* \"#utility.yul\":1741:1744   */\n      dup3\n        /* \"#utility.yul\":1734:1771   */\n      mstore\n        /* \"#utility.yul\":1724:1777   */\n      pop\n      pop\n      jump\t// out\n        /* \"#utility.yul\":1783:2005   */\n    tag_32:\n        /* \"#utility.yul\":1876:1880   */\n      0x00\n        /* \"#utility.yul\":1914:1916   */\n      0x20\n        /* \"#utility.yul\":1903:1912   */\n      dup3\n        /* \"#utility.yul\":1899:1917   */\n      add\n        /* \"#utility.yul\":1891:1917   */\n      swap1\n      pop\n        /* \"#utility.yul\":1927:1998   */\n      tag_106\n        /* \"#utility.yul\":1995:1996   */\n      0x00\n        /* \"#utility.yul\":1984:1993   */\n      dup4\n        /* \"#utility.yul\":1980:1997   */\n      add\n        /* \"#utility.yul\":1971:1977   */\n      dup5\n        /* \"#utility.yul\":1927:1998   */\n      tag_81\n      jump\t// in\n    tag_106:\n        /* \"#utility.yul\":1881:2005   */\n      swap3\n      swap2\n      pop\n      pop\n      jump\t// out\n        /* \"#utility.yul\":2011:2430   */\n    tag_65:\n        /* \"#utility.yul\":2177:2181   */\n      0x00\n        /* \"#utility.yul\":2215:2217   */\n      0x20\n        /* \"#utility.yul\":2204:2213   */\n      dup3\n        /* \"#utility.yul\":2200:2218   */\n      add\n        /* \"#utility.yul\":2192:2218   */\n      swap1\n      pop\n        /* \"#utility.yul\":2264:2273   */\n      dup2\n        /* \"#utility.yul\":2258:2262   */\n      dup2\n        /* \"#utility.yul\":2254:2274   */\n      sub\n        /* \"#utility.yul\":2250:2251   */\n      0x00\n        /* \"#utility.yul\":2239:2248   */\n      dup4\n        /* \"#utility.yul\":2235:2252   */\n      add\n        /* \"#utility.yul\":2228:2275   */\n      mstore\n        /* \"#utility.yul\":2292:2423   */\n      tag_108\n        /* \"#utility.yul\":2418:2422   */\n      dup2\n        /* \"#utility.yul\":2292:2423   */\n      tag_85\n      jump\t// in\n    tag_108:\n        /* \"#utility.yul\":2284:2423   */\n      swap1\n      pop\n        /* \"#utility.yul\":2182:2430   */\n      swap2\n      swap1\n      pop\n      jump\t// out\n        /* \"#utility.yul\":2436:2855   */\n    tag_62:\n        /* \"#utility.yul\":2602:2606   */\n      0x00\n        /* \"#utility.yul\":2640:2642   */\n      0x20\n        /* \"#utility.yul\":2629:2638   */\n      dup3\n        /* \"#utility.yul\":2625:2643   */\n      add\n        /* \"#utility.yul\":2617:2643   */\n      swap1\n      pop\n        /* \"#utility.yul\":2689:2698   */\n      dup2\n        /* \"#utility.yul\":2683:2687   */\n      dup2\n        /* \"#utility.yul\":2679:2699   */\n      sub\n        /* \"#utility.yul\":2675:2676   */\n      0x00\n        /* \"#utility.yul\":2664:2673   */\n      dup4\n        /* \"#utility.yul\":2660:2677   */\n      add\n        /* \"#utility.yul\":2653:2700   */\n      mstore\n        /* \"#utility.yul\":2717:2848   */\n      tag_110\n        /* \"#utility.yul\":2843:2847   */\n      dup2\n        /* \"#utility.yul\":2717:2848   */\n      tag_91\n      jump\t// in\n    tag_110:\n        /* \"#utility.yul\":2709:2848   */\n      swap1\n      pop\n        /* \"#utility.yul\":2607:2855   */\n      swap2\n      swap1\n      pop\n      jump\t// out\n        /* \"#utility.yul\":2861:3280   */\n    tag_58:\n        /* \"#utility.yul\":3027:3031   */\n      0x00\n        /* \"#utility.yul\":3065:3067   */\n      0x20\n        /* \"#utility.yul\":3054:3063   */\n      dup3\n        /* \"#utility.yul\":3050:3068   */\n      add\n        /* \"#utility.yul\":3042:3068   */\n      swap1\n      pop\n        /* \"#utility.yul\":3114:3123   */\n      dup2\n        /* \"#utility.yul\":3108:3112   */\n      dup2\n        /* \"#utility.yul\":3104:3124   */\n      sub\n        /* \"#utility.yul\":3100:3101   */\n      0x00\n        /* \"#utility.yul\":3089:3098   */\n      dup4\n        /* \"#utility.yul\":3085:3102   */\n      add\n        /* \"#utility.yul\":3078:3125   */\n      mstore\n        /* \"#utility.yul\":3142:3273   */\n      tag_112\n        /* \"#utility.yul\":3268:3272   */\n      dup2\n        /* \"#utility.yul\":3142:3273   */\n      tag_96\n      jump\t// in\n    tag_112:\n        /* \"#utility.yul\":3134:3273   */\n      swap1\n      pop\n        /* \"#utility.yul\":3032:3280   */\n      swap2\n      swap1\n      pop\n      jump\t// out\n        /* \"#utility.yul\":3286:3508   */\n    tag_17:\n        /* \"#utility.yul\":3379:3383   */\n      0x00\n        /* \"#utility.yul\":3417:3419   */\n      0x20\n        /* \"#utility.yul\":3406:3415   */\n      dup3\n        /* \"#utility.yul\":3402:3420   */\n      add\n        /* \"#utility.yul\":3394:3420   */\n      swap1\n      pop\n        /* \"#utility.yul\":3430:3501   */\n      tag_114\n        /* \"#utility.yul\":3498:3499   */\n      0x00\n        /* \"#utility.yul\":3487:3496   */\n      dup4\n        /* \"#utility.yul\":3483:3500   */\n      add\n        /* \"#utility.yul\":3474:3480   */\n      dup5\n        /* \"#utility.yul\":3430:3501   */\n      tag_101\n      jump\t// in\n    tag_114:\n        /* \"#utility.yul\":3384:3508   */\n      swap3\n      swap2\n      pop\n      pop\n      jump\t// out\n        /* \"#utility.yul\":3514:3683   */\n    tag_88:\n        /* \"#utility.yul\":3598:3609   */\n      0x00\n        /* \"#utility.yul\":3632:3638   */\n      dup3\n        /* \"#utility.yul\":3627:3630   */\n      dup3\n        /* \"#utility.yul\":3620:3639   */\n      mstore\n        /* \"#utility.yul\":3672:3676   */\n      0x20\n        /* \"#utility.yul\":3667:3670   */\n      dup3\n        /* \"#utility.yul\":3663:3677   */\n      add\n        /* \"#utility.yul\":3648:3677   */\n      swap1\n      pop\n        /* \"#utility.yul\":3610:3683   */\n      swap3\n      swap2\n      pop\n      pop\n      jump\t// out\n        /* \"#utility.yul\":3689:3994   */\n    tag_70:\n        /* \"#utility.yul\":3729:3732   */\n      0x00\n        /* \"#utility.yul\":3748:3768   */\n      tag_117\n        /* \"#utility.yul\":3766:3767   */\n      dup3\n        /* \"#utility.yul\":3748:3768   */\n      tag_104\n      jump\t// in\n    tag_117:\n        /* \"#utility.yul\":3743:3768   */\n      swap2\n      pop\n        /* \"#utility.yul\":3782:3802   */\n      tag_118\n        /* \"#utility.yul\":3800:3801   */\n      dup4\n        /* \"#utility.yul\":3782:3802   */\n      tag_104\n      jump\t// in\n    tag_118:\n        /* \"#utility.yul\":3777:3802   */\n      swap3\n      pop\n        /* \"#utility.yul\":3936:3937   */\n      dup3\n        /* \"#utility.yul\":3868:3934   */\n      0xffffffffffffffffffffffffffffffffffffffffffffffffffffffffffffffff\n        /* \"#utility.yul\":3864:3938   */\n      sub\n        /* \"#utility.yul\":3861:3862   */\n      dup3\n        /* \"#utility.yul\":3858:3939   */\n      gt\n        /* \"#utility.yul\":3855:3857   */\n      iszero\n      tag_119\n      jumpi\n        /* \"#utility.yul\":3942:3960   */\n      tag_120\n      tag_121\n      jump\t// in\n    tag_120:\n        /* \"#utility.yul\":3855:3857   */\n    tag_119:\n        /* \"#utility.yul\":3986:3987   */\n      dup3\n        /* \"#utility.yul\":3983:3984   */\n      dup3\n        /* \"#utility.yul\":3979:3988   */\n      add\n        /* \"#utility.yul\":3972:3988   */\n      swap1\n      pop\n        /* \"#utility.yul\":3733:3994   */\n      swap3\n      swap2\n      pop\n      pop\n      jump\t// out\n        /* \"#utility.yul\":4000:4096   */\n    tag_84:\n        /* \"#utility.yul\":4037:4044   */\n      0x00\n        /* \"#utility.yul\":4066:4090   */\n      tag_123\n        /* \"#utility.yul\":4084:4089   */\n      dup3\n        /* \"#utility.yul\":4066:4090   */\n      tag_124\n      jump\t// in\n    tag_123:\n        /* \"#utility.yul\":4055:4090   */\n      swap1\n      pop\n        /* \"#utility.yul\":4045:4096   */\n      swap2\n      swap1\n      pop\n      jump\t// out\n        /* \"#utility.yul\":4102:4228   */\n    tag_124:\n        /* \"#utility.yul\":4139:4146   */\n      0x00\n        /* \"#utility.yul\":4179:4221   */\n      0xffffffffffffffffffffffffffffffffffffffff\n        /* \"#utility.yul\":4172:4177   */\n      dup3\n        /* \"#utility.yul\":4168:4222   */\n      and\n        /* \"#utility.yul\":4157:4222   */\n      swap1\n      pop\n        /* \"#utility.yul\":4147:4228   */\n      swap2\n      swap1\n      pop\n      jump\t// out\n        /* \"#utility.yul\":4234:4311   */\n    tag_104:\n        /* \"#utility.yul\":4271:4278   */\n      0x00\n        /* \"#utility.yul\":4300:4305   */\n      dup2\n        /* \"#utility.yul\":4289:4305   */\n      swap1\n      pop\n        /* \"#utility.yul\":4279:4311   */\n      swap2\n      swap1\n      pop\n      jump\t// out\n        /* \"#utility.yul\":4317:4550   */\n    tag_68:\n        /* \"#utility.yul\":4356:4359   */\n      0x00\n        /* \"#utility.yul\":4379:4403   */\n      tag_128\n        /* \"#utility.yul\":4397:4402   */\n      dup3\n        /* \"#utility.yul\":4379:4403   */\n      tag_104\n      jump\t// in\n    tag_128:\n        /* \"#utility.yul\":4370:4403   */\n      swap2\n      pop\n        /* \"#utility.yul\":4425:4491   */\n      0xffffffffffffffffffffffffffffffffffffffffffffffffffffffffffffffff\n        /* \"#utility.yul\":4418:4423   */\n      dup3\n        /* \"#utility.yul\":4415:4492   */\n      eq\n        /* \"#utility.yul\":4412:4414   */\n      iszero\n      tag_129\n      jumpi\n        /* \"#utility.yul\":4495:4513   */\n      tag_130\n      tag_121\n      jump\t// in\n    tag_130:\n        /* \"#utility.yul\":4412:4414   */\n    tag_129:\n        /* \"#utility.yul\":4542:4543   */\n      0x01\n        /* \"#utility.yul\":4535:4540   */\n      dup3\n        /* \"#utility.yul\":4531:4544   */\n      add\n        /* \"#utility.yul\":4524:4544   */\n      swap1\n      pop\n        /* \"#utility.yul\":4360:4550   */\n      swap2\n      swap1\n      pop\n      jump\t// out\n        /* \"#utility.yul\":4556:4736   */\n    tag_121:\n        /* \"#utility.yul\":4604:4681   */\n      0x4e487b7100000000000000000000000000000000000000000000000000000000\n        /* \"#utility.yul\":4601:4602   */\n      0x00\n        /* \"#utility.yul\":4594:4682   */\n      mstore\n        /* \"#utility.yul\":4701:4705   */\n      0x11\n        /* \"#utility.yul\":4698:4699   */\n      0x04\n        /* \"#utility.yul\":4691:4706   */\n      mstore\n        /* \"#utility.yul\":4725:4729   */\n      0x24\n        /* \"#utility.yul\":4722:4723   */\n      0x00\n        /* \"#utility.yul\":4715:4730   */\n      revert\n        /* \"#utility.yul\":4742:4922   */\n    tag_90:\n        /* \"#utility.yul\":4882:4914   */\n      0x6d696e696d756e20436f6e7472627574696f6e206973206e6f74206d65740000\n        /* \"#utility.yul\":4878:4879   */\n      0x00\n        /* \"#utility.yul\":4870:4876   */\n      dup3\n        /* \"#utility.yul\":4866:4880   */\n      add\n        /* \"#utility.yul\":4859:4915   */\n      mstore\n        /* \"#utility.yul\":4848:4922   */\n      pop\n      jump\t// out\n        /* \"#utility.yul\":4928:5097   */\n    tag_95:\n        /* \"#utility.yul\":5068:5089   */\n      0x646561646c696e65206861732070617373656400000000000000000000000000\n        /* \"#utility.yul\":5064:5065   */\n      0x00\n        /* \"#utility.yul\":5056:5062   */\n      dup3\n        /* \"#utility.yul\":5052:5066   */\n      add\n        /* \"#utility.yul\":5045:5090   */\n      mstore\n        /* \"#utility.yul\":5034:5097   */\n      pop\n      jump\t// out\n        /* \"#utility.yul\":5103:5254   */\n    tag_100:\n        /* \"#utility.yul\":5243:5246   */\n      0x7400000000000000000000000000000000000000000000000000000000000000\n        /* \"#utility.yul\":5239:5240   */\n      0x00\n        /* \"#utility.yul\":5231:5237   */\n      dup3\n        /* \"#utility.yul\":5227:5241   */\n      add\n        /* \"#utility.yul\":5220:5247   */\n      mstore\n        /* \"#utility.yul\":5209:5254   */\n      pop\n      jump\t// out\n        /* \"#utility.yul\":5260:5382   */\n    tag_77:\n        /* \"#utility.yul\":5333:5357   */\n      tag_136\n        /* \"#utility.yul\":5351:5356   */\n      dup2\n        /* \"#utility.yul\":5333:5357   */\n      tag_84\n      jump\t// in\n    tag_136:\n        /* \"#utility.yul\":5326:5331   */\n      dup2\n        /* \"#utility.yul\":5323:5358   */\n      eq\n        /* \"#utility.yul\":5313:5315   */\n      tag_137\n      jumpi\n        /* \"#utility.yul\":5372:5373   */\n      0x00\n        /* \"#utility.yul\":5369:5370   */\n      dup1\n        /* \"#utility.yul\":5362:5374   */\n      revert\n        /* \"#utility.yul\":5313:5315   */\n    tag_137:\n        /* \"#utility.yul\":5303:5382   */\n      pop\n      jump\t// out\n\n    auxdata: 0xa26469706673582212208673b79faa9c404400318c27cafcc8b2cc794f692ad2f7b2758b8f146eafd3cb64736f6c63430008040033\n}\n",
				"bytecode": {
					"linkReferences": {},
					"object": "608060405234801561001057600080fd5b50604051610912380380610912833981810160405281019061003291906100b0565b81600381905550804261004591906100ec565b600281905550606460068190555033600160006101000a81548173ffffffffffffffffffffffffffffffffffffffff021916908373ffffffffffffffffffffffffffffffffffffffff1602179055505050610192565b6000815190506100aa8161017b565b92915050565b600080604083850312156100c357600080fd5b60006100d18582860161009b565b92505060206100e28582860161009b565b9150509250929050565b60006100f782610142565b915061010283610142565b9250827fffffffffffffffffffffffffffffffffffffffffffffffffffffffffffffffff038211156101375761013661014c565b5b828201905092915050565b6000819050919050565b7f4e487b7100000000000000000000000000000000000000000000000000000000600052601160045260246000fd5b61018481610142565b811461018f57600080fd5b50565b610771806101a16000396000f3fe6080604052600436106100915760003560e01c80635edec2c4116100595780635edec2c41461016b5780636f9fb98a14610175578063937e09b1146101a0578063c59ee1dc146101cb578063d4b83992146101f657610091565b806324274ee91461009657806329dcb0cf146100c157806334b66460146100ec578063481c6a7514610129578063590e1ae314610154575b600080fd5b3480156100a257600080fd5b506100ab610221565b6040516100b89190610573565b60405180910390f35b3480156100cd57600080fd5b506100d6610227565b6040516100e39190610573565b60405180910390f35b3480156100f857600080fd5b50610113600480360381019061010e9190610448565b61022d565b6040516101209190610573565b60405180910390f35b34801561013557600080fd5b5061013e610245565b60405161014b91906104f8565b60405180910390f35b34801561016057600080fd5b5061016961026b565b005b6101736102c0565b005b34801561018157600080fd5b5061018a610419565b6040516101979190610573565b60405180910390f35b3480156101ac57600080fd5b506101b5610421565b6040516101c29190610573565b60405180910390f35b3480156101d757600080fd5b506101e0610427565b6040516101ed9190610573565b60405180910390f35b34801561020257600080fd5b5061020b61042d565b6040516102189190610573565b60405180910390f35b60055481565b60025481565b60006020528060005260406000206000915090505481565b600160009054906101000a900473ffffffffffffffffffffffffffffffffffffffff1681565b6002544211801561027f5750600354600454105b6102be576040517f08c379a00000000000000000000000000000000000000000000000000000000081526004016102b590610553565b60405180910390fd5b565b6002544210610304576040517f08c379a00000000000000000000000000000000000000000000000000000000081526004016102fb90610533565b60405180910390fd5b600654341015610349576040517f08c379a000000000000000000000000000000000000000000000000000000000815260040161034090610513565b60405180910390fd5b60008060003373ffffffffffffffffffffffffffffffffffffffff1673ffffffffffffffffffffffffffffffffffffffff1681526020019081526020016000205414156103a957600560008154809291906103a390610631565b91905055505b346000803373ffffffffffffffffffffffffffffffffffffffff1673ffffffffffffffffffffffffffffffffffffffff16815260200190815260200160002060008282546103f7919061059f565b925050819055503460046000828254610410919061059f565b92505081905550565b600047905090565b60065481565b60045481565b60035481565b60008135905061044281610724565b92915050565b60006020828403121561045a57600080fd5b600061046884828501610433565b91505092915050565b61047a816105f5565b82525050565b600061048d601e8361058e565b9150610498826106a9565b602082019050919050565b60006104b060138361058e565b91506104bb826106d2565b602082019050919050565b60006104d360018361058e565b91506104de826106fb565b602082019050919050565b6104f281610627565b82525050565b600060208201905061050d6000830184610471565b92915050565b6000602082019050818103600083015261052c81610480565b9050919050565b6000602082019050818103600083015261054c816104a3565b9050919050565b6000602082019050818103600083015261056c816104c6565b9050919050565b600060208201905061058860008301846104e9565b92915050565b600082825260208201905092915050565b60006105aa82610627565b91506105b583610627565b9250827fffffffffffffffffffffffffffffffffffffffffffffffffffffffffffffffff038211156105ea576105e961067a565b5b828201905092915050565b600061060082610607565b9050919050565b600073ffffffffffffffffffffffffffffffffffffffff82169050919050565b6000819050919050565b600061063c82610627565b91507fffffffffffffffffffffffffffffffffffffffffffffffffffffffffffffffff82141561066f5761066e61067a565b5b600182019050919050565b7f4e487b7100000000000000000000000000000000000000000000000000000000600052601160045260246000fd5b7f6d696e696d756e20436f6e7472627574696f6e206973206e6f74206d65740000600082015250565b7f646561646c696e65206861732070617373656400000000000000000000000000600082015250565b7f7400000000000000000000000000000000000000000000000000000000000000600082015250565b61072d816105f5565b811461073857600080fd5b5056fea26469706673582212208673b79faa9c404400318c27cafcc8b2cc794f692ad2f7b2758b8f146eafd3cb64736f6c63430008040033",
					"opcodes": "PUSH1 0x80 PUSH1 0x40 MSTORE CALLVALUE DUP1 ISZERO PUSH2 0x10 JUMPI PUSH1 0x0 DUP1 REVERT JUMPDEST POP PUSH1 0x40 MLOAD PUSH2 0x912 CODESIZE SUB DUP1 PUSH2 0x912 DUP4 CODECOPY DUP2 DUP2 ADD PUSH1 0x40 MSTORE DUP2 ADD SWAP1 PUSH2 0x32 SWAP2 SWAP1 PUSH2 0xB0 JUMP JUMPDEST DUP2 PUSH1 0x3 DUP2 SWAP1 SSTORE POP DUP1 TIMESTAMP PUSH2 0x45 SWAP2 SWAP1 PUSH2 0xEC JUMP JUMPDEST PUSH1 0x2 DUP2 SWAP1 SSTORE POP PUSH1 0x64 PUSH1 0x6 DUP2 SWAP1 SSTORE POP CALLER PUSH1 0x1 PUSH1 0x0 PUSH2 0x100 EXP DUP2 SLOAD DUP2 PUSH20 0xFFFFFFFFFFFFFFFFFFFFFFFFFFFFFFFFFFFFFFFF MUL NOT AND SWAP1 DUP4 PUSH20 0xFFFFFFFFFFFFFFFFFFFFFFFFFFFFFFFFFFFFFFFF AND MUL OR SWAP1 SSTORE POP POP POP PUSH2 0x192 JUMP JUMPDEST PUSH1 0x0 DUP2 MLOAD SWAP1 POP PUSH2 0xAA DUP2 PUSH2 0x17B JUMP JUMPDEST SWAP3 SWAP2 POP POP JUMP JUMPDEST PUSH1 0x0 DUP1 PUSH1 0x40 DUP4 DUP6 SUB SLT ISZERO PUSH2 0xC3 JUMPI PUSH1 0x0 DUP1 REVERT JUMPDEST PUSH1 0x0 PUSH2 0xD1 DUP6 DUP3 DUP7 ADD PUSH2 0x9B JUMP JUMPDEST SWAP3 POP POP PUSH1 0x20 PUSH2 0xE2 DUP6 DUP3 DUP7 ADD PUSH2 0x9B JUMP JUMPDEST SWAP2 POP POP SWAP3 POP SWAP3 SWAP1 POP JUMP JUMPDEST PUSH1 0x0 PUSH2 0xF7 DUP3 PUSH2 0x142 JUMP JUMPDEST SWAP2 POP PUSH2 0x102 DUP4 PUSH2 0x142 JUMP JUMPDEST SWAP3 POP DUP3 PUSH32 0xFFFFFFFFFFFFFFFFFFFFFFFFFFFFFFFFFFFFFFFFFFFFFFFFFFFFFFFFFFFFFFFF SUB DUP3 GT ISZERO PUSH2 0x137 JUMPI PUSH2 0x136 PUSH2 0x14C JUMP JUMPDEST JUMPDEST DUP3 DUP3 ADD SWAP1 POP SWAP3 SWAP2 POP POP JUMP JUMPDEST PUSH1 0x0 DUP2 SWAP1 POP SWAP2 SWAP1 POP JUMP JUMPDEST PUSH32 0x4E487B7100000000000000000000000000000000000000000000000000000000 PUSH1 0x0 MSTORE PUSH1 0x11 PUSH1 0x4 MSTORE PUSH1 0x24 PUSH1 0x0 REVERT JUMPDEST PUSH2 0x184 DUP2 PUSH2 0x142 JUMP JUMPDEST DUP2 EQ PUSH2 0x18F JUMPI PUSH1 0x0 DUP1 REVERT JUMPDEST POP JUMP JUMPDEST PUSH2 0x771 DUP1 PUSH2 0x1A1 PUSH1 0x0 CODECOPY PUSH1 0x0 RETURN INVALID PUSH1 0x80 PUSH1 0x40 MSTORE PUSH1 0x4 CALLDATASIZE LT PUSH2 0x91 JUMPI PUSH1 0x0 CALLDATALOAD PUSH1 0xE0 SHR DUP1 PUSH4 0x5EDEC2C4 GT PUSH2 0x59 JUMPI DUP1 PUSH4 0x5EDEC2C4 EQ PUSH2 0x16B JUMPI DUP1 PUSH4 0x6F9FB98A EQ PUSH2 0x175 JUMPI DUP1 PUSH4 0x937E09B1 EQ PUSH2 0x1A0 JUMPI DUP1 PUSH4 0xC59EE1DC EQ PUSH2 0x1CB JUMPI DUP1 PUSH4 0xD4B83992 EQ PUSH2 0x1F6 JUMPI PUSH2 0x91 JUMP JUMPDEST DUP1 PUSH4 0x24274EE9 EQ PUSH2 0x96 JUMPI DUP1 PUSH4 0x29DCB0CF EQ PUSH2 0xC1 JUMPI DUP1 PUSH4 0x34B66460 EQ PUSH2 0xEC JUMPI DUP1 PUSH4 0x481C6A75 EQ PUSH2 0x129 JUMPI DUP1 PUSH4 0x590E1AE3 EQ PUSH2 0x154 JUMPI JUMPDEST PUSH1 0x0 DUP1 REVERT JUMPDEST CALLVALUE DUP1 ISZERO PUSH2 0xA2 JUMPI PUSH1 0x0 DUP1 REVERT JUMPDEST POP PUSH2 0xAB PUSH2 0x221 JUMP JUMPDEST PUSH1 0x40 MLOAD PUSH2 0xB8 SWAP2 SWAP1 PUSH2 0x573 JUMP JUMPDEST PUSH1 0x40 MLOAD DUP1 SWAP2 SUB SWAP1 RETURN JUMPDEST CALLVALUE DUP1 ISZERO PUSH2 0xCD JUMPI PUSH1 0x0 DUP1 REVERT JUMPDEST POP PUSH2 0xD6 PUSH2 0x227 JUMP JUMPDEST PUSH1 0x40 MLOAD PUSH2 0xE3 SWAP2 SWAP1 PUSH2 0x573 JUMP JUMPDEST PUSH1 0x40 MLOAD DUP1 SWAP2 SUB SWAP1 RETURN JUMPDEST CALLVALUE DUP1 ISZERO PUSH2 0xF8 JUMPI PUSH1 0x0 DUP1 REVERT JUMPDEST POP PUSH2 0x113 PUSH1 0x4 DUP1 CALLDATASIZE SUB DUP2 ADD SWAP1 PUSH2 0x10E SWAP2 SWAP1 PUSH2 0x448 JUMP JUMPDEST PUSH2 0x22D JUMP JUMPDEST PUSH1 0x40 MLOAD PUSH2 0x120 SWAP2 SWAP1 PUSH2 0x573 JUMP JUMPDEST PUSH1 0x40 MLOAD DUP1 SWAP2 SUB SWAP1 RETURN JUMPDEST CALLVALUE DUP1 ISZERO PUSH2 0x135 JUMPI PUSH1 0x0 DUP1 REVERT JUMPDEST POP PUSH2 0x13E PUSH2 0x245 JUMP JUMPDEST PUSH1 0x40 MLOAD PUSH2 0x14B SWAP2 SWAP1 PUSH2 0x4F8 JUMP JUMPDEST PUSH1 0x40 MLOAD DUP1 SWAP2 SUB SWAP1 RETURN JUMPDEST CALLVALUE DUP1 ISZERO PUSH2 0x160 JUMPI PUSH1 0x0 DUP1 REVERT JUMPDEST POP PUSH2 0x169 PUSH2 0x26B JUMP JUMPDEST STOP JUMPDEST PUSH2 0x173 PUSH2 0x2C0 JUMP JUMPDEST STOP JUMPDEST CALLVALUE DUP1 ISZERO PUSH2 0x181 JUMPI PUSH1 0x0 DUP1 REVERT JUMPDEST POP PUSH2 0x18A PUSH2 0x419 JUMP JUMPDEST PUSH1 0x40 MLOAD PUSH2 0x197 SWAP2 SWAP1 PUSH2 0x573 JUMP JUMPDEST PUSH1 0x40 MLOAD DUP1 SWAP2 SUB SWAP1 RETURN JUMPDEST CALLVALUE DUP1 ISZERO PUSH2 0x1AC JUMPI PUSH1 0x0 DUP1 REVERT JUMPDEST POP PUSH2 0x1B5 PUSH2 0x421 JUMP JUMPDEST PUSH1 0x40 MLOAD PUSH2 0x1C2 SWAP2 SWAP1 PUSH2 0x573 JUMP JUMPDEST PUSH1 0x40 MLOAD DUP1 SWAP2 SUB SWAP1 RETURN JUMPDEST CALLVALUE DUP1 ISZERO PUSH2 0x1D7 JUMPI PUSH1 0x0 DUP1 REVERT JUMPDEST POP PUSH2 0x1E0 PUSH2 0x427 JUMP JUMPDEST PUSH1 0x40 MLOAD PUSH2 0x1ED SWAP2 SWAP1 PUSH2 0x573 JUMP JUMPDEST PUSH1 0x40 MLOAD DUP1 SWAP2 SUB SWAP1 RETURN JUMPDEST CALLVALUE DUP1 ISZERO PUSH2 0x202 JUMPI PUSH1 0x0 DUP1 REVERT JUMPDEST POP PUSH2 0x20B PUSH2 0x42D JUMP JUMPDEST PUSH1 0x40 MLOAD PUSH2 0x218 SWAP2 SWAP1 PUSH2 0x573 JUMP JUMPDEST PUSH1 0x40 MLOAD DUP1 SWAP2 SUB SWAP1 RETURN JUMPDEST PUSH1 0x5 SLOAD DUP2 JUMP JUMPDEST PUSH1 0x2 SLOAD DUP2 JUMP JUMPDEST PUSH1 0x0 PUSH1 0x20 MSTORE DUP1 PUSH1 0x0 MSTORE PUSH1 0x40 PUSH1 0x0 KECCAK256 PUSH1 0x0 SWAP2 POP SWAP1 POP SLOAD DUP2 JUMP JUMPDEST PUSH1 0x1 PUSH1 0x0 SWAP1 SLOAD SWAP1 PUSH2 0x100 EXP SWAP1 DIV PUSH20 0xFFFFFFFFFFFFFFFFFFFFFFFFFFFFFFFFFFFFFFFF AND DUP2 JUMP JUMPDEST PUSH1 0x2 SLOAD TIMESTAMP GT DUP1 ISZERO PUSH2 0x27F JUMPI POP PUSH1 0x3 SLOAD PUSH1 0x4 SLOAD LT JUMPDEST PUSH2 0x2BE JUMPI PUSH1 0x40 MLOAD PUSH32 0x8C379A000000000000000000000000000000000000000000000000000000000 DUP2 MSTORE PUSH1 0x4 ADD PUSH2 0x2B5 SWAP1 PUSH2 0x553 JUMP JUMPDEST PUSH1 0x40 MLOAD DUP1 SWAP2 SUB SWAP1 REVERT JUMPDEST JUMP JUMPDEST PUSH1 0x2 SLOAD TIMESTAMP LT PUSH2 0x304 JUMPI PUSH1 0x40 MLOAD PUSH32 0x8C379A000000000000000000000000000000000000000000000000000000000 DUP2 MSTORE PUSH1 0x4 ADD PUSH2 0x2FB SWAP1 PUSH2 0x533 JUMP JUMPDEST PUSH1 0x40 MLOAD DUP1 SWAP2 SUB SWAP1 REVERT JUMPDEST PUSH1 0x6 SLOAD CALLVALUE LT ISZERO PUSH2 0x349 JUMPI PUSH1 0x40 MLOAD PUSH32 0x8C379A000000000000000000000000000000000000000000000000000000000 DUP2 MSTORE PUSH1 0x4 ADD PUSH2 0x340 SWAP1 PUSH2 0x513 JUMP JUMPDEST PUSH1 0x40 MLOAD DUP1 SWAP2 SUB SWAP1 REVERT JUMPDEST PUSH1 0x0 DUP1 PUSH1 0x0 CALLER PUSH20 0xFFFFFFFFFFFFFFFFFFFFFFFFFFFFFFFFFFFFFFFF AND PUSH20 0xFFFFFFFFFFFFFFFFFFFFFFFFFFFFFFFFFFFFFFFF AND DUP2 MSTORE PUSH1 0x20 ADD SWAP1 DUP2 MSTORE PUSH1 0x20 ADD PUSH1 0x0 KECCAK256 SLOAD EQ ISZERO PUSH2 0x3A9 JUMPI PUSH1 0x5 PUSH1 0x0 DUP2 SLOAD DUP1 SWAP3 SWAP2 SWAP1 PUSH2 0x3A3 SWAP1 PUSH2 0x631 JUMP JUMPDEST SWAP2 SWAP1 POP SSTORE POP JUMPDEST CALLVALUE PUSH1 0x0 DUP1 CALLER PUSH20 0xFFFFFFFFFFFFFFFFFFFFFFFFFFFFFFFFFFFFFFFF AND PUSH20 0xFFFFFFFFFFFFFFFFFFFFFFFFFFFFFFFFFFFFFFFF AND DUP2 MSTORE PUSH1 0x20 ADD SWAP1 DUP2 MSTORE PUSH1 0x20 ADD PUSH1 0x0 KECCAK256 PUSH1 0x0 DUP3 DUP3 SLOAD PUSH2 0x3F7 SWAP2 SWAP1 PUSH2 0x59F JUMP JUMPDEST SWAP3 POP POP DUP2 SWAP1 SSTORE POP CALLVALUE PUSH1 0x4 PUSH1 0x0 DUP3 DUP3 SLOAD PUSH2 0x410 SWAP2 SWAP1 PUSH2 0x59F JUMP JUMPDEST SWAP3 POP POP DUP2 SWAP1 SSTORE POP JUMP JUMPDEST PUSH1 0x0 SELFBALANCE SWAP1 POP SWAP1 JUMP JUMPDEST PUSH1 0x6 SLOAD DUP2 JUMP JUMPDEST PUSH1 0x4 SLOAD DUP2 JUMP JUMPDEST PUSH1 0x3 SLOAD DUP2 JUMP JUMPDEST PUSH1 0x0 DUP2 CALLDATALOAD SWAP1 POP PUSH2 0x442 DUP2 PUSH2 0x724 JUMP JUMPDEST SWAP3 SWAP2 POP POP JUMP JUMPDEST PUSH1 0x0 PUSH1 0x20 DUP3 DUP5 SUB SLT ISZERO PUSH2 0x45A JUMPI PUSH1 0x0 DUP1 REVERT JUMPDEST PUSH1 0x0 PUSH2 0x468 DUP5 DUP3 DUP6 ADD PUSH2 0x433 JUMP JUMPDEST SWAP2 POP POP SWAP3 SWAP2 POP POP JUMP JUMPDEST PUSH2 0x47A DUP2 PUSH2 0x5F5 JUMP JUMPDEST DUP3 MSTORE POP POP JUMP JUMPDEST PUSH1 0x0 PUSH2 0x48D PUSH1 0x1E DUP4 PUSH2 0x58E JUMP JUMPDEST SWAP2 POP PUSH2 0x498 DUP3 PUSH2 0x6A9 JUMP JUMPDEST PUSH1 0x20 DUP3 ADD SWAP1 POP SWAP2 SWAP1 POP JUMP JUMPDEST PUSH1 0x0 PUSH2 0x4B0 PUSH1 0x13 DUP4 PUSH2 0x58E JUMP JUMPDEST SWAP2 POP PUSH2 0x4BB DUP3 PUSH2 0x6D2 JUMP JUMPDEST PUSH1 0x20 DUP3 ADD SWAP1 POP SWAP2 SWAP1 POP JUMP JUMPDEST PUSH1 0x0 PUSH2 0x4D3 PUSH1 0x1 DUP4 PUSH2 0x58E JUMP JUMPDEST SWAP2 POP PUSH2 0x4DE DUP3 PUSH2 0x6FB JUMP JUMPDEST PUSH1 0x20 DUP3 ADD SWAP1 POP SWAP2 SWAP1 POP JUMP JUMPDEST PUSH2 0x4F2 DUP2 PUSH2 0x627 JUMP JUMPDEST DUP3 MSTORE POP POP JUMP JUMPDEST PUSH1 0x0 PUSH1 0x20 DUP3 ADD SWAP1 POP PUSH2 0x50D PUSH1 0x0 DUP4 ADD DUP5 PUSH2 0x471 JUMP JUMPDEST SWAP3 SWAP2 POP POP JUMP JUMPDEST PUSH1 0x0 PUSH1 0x20 DUP3 ADD SWAP1 POP DUP2 DUP2 SUB PUSH1 0x0 DUP4 ADD MSTORE PUSH2 0x52C DUP2 PUSH2 0x480 JUMP JUMPDEST SWAP1 POP SWAP2 SWAP1 POP JUMP JUMPDEST PUSH1 0x0 PUSH1 0x20 DUP3 ADD SWAP1 POP DUP2 DUP2 SUB PUSH1 0x0 DUP4 ADD MSTORE PUSH2 0x54C DUP2 PUSH2 0x4A3 JUMP JUMPDEST SWAP1 POP SWAP2 SWAP1 POP JUMP JUMPDEST PUSH1 0x0 PUSH1 0x20 DUP3 ADD SWAP1 POP DUP2 DUP2 SUB PUSH1 0x0 DUP4 ADD MSTORE PUSH2 0x56C DUP2 PUSH2 0x4C6 JUMP JUMPDEST SWAP1 POP SWAP2 SWAP1 POP JUMP JUMPDEST PUSH1 0x0 PUSH1 0x20 DUP3 ADD SWAP1 POP PUSH2 0x588 PUSH1 0x0 DUP4 ADD DUP5 PUSH2 0x4E9 JUMP JUMPDEST SWAP3 SWAP2 POP POP JUMP JUMPDEST PUSH1 0x0 DUP3 DUP3 MSTORE PUSH1 0x20 DUP3 ADD SWAP1 POP SWAP3 SWAP2 POP POP JUMP JUMPDEST PUSH1 0x0 PUSH2 0x5AA DUP3 PUSH2 0x627 JUMP JUMPDEST SWAP2 POP PUSH2 0x5B5 DUP4 PUSH2 0x627 JUMP JUMPDEST SWAP3 POP DUP3 PUSH32 0xFFFFFFFFFFFFFFFFFFFFFFFFFFFFFFFFFFFFFFFFFFFFFFFFFFFFFFFFFFFFFFFF SUB DUP3 GT ISZERO PUSH2 0x5EA JUMPI PUSH2 0x5E9 PUSH2 0x67A JUMP JUMPDEST JUMPDEST DUP3 DUP3 ADD SWAP1 POP SWAP3 SWAP2 POP POP JUMP JUMPDEST PUSH1 0x0 PUSH2 0x600 DUP3 PUSH2 0x607 JUMP JUMPDEST SWAP1 POP SWAP2 SWAP1 POP JUMP JUMPDEST PUSH1 0x0 PUSH20 0xFFFFFFFFFFFFFFFFFFFFFFFFFFFFFFFFFFFFFFFF DUP3 AND SWAP1 POP SWAP2 SWAP1 POP JUMP JUMPDEST PUSH1 0x0 DUP2 SWAP1 POP SWAP2 SWAP1 POP JUMP JUMPDEST PUSH1 0x0 PUSH2 0x63C DUP3 PUSH2 0x627 JUMP JUMPDEST SWAP2 POP PUSH32 0xFFFFFFFFFFFFFFFFFFFFFFFFFFFFFFFFFFFFFFFFFFFFFFFFFFFFFFFFFFFFFFFF DUP3 EQ ISZERO PUSH2 0x66F JUMPI PUSH2 0x66E PUSH2 0x67A JUMP JUMPDEST JUMPDEST PUSH1 0x1 DUP3 ADD SWAP1 POP SWAP2 SWAP1 POP JUMP JUMPDEST PUSH32 0x4E487B7100000000000000000000000000000000000000000000000000000000 PUSH1 0x0 MSTORE PUSH1 0x11 PUSH1 0x4 MSTORE PUSH1 0x24 PUSH1 0x0 REVERT JUMPDEST PUSH32 0x6D696E696D756E20436F6E7472627574696F6E206973206E6F74206D65740000 PUSH1 0x0 DUP3 ADD MSTORE POP JUMP JUMPDEST PUSH32 0x646561646C696E65206861732070617373656400000000000000000000000000 PUSH1 0x0 DUP3 ADD MSTORE POP JUMP JUMPDEST PUSH32 0x7400000000000000000000000000000000000000000000000000000000000000 PUSH1 0x0 DUP3 ADD MSTORE POP JUMP JUMPDEST PUSH2 0x72D DUP2 PUSH2 0x5F5 JUMP JUMPDEST DUP2 EQ PUSH2 0x738 JUMPI PUSH1 0x0 DUP1 REVERT JUMPDEST POP JUMP INVALID LOG2 PUSH5 0x6970667358 0x22 SLT KECCAK256 DUP7 PUSH20 0xB79FAA9C404400318C27CAFCC8B2CC794F692AD2 0xF7 0xB2 PUSH22 0x8B8F146EAFD3CB64736F6C6343000804003300000000 "
				},
				"gasEstimates": {
					"creation": {
						"codeDepositCost": "381000",
						"executionCost": "infinite",
						"totalCost": "infinite"
					},
					"external": {
						"contributers(address)": "1559",
						"deadline()": "1152",
						"getContractBalance()": "361",
						"manager()": "1281",
						"minimumContribution()": "1173",
						"noOfContributers()": "1130",
						"raisedAmount()": "1195",
						"refund()": "2975",
						"sedEth()": "infinite",
						"target()": "1217"
					}
				},
				"methodIdentifiers": {
					"contributers(address)": "34b66460",
					"deadline()": "29dcb0cf",
					"getContractBalance()": "6f9fb98a",
					"manager()": "481c6a75",
					"minimumContribution()": "937e09b1",
					"noOfContributers()": "24274ee9",
					"raisedAmount()": "c59ee1dc",
					"refund()": "590e1ae3",
					"sedEth()": "5edec2c4",
					"target()": "d4b83992"
				}
			},
			"storageLayout": {
				"storage": [
					{
						"astId": 5,
						"contract": "crowd_funding.sol:CrowdFunding",
						"label": "contributers",
						"offset": 0,
						"slot": "0",
						"type": "t_mapping(t_address,t_uint256)"
					},
					{
						"astId": 7,
						"contract": "crowd_funding.sol:CrowdFunding",
						"label": "manager",
						"offset": 0,
						"slot": "1",
						"type": "t_address"
					},
					{
						"astId": 9,
						"contract": "crowd_funding.sol:CrowdFunding",
						"label": "deadline",
						"offset": 0,
						"slot": "2",
						"type": "t_uint256"
					},
					{
						"astId": 11,
						"contract": "crowd_funding.sol:CrowdFunding",
						"label": "target",
						"offset": 0,
						"slot": "3",
						"type": "t_uint256"
					},
					{
						"astId": 13,
						"contract": "crowd_funding.sol:CrowdFunding",
						"label": "raisedAmount",
						"offset": 0,
						"slot": "4",
						"type": "t_uint256"
					},
					{
						"astId": 15,
						"contract": "crowd_funding.sol:CrowdFunding",
						"label": "noOfContributers",
						"offset": 0,
						"slot": "5",
						"type": "t_uint256"
					},
					{
						"astId": 17,
						"contract": "crowd_funding.sol:CrowdFunding",
						"label": "minimumContribution",
						"offset": 0,
						"slot": "6",
						"type": "t_uint256"
					}
				],
				"types": {
					"t_address": {
						"encoding": "inplace",
						"label": "address",
						"numberOfBytes": "20"
					},
					"t_mapping(t_address,t_uint256)": {
						"encoding": "mapping",
						"key": "t_address",
						"label": "mapping(address => uint256)",
						"numberOfBytes": "32",
						"value": "t_uint256"
					},
					"t_uint256": {
						"encoding": "inplace",
						"label": "uint256",
						"numberOfBytes": "32"
					}
				}
			},
			"userdoc": {
				"kind": "user",
				"methods": {},
				"version": 1
			}
		}
	}
}