{
	"payable.sol": {
		"State": {
			"abi": [
				{
					"inputs": [],
					"name": "age",
					"outputs": [
						{
							"internalType": "uint256",
							"name": "",
							"type": "uint256"
						}
					],
					"stateMutability": "view",
					"type": "function"
				},
				{
					"inputs": [],
					"name": "setAge",
					"outputs": [],
					"stateMutability": "nonpayable",
					"type": "function"
				}
			],
			"devdoc": {
				"kind": "dev",
				"methods": {},
				"version": 1
			},
			"evm": {
				"assembly": "    /* \"payable.sol\":76:187  contract State\r... */\n  mstore(0x40, 0x80)\n  callvalue\n  dup1\n  iszero\n  tag_1\n  jumpi\n  0x00\n  dup1\n  revert\ntag_1:\n  pop\n  dataSize(sub_0)\n  dup1\n  dataOffset(sub_0)\n  0x00\n  codecopy\n  0x00\n  return\nstop\n\nsub_0: assembly {\n        /* \"payable.sol\":76:187  contract State\r... */\n      mstore(0x40, 0x80)\n      callvalue\n      dup1\n      iszero\n      tag_1\n      jumpi\n      0x00\n      dup1\n      revert\n    tag_1:\n      pop\n      jumpi(tag_2, lt(calldatasize, 0x04))\n      shr(0xe0, calldataload(0x00))\n      dup1\n      0x262a9dff\n      eq\n      tag_3\n      jumpi\n      dup1\n      0x457676ee\n      eq\n      tag_4\n      jumpi\n    tag_2:\n      0x00\n      dup1\n      revert\n        /* \"payable.sol\":99:114  uint public age */\n    tag_3:\n      tag_5\n      tag_6\n      jump\t// in\n    tag_5:\n      mload(0x40)\n      tag_7\n      swap2\n      swap1\n      tag_8\n      jump\t// in\n    tag_7:\n      mload(0x40)\n      dup1\n      swap2\n      sub\n      swap1\n      return\n        /* \"payable.sol\":129:184  function setAge() public\r... */\n    tag_4:\n      tag_9\n      tag_10\n      jump\t// in\n    tag_9:\n      stop\n        /* \"payable.sol\":99:114  uint public age */\n    tag_6:\n      sload(0x00)\n      dup2\n      jump\t// out\n        /* \"payable.sol\":129:184  function setAge() public\r... */\n    tag_10:\n        /* \"payable.sol\":174:176  10 */\n      0x0a\n        /* \"payable.sol\":170:173  age */\n      0x00\n        /* \"payable.sol\":170:176  age=10 */\n      dup2\n      swap1\n      sstore\n      pop\n        /* \"payable.sol\":129:184  function setAge() public\r... */\n      jump\t// out\n        /* \"#utility.yul\":7:125   */\n    tag_13:\n        /* \"#utility.yul\":94:118   */\n      tag_15\n        /* \"#utility.yul\":112:117   */\n      dup2\n        /* \"#utility.yul\":94:118   */\n      tag_16\n      jump\t// in\n    tag_15:\n        /* \"#utility.yul\":89:92   */\n      dup3\n        /* \"#utility.yul\":82:119   */\n      mstore\n        /* \"#utility.yul\":72:125   */\n      pop\n      pop\n      jump\t// out\n        /* \"#utility.yul\":131:353   */\n    tag_8:\n        /* \"#utility.yul\":224:228   */\n      0x00\n        /* \"#utility.yul\":262:264   */\n      0x20\n        /* \"#utility.yul\":251:260   */\n      dup3\n        /* \"#utility.yul\":247:265   */\n      add\n        /* \"#utility.yul\":239:265   */\n      swap1\n      pop\n        /* \"#utility.yul\":275:346   */\n      tag_18\n        /* \"#utility.yul\":343:344   */\n      0x00\n        /* \"#utility.yul\":332:341   */\n      dup4\n        /* \"#utility.yul\":328:345   */\n      add\n        /* \"#utility.yul\":319:325   */\n      dup5\n        /* \"#utility.yul\":275:346   */\n      tag_13\n      jump\t// in\n    tag_18:\n        /* \"#utility.yul\":229:353   */\n      swap3\n      swap2\n      pop\n      pop\n      jump\t// out\n        /* \"#utility.yul\":359:436   */\n    tag_16:\n        /* \"#utility.yul\":396:403   */\n      0x00\n        /* \"#utility.yul\":425:430   */\n      dup2\n        /* \"#utility.yul\":414:430   */\n      swap1\n      pop\n        /* \"#utility.yul\":404:436   */\n      swap2\n      swap1\n      pop\n      jump\t// out\n\n    auxdata: 0xa26469706673582212207523db9308b6976fe662bc3ab4d8360a35419e8854ea1e4f16b0120c051cb98a64736f6c63430008040033\n}\n",
				"bytecode": {
					"linkReferences": {},
					"object": "608060405234801561001057600080fd5b5060cf8061001f6000396000f3fe6080604052348015600f57600080fd5b506004361060325760003560e01c8063262a9dff146037578063457676ee146051575b600080fd5b603d6059565b604051604891906076565b60405180910390f35b6057605f565b005b60005481565b600a600081905550565b607081608f565b82525050565b6000602082019050608960008301846069565b92915050565b600081905091905056fea26469706673582212207523db9308b6976fe662bc3ab4d8360a35419e8854ea1e4f16b0120c051cb98a64736f6c63430008040033",
					"opcodes": "PUSH1 0x80 PUSH1 0x40 MSTORE CALLVALUE DUP1 ISZERO PUSH2 0x10 JUMPI PUSH1 0x0 DUP1 REVERT JUMPDEST POP PUSH1 0xCF DUP1 PUSH2 0x1F PUSH1 0x0 CODECOPY PUSH1 0x0 RETURN INVALID PUSH1 0x80 PUSH1 0x40 MSTORE CALLVALUE DUP1 ISZERO PUSH1 0xF JUMPI PUSH1 0x0 DUP1 REVERT JUMPDEST POP PUSH1 0x4 CALLDATASIZE LT PUSH1 0x32 JUMPI PUSH1 0x0 CALLDATALOAD PUSH1 0xE0 SHR DUP1 PUSH4 0x262A9DFF EQ PUSH1 0x37 JUMPI DUP1 PUSH4 0x457676EE EQ PUSH1 0x51 JUMPI JUMPDEST PUSH1 0x0 DUP1 REVERT JUMPDEST PUSH1 0x3D PUSH1 0x59 JUMP JUMPDEST PUSH1 0x40 MLOAD PUSH1 0x48 SWAP2 SWAP1 PUSH1 0x76 JUMP JUMPDEST PUSH1 0x40 MLOAD DUP1 SWAP2 SUB SWAP1 RETURN JUMPDEST PUSH1 0x57 PUSH1 0x5F JUMP JUMPDEST STOP JUMPDEST PUSH1 0x0 SLOAD DUP2 JUMP JUMPDEST PUSH1 0xA PUSH1 0x0 DUP2 SWAP1 SSTORE POP JUMP JUMPDEST PUSH1 0x70 DUP2 PUSH1 0x8F JUMP JUMPDEST DUP3 MSTORE POP POP JUMP JUMPDEST PUSH1 0x0 PUSH1 0x20 DUP3 ADD SWAP1 POP PUSH1 0x89 PUSH1 0x0 DUP4 ADD DUP5 PUSH1 0x69 JUMP JUMPDEST SWAP3 SWAP2 POP POP JUMP JUMPDEST PUSH1 0x0 DUP2 SWAP1 POP SWAP2 SWAP1 POP JUMP INVALID LOG2 PUSH5 0x6970667358 0x22 SLT KECCAK256 PUSH22 0x23DB9308B6976FE662BC3AB4D8360A35419E8854EA1E 0x4F AND 0xB0 SLT 0xC SDIV SHR 0xB9 DUP11 PUSH5 0x736F6C6343 STOP ADDMOD DIV STOP CALLER "
				},
				"gasEstimates": {
					"creation": {
						"codeDepositCost": "41400",
						"executionCost": "93",
						"totalCost": "41493"
					},
					"external": {
						"age()": "1107",
						"setAge()": "20158"
					}
				},
				"methodIdentifiers": {
					"age()": "262a9dff",
					"setAge()": "457676ee"
				}
			},
			"storageLayout": {
				"storage": [
					{
						"astId": 3,
						"contract": "payable.sol:State",
						"label": "age",
						"offset": 0,
						"slot": "0",
						"type": "t_uint256"
					}
				],
				"types": {
					"t_uint256": {
						"encoding": "inplace",
						"label": "uint256",
						"numberOfBytes": "32"
					}
				}
			},
			"userdoc": {
				"kind": "user",
				"methods": {},
				"version": 1
			}
		}
	}
}