{
	"mapping.sol": {
		"Updater": {
			"abi": [
				{
					"constant": false,
					"inputs": [],
					"name": "updateBalance",
					"outputs": [
						{
							"internalType": "uint256",
							"name": "",
							"type": "uint256"
						}
					],
					"payable": false,
					"stateMutability": "nonpayable",
					"type": "function"
				}
			],
			"devdoc": {
				"methods": {}
			},
			"evm": {
				"assembly": "    /* \"mapping.sol\":205:436  contract Updater {\r... */\n  mstore(0x40, 0x80)\n  callvalue\n    /* \"--CODEGEN--\":8:17   */\n  dup1\n    /* \"--CODEGEN--\":5:7   */\n  iszero\n  tag_1\n  jumpi\n    /* \"--CODEGEN--\":30:31   */\n  0x00\n    /* \"--CODEGEN--\":27:28   */\n  dup1\n    /* \"--CODEGEN--\":20:32   */\n  revert\n    /* \"--CODEGEN--\":5:7   */\ntag_1:\n    /* \"mapping.sol\":205:436  contract Updater {\r... */\n  pop\n  dataSize(sub_0)\n  dup1\n  dataOffset(sub_0)\n  0x00\n  codecopy\n  0x00\n  return\nstop\n\nsub_0: assembly {\n        /* \"mapping.sol\":205:436  contract Updater {\r... */\n      mstore(0x40, 0x80)\n      callvalue\n        /* \"--CODEGEN--\":8:17   */\n      dup1\n        /* \"--CODEGEN--\":5:7   */\n      iszero\n      tag_1\n      jumpi\n        /* \"--CODEGEN--\":30:31   */\n      0x00\n        /* \"--CODEGEN--\":27:28   */\n      dup1\n        /* \"--CODEGEN--\":20:32   */\n      revert\n        /* \"--CODEGEN--\":5:7   */\n    tag_1:\n        /* \"mapping.sol\":205:436  contract Updater {\r... */\n      pop\n      jumpi(tag_2, lt(calldatasize, 0x04))\n      shr(0xe0, calldataload(0x00))\n      dup1\n      0xa9559dd7\n      eq\n      tag_3\n      jumpi\n    tag_2:\n      0x00\n      dup1\n      revert\n        /* \"mapping.sol\":228:433  function updateBalance() public returns (uint) {\r... */\n    tag_3:\n      tag_4\n      tag_5\n      jump\t// in\n    tag_4:\n      mload(0x40)\n      dup1\n      dup3\n      dup2\n      mstore\n      0x20\n      add\n      swap2\n      pop\n      pop\n      mload(0x40)\n      dup1\n      swap2\n      sub\n      swap1\n      return\n    tag_5:\n        /* \"mapping.sol\":269:273  uint */\n      0x00\n        /* \"mapping.sol\":284:311  LedgerBalance ledgerBalance */\n      dup1\n        /* \"mapping.sol\":314:333  new LedgerBalance() */\n      mload(0x40)\n      tag_7\n      swap1\n      tag_8\n      jump\t// in\n    tag_7:\n      mload(0x40)\n      dup1\n      swap2\n      sub\n      swap1\n      0x00\n      create\n      dup1\n      iszero\n        /* \"--CODEGEN--\":8:17   */\n      dup1\n        /* \"--CODEGEN--\":5:7   */\n      iszero\n      tag_9\n      jumpi\n        /* \"--CODEGEN--\":45:61   */\n      returndatasize\n        /* \"--CODEGEN--\":42:43   */\n      0x00\n        /* \"--CODEGEN--\":39:40   */\n      dup1\n        /* \"--CODEGEN--\":24:62   */\n      returndatacopy\n        /* \"--CODEGEN--\":77:93   */\n      returndatasize\n        /* \"--CODEGEN--\":74:75   */\n      0x00\n        /* \"--CODEGEN--\":67:94   */\n      revert\n        /* \"--CODEGEN--\":5:7   */\n    tag_9:\n        /* \"mapping.sol\":314:333  new LedgerBalance() */\n      pop\n        /* \"mapping.sol\":284:333  LedgerBalance ledgerBalance = new LedgerBalance() */\n      swap1\n      pop\n        /* \"mapping.sol\":342:355  ledgerBalance */\n      dup1\n        /* \"mapping.sol\":342:369  ledgerBalance.updateBalance */\n      0xffffffffffffffffffffffffffffffffffffffff\n      and\n      0xba7b37d4\n        /* \"mapping.sol\":370:372  10 */\n      0x0a\n        /* \"mapping.sol\":342:373  ledgerBalance.updateBalance(10) */\n      mload(0x40)\n      dup3\n      0xffffffff\n      and\n      0xe0\n      shl\n      dup2\n      mstore\n      0x04\n      add\n      dup1\n      dup3\n      dup2\n      mstore\n      0x20\n      add\n      swap2\n      pop\n      pop\n      0x00\n      mload(0x40)\n      dup1\n      dup4\n      sub\n      dup2\n      0x00\n      dup8\n      dup1\n      extcodesize\n      iszero\n        /* \"--CODEGEN--\":8:17   */\n      dup1\n        /* \"--CODEGEN--\":5:7   */\n      iszero\n      tag_10\n      jumpi\n        /* \"--CODEGEN--\":30:31   */\n      0x00\n        /* \"--CODEGEN--\":27:28   */\n      dup1\n        /* \"--CODEGEN--\":20:32   */\n      revert\n        /* \"--CODEGEN--\":5:7   */\n    tag_10:\n        /* \"mapping.sol\":342:373  ledgerBalance.updateBalance(10) */\n      pop\n      gas\n      call\n      iszero\n        /* \"--CODEGEN--\":8:17   */\n      dup1\n        /* \"--CODEGEN--\":5:7   */\n      iszero\n      tag_11\n      jumpi\n        /* \"--CODEGEN--\":45:61   */\n      returndatasize\n        /* \"--CODEGEN--\":42:43   */\n      0x00\n        /* \"--CODEGEN--\":39:40   */\n      dup1\n        /* \"--CODEGEN--\":24:62   */\n      returndatacopy\n        /* \"--CODEGEN--\":77:93   */\n      returndatasize\n        /* \"--CODEGEN--\":74:75   */\n      0x00\n        /* \"--CODEGEN--\":67:94   */\n      revert\n        /* \"--CODEGEN--\":5:7   */\n    tag_11:\n        /* \"mapping.sol\":342:373  ledgerBalance.updateBalance(10) */\n      pop\n      pop\n      pop\n      pop\n        /* \"mapping.sol\":389:402  ledgerBalance */\n      dup1\n        /* \"mapping.sol\":389:411  ledgerBalance.balances */\n      0xffffffffffffffffffffffffffffffffffffffff\n      and\n      0x27e235e3\n        /* \"mapping.sol\":420:424  this */\n      address\n        /* \"mapping.sol\":389:426  ledgerBalance.balances(address(this)) */\n      mload(0x40)\n      dup3\n      0xffffffff\n      and\n      0xe0\n      shl\n      dup2\n      mstore\n      0x04\n      add\n      dup1\n      dup3\n      0xffffffffffffffffffffffffffffffffffffffff\n      and\n      0xffffffffffffffffffffffffffffffffffffffff\n      and\n      dup2\n      mstore\n      0x20\n      add\n      swap2\n      pop\n      pop\n      0x20\n      mload(0x40)\n      dup1\n      dup4\n      sub\n      dup2\n      dup7\n      dup1\n      extcodesize\n      iszero\n        /* \"--CODEGEN--\":8:17   */\n      dup1\n        /* \"--CODEGEN--\":5:7   */\n      iszero\n      tag_12\n      jumpi\n        /* \"--CODEGEN--\":30:31   */\n      0x00\n        /* \"--CODEGEN--\":27:28   */\n      dup1\n        /* \"--CODEGEN--\":20:32   */\n      revert\n        /* \"--CODEGEN--\":5:7   */\n    tag_12:\n        /* \"mapping.sol\":389:426  ledgerBalance.balances(address(this)) */\n      pop\n      gas\n      staticcall\n      iszero\n        /* \"--CODEGEN--\":8:17   */\n      dup1\n        /* \"--CODEGEN--\":5:7   */\n      iszero\n      tag_13\n      jumpi\n        /* \"--CODEGEN--\":45:61   */\n      returndatasize\n        /* \"--CODEGEN--\":42:43   */\n      0x00\n        /* \"--CODEGEN--\":39:40   */\n      dup1\n        /* \"--CODEGEN--\":24:62   */\n      returndatacopy\n        /* \"--CODEGEN--\":77:93   */\n      returndatasize\n        /* \"--CODEGEN--\":74:75   */\n      0x00\n        /* \"--CODEGEN--\":67:94   */\n      revert\n        /* \"--CODEGEN--\":5:7   */\n    tag_13:\n        /* \"mapping.sol\":389:426  ledgerBalance.balances(address(this)) */\n      pop\n      pop\n      pop\n      pop\n      mload(0x40)\n      returndatasize\n        /* \"--CODEGEN--\":13:15   */\n      0x20\n        /* \"--CODEGEN--\":8:11   */\n      dup2\n        /* \"--CODEGEN--\":5:16   */\n      lt\n        /* \"--CODEGEN--\":2:4   */\n      iszero\n      tag_14\n      jumpi\n        /* \"--CODEGEN--\":29:30   */\n      0x00\n        /* \"--CODEGEN--\":26:27   */\n      dup1\n        /* \"--CODEGEN--\":19:31   */\n      revert\n        /* \"--CODEGEN--\":2:4   */\n    tag_14:\n        /* \"mapping.sol\":389:426  ledgerBalance.balances(address(this)) */\n      dup2\n      add\n      swap1\n      dup1\n      dup1\n      mload\n      swap1\n      0x20\n      add\n      swap1\n      swap3\n      swap2\n      swap1\n      pop\n      pop\n      pop\n        /* \"mapping.sol\":382:426  return ledgerBalance.balances(address(this)) */\n      swap2\n      pop\n      pop\n        /* \"mapping.sol\":228:433  function updateBalance() public returns (uint) {\r... */\n      swap1\n      jump\t// out\n        /* \"mapping.sol\":205:436  contract Updater {\r... */\n    tag_8:\n      dataSize(sub_0)\n      dup1\n      dataOffset(sub_0)\n      dup4\n      codecopy\n      add\n      swap1\n      jump\t// out\n    stop\n\n    sub_0: assembly {\n            /* \"mapping.sol\":27:203  contract LedgerBalance {\r... */\n          mstore(0x40, 0x80)\n          callvalue\n            /* \"--CODEGEN--\":8:17   */\n          dup1\n            /* \"--CODEGEN--\":5:7   */\n          iszero\n          tag_1\n          jumpi\n            /* \"--CODEGEN--\":30:31   */\n          0x00\n            /* \"--CODEGEN--\":27:28   */\n          dup1\n            /* \"--CODEGEN--\":20:32   */\n          revert\n            /* \"--CODEGEN--\":5:7   */\n        tag_1:\n            /* \"mapping.sol\":27:203  contract LedgerBalance {\r... */\n          pop\n          dataSize(sub_0)\n          dup1\n          dataOffset(sub_0)\n          0x00\n          codecopy\n          0x00\n          return\n        stop\n\n        sub_0: assembly {\n                /* \"mapping.sol\":27:203  contract LedgerBalance {\r... */\n              mstore(0x40, 0x80)\n              callvalue\n                /* \"--CODEGEN--\":8:17   */\n              dup1\n                /* \"--CODEGEN--\":5:7   */\n              iszero\n              tag_1\n              jumpi\n                /* \"--CODEGEN--\":30:31   */\n              0x00\n                /* \"--CODEGEN--\":27:28   */\n              dup1\n                /* \"--CODEGEN--\":20:32   */\n              revert\n                /* \"--CODEGEN--\":5:7   */\n            tag_1:\n                /* \"mapping.sol\":27:203  contract LedgerBalance {\r... */\n              pop\n              jumpi(tag_2, lt(calldatasize, 0x04))\n              shr(0xe0, calldataload(0x00))\n              dup1\n              0x27e235e3\n              eq\n              tag_3\n              jumpi\n              dup1\n              0xba7b37d4\n              eq\n              tag_4\n              jumpi\n            tag_2:\n              0x00\n              dup1\n              revert\n                /* \"mapping.sol\":56:96  mapping(address => uint) public balances */\n            tag_3:\n              tag_5\n              0x04\n              dup1\n              calldatasize\n              sub\n                /* \"--CODEGEN--\":13:15   */\n              0x20\n                /* \"--CODEGEN--\":8:11   */\n              dup2\n                /* \"--CODEGEN--\":5:16   */\n              lt\n                /* \"--CODEGEN--\":2:4   */\n              iszero\n              tag_6\n              jumpi\n                /* \"--CODEGEN--\":29:30   */\n              0x00\n                /* \"--CODEGEN--\":26:27   */\n              dup1\n                /* \"--CODEGEN--\":19:31   */\n              revert\n                /* \"--CODEGEN--\":2:4   */\n            tag_6:\n                /* \"mapping.sol\":56:96  mapping(address => uint) public balances */\n              dup2\n              add\n              swap1\n              dup1\n              dup1\n              calldataload\n              0xffffffffffffffffffffffffffffffffffffffff\n              and\n              swap1\n              0x20\n              add\n              swap1\n              swap3\n              swap2\n              swap1\n              pop\n              pop\n              pop\n              tag_7\n              jump\t// in\n            tag_5:\n              mload(0x40)\n              dup1\n              dup3\n              dup2\n              mstore\n              0x20\n              add\n              swap2\n              pop\n              pop\n              mload(0x40)\n              dup1\n              swap2\n              sub\n              swap1\n              return\n                /* \"mapping.sol\":104:200  function updateBalance(uint newBalance) public {\r... */\n            tag_4:\n              tag_8\n              0x04\n              dup1\n              calldatasize\n              sub\n                /* \"--CODEGEN--\":13:15   */\n              0x20\n                /* \"--CODEGEN--\":8:11   */\n              dup2\n                /* \"--CODEGEN--\":5:16   */\n              lt\n                /* \"--CODEGEN--\":2:4   */\n              iszero\n              tag_9\n              jumpi\n                /* \"--CODEGEN--\":29:30   */\n              0x00\n                /* \"--CODEGEN--\":26:27   */\n              dup1\n                /* \"--CODEGEN--\":19:31   */\n              revert\n                /* \"--CODEGEN--\":2:4   */\n            tag_9:\n                /* \"mapping.sol\":104:200  function updateBalance(uint newBalance) public {\r... */\n              dup2\n              add\n              swap1\n              dup1\n              dup1\n              calldataload\n              swap1\n              0x20\n              add\n              swap1\n              swap3\n              swap2\n              swap1\n              pop\n              pop\n              pop\n              tag_10\n              jump\t// in\n            tag_8:\n              stop\n                /* \"mapping.sol\":56:96  mapping(address => uint) public balances */\n            tag_7:\n              mstore(0x20, 0x00)\n              dup1\n              0x00\n              mstore\n              keccak256(0x00, 0x40)\n              0x00\n              swap2\n              pop\n              swap1\n              pop\n              sload\n              dup2\n              jump\t// out\n                /* \"mapping.sol\":104:200  function updateBalance(uint newBalance) public {\r... */\n            tag_10:\n                /* \"mapping.sol\":183:193  newBalance */\n              dup1\n                /* \"mapping.sol\":160:168  balances */\n              0x00\n                /* \"mapping.sol\":160:180  balances[msg.sender] */\n              dup1\n                /* \"mapping.sol\":169:179  msg.sender */\n              caller\n                /* \"mapping.sol\":160:180  balances[msg.sender] */\n              0xffffffffffffffffffffffffffffffffffffffff\n              and\n              0xffffffffffffffffffffffffffffffffffffffff\n              and\n              dup2\n              mstore\n              0x20\n              add\n              swap1\n              dup2\n              mstore\n              0x20\n              add\n              0x00\n              keccak256\n                /* \"mapping.sol\":160:193  balances[msg.sender] = newBalance */\n              dup2\n              swap1\n              sstore\n              pop\n                /* \"mapping.sol\":104:200  function updateBalance(uint newBalance) public {\r... */\n              pop\n              jump\t// out\n\n            auxdata: 0xa265627a7a72315820b86dbe170b1c24d3e50e1fbc794652729b5d1e6ed7a08876561242817ae679e864736f6c63430005110032\n        }\n    }\n\n    auxdata: 0xa265627a7a72315820d717c550cd10a857df0c04f2488f0db2dc978b2fd697be1c397a9b6d9548061264736f6c63430005110032\n}\n",
				"bytecode": {
					"linkReferences": {},
					"object": "608060405234801561001057600080fd5b5061035c806100206000396000f3fe608060405234801561001057600080fd5b506004361061002b5760003560e01c8063a9559dd714610030575b600080fd5b61003861004e565b6040518082815260200191505060405180910390f35b60008060405161005d906101a6565b604051809103906000f080158015610079573d6000803e3d6000fd5b5090508073ffffffffffffffffffffffffffffffffffffffff1663ba7b37d4600a6040518263ffffffff1660e01b815260040180828152602001915050600060405180830381600087803b1580156100d057600080fd5b505af11580156100e4573d6000803e3d6000fd5b505050508073ffffffffffffffffffffffffffffffffffffffff166327e235e3306040518263ffffffff1660e01b8152600401808273ffffffffffffffffffffffffffffffffffffffff1673ffffffffffffffffffffffffffffffffffffffff16815260200191505060206040518083038186803b15801561016557600080fd5b505afa158015610179573d6000803e3d6000fd5b505050506040513d602081101561018f57600080fd5b810190808051906020019092919050505091505090565b610174806101b48339019056fe608060405234801561001057600080fd5b50610154806100206000396000f3fe608060405234801561001057600080fd5b50600436106100365760003560e01c806327e235e31461003b578063ba7b37d414610093575b600080fd5b61007d6004803603602081101561005157600080fd5b81019080803573ffffffffffffffffffffffffffffffffffffffff1690602001909291905050506100c1565b6040518082815260200191505060405180910390f35b6100bf600480360360208110156100a957600080fd5b81019080803590602001909291905050506100d9565b005b60006020528060005260406000206000915090505481565b806000803373ffffffffffffffffffffffffffffffffffffffff1673ffffffffffffffffffffffffffffffffffffffff168152602001908152602001600020819055505056fea265627a7a72315820b86dbe170b1c24d3e50e1fbc794652729b5d1e6ed7a08876561242817ae679e864736f6c63430005110032a265627a7a72315820d717c550cd10a857df0c04f2488f0db2dc978b2fd697be1c397a9b6d9548061264736f6c63430005110032",
					"opcodes": "PUSH1 0x80 PUSH1 0x40 MSTORE CALLVALUE DUP1 ISZERO PUSH2 0x10 JUMPI PUSH1 0x0 DUP1 REVERT JUMPDEST POP PUSH2 0x35C DUP1 PUSH2 0x20 PUSH1 0x0 CODECOPY PUSH1 0x0 RETURN INVALID PUSH1 0x80 PUSH1 0x40 MSTORE CALLVALUE DUP1 ISZERO PUSH2 0x10 JUMPI PUSH1 0x0 DUP1 REVERT JUMPDEST POP PUSH1 0x4 CALLDATASIZE LT PUSH2 0x2B JUMPI PUSH1 0x0 CALLDATALOAD PUSH1 0xE0 SHR DUP1 PUSH4 0xA9559DD7 EQ PUSH2 0x30 JUMPI JUMPDEST PUSH1 0x0 DUP1 REVERT JUMPDEST PUSH2 0x38 PUSH2 0x4E JUMP JUMPDEST PUSH1 0x40 MLOAD DUP1 DUP3 DUP2 MSTORE PUSH1 0x20 ADD SWAP2 POP POP PUSH1 0x40 MLOAD DUP1 SWAP2 SUB SWAP1 RETURN JUMPDEST PUSH1 0x0 DUP1 PUSH1 0x40 MLOAD PUSH2 0x5D SWAP1 PUSH2 0x1A6 JUMP JUMPDEST PUSH1 0x40 MLOAD DUP1 SWAP2 SUB SWAP1 PUSH1 0x0 CREATE DUP1 ISZERO DUP1 ISZERO PUSH2 0x79 JUMPI RETURNDATASIZE PUSH1 0x0 DUP1 RETURNDATACOPY RETURNDATASIZE PUSH1 0x0 REVERT JUMPDEST POP SWAP1 POP DUP1 PUSH20 0xFFFFFFFFFFFFFFFFFFFFFFFFFFFFFFFFFFFFFFFF AND PUSH4 0xBA7B37D4 PUSH1 0xA PUSH1 0x40 MLOAD DUP3 PUSH4 0xFFFFFFFF AND PUSH1 0xE0 SHL DUP2 MSTORE PUSH1 0x4 ADD DUP1 DUP3 DUP2 MSTORE PUSH1 0x20 ADD SWAP2 POP POP PUSH1 0x0 PUSH1 0x40 MLOAD DUP1 DUP4 SUB DUP2 PUSH1 0x0 DUP8 DUP1 EXTCODESIZE ISZERO DUP1 ISZERO PUSH2 0xD0 JUMPI PUSH1 0x0 DUP1 REVERT JUMPDEST POP GAS CALL ISZERO DUP1 ISZERO PUSH2 0xE4 JUMPI RETURNDATASIZE PUSH1 0x0 DUP1 RETURNDATACOPY RETURNDATASIZE PUSH1 0x0 REVERT JUMPDEST POP POP POP POP DUP1 PUSH20 0xFFFFFFFFFFFFFFFFFFFFFFFFFFFFFFFFFFFFFFFF AND PUSH4 0x27E235E3 ADDRESS PUSH1 0x40 MLOAD DUP3 PUSH4 0xFFFFFFFF AND PUSH1 0xE0 SHL DUP2 MSTORE PUSH1 0x4 ADD DUP1 DUP3 PUSH20 0xFFFFFFFFFFFFFFFFFFFFFFFFFFFFFFFFFFFFFFFF AND PUSH20 0xFFFFFFFFFFFFFFFFFFFFFFFFFFFFFFFFFFFFFFFF AND DUP2 MSTORE PUSH1 0x20 ADD SWAP2 POP POP PUSH1 0x20 PUSH1 0x40 MLOAD DUP1 DUP4 SUB DUP2 DUP7 DUP1 EXTCODESIZE ISZERO DUP1 ISZERO PUSH2 0x165 JUMPI PUSH1 0x0 DUP1 REVERT JUMPDEST POP GAS STATICCALL ISZERO DUP1 ISZERO PUSH2 0x179 JUMPI RETURNDATASIZE PUSH1 0x0 DUP1 RETURNDATACOPY RETURNDATASIZE PUSH1 0x0 REVERT JUMPDEST POP POP POP POP PUSH1 0x40 MLOAD RETURNDATASIZE PUSH1 0x20 DUP2 LT ISZERO PUSH2 0x18F JUMPI PUSH1 0x0 DUP1 REVERT JUMPDEST DUP2 ADD SWAP1 DUP1 DUP1 MLOAD SWAP1 PUSH1 0x20 ADD SWAP1 SWAP3 SWAP2 SWAP1 POP POP POP SWAP2 POP POP SWAP1 JUMP JUMPDEST PUSH2 0x174 DUP1 PUSH2 0x1B4 DUP4 CODECOPY ADD SWAP1 JUMP INVALID PUSH1 0x80 PUSH1 0x40 MSTORE CALLVALUE DUP1 ISZERO PUSH2 0x10 JUMPI PUSH1 0x0 DUP1 REVERT JUMPDEST POP PUSH2 0x154 DUP1 PUSH2 0x20 PUSH1 0x0 CODECOPY PUSH1 0x0 RETURN INVALID PUSH1 0x80 PUSH1 0x40 MSTORE CALLVALUE DUP1 ISZERO PUSH2 0x10 JUMPI PUSH1 0x0 DUP1 REVERT JUMPDEST POP PUSH1 0x4 CALLDATASIZE LT PUSH2 0x36 JUMPI PUSH1 0x0 CALLDATALOAD PUSH1 0xE0 SHR DUP1 PUSH4 0x27E235E3 EQ PUSH2 0x3B JUMPI DUP1 PUSH4 0xBA7B37D4 EQ PUSH2 0x93 JUMPI JUMPDEST PUSH1 0x0 DUP1 REVERT JUMPDEST PUSH2 0x7D PUSH1 0x4 DUP1 CALLDATASIZE SUB PUSH1 0x20 DUP2 LT ISZERO PUSH2 0x51 JUMPI PUSH1 0x0 DUP1 REVERT JUMPDEST DUP2 ADD SWAP1 DUP1 DUP1 CALLDATALOAD PUSH20 0xFFFFFFFFFFFFFFFFFFFFFFFFFFFFFFFFFFFFFFFF AND SWAP1 PUSH1 0x20 ADD SWAP1 SWAP3 SWAP2 SWAP1 POP POP POP PUSH2 0xC1 JUMP JUMPDEST PUSH1 0x40 MLOAD DUP1 DUP3 DUP2 MSTORE PUSH1 0x20 ADD SWAP2 POP POP PUSH1 0x40 MLOAD DUP1 SWAP2 SUB SWAP1 RETURN JUMPDEST PUSH2 0xBF PUSH1 0x4 DUP1 CALLDATASIZE SUB PUSH1 0x20 DUP2 LT ISZERO PUSH2 0xA9 JUMPI PUSH1 0x0 DUP1 REVERT JUMPDEST DUP2 ADD SWAP1 DUP1 DUP1 CALLDATALOAD SWAP1 PUSH1 0x20 ADD SWAP1 SWAP3 SWAP2 SWAP1 POP POP POP PUSH2 0xD9 JUMP JUMPDEST STOP JUMPDEST PUSH1 0x0 PUSH1 0x20 MSTORE DUP1 PUSH1 0x0 MSTORE PUSH1 0x40 PUSH1 0x0 KECCAK256 PUSH1 0x0 SWAP2 POP SWAP1 POP SLOAD DUP2 JUMP JUMPDEST DUP1 PUSH1 0x0 DUP1 CALLER PUSH20 0xFFFFFFFFFFFFFFFFFFFFFFFFFFFFFFFFFFFFFFFF AND PUSH20 0xFFFFFFFFFFFFFFFFFFFFFFFFFFFFFFFFFFFFFFFF AND DUP2 MSTORE PUSH1 0x20 ADD SWAP1 DUP2 MSTORE PUSH1 0x20 ADD PUSH1 0x0 KECCAK256 DUP2 SWAP1 SSTORE POP POP JUMP INVALID LOG2 PUSH6 0x627A7A723158 KECCAK256 0xB8 PUSH14 0xBE170B1C24D3E50E1FBC79465272 SWAP12 0x5D 0x1E PUSH15 0xD7A08876561242817AE679E864736F PUSH13 0x63430005110032A265627A7A72 BALANCE PC KECCAK256 0xD7 OR 0xC5 POP 0xCD LT 0xA8 JUMPI 0xDF 0xC DIV CALLCODE 0x48 DUP16 0xD 0xB2 0xDC SWAP8 DUP12 0x2F 0xD6 SWAP8 0xBE SHR CODECOPY PUSH27 0x9B6D9548061264736F6C6343000511003200000000000000000000 "
				},
				"gasEstimates": {
					"creation": {
						"codeDepositCost": "172000",
						"executionCost": "214",
						"totalCost": "172214"
					},
					"external": {
						"updateBalance()": "infinite"
					}
				},
				"methodIdentifiers": {
					"updateBalance()": "a9559dd7"
				}
			},
			"storageLayout": {
				"storage": [],
				"types": null
			},
			"userdoc": {
				"methods": {}
			}
		}
	}
}