{
	"crowd_funding.sol": {
		"CrowdFunding": {
			"abi": [
				{
					"inputs": [
						{
							"internalType": "uint256",
							"name": "_target",
							"type": "uint256"
						},
						{
							"internalType": "uint256",
							"name": "_deadline",
							"type": "uint256"
						}
					],
					"stateMutability": "nonpayable",
					"type": "constructor"
				},
				{
					"inputs": [
						{
							"internalType": "address",
							"name": "",
							"type": "address"
						}
					],
					"name": "contributers",
					"outputs": [
						{
							"internalType": "uint256",
							"name": "",
							"type": "uint256"
						}
					],
					"stateMutability": "view",
					"type": "function"
				},
				{
					"inputs": [],
					"name": "deadline",
					"outputs": [
						{
							"internalType": "uint256",
							"name": "",
							"type": "uint256"
						}
					],
					"stateMutability": "view",
					"type": "function"
				},
				{
					"inputs": [],
					"name": "manager",
					"outputs": [
						{
							"internalType": "address",
							"name": "",
							"type": "address"
						}
					],
					"stateMutability": "view",
					"type": "function"
				},
				{
					"inputs": [],
					"name": "minimumContribution",
					"outputs": [
						{
							"internalType": "uint256",
							"name": "",
							"type": "uint256"
						}
					],
					"stateMutability": "view",
					"type": "function"
				},
				{
					"inputs": [],
					"name": "noOfContributers",
					"outputs": [
						{
							"internalType": "uint256",
							"name": "",
							"type": "uint256"
						}
					],
					"stateMutability": "view",
					"type": "function"
				},
				{
					"inputs": [],
					"name": "raisedAmount",
					"outputs": [
						{
							"internalType": "uint256",
							"name": "",
							"type": "uint256"
						}
					],
					"stateMutability": "view",
					"type": "function"
				},
				{
					"inputs": [],
					"name": "sedEth",
					"outputs": [],
					"stateMutability": "payable",
					"type": "function"
				},
				{
					"inputs": [],
					"name": "target",
					"outputs": [
						{
							"internalType": "uint256",
							"name": "",
							"type": "uint256"
						}
					],
					"stateMutability": "view",
					"type": "function"
				}
			],
			"devdoc": {
				"kind": "dev",
				"methods": {},
				"version": 1
			},
			"evm": {
				"assembly": "    /* \"crowd_funding.sol\":76:587  contract CrowdFunding{\r... */\n  mstore(0x40, 0x80)\n    /* \"crowd_funding.sol\":340:542  constructor(uint _target,uint _deadline){\r... */\n  callvalue\n  dup1\n  iszero\n  tag_1\n  jumpi\n  0x00\n  dup1\n  revert\ntag_1:\n  pop\n  mload(0x40)\n  sub(codesize, bytecodeSize)\n  dup1\n  bytecodeSize\n  dup4\n  codecopy\n  dup2\n  dup2\n  add\n  0x40\n  mstore\n  dup2\n  add\n  swap1\n  tag_2\n  swap2\n  swap1\n  tag_3\n  jump\t// in\ntag_2:\n    /* \"crowd_funding.sol\":398:405  _target */\n  dup2\n    /* \"crowd_funding.sol\":391:397  target */\n  0x03\n    /* \"crowd_funding.sol\":391:405  target=_target */\n  dup2\n  swap1\n  sstore\n  pop\n    /* \"crowd_funding.sol\":441:450  _deadline */\n  dup1\n    /* \"crowd_funding.sol\":425:440  block.timestamp */\n  timestamp\n    /* \"crowd_funding.sol\":425:450  block.timestamp+_deadline */\n  tag_6\n  swap2\n  swap1\n  tag_7\n  jump\t// in\ntag_6:\n    /* \"crowd_funding.sol\":416:424  deadline */\n  0x02\n    /* \"crowd_funding.sol\":416:450  deadline=block.timestamp+_deadline */\n  dup2\n  swap1\n  sstore\n  pop\n    /* \"crowd_funding.sol\":498:505  100 wei */\n  0x64\n    /* \"crowd_funding.sol\":478:497  minimumContribution */\n  0x06\n    /* \"crowd_funding.sol\":478:505  minimumContribution=100 wei */\n  dup2\n  swap1\n  sstore\n  pop\n    /* \"crowd_funding.sol\":524:534  msg.sender */\n  caller\n    /* \"crowd_funding.sol\":516:523  manager */\n  0x01\n  0x00\n    /* \"crowd_funding.sol\":516:534  manager=msg.sender */\n  0x0100\n  exp\n  dup2\n  sload\n  dup2\n  0xffffffffffffffffffffffffffffffffffffffff\n  mul\n  not\n  and\n  swap1\n  dup4\n  0xffffffffffffffffffffffffffffffffffffffff\n  and\n  mul\n  or\n  swap1\n  sstore\n  pop\n    /* \"crowd_funding.sol\":340:542  constructor(uint _target,uint _deadline){\r... */\n  pop\n  pop\n    /* \"crowd_funding.sol\":76:587  contract CrowdFunding{\r... */\n  jump(tag_8)\n    /* \"#utility.yul\":7:150   */\ntag_10:\n    /* \"#utility.yul\":64:69   */\n  0x00\n    /* \"#utility.yul\":95:101   */\n  dup2\n    /* \"#utility.yul\":89:102   */\n  mload\n    /* \"#utility.yul\":80:102   */\n  swap1\n  pop\n    /* \"#utility.yul\":111:144   */\n  tag_12\n    /* \"#utility.yul\":138:143   */\n  dup2\n    /* \"#utility.yul\":111:144   */\n  tag_13\n  jump\t// in\ntag_12:\n    /* \"#utility.yul\":70:150   */\n  swap3\n  swap2\n  pop\n  pop\n  jump\t// out\n    /* \"#utility.yul\":156:596   */\ntag_3:\n    /* \"#utility.yul\":235:241   */\n  0x00\n    /* \"#utility.yul\":243:249   */\n  dup1\n    /* \"#utility.yul\":292:294   */\n  0x40\n    /* \"#utility.yul\":280:289   */\n  dup4\n    /* \"#utility.yul\":271:278   */\n  dup6\n    /* \"#utility.yul\":267:290   */\n  sub\n    /* \"#utility.yul\":263:295   */\n  slt\n    /* \"#utility.yul\":260:262   */\n  iszero\n  tag_15\n  jumpi\n    /* \"#utility.yul\":308:309   */\n  0x00\n    /* \"#utility.yul\":305:306   */\n  dup1\n    /* \"#utility.yul\":298:310   */\n  revert\n    /* \"#utility.yul\":260:262   */\ntag_15:\n    /* \"#utility.yul\":351:352   */\n  0x00\n    /* \"#utility.yul\":376:440   */\n  tag_16\n    /* \"#utility.yul\":432:439   */\n  dup6\n    /* \"#utility.yul\":423:429   */\n  dup3\n    /* \"#utility.yul\":412:421   */\n  dup7\n    /* \"#utility.yul\":408:430   */\n  add\n    /* \"#utility.yul\":376:440   */\n  tag_10\n  jump\t// in\ntag_16:\n    /* \"#utility.yul\":366:440   */\n  swap3\n  pop\n    /* \"#utility.yul\":322:450   */\n  pop\n    /* \"#utility.yul\":489:491   */\n  0x20\n    /* \"#utility.yul\":515:579   */\n  tag_17\n    /* \"#utility.yul\":571:578   */\n  dup6\n    /* \"#utility.yul\":562:568   */\n  dup3\n    /* \"#utility.yul\":551:560   */\n  dup7\n    /* \"#utility.yul\":547:569   */\n  add\n    /* \"#utility.yul\":515:579   */\n  tag_10\n  jump\t// in\ntag_17:\n    /* \"#utility.yul\":505:579   */\n  swap2\n  pop\n    /* \"#utility.yul\":460:589   */\n  pop\n    /* \"#utility.yul\":250:596   */\n  swap3\n  pop\n  swap3\n  swap1\n  pop\n  jump\t// out\n    /* \"#utility.yul\":602:907   */\ntag_7:\n    /* \"#utility.yul\":642:645   */\n  0x00\n    /* \"#utility.yul\":661:681   */\n  tag_19\n    /* \"#utility.yul\":679:680   */\n  dup3\n    /* \"#utility.yul\":661:681   */\n  tag_20\n  jump\t// in\ntag_19:\n    /* \"#utility.yul\":656:681   */\n  swap2\n  pop\n    /* \"#utility.yul\":695:715   */\n  tag_21\n    /* \"#utility.yul\":713:714   */\n  dup4\n    /* \"#utility.yul\":695:715   */\n  tag_20\n  jump\t// in\ntag_21:\n    /* \"#utility.yul\":690:715   */\n  swap3\n  pop\n    /* \"#utility.yul\":849:850   */\n  dup3\n    /* \"#utility.yul\":781:847   */\n  0xffffffffffffffffffffffffffffffffffffffffffffffffffffffffffffffff\n    /* \"#utility.yul\":777:851   */\n  sub\n    /* \"#utility.yul\":774:775   */\n  dup3\n    /* \"#utility.yul\":771:852   */\n  gt\n    /* \"#utility.yul\":768:770   */\n  iszero\n  tag_22\n  jumpi\n    /* \"#utility.yul\":855:873   */\n  tag_23\n  tag_24\n  jump\t// in\ntag_23:\n    /* \"#utility.yul\":768:770   */\ntag_22:\n    /* \"#utility.yul\":899:900   */\n  dup3\n    /* \"#utility.yul\":896:897   */\n  dup3\n    /* \"#utility.yul\":892:901   */\n  add\n    /* \"#utility.yul\":885:901   */\n  swap1\n  pop\n    /* \"#utility.yul\":646:907   */\n  swap3\n  swap2\n  pop\n  pop\n  jump\t// out\n    /* \"#utility.yul\":913:990   */\ntag_20:\n    /* \"#utility.yul\":950:957   */\n  0x00\n    /* \"#utility.yul\":979:984   */\n  dup2\n    /* \"#utility.yul\":968:984   */\n  swap1\n  pop\n    /* \"#utility.yul\":958:990   */\n  swap2\n  swap1\n  pop\n  jump\t// out\n    /* \"#utility.yul\":996:1176   */\ntag_24:\n    /* \"#utility.yul\":1044:1121   */\n  0x4e487b7100000000000000000000000000000000000000000000000000000000\n    /* \"#utility.yul\":1041:1042   */\n  0x00\n    /* \"#utility.yul\":1034:1122   */\n  mstore\n    /* \"#utility.yul\":1141:1145   */\n  0x11\n    /* \"#utility.yul\":1138:1139   */\n  0x04\n    /* \"#utility.yul\":1131:1146   */\n  mstore\n    /* \"#utility.yul\":1165:1169   */\n  0x24\n    /* \"#utility.yul\":1162:1163   */\n  0x00\n    /* \"#utility.yul\":1155:1170   */\n  revert\n    /* \"#utility.yul\":1182:1304   */\ntag_13:\n    /* \"#utility.yul\":1255:1279   */\n  tag_28\n    /* \"#utility.yul\":1273:1278   */\n  dup2\n    /* \"#utility.yul\":1255:1279   */\n  tag_20\n  jump\t// in\ntag_28:\n    /* \"#utility.yul\":1248:1253   */\n  dup2\n    /* \"#utility.yul\":1245:1280   */\n  eq\n    /* \"#utility.yul\":1235:1237   */\n  tag_29\n  jumpi\n    /* \"#utility.yul\":1294:1295   */\n  0x00\n    /* \"#utility.yul\":1291:1292   */\n  dup1\n    /* \"#utility.yul\":1284:1296   */\n  revert\n    /* \"#utility.yul\":1235:1237   */\ntag_29:\n    /* \"#utility.yul\":1225:1304   */\n  pop\n  jump\t// out\n    /* \"crowd_funding.sol\":76:587  contract CrowdFunding{\r... */\ntag_8:\n  dataSize(sub_0)\n  dup1\n  dataOffset(sub_0)\n  0x00\n  codecopy\n  0x00\n  return\nstop\n\nsub_0: assembly {\n        /* \"crowd_funding.sol\":76:587  contract CrowdFunding{\r... */\n      mstore(0x40, 0x80)\n      jumpi(tag_1, lt(calldatasize, 0x04))\n      shr(0xe0, calldataload(0x00))\n      dup1\n      0x5edec2c4\n      gt\n      tag_10\n      jumpi\n      dup1\n      0x5edec2c4\n      eq\n      tag_6\n      jumpi\n      dup1\n      0x937e09b1\n      eq\n      tag_7\n      jumpi\n      dup1\n      0xc59ee1dc\n      eq\n      tag_8\n      jumpi\n      dup1\n      0xd4b83992\n      eq\n      tag_9\n      jumpi\n      jump(tag_1)\n    tag_10:\n      dup1\n      0x24274ee9\n      eq\n      tag_2\n      jumpi\n      dup1\n      0x29dcb0cf\n      eq\n      tag_3\n      jumpi\n      dup1\n      0x34b66460\n      eq\n      tag_4\n      jumpi\n      dup1\n      0x481c6a75\n      eq\n      tag_5\n      jumpi\n    tag_1:\n      0x00\n      dup1\n      revert\n        /* \"crowd_funding.sol\":265:293  uint public noOfContributers */\n    tag_2:\n      callvalue\n      dup1\n      iszero\n      tag_11\n      jumpi\n      0x00\n      dup1\n      revert\n    tag_11:\n      pop\n      tag_12\n      tag_13\n      jump\t// in\n    tag_12:\n      mload(0x40)\n      tag_14\n      swap2\n      swap1\n      tag_15\n      jump\t// in\n    tag_14:\n      mload(0x40)\n      dup1\n      swap2\n      sub\n      swap1\n      return\n        /* \"crowd_funding.sol\":182:202  uint public deadline */\n    tag_3:\n      callvalue\n      dup1\n      iszero\n      tag_16\n      jumpi\n      0x00\n      dup1\n      revert\n    tag_16:\n      pop\n      tag_17\n      tag_18\n      jump\t// in\n    tag_17:\n      mload(0x40)\n      tag_19\n      swap2\n      swap1\n      tag_15\n      jump\t// in\n    tag_19:\n      mload(0x40)\n      dup1\n      swap2\n      sub\n      swap1\n      return\n        /* \"crowd_funding.sol\":104:146  mapping(address=>uint) public contributers */\n    tag_4:\n      callvalue\n      dup1\n      iszero\n      tag_20\n      jumpi\n      0x00\n      dup1\n      revert\n    tag_20:\n      pop\n      tag_21\n      0x04\n      dup1\n      calldatasize\n      sub\n      dup2\n      add\n      swap1\n      tag_22\n      swap2\n      swap1\n      tag_23\n      jump\t// in\n    tag_22:\n      tag_24\n      jump\t// in\n    tag_21:\n      mload(0x40)\n      tag_25\n      swap2\n      swap1\n      tag_15\n      jump\t// in\n    tag_25:\n      mload(0x40)\n      dup1\n      swap2\n      sub\n      swap1\n      return\n        /* \"crowd_funding.sol\":153:175  address public manager */\n    tag_5:\n      callvalue\n      dup1\n      iszero\n      tag_26\n      jumpi\n      0x00\n      dup1\n      revert\n    tag_26:\n      pop\n      tag_27\n      tag_28\n      jump\t// in\n    tag_27:\n      mload(0x40)\n      tag_29\n      swap2\n      swap1\n      tag_30\n      jump\t// in\n    tag_29:\n      mload(0x40)\n      dup1\n      swap2\n      sub\n      swap1\n      return\n        /* \"crowd_funding.sol\":550:584  function sedEth() public payable{} */\n    tag_6:\n      tag_31\n      tag_32\n      jump\t// in\n    tag_31:\n      stop\n        /* \"crowd_funding.sol\":300:331  uint public minimumContribution */\n    tag_7:\n      callvalue\n      dup1\n      iszero\n      tag_33\n      jumpi\n      0x00\n      dup1\n      revert\n    tag_33:\n      pop\n      tag_34\n      tag_35\n      jump\t// in\n    tag_34:\n      mload(0x40)\n      tag_36\n      swap2\n      swap1\n      tag_15\n      jump\t// in\n    tag_36:\n      mload(0x40)\n      dup1\n      swap2\n      sub\n      swap1\n      return\n        /* \"crowd_funding.sol\":234:258  uint public raisedAmount */\n    tag_8:\n      callvalue\n      dup1\n      iszero\n      tag_37\n      jumpi\n      0x00\n      dup1\n      revert\n    tag_37:\n      pop\n      tag_38\n      tag_39\n      jump\t// in\n    tag_38:\n      mload(0x40)\n      tag_40\n      swap2\n      swap1\n      tag_15\n      jump\t// in\n    tag_40:\n      mload(0x40)\n      dup1\n      swap2\n      sub\n      swap1\n      return\n        /* \"crowd_funding.sol\":209:227  uint public target */\n    tag_9:\n      callvalue\n      dup1\n      iszero\n      tag_41\n      jumpi\n      0x00\n      dup1\n      revert\n    tag_41:\n      pop\n      tag_42\n      tag_43\n      jump\t// in\n    tag_42:\n      mload(0x40)\n      tag_44\n      swap2\n      swap1\n      tag_15\n      jump\t// in\n    tag_44:\n      mload(0x40)\n      dup1\n      swap2\n      sub\n      swap1\n      return\n        /* \"crowd_funding.sol\":265:293  uint public noOfContributers */\n    tag_13:\n      sload(0x05)\n      dup2\n      jump\t// out\n        /* \"crowd_funding.sol\":182:202  uint public deadline */\n    tag_18:\n      sload(0x02)\n      dup2\n      jump\t// out\n        /* \"crowd_funding.sol\":104:146  mapping(address=>uint) public contributers */\n    tag_24:\n      mstore(0x20, 0x00)\n      dup1\n      0x00\n      mstore\n      keccak256(0x00, 0x40)\n      0x00\n      swap2\n      pop\n      swap1\n      pop\n      sload\n      dup2\n      jump\t// out\n        /* \"crowd_funding.sol\":153:175  address public manager */\n    tag_28:\n      0x01\n      0x00\n      swap1\n      sload\n      swap1\n      0x0100\n      exp\n      swap1\n      div\n      0xffffffffffffffffffffffffffffffffffffffff\n      and\n      dup2\n      jump\t// out\n        /* \"crowd_funding.sol\":550:584  function sedEth() public payable{} */\n    tag_32:\n      jump\t// out\n        /* \"crowd_funding.sol\":300:331  uint public minimumContribution */\n    tag_35:\n      sload(0x06)\n      dup2\n      jump\t// out\n        /* \"crowd_funding.sol\":234:258  uint public raisedAmount */\n    tag_39:\n      sload(0x04)\n      dup2\n      jump\t// out\n        /* \"crowd_funding.sol\":209:227  uint public target */\n    tag_43:\n      sload(0x03)\n      dup2\n      jump\t// out\n        /* \"#utility.yul\":7:146   */\n    tag_47:\n        /* \"#utility.yul\":53:58   */\n      0x00\n        /* \"#utility.yul\":91:97   */\n      dup2\n        /* \"#utility.yul\":78:98   */\n      calldataload\n        /* \"#utility.yul\":69:98   */\n      swap1\n      pop\n        /* \"#utility.yul\":107:140   */\n      tag_49\n        /* \"#utility.yul\":134:139   */\n      dup2\n        /* \"#utility.yul\":107:140   */\n      tag_50\n      jump\t// in\n    tag_49:\n        /* \"#utility.yul\":59:146   */\n      swap3\n      swap2\n      pop\n      pop\n      jump\t// out\n        /* \"#utility.yul\":152:414   */\n    tag_23:\n        /* \"#utility.yul\":211:217   */\n      0x00\n        /* \"#utility.yul\":260:262   */\n      0x20\n        /* \"#utility.yul\":248:257   */\n      dup3\n        /* \"#utility.yul\":239:246   */\n      dup5\n        /* \"#utility.yul\":235:258   */\n      sub\n        /* \"#utility.yul\":231:263   */\n      slt\n        /* \"#utility.yul\":228:230   */\n      iszero\n      tag_52\n      jumpi\n        /* \"#utility.yul\":276:277   */\n      0x00\n        /* \"#utility.yul\":273:274   */\n      dup1\n        /* \"#utility.yul\":266:278   */\n      revert\n        /* \"#utility.yul\":228:230   */\n    tag_52:\n        /* \"#utility.yul\":319:320   */\n      0x00\n        /* \"#utility.yul\":344:397   */\n      tag_53\n        /* \"#utility.yul\":389:396   */\n      dup5\n        /* \"#utility.yul\":380:386   */\n      dup3\n        /* \"#utility.yul\":369:378   */\n      dup6\n        /* \"#utility.yul\":365:387   */\n      add\n        /* \"#utility.yul\":344:397   */\n      tag_47\n      jump\t// in\n    tag_53:\n        /* \"#utility.yul\":334:397   */\n      swap2\n      pop\n        /* \"#utility.yul\":290:407   */\n      pop\n        /* \"#utility.yul\":218:414   */\n      swap3\n      swap2\n      pop\n      pop\n      jump\t// out\n        /* \"#utility.yul\":420:538   */\n    tag_54:\n        /* \"#utility.yul\":507:531   */\n      tag_56\n        /* \"#utility.yul\":525:530   */\n      dup2\n        /* \"#utility.yul\":507:531   */\n      tag_57\n      jump\t// in\n    tag_56:\n        /* \"#utility.yul\":502:505   */\n      dup3\n        /* \"#utility.yul\":495:532   */\n      mstore\n        /* \"#utility.yul\":485:538   */\n      pop\n      pop\n      jump\t// out\n        /* \"#utility.yul\":544:662   */\n    tag_58:\n        /* \"#utility.yul\":631:655   */\n      tag_60\n        /* \"#utility.yul\":649:654   */\n      dup2\n        /* \"#utility.yul\":631:655   */\n      tag_61\n      jump\t// in\n    tag_60:\n        /* \"#utility.yul\":626:629   */\n      dup3\n        /* \"#utility.yul\":619:656   */\n      mstore\n        /* \"#utility.yul\":609:662   */\n      pop\n      pop\n      jump\t// out\n        /* \"#utility.yul\":668:890   */\n    tag_30:\n        /* \"#utility.yul\":761:765   */\n      0x00\n        /* \"#utility.yul\":799:801   */\n      0x20\n        /* \"#utility.yul\":788:797   */\n      dup3\n        /* \"#utility.yul\":784:802   */\n      add\n        /* \"#utility.yul\":776:802   */\n      swap1\n      pop\n        /* \"#utility.yul\":812:883   */\n      tag_63\n        /* \"#utility.yul\":880:881   */\n      0x00\n        /* \"#utility.yul\":869:878   */\n      dup4\n        /* \"#utility.yul\":865:882   */\n      add\n        /* \"#utility.yul\":856:862   */\n      dup5\n        /* \"#utility.yul\":812:883   */\n      tag_54\n      jump\t// in\n    tag_63:\n        /* \"#utility.yul\":766:890   */\n      swap3\n      swap2\n      pop\n      pop\n      jump\t// out\n        /* \"#utility.yul\":896:1118   */\n    tag_15:\n        /* \"#utility.yul\":989:993   */\n      0x00\n        /* \"#utility.yul\":1027:1029   */\n      0x20\n        /* \"#utility.yul\":1016:1025   */\n      dup3\n        /* \"#utility.yul\":1012:1030   */\n      add\n        /* \"#utility.yul\":1004:1030   */\n      swap1\n      pop\n        /* \"#utility.yul\":1040:1111   */\n      tag_65\n        /* \"#utility.yul\":1108:1109   */\n      0x00\n        /* \"#utility.yul\":1097:1106   */\n      dup4\n        /* \"#utility.yul\":1093:1110   */\n      add\n        /* \"#utility.yul\":1084:1090   */\n      dup5\n        /* \"#utility.yul\":1040:1111   */\n      tag_58\n      jump\t// in\n    tag_65:\n        /* \"#utility.yul\":994:1118   */\n      swap3\n      swap2\n      pop\n      pop\n      jump\t// out\n        /* \"#utility.yul\":1124:1220   */\n    tag_57:\n        /* \"#utility.yul\":1161:1168   */\n      0x00\n        /* \"#utility.yul\":1190:1214   */\n      tag_67\n        /* \"#utility.yul\":1208:1213   */\n      dup3\n        /* \"#utility.yul\":1190:1214   */\n      tag_68\n      jump\t// in\n    tag_67:\n        /* \"#utility.yul\":1179:1214   */\n      swap1\n      pop\n        /* \"#utility.yul\":1169:1220   */\n      swap2\n      swap1\n      pop\n      jump\t// out\n        /* \"#utility.yul\":1226:1352   */\n    tag_68:\n        /* \"#utility.yul\":1263:1270   */\n      0x00\n        /* \"#utility.yul\":1303:1345   */\n      0xffffffffffffffffffffffffffffffffffffffff\n        /* \"#utility.yul\":1296:1301   */\n      dup3\n        /* \"#utility.yul\":1292:1346   */\n      and\n        /* \"#utility.yul\":1281:1346   */\n      swap1\n      pop\n        /* \"#utility.yul\":1271:1352   */\n      swap2\n      swap1\n      pop\n      jump\t// out\n        /* \"#utility.yul\":1358:1435   */\n    tag_61:\n        /* \"#utility.yul\":1395:1402   */\n      0x00\n        /* \"#utility.yul\":1424:1429   */\n      dup2\n        /* \"#utility.yul\":1413:1429   */\n      swap1\n      pop\n        /* \"#utility.yul\":1403:1435   */\n      swap2\n      swap1\n      pop\n      jump\t// out\n        /* \"#utility.yul\":1441:1563   */\n    tag_50:\n        /* \"#utility.yul\":1514:1538   */\n      tag_72\n        /* \"#utility.yul\":1532:1537   */\n      dup2\n        /* \"#utility.yul\":1514:1538   */\n      tag_57\n      jump\t// in\n    tag_72:\n        /* \"#utility.yul\":1507:1512   */\n      dup2\n        /* \"#utility.yul\":1504:1539   */\n      eq\n        /* \"#utility.yul\":1494:1496   */\n      tag_73\n      jumpi\n        /* \"#utility.yul\":1553:1554   */\n      0x00\n        /* \"#utility.yul\":1550:1551   */\n      dup1\n        /* \"#utility.yul\":1543:1555   */\n      revert\n        /* \"#utility.yul\":1494:1496   */\n    tag_73:\n        /* \"#utility.yul\":1484:1563   */\n      pop\n      jump\t// out\n\n    auxdata: 0xa2646970667358221220f5460d5cea7f6d64aade65626b346c2f121253dd5d3242cc743c2b2663da9d4a64736f6c63430008040033\n}\n",
				"bytecode": {
					"linkReferences": {},
					"object": "608060405234801561001057600080fd5b506040516104e33803806104e3833981810160405281019061003291906100b0565b81600381905550804261004591906100ec565b600281905550606460068190555033600160006101000a81548173ffffffffffffffffffffffffffffffffffffffff021916908373ffffffffffffffffffffffffffffffffffffffff1602179055505050610192565b6000815190506100aa8161017b565b92915050565b600080604083850312156100c357600080fd5b60006100d18582860161009b565b92505060206100e28582860161009b565b9150509250929050565b60006100f782610142565b915061010283610142565b9250827fffffffffffffffffffffffffffffffffffffffffffffffffffffffffffffffff038211156101375761013661014c565b5b828201905092915050565b6000819050919050565b7f4e487b7100000000000000000000000000000000000000000000000000000000600052601160045260246000fd5b61018481610142565b811461018f57600080fd5b50565b610342806101a16000396000f3fe60806040526004361061007b5760003560e01c80635edec2c41161004e5780635edec2c41461013e578063937e09b114610148578063c59ee1dc14610173578063d4b839921461019e5761007b565b806324274ee91461008057806329dcb0cf146100ab57806334b66460146100d6578063481c6a7514610113575b600080fd5b34801561008c57600080fd5b506100956101c9565b6040516100a2919061029e565b60405180910390f35b3480156100b757600080fd5b506100c06101cf565b6040516100cd919061029e565b60405180910390f35b3480156100e257600080fd5b506100fd60048036038101906100f8919061023c565b6101d5565b60405161010a919061029e565b60405180910390f35b34801561011f57600080fd5b506101286101ed565b6040516101359190610283565b60405180910390f35b610146610213565b005b34801561015457600080fd5b5061015d610215565b60405161016a919061029e565b60405180910390f35b34801561017f57600080fd5b5061018861021b565b604051610195919061029e565b60405180910390f35b3480156101aa57600080fd5b506101b3610221565b6040516101c0919061029e565b60405180910390f35b60055481565b60025481565b60006020528060005260406000206000915090505481565b600160009054906101000a900473ffffffffffffffffffffffffffffffffffffffff1681565b565b60065481565b60045481565b60035481565b600081359050610236816102f5565b92915050565b60006020828403121561024e57600080fd5b600061025c84828501610227565b91505092915050565b61026e816102b9565b82525050565b61027d816102eb565b82525050565b60006020820190506102986000830184610265565b92915050565b60006020820190506102b36000830184610274565b92915050565b60006102c4826102cb565b9050919050565b600073ffffffffffffffffffffffffffffffffffffffff82169050919050565b6000819050919050565b6102fe816102b9565b811461030957600080fd5b5056fea2646970667358221220f5460d5cea7f6d64aade65626b346c2f121253dd5d3242cc743c2b2663da9d4a64736f6c63430008040033",
					"opcodes": "PUSH1 0x80 PUSH1 0x40 MSTORE CALLVALUE DUP1 ISZERO PUSH2 0x10 JUMPI PUSH1 0x0 DUP1 REVERT JUMPDEST POP PUSH1 0x40 MLOAD PUSH2 0x4E3 CODESIZE SUB DUP1 PUSH2 0x4E3 DUP4 CODECOPY DUP2 DUP2 ADD PUSH1 0x40 MSTORE DUP2 ADD SWAP1 PUSH2 0x32 SWAP2 SWAP1 PUSH2 0xB0 JUMP JUMPDEST DUP2 PUSH1 0x3 DUP2 SWAP1 SSTORE POP DUP1 TIMESTAMP PUSH2 0x45 SWAP2 SWAP1 PUSH2 0xEC JUMP JUMPDEST PUSH1 0x2 DUP2 SWAP1 SSTORE POP PUSH1 0x64 PUSH1 0x6 DUP2 SWAP1 SSTORE POP CALLER PUSH1 0x1 PUSH1 0x0 PUSH2 0x100 EXP DUP2 SLOAD DUP2 PUSH20 0xFFFFFFFFFFFFFFFFFFFFFFFFFFFFFFFFFFFFFFFF MUL NOT AND SWAP1 DUP4 PUSH20 0xFFFFFFFFFFFFFFFFFFFFFFFFFFFFFFFFFFFFFFFF AND MUL OR SWAP1 SSTORE POP POP POP PUSH2 0x192 JUMP JUMPDEST PUSH1 0x0 DUP2 MLOAD SWAP1 POP PUSH2 0xAA DUP2 PUSH2 0x17B JUMP JUMPDEST SWAP3 SWAP2 POP POP JUMP JUMPDEST PUSH1 0x0 DUP1 PUSH1 0x40 DUP4 DUP6 SUB SLT ISZERO PUSH2 0xC3 JUMPI PUSH1 0x0 DUP1 REVERT JUMPDEST PUSH1 0x0 PUSH2 0xD1 DUP6 DUP3 DUP7 ADD PUSH2 0x9B JUMP JUMPDEST SWAP3 POP POP PUSH1 0x20 PUSH2 0xE2 DUP6 DUP3 DUP7 ADD PUSH2 0x9B JUMP JUMPDEST SWAP2 POP POP SWAP3 POP SWAP3 SWAP1 POP JUMP JUMPDEST PUSH1 0x0 PUSH2 0xF7 DUP3 PUSH2 0x142 JUMP JUMPDEST SWAP2 POP PUSH2 0x102 DUP4 PUSH2 0x142 JUMP JUMPDEST SWAP3 POP DUP3 PUSH32 0xFFFFFFFFFFFFFFFFFFFFFFFFFFFFFFFFFFFFFFFFFFFFFFFFFFFFFFFFFFFFFFFF SUB DUP3 GT ISZERO PUSH2 0x137 JUMPI PUSH2 0x136 PUSH2 0x14C JUMP JUMPDEST JUMPDEST DUP3 DUP3 ADD SWAP1 POP SWAP3 SWAP2 POP POP JUMP JUMPDEST PUSH1 0x0 DUP2 SWAP1 POP SWAP2 SWAP1 POP JUMP JUMPDEST PUSH32 0x4E487B7100000000000000000000000000000000000000000000000000000000 PUSH1 0x0 MSTORE PUSH1 0x11 PUSH1 0x4 MSTORE PUSH1 0x24 PUSH1 0x0 REVERT JUMPDEST PUSH2 0x184 DUP2 PUSH2 0x142 JUMP JUMPDEST DUP2 EQ PUSH2 0x18F JUMPI PUSH1 0x0 DUP1 REVERT JUMPDEST POP JUMP JUMPDEST PUSH2 0x342 DUP1 PUSH2 0x1A1 PUSH1 0x0 CODECOPY PUSH1 0x0 RETURN INVALID PUSH1 0x80 PUSH1 0x40 MSTORE PUSH1 0x4 CALLDATASIZE LT PUSH2 0x7B JUMPI PUSH1 0x0 CALLDATALOAD PUSH1 0xE0 SHR DUP1 PUSH4 0x5EDEC2C4 GT PUSH2 0x4E JUMPI DUP1 PUSH4 0x5EDEC2C4 EQ PUSH2 0x13E JUMPI DUP1 PUSH4 0x937E09B1 EQ PUSH2 0x148 JUMPI DUP1 PUSH4 0xC59EE1DC EQ PUSH2 0x173 JUMPI DUP1 PUSH4 0xD4B83992 EQ PUSH2 0x19E JUMPI PUSH2 0x7B JUMP JUMPDEST DUP1 PUSH4 0x24274EE9 EQ PUSH2 0x80 JUMPI DUP1 PUSH4 0x29DCB0CF EQ PUSH2 0xAB JUMPI DUP1 PUSH4 0x34B66460 EQ PUSH2 0xD6 JUMPI DUP1 PUSH4 0x481C6A75 EQ PUSH2 0x113 JUMPI JUMPDEST PUSH1 0x0 DUP1 REVERT JUMPDEST CALLVALUE DUP1 ISZERO PUSH2 0x8C JUMPI PUSH1 0x0 DUP1 REVERT JUMPDEST POP PUSH2 0x95 PUSH2 0x1C9 JUMP JUMPDEST PUSH1 0x40 MLOAD PUSH2 0xA2 SWAP2 SWAP1 PUSH2 0x29E JUMP JUMPDEST PUSH1 0x40 MLOAD DUP1 SWAP2 SUB SWAP1 RETURN JUMPDEST CALLVALUE DUP1 ISZERO PUSH2 0xB7 JUMPI PUSH1 0x0 DUP1 REVERT JUMPDEST POP PUSH2 0xC0 PUSH2 0x1CF JUMP JUMPDEST PUSH1 0x40 MLOAD PUSH2 0xCD SWAP2 SWAP1 PUSH2 0x29E JUMP JUMPDEST PUSH1 0x40 MLOAD DUP1 SWAP2 SUB SWAP1 RETURN JUMPDEST CALLVALUE DUP1 ISZERO PUSH2 0xE2 JUMPI PUSH1 0x0 DUP1 REVERT JUMPDEST POP PUSH2 0xFD PUSH1 0x4 DUP1 CALLDATASIZE SUB DUP2 ADD SWAP1 PUSH2 0xF8 SWAP2 SWAP1 PUSH2 0x23C JUMP JUMPDEST PUSH2 0x1D5 JUMP JUMPDEST PUSH1 0x40 MLOAD PUSH2 0x10A SWAP2 SWAP1 PUSH2 0x29E JUMP JUMPDEST PUSH1 0x40 MLOAD DUP1 SWAP2 SUB SWAP1 RETURN JUMPDEST CALLVALUE DUP1 ISZERO PUSH2 0x11F JUMPI PUSH1 0x0 DUP1 REVERT JUMPDEST POP PUSH2 0x128 PUSH2 0x1ED JUMP JUMPDEST PUSH1 0x40 MLOAD PUSH2 0x135 SWAP2 SWAP1 PUSH2 0x283 JUMP JUMPDEST PUSH1 0x40 MLOAD DUP1 SWAP2 SUB SWAP1 RETURN JUMPDEST PUSH2 0x146 PUSH2 0x213 JUMP JUMPDEST STOP JUMPDEST CALLVALUE DUP1 ISZERO PUSH2 0x154 JUMPI PUSH1 0x0 DUP1 REVERT JUMPDEST POP PUSH2 0x15D PUSH2 0x215 JUMP JUMPDEST PUSH1 0x40 MLOAD PUSH2 0x16A SWAP2 SWAP1 PUSH2 0x29E JUMP JUMPDEST PUSH1 0x40 MLOAD DUP1 SWAP2 SUB SWAP1 RETURN JUMPDEST CALLVALUE DUP1 ISZERO PUSH2 0x17F JUMPI PUSH1 0x0 DUP1 REVERT JUMPDEST POP PUSH2 0x188 PUSH2 0x21B JUMP JUMPDEST PUSH1 0x40 MLOAD PUSH2 0x195 SWAP2 SWAP1 PUSH2 0x29E JUMP JUMPDEST PUSH1 0x40 MLOAD DUP1 SWAP2 SUB SWAP1 RETURN JUMPDEST CALLVALUE DUP1 ISZERO PUSH2 0x1AA JUMPI PUSH1 0x0 DUP1 REVERT JUMPDEST POP PUSH2 0x1B3 PUSH2 0x221 JUMP JUMPDEST PUSH1 0x40 MLOAD PUSH2 0x1C0 SWAP2 SWAP1 PUSH2 0x29E JUMP JUMPDEST PUSH1 0x40 MLOAD DUP1 SWAP2 SUB SWAP1 RETURN JUMPDEST PUSH1 0x5 SLOAD DUP2 JUMP JUMPDEST PUSH1 0x2 SLOAD DUP2 JUMP JUMPDEST PUSH1 0x0 PUSH1 0x20 MSTORE DUP1 PUSH1 0x0 MSTORE PUSH1 0x40 PUSH1 0x0 KECCAK256 PUSH1 0x0 SWAP2 POP SWAP1 POP SLOAD DUP2 JUMP JUMPDEST PUSH1 0x1 PUSH1 0x0 SWAP1 SLOAD SWAP1 PUSH2 0x100 EXP SWAP1 DIV PUSH20 0xFFFFFFFFFFFFFFFFFFFFFFFFFFFFFFFFFFFFFFFF AND DUP2 JUMP JUMPDEST JUMP JUMPDEST PUSH1 0x6 SLOAD DUP2 JUMP JUMPDEST PUSH1 0x4 SLOAD DUP2 JUMP JUMPDEST PUSH1 0x3 SLOAD DUP2 JUMP JUMPDEST PUSH1 0x0 DUP2 CALLDATALOAD SWAP1 POP PUSH2 0x236 DUP2 PUSH2 0x2F5 JUMP JUMPDEST SWAP3 SWAP2 POP POP JUMP JUMPDEST PUSH1 0x0 PUSH1 0x20 DUP3 DUP5 SUB SLT ISZERO PUSH2 0x24E JUMPI PUSH1 0x0 DUP1 REVERT JUMPDEST PUSH1 0x0 PUSH2 0x25C DUP5 DUP3 DUP6 ADD PUSH2 0x227 JUMP JUMPDEST SWAP2 POP POP SWAP3 SWAP2 POP POP JUMP JUMPDEST PUSH2 0x26E DUP2 PUSH2 0x2B9 JUMP JUMPDEST DUP3 MSTORE POP POP JUMP JUMPDEST PUSH2 0x27D DUP2 PUSH2 0x2EB JUMP JUMPDEST DUP3 MSTORE POP POP JUMP JUMPDEST PUSH1 0x0 PUSH1 0x20 DUP3 ADD SWAP1 POP PUSH2 0x298 PUSH1 0x0 DUP4 ADD DUP5 PUSH2 0x265 JUMP JUMPDEST SWAP3 SWAP2 POP POP JUMP JUMPDEST PUSH1 0x0 PUSH1 0x20 DUP3 ADD SWAP1 POP PUSH2 0x2B3 PUSH1 0x0 DUP4 ADD DUP5 PUSH2 0x274 JUMP JUMPDEST SWAP3 SWAP2 POP POP JUMP JUMPDEST PUSH1 0x0 PUSH2 0x2C4 DUP3 PUSH2 0x2CB JUMP JUMPDEST SWAP1 POP SWAP2 SWAP1 POP JUMP JUMPDEST PUSH1 0x0 PUSH20 0xFFFFFFFFFFFFFFFFFFFFFFFFFFFFFFFFFFFFFFFF DUP3 AND SWAP1 POP SWAP2 SWAP1 POP JUMP JUMPDEST PUSH1 0x0 DUP2 SWAP1 POP SWAP2 SWAP1 POP JUMP JUMPDEST PUSH2 0x2FE DUP2 PUSH2 0x2B9 JUMP JUMPDEST DUP2 EQ PUSH2 0x309 JUMPI PUSH1 0x0 DUP1 REVERT JUMPDEST POP JUMP INVALID LOG2 PUSH5 0x6970667358 0x22 SLT KECCAK256 CREATE2 CHAINID 0xD 0x5C 0xEA PUSH32 0x6D64AADE65626B346C2F121253DD5D3242CC743C2B2663DA9D4A64736F6C6343 STOP ADDMOD DIV STOP CALLER "
				},
				"gasEstimates": {
					"creation": {
						"codeDepositCost": "166800",
						"executionCost": "infinite",
						"totalCost": "infinite"
					},
					"external": {
						"contributers(address)": "1559",
						"deadline()": "1152",
						"manager()": "1281",
						"minimumContribution()": "1151",
						"noOfContributers()": "1130",
						"raisedAmount()": "1173",
						"sedEth()": "120",
						"target()": "1195"
					}
				},
				"methodIdentifiers": {
					"contributers(address)": "34b66460",
					"deadline()": "29dcb0cf",
					"manager()": "481c6a75",
					"minimumContribution()": "937e09b1",
					"noOfContributers()": "24274ee9",
					"raisedAmount()": "c59ee1dc",
					"sedEth()": "5edec2c4",
					"target()": "d4b83992"
				}
			},
			"storageLayout": {
				"storage": [
					{
						"astId": 5,
						"contract": "crowd_funding.sol:CrowdFunding",
						"label": "contributers",
						"offset": 0,
						"slot": "0",
						"type": "t_mapping(t_address,t_uint256)"
					},
					{
						"astId": 7,
						"contract": "crowd_funding.sol:CrowdFunding",
						"label": "manager",
						"offset": 0,
						"slot": "1",
						"type": "t_address"
					},
					{
						"astId": 9,
						"contract": "crowd_funding.sol:CrowdFunding",
						"label": "deadline",
						"offset": 0,
						"slot": "2",
						"type": "t_uint256"
					},
					{
						"astId": 11,
						"contract": "crowd_funding.sol:CrowdFunding",
						"label": "target",
						"offset": 0,
						"slot": "3",
						"type": "t_uint256"
					},
					{
						"astId": 13,
						"contract": "crowd_funding.sol:CrowdFunding",
						"label": "raisedAmount",
						"offset": 0,
						"slot": "4",
						"type": "t_uint256"
					},
					{
						"astId": 15,
						"contract": "crowd_funding.sol:CrowdFunding",
						"label": "noOfContributers",
						"offset": 0,
						"slot": "5",
						"type": "t_uint256"
					},
					{
						"astId": 17,
						"contract": "crowd_funding.sol:CrowdFunding",
						"label": "minimumContribution",
						"offset": 0,
						"slot": "6",
						"type": "t_uint256"
					}
				],
				"types": {
					"t_address": {
						"encoding": "inplace",
						"label": "address",
						"numberOfBytes": "20"
					},
					"t_mapping(t_address,t_uint256)": {
						"encoding": "mapping",
						"key": "t_address",
						"label": "mapping(address => uint256)",
						"numberOfBytes": "32",
						"value": "t_uint256"
					},
					"t_uint256": {
						"encoding": "inplace",
						"label": "uint256",
						"numberOfBytes": "32"
					}
				}
			},
			"userdoc": {
				"kind": "user",
				"methods": {},
				"version": 1
			}
		}
	}
}