{
	"crowd_funding.sol": {
		"CrowdFunding": {
			"abi": [
				{
					"inputs": [
						{
							"internalType": "uint256",
							"name": "_target",
							"type": "uint256"
						},
						{
							"internalType": "uint256",
							"name": "_deadline",
							"type": "uint256"
						}
					],
					"stateMutability": "nonpayable",
					"type": "constructor"
				},
				{
					"inputs": [
						{
							"internalType": "address",
							"name": "",
							"type": "address"
						}
					],
					"name": "contributers",
					"outputs": [
						{
							"internalType": "uint256",
							"name": "",
							"type": "uint256"
						}
					],
					"stateMutability": "view",
					"type": "function"
				},
				{
					"inputs": [
						{
							"internalType": "string",
							"name": "_description",
							"type": "string"
						},
						{
							"internalType": "address payable",
							"name": "_recipient",
							"type": "address"
						},
						{
							"internalType": "uint256",
							"name": "_value",
							"type": "uint256"
						}
					],
					"name": "createRequests",
					"outputs": [],
					"stateMutability": "nonpayable",
					"type": "function"
				},
				{
					"inputs": [],
					"name": "deadline",
					"outputs": [
						{
							"internalType": "uint256",
							"name": "",
							"type": "uint256"
						}
					],
					"stateMutability": "view",
					"type": "function"
				},
				{
					"inputs": [],
					"name": "getContractBalance",
					"outputs": [
						{
							"internalType": "uint256",
							"name": "",
							"type": "uint256"
						}
					],
					"stateMutability": "view",
					"type": "function"
				},
				{
					"inputs": [],
					"name": "manager",
					"outputs": [
						{
							"internalType": "address",
							"name": "",
							"type": "address"
						}
					],
					"stateMutability": "view",
					"type": "function"
				},
				{
					"inputs": [],
					"name": "minimumContribution",
					"outputs": [
						{
							"internalType": "uint256",
							"name": "",
							"type": "uint256"
						}
					],
					"stateMutability": "view",
					"type": "function"
				},
				{
					"inputs": [],
					"name": "noOfContributers",
					"outputs": [
						{
							"internalType": "uint256",
							"name": "",
							"type": "uint256"
						}
					],
					"stateMutability": "view",
					"type": "function"
				},
				{
					"inputs": [],
					"name": "numRequests",
					"outputs": [
						{
							"internalType": "uint256",
							"name": "",
							"type": "uint256"
						}
					],
					"stateMutability": "view",
					"type": "function"
				},
				{
					"inputs": [],
					"name": "raisedAmount",
					"outputs": [
						{
							"internalType": "uint256",
							"name": "",
							"type": "uint256"
						}
					],
					"stateMutability": "view",
					"type": "function"
				},
				{
					"inputs": [],
					"name": "refund",
					"outputs": [],
					"stateMutability": "nonpayable",
					"type": "function"
				},
				{
					"inputs": [
						{
							"internalType": "uint256",
							"name": "",
							"type": "uint256"
						}
					],
					"name": "requests",
					"outputs": [
						{
							"internalType": "string",
							"name": "description",
							"type": "string"
						},
						{
							"internalType": "address payable",
							"name": "recipient",
							"type": "address"
						},
						{
							"internalType": "uint256",
							"name": "value",
							"type": "uint256"
						},
						{
							"internalType": "bool",
							"name": "completed",
							"type": "bool"
						},
						{
							"internalType": "uint256",
							"name": "noofvoters",
							"type": "uint256"
						}
					],
					"stateMutability": "view",
					"type": "function"
				},
				{
					"inputs": [],
					"name": "sedEth",
					"outputs": [],
					"stateMutability": "payable",
					"type": "function"
				},
				{
					"inputs": [],
					"name": "target",
					"outputs": [
						{
							"internalType": "uint256",
							"name": "",
							"type": "uint256"
						}
					],
					"stateMutability": "view",
					"type": "function"
				},
				{
					"inputs": [
						{
							"internalType": "uint256",
							"name": "_requestNo",
							"type": "uint256"
						}
					],
					"name": "voteRequest",
					"outputs": [],
					"stateMutability": "nonpayable",
					"type": "function"
				}
			],
			"devdoc": {
				"kind": "dev",
				"methods": {},
				"version": 1
			},
			"evm": {
				"assembly": "    /* \"crowd_funding.sol\":76:3054  contract CrowdFunding{\r... */\n  mstore(0x40, 0x80)\n    /* \"crowd_funding.sol\":700:993  constructor(uint _target,uint _deadline){\r... */\n  callvalue\n  dup1\n  iszero\n  tag_1\n  jumpi\n  0x00\n  dup1\n  revert\ntag_1:\n  pop\n  mload(0x40)\n  sub(codesize, bytecodeSize)\n  dup1\n  bytecodeSize\n  dup4\n  codecopy\n  dup2\n  dup2\n  add\n  0x40\n  mstore\n  dup2\n  add\n  swap1\n  tag_2\n  swap2\n  swap1\n  tag_3\n  jump\t// in\ntag_2:\n    /* \"crowd_funding.sol\":758:765  _target */\n  dup2\n    /* \"crowd_funding.sol\":751:757  target */\n  0x03\n    /* \"crowd_funding.sol\":751:765  target=_target */\n  dup2\n  swap1\n  sstore\n  pop\n    /* \"crowd_funding.sol\":801:810  _deadline */\n  dup1\n    /* \"crowd_funding.sol\":785:800  block.timestamp */\n  timestamp\n    /* \"crowd_funding.sol\":785:810  block.timestamp+_deadline */\n  tag_6\n  swap2\n  swap1\n  tag_7\n  jump\t// in\ntag_6:\n    /* \"crowd_funding.sol\":776:784  deadline */\n  0x02\n    /* \"crowd_funding.sol\":776:810  deadline=block.timestamp+_deadline */\n  dup2\n  swap1\n  sstore\n  pop\n    /* \"crowd_funding.sol\":858:865  100 wei */\n  0x64\n    /* \"crowd_funding.sol\":838:857  minimumContribution */\n  0x06\n    /* \"crowd_funding.sol\":838:865  minimumContribution=100 wei */\n  dup2\n  swap1\n  sstore\n  pop\n    /* \"crowd_funding.sol\":884:894  msg.sender */\n  caller\n    /* \"crowd_funding.sol\":876:883  manager */\n  0x01\n  0x00\n    /* \"crowd_funding.sol\":876:894  manager=msg.sender */\n  0x0100\n  exp\n  dup2\n  sload\n  dup2\n  0xffffffffffffffffffffffffffffffffffffffff\n  mul\n  not\n  and\n  swap1\n  dup4\n  0xffffffffffffffffffffffffffffffffffffffff\n  and\n  mul\n  or\n  swap1\n  sstore\n  pop\n    /* \"crowd_funding.sol\":700:993  constructor(uint _target,uint _deadline){\r... */\n  pop\n  pop\n    /* \"crowd_funding.sol\":76:3054  contract CrowdFunding{\r... */\n  jump(tag_8)\n    /* \"#utility.yul\":7:150   */\ntag_10:\n    /* \"#utility.yul\":64:69   */\n  0x00\n    /* \"#utility.yul\":95:101   */\n  dup2\n    /* \"#utility.yul\":89:102   */\n  mload\n    /* \"#utility.yul\":80:102   */\n  swap1\n  pop\n    /* \"#utility.yul\":111:144   */\n  tag_12\n    /* \"#utility.yul\":138:143   */\n  dup2\n    /* \"#utility.yul\":111:144   */\n  tag_13\n  jump\t// in\ntag_12:\n    /* \"#utility.yul\":7:150   */\n  swap3\n  swap2\n  pop\n  pop\n  jump\t// out\n    /* \"#utility.yul\":156:663   */\ntag_3:\n    /* \"#utility.yul\":235:241   */\n  0x00\n    /* \"#utility.yul\":243:249   */\n  dup1\n    /* \"#utility.yul\":292:294   */\n  0x40\n    /* \"#utility.yul\":280:289   */\n  dup4\n    /* \"#utility.yul\":271:278   */\n  dup6\n    /* \"#utility.yul\":267:290   */\n  sub\n    /* \"#utility.yul\":263:295   */\n  slt\n    /* \"#utility.yul\":260:379   */\n  iszero\n  tag_15\n  jumpi\n    /* \"#utility.yul\":298:377   */\n  tag_16\n  tag_17\n  jump\t// in\ntag_16:\n    /* \"#utility.yul\":260:379   */\ntag_15:\n    /* \"#utility.yul\":418:419   */\n  0x00\n    /* \"#utility.yul\":443:507   */\n  tag_18\n    /* \"#utility.yul\":499:506   */\n  dup6\n    /* \"#utility.yul\":490:496   */\n  dup3\n    /* \"#utility.yul\":479:488   */\n  dup7\n    /* \"#utility.yul\":475:497   */\n  add\n    /* \"#utility.yul\":443:507   */\n  tag_10\n  jump\t// in\ntag_18:\n    /* \"#utility.yul\":433:507   */\n  swap3\n  pop\n    /* \"#utility.yul\":389:517   */\n  pop\n    /* \"#utility.yul\":556:558   */\n  0x20\n    /* \"#utility.yul\":582:646   */\n  tag_19\n    /* \"#utility.yul\":638:645   */\n  dup6\n    /* \"#utility.yul\":629:635   */\n  dup3\n    /* \"#utility.yul\":618:627   */\n  dup7\n    /* \"#utility.yul\":614:636   */\n  add\n    /* \"#utility.yul\":582:646   */\n  tag_10\n  jump\t// in\ntag_19:\n    /* \"#utility.yul\":572:646   */\n  swap2\n  pop\n    /* \"#utility.yul\":527:656   */\n  pop\n    /* \"#utility.yul\":156:663   */\n  swap3\n  pop\n  swap3\n  swap1\n  pop\n  jump\t// out\n    /* \"#utility.yul\":750:1055   */\ntag_7:\n    /* \"#utility.yul\":790:793   */\n  0x00\n    /* \"#utility.yul\":809:829   */\n  tag_23\n    /* \"#utility.yul\":827:828   */\n  dup3\n    /* \"#utility.yul\":809:829   */\n  tag_24\n  jump\t// in\ntag_23:\n    /* \"#utility.yul\":804:829   */\n  swap2\n  pop\n    /* \"#utility.yul\":843:863   */\n  tag_25\n    /* \"#utility.yul\":861:862   */\n  dup4\n    /* \"#utility.yul\":843:863   */\n  tag_24\n  jump\t// in\ntag_25:\n    /* \"#utility.yul\":838:863   */\n  swap3\n  pop\n    /* \"#utility.yul\":997:998   */\n  dup3\n    /* \"#utility.yul\":929:995   */\n  0xffffffffffffffffffffffffffffffffffffffffffffffffffffffffffffffff\n    /* \"#utility.yul\":925:999   */\n  sub\n    /* \"#utility.yul\":922:923   */\n  dup3\n    /* \"#utility.yul\":919:1000   */\n  gt\n    /* \"#utility.yul\":916:1023   */\n  iszero\n  tag_26\n  jumpi\n    /* \"#utility.yul\":1003:1021   */\n  tag_27\n  tag_28\n  jump\t// in\ntag_27:\n    /* \"#utility.yul\":916:1023   */\ntag_26:\n    /* \"#utility.yul\":1047:1048   */\n  dup3\n    /* \"#utility.yul\":1044:1045   */\n  dup3\n    /* \"#utility.yul\":1040:1049   */\n  add\n    /* \"#utility.yul\":1033:1049   */\n  swap1\n  pop\n    /* \"#utility.yul\":750:1055   */\n  swap3\n  swap2\n  pop\n  pop\n  jump\t// out\n    /* \"#utility.yul\":1061:1138   */\ntag_24:\n    /* \"#utility.yul\":1098:1105   */\n  0x00\n    /* \"#utility.yul\":1127:1132   */\n  dup2\n    /* \"#utility.yul\":1116:1132   */\n  swap1\n  pop\n    /* \"#utility.yul\":1061:1138   */\n  swap2\n  swap1\n  pop\n  jump\t// out\n    /* \"#utility.yul\":1144:1324   */\ntag_28:\n    /* \"#utility.yul\":1192:1269   */\n  0x4e487b7100000000000000000000000000000000000000000000000000000000\n    /* \"#utility.yul\":1189:1190   */\n  0x00\n    /* \"#utility.yul\":1182:1270   */\n  mstore\n    /* \"#utility.yul\":1289:1293   */\n  0x11\n    /* \"#utility.yul\":1286:1287   */\n  0x04\n    /* \"#utility.yul\":1279:1294   */\n  mstore\n    /* \"#utility.yul\":1313:1317   */\n  0x24\n    /* \"#utility.yul\":1310:1311   */\n  0x00\n    /* \"#utility.yul\":1303:1318   */\n  revert\n    /* \"#utility.yul\":1453:1570   */\ntag_17:\n    /* \"#utility.yul\":1562:1563   */\n  0x00\n    /* \"#utility.yul\":1559:1560   */\n  dup1\n    /* \"#utility.yul\":1552:1564   */\n  revert\n    /* \"#utility.yul\":1576:1698   */\ntag_13:\n    /* \"#utility.yul\":1649:1673   */\n  tag_35\n    /* \"#utility.yul\":1667:1672   */\n  dup2\n    /* \"#utility.yul\":1649:1673   */\n  tag_24\n  jump\t// in\ntag_35:\n    /* \"#utility.yul\":1642:1647   */\n  dup2\n    /* \"#utility.yul\":1639:1674   */\n  eq\n    /* \"#utility.yul\":1629:1692   */\n  tag_36\n  jumpi\n    /* \"#utility.yul\":1688:1689   */\n  0x00\n    /* \"#utility.yul\":1685:1686   */\n  dup1\n    /* \"#utility.yul\":1678:1690   */\n  revert\n    /* \"#utility.yul\":1629:1692   */\ntag_36:\n    /* \"#utility.yul\":1576:1698   */\n  pop\n  jump\t// out\n    /* \"crowd_funding.sol\":76:3054  contract CrowdFunding{\r... */\ntag_8:\n  dataSize(sub_0)\n  dup1\n  dataOffset(sub_0)\n  0x00\n  codecopy\n  0x00\n  return\nstop\n\nsub_0: assembly {\n        /* \"crowd_funding.sol\":76:3054  contract CrowdFunding{\r... */\n      mstore(0x40, 0x80)\n      jumpi(tag_1, lt(calldatasize, 0x04))\n      shr(0xe0, calldataload(0x00))\n      dup1\n      0x5edec2c4\n      gt\n      tag_16\n      jumpi\n      dup1\n      0x937e09b1\n      gt\n      tag_17\n      jumpi\n      dup1\n      0x937e09b1\n      eq\n      tag_12\n      jumpi\n      dup1\n      0x9fb42b1f\n      eq\n      tag_13\n      jumpi\n      dup1\n      0xc59ee1dc\n      eq\n      tag_14\n      jumpi\n      dup1\n      0xd4b83992\n      eq\n      tag_15\n      jumpi\n      jump(tag_1)\n    tag_17:\n      dup1\n      0x5edec2c4\n      eq\n      tag_9\n      jumpi\n      dup1\n      0x6f9fb98a\n      eq\n      tag_10\n      jumpi\n      dup1\n      0x81d12c58\n      eq\n      tag_11\n      jumpi\n      jump(tag_1)\n    tag_16:\n      dup1\n      0x3eb7647b\n      gt\n      tag_18\n      jumpi\n      dup1\n      0x3eb7647b\n      eq\n      tag_5\n      jumpi\n      dup1\n      0x481c6a75\n      eq\n      tag_6\n      jumpi\n      dup1\n      0x4cb6f4a5\n      eq\n      tag_7\n      jumpi\n      dup1\n      0x590e1ae3\n      eq\n      tag_8\n      jumpi\n      jump(tag_1)\n    tag_18:\n      dup1\n      0x24274ee9\n      eq\n      tag_2\n      jumpi\n      dup1\n      0x29dcb0cf\n      eq\n      tag_3\n      jumpi\n      dup1\n      0x34b66460\n      eq\n      tag_4\n      jumpi\n    tag_1:\n      0x00\n      dup1\n      revert\n        /* \"crowd_funding.sol\":266:294  uint public noOfContributers */\n    tag_2:\n      callvalue\n      dup1\n      iszero\n      tag_19\n      jumpi\n      0x00\n      dup1\n      revert\n    tag_19:\n      pop\n      tag_20\n      tag_21\n      jump\t// in\n    tag_20:\n      mload(0x40)\n      tag_22\n      swap2\n      swap1\n      tag_23\n      jump\t// in\n    tag_22:\n      mload(0x40)\n      dup1\n      swap2\n      sub\n      swap1\n      return\n        /* \"crowd_funding.sol\":183:203  uint public deadline */\n    tag_3:\n      callvalue\n      dup1\n      iszero\n      tag_24\n      jumpi\n      0x00\n      dup1\n      revert\n    tag_24:\n      pop\n      tag_25\n      tag_26\n      jump\t// in\n    tag_25:\n      mload(0x40)\n      tag_27\n      swap2\n      swap1\n      tag_23\n      jump\t// in\n    tag_27:\n      mload(0x40)\n      dup1\n      swap2\n      sub\n      swap1\n      return\n        /* \"crowd_funding.sol\":104:146  mapping(address=>uint) public contributers */\n    tag_4:\n      callvalue\n      dup1\n      iszero\n      tag_28\n      jumpi\n      0x00\n      dup1\n      revert\n    tag_28:\n      pop\n      tag_29\n      0x04\n      dup1\n      calldatasize\n      sub\n      dup2\n      add\n      swap1\n      tag_30\n      swap2\n      swap1\n      tag_31\n      jump\t// in\n    tag_30:\n      tag_32\n      jump\t// in\n    tag_29:\n      mload(0x40)\n      tag_33\n      swap2\n      swap1\n      tag_23\n      jump\t// in\n    tag_33:\n      mload(0x40)\n      dup1\n      swap2\n      sub\n      swap1\n      return\n        /* \"crowd_funding.sol\":2149:2614  function createRequests(string memory _description,address payable _recipient,uint _value) public onlyManager{\r... */\n    tag_5:\n      callvalue\n      dup1\n      iszero\n      tag_34\n      jumpi\n      0x00\n      dup1\n      revert\n    tag_34:\n      pop\n      tag_35\n      0x04\n      dup1\n      calldatasize\n      sub\n      dup2\n      add\n      swap1\n      tag_36\n      swap2\n      swap1\n      tag_37\n      jump\t// in\n    tag_36:\n      tag_38\n      jump\t// in\n    tag_35:\n      stop\n        /* \"crowd_funding.sol\":154:176  address public manager */\n    tag_6:\n      callvalue\n      dup1\n      iszero\n      tag_39\n      jumpi\n      0x00\n      dup1\n      revert\n    tag_39:\n      pop\n      tag_40\n      tag_41\n      jump\t// in\n    tag_40:\n      mload(0x40)\n      tag_42\n      swap2\n      swap1\n      tag_43\n      jump\t// in\n    tag_42:\n      mload(0x40)\n      dup1\n      swap2\n      sub\n      swap1\n      return\n        /* \"crowd_funding.sol\":2620:3051  function voteRequest(uint _requestNo) public{\r... */\n    tag_7:\n      callvalue\n      dup1\n      iszero\n      tag_44\n      jumpi\n      0x00\n      dup1\n      revert\n    tag_44:\n      pop\n      tag_45\n      0x04\n      dup1\n      calldatasize\n      sub\n      dup2\n      add\n      swap1\n      tag_46\n      swap2\n      swap1\n      tag_47\n      jump\t// in\n    tag_46:\n      tag_48\n      jump\t// in\n    tag_45:\n      stop\n        /* \"crowd_funding.sol\":1625:2016  function refund() public{\r... */\n    tag_8:\n      callvalue\n      dup1\n      iszero\n      tag_49\n      jumpi\n      0x00\n      dup1\n      revert\n    tag_49:\n      pop\n      tag_50\n      tag_51\n      jump\t// in\n    tag_50:\n      stop\n        /* \"crowd_funding.sol\":1001:1507  function sedEth() public payable{\r... */\n    tag_9:\n      tag_52\n      tag_53\n      jump\t// in\n    tag_52:\n      stop\n        /* \"crowd_funding.sol\":1515:1617  function getContractBalance() public view returns(uint){\r... */\n    tag_10:\n      callvalue\n      dup1\n      iszero\n      tag_54\n      jumpi\n      0x00\n      dup1\n      revert\n    tag_54:\n      pop\n      tag_55\n      tag_56\n      jump\t// in\n    tag_55:\n      mload(0x40)\n      tag_57\n      swap2\n      swap1\n      tag_23\n      jump\t// in\n    tag_57:\n      mload(0x40)\n      dup1\n      swap2\n      sub\n      swap1\n      return\n        /* \"crowd_funding.sol\":546:584  mapping(uint=>Request) public requests */\n    tag_11:\n      callvalue\n      dup1\n      iszero\n      tag_58\n      jumpi\n      0x00\n      dup1\n      revert\n    tag_58:\n      pop\n      tag_59\n      0x04\n      dup1\n      calldatasize\n      sub\n      dup2\n      add\n      swap1\n      tag_60\n      swap2\n      swap1\n      tag_47\n      jump\t// in\n    tag_60:\n      tag_61\n      jump\t// in\n    tag_59:\n      mload(0x40)\n      tag_62\n      swap6\n      swap5\n      swap4\n      swap3\n      swap2\n      swap1\n      tag_63\n      jump\t// in\n    tag_62:\n      mload(0x40)\n      dup1\n      swap2\n      sub\n      swap1\n      return\n        /* \"crowd_funding.sol\":301:332  uint public minimumContribution */\n    tag_12:\n      callvalue\n      dup1\n      iszero\n      tag_64\n      jumpi\n      0x00\n      dup1\n      revert\n    tag_64:\n      pop\n      tag_65\n      tag_66\n      jump\t// in\n    tag_65:\n      mload(0x40)\n      tag_67\n      swap2\n      swap1\n      tag_23\n      jump\t// in\n    tag_67:\n      mload(0x40)\n      dup1\n      swap2\n      sub\n      swap1\n      return\n        /* \"crowd_funding.sol\":664:687  uint public numRequests */\n    tag_13:\n      callvalue\n      dup1\n      iszero\n      tag_68\n      jumpi\n      0x00\n      dup1\n      revert\n    tag_68:\n      pop\n      tag_69\n      tag_70\n      jump\t// in\n    tag_69:\n      mload(0x40)\n      tag_71\n      swap2\n      swap1\n      tag_23\n      jump\t// in\n    tag_71:\n      mload(0x40)\n      dup1\n      swap2\n      sub\n      swap1\n      return\n        /* \"crowd_funding.sol\":235:259  uint public raisedAmount */\n    tag_14:\n      callvalue\n      dup1\n      iszero\n      tag_72\n      jumpi\n      0x00\n      dup1\n      revert\n    tag_72:\n      pop\n      tag_73\n      tag_74\n      jump\t// in\n    tag_73:\n      mload(0x40)\n      tag_75\n      swap2\n      swap1\n      tag_23\n      jump\t// in\n    tag_75:\n      mload(0x40)\n      dup1\n      swap2\n      sub\n      swap1\n      return\n        /* \"crowd_funding.sol\":210:228  uint public target */\n    tag_15:\n      callvalue\n      dup1\n      iszero\n      tag_76\n      jumpi\n      0x00\n      dup1\n      revert\n    tag_76:\n      pop\n      tag_77\n      tag_78\n      jump\t// in\n    tag_77:\n      mload(0x40)\n      tag_79\n      swap2\n      swap1\n      tag_23\n      jump\t// in\n    tag_79:\n      mload(0x40)\n      dup1\n      swap2\n      sub\n      swap1\n      return\n        /* \"crowd_funding.sol\":266:294  uint public noOfContributers */\n    tag_21:\n      sload(0x05)\n      dup2\n      jump\t// out\n        /* \"crowd_funding.sol\":183:203  uint public deadline */\n    tag_26:\n      sload(0x02)\n      dup2\n      jump\t// out\n        /* \"crowd_funding.sol\":104:146  mapping(address=>uint) public contributers */\n    tag_32:\n      mstore(0x20, 0x00)\n      dup1\n      0x00\n      mstore\n      keccak256(0x00, 0x40)\n      0x00\n      swap2\n      pop\n      swap1\n      pop\n      sload\n      dup2\n      jump\t// out\n        /* \"crowd_funding.sol\":2149:2614  function createRequests(string memory _description,address payable _recipient,uint _value) public onlyManager{\r... */\n    tag_38:\n        /* \"crowd_funding.sol\":2077:2084  manager */\n      0x01\n      0x00\n      swap1\n      sload\n      swap1\n      0x0100\n      exp\n      swap1\n      div\n      0xffffffffffffffffffffffffffffffffffffffff\n      and\n        /* \"crowd_funding.sol\":2065:2084  msg.sender==manager */\n      0xffffffffffffffffffffffffffffffffffffffff\n      and\n        /* \"crowd_funding.sol\":2065:2075  msg.sender */\n      caller\n        /* \"crowd_funding.sol\":2065:2084  msg.sender==manager */\n      0xffffffffffffffffffffffffffffffffffffffff\n      and\n      eq\n        /* \"crowd_funding.sol\":2057:2123  require(msg.sender==manager,\"only manager can call this function\") */\n      tag_81\n      jumpi\n      mload(0x40)\n      0x08c379a000000000000000000000000000000000000000000000000000000000\n      dup2\n      mstore\n      0x04\n      add\n      tag_82\n      swap1\n      tag_83\n      jump\t// in\n    tag_82:\n      mload(0x40)\n      dup1\n      swap2\n      sub\n      swap1\n      revert\n    tag_81:\n        /* \"crowd_funding.sol\":2269:2295  Request storage newRequest */\n      0x00\n        /* \"crowd_funding.sol\":2298:2306  requests */\n      0x07\n        /* \"crowd_funding.sol\":2298:2319  requests[numRequests] */\n      0x00\n        /* \"crowd_funding.sol\":2307:2318  numRequests */\n      sload(0x08)\n        /* \"crowd_funding.sol\":2298:2319  requests[numRequests] */\n      dup2\n      mstore\n      0x20\n      add\n      swap1\n      dup2\n      mstore\n      0x20\n      add\n      0x00\n      keccak256\n        /* \"crowd_funding.sol\":2269:2319  Request storage newRequest = requests[numRequests] */\n      swap1\n      pop\n        /* \"crowd_funding.sol\":2400:2411  numRequests */\n      0x08\n      0x00\n        /* \"crowd_funding.sol\":2400:2413  numRequests++ */\n      dup2\n      sload\n      dup1\n      swap3\n      swap2\n      swap1\n      tag_85\n      swap1\n      tag_86\n      jump\t// in\n    tag_85:\n      swap2\n      swap1\n      pop\n      sstore\n      pop\n        /* \"crowd_funding.sol\":2447:2459  _description */\n      dup4\n        /* \"crowd_funding.sol\":2424:2434  newRequest */\n      dup2\n        /* \"crowd_funding.sol\":2424:2446  newRequest.description */\n      0x00\n      add\n        /* \"crowd_funding.sol\":2424:2459  newRequest.description=_description */\n      swap1\n      dup1\n      mload\n      swap1\n      0x20\n      add\n      swap1\n      tag_87\n      swap3\n      swap2\n      swap1\n      tag_88\n      jump\t// in\n    tag_87:\n      pop\n        /* \"crowd_funding.sol\":2491:2501  _recipient */\n      dup3\n        /* \"crowd_funding.sol\":2470:2480  newRequest */\n      dup2\n        /* \"crowd_funding.sol\":2470:2490  newRequest.recipient */\n      0x01\n      add\n      0x00\n        /* \"crowd_funding.sol\":2470:2501  newRequest.recipient=_recipient */\n      0x0100\n      exp\n      dup2\n      sload\n      dup2\n      0xffffffffffffffffffffffffffffffffffffffff\n      mul\n      not\n      and\n      swap1\n      dup4\n      0xffffffffffffffffffffffffffffffffffffffff\n      and\n      mul\n      or\n      swap1\n      sstore\n      pop\n        /* \"crowd_funding.sol\":2529:2535  _value */\n      dup2\n        /* \"crowd_funding.sol\":2512:2522  newRequest */\n      dup2\n        /* \"crowd_funding.sol\":2512:2528  newRequest.value */\n      0x02\n      add\n        /* \"crowd_funding.sol\":2512:2535  newRequest.value=_value */\n      dup2\n      swap1\n      sstore\n      pop\n        /* \"crowd_funding.sol\":2567:2572  false */\n      0x00\n        /* \"crowd_funding.sol\":2546:2556  newRequest */\n      dup2\n        /* \"crowd_funding.sol\":2546:2566  newRequest.completed */\n      0x03\n      add\n      0x00\n        /* \"crowd_funding.sol\":2546:2572  newRequest.completed=false */\n      0x0100\n      exp\n      dup2\n      sload\n      dup2\n      0xff\n      mul\n      not\n      and\n      swap1\n      dup4\n      iszero\n      iszero\n      mul\n      or\n      swap1\n      sstore\n      pop\n        /* \"crowd_funding.sol\":2605:2606  0 */\n      0x00\n        /* \"crowd_funding.sol\":2583:2593  newRequest */\n      dup2\n        /* \"crowd_funding.sol\":2583:2604  newRequest.noofvoters */\n      0x04\n      add\n        /* \"crowd_funding.sol\":2583:2606  newRequest.noofvoters=0 */\n      dup2\n      swap1\n      sstore\n      pop\n        /* \"crowd_funding.sol\":2258:2614  {\r... */\n      pop\n        /* \"crowd_funding.sol\":2149:2614  function createRequests(string memory _description,address payable _recipient,uint _value) public onlyManager{\r... */\n      pop\n      pop\n      pop\n      jump\t// out\n        /* \"crowd_funding.sol\":154:176  address public manager */\n    tag_41:\n      0x01\n      0x00\n      swap1\n      sload\n      swap1\n      0x0100\n      exp\n      swap1\n      div\n      0xffffffffffffffffffffffffffffffffffffffff\n      and\n      dup2\n      jump\t// out\n        /* \"crowd_funding.sol\":2620:3051  function voteRequest(uint _requestNo) public{\r... */\n    tag_48:\n        /* \"crowd_funding.sol\":2708:2709  0 */\n      0x00\n        /* \"crowd_funding.sol\":2683:2695  contributers */\n      dup1\n        /* \"crowd_funding.sol\":2683:2707  contributers[msg.sender] */\n      0x00\n        /* \"crowd_funding.sol\":2696:2706  msg.sender */\n      caller\n        /* \"crowd_funding.sol\":2683:2707  contributers[msg.sender] */\n      0xffffffffffffffffffffffffffffffffffffffff\n      and\n      0xffffffffffffffffffffffffffffffffffffffff\n      and\n      dup2\n      mstore\n      0x20\n      add\n      swap1\n      dup2\n      mstore\n      0x20\n      add\n      0x00\n      keccak256\n      sload\n        /* \"crowd_funding.sol\":2683:2709  contributers[msg.sender]>0 */\n      gt\n        /* \"crowd_funding.sol\":2675:2736  require(contributers[msg.sender]>0,\"you must be contributer\") */\n      tag_90\n      jumpi\n      mload(0x40)\n      0x08c379a000000000000000000000000000000000000000000000000000000000\n      dup2\n      mstore\n      0x04\n      add\n      tag_91\n      swap1\n      tag_92\n      jump\t// in\n    tag_91:\n      mload(0x40)\n      dup1\n      swap2\n      sub\n      swap1\n      revert\n    tag_90:\n        /* \"crowd_funding.sol\":2747:2774  Request storage thisRequest */\n      0x00\n        /* \"crowd_funding.sol\":2775:2783  requests */\n      0x07\n        /* \"crowd_funding.sol\":2775:2795  requests[_requestNo] */\n      0x00\n        /* \"crowd_funding.sol\":2784:2794  _requestNo */\n      dup4\n        /* \"crowd_funding.sol\":2775:2795  requests[_requestNo] */\n      dup2\n      mstore\n      0x20\n      add\n      swap1\n      dup2\n      mstore\n      0x20\n      add\n      0x00\n      keccak256\n        /* \"crowd_funding.sol\":2747:2795  Request storage thisRequest=requests[_requestNo] */\n      swap1\n      pop\n        /* \"crowd_funding.sol\":2846:2851  false */\n      0x00\n        /* \"crowd_funding.sol\":2814:2851  thisRequest.voters[msg.sender]==false */\n      iszero\n      iszero\n        /* \"crowd_funding.sol\":2814:2825  thisRequest */\n      dup2\n        /* \"crowd_funding.sol\":2814:2832  thisRequest.voters */\n      0x05\n      add\n        /* \"crowd_funding.sol\":2814:2844  thisRequest.voters[msg.sender] */\n      0x00\n        /* \"crowd_funding.sol\":2833:2843  msg.sender */\n      caller\n        /* \"crowd_funding.sol\":2814:2844  thisRequest.voters[msg.sender] */\n      0xffffffffffffffffffffffffffffffffffffffff\n      and\n      0xffffffffffffffffffffffffffffffffffffffff\n      and\n      dup2\n      mstore\n      0x20\n      add\n      swap1\n      dup2\n      mstore\n      0x20\n      add\n      0x00\n      keccak256\n      0x00\n      swap1\n      sload\n      swap1\n      0x0100\n      exp\n      swap1\n      div\n      0xff\n      and\n        /* \"crowd_funding.sol\":2814:2851  thisRequest.voters[msg.sender]==false */\n      iszero\n      iszero\n      eq\n        /* \"crowd_funding.sol\":2806:2877  require(thisRequest.voters[msg.sender]==false,\"you have already voted\") */\n      tag_93\n      jumpi\n      mload(0x40)\n      0x08c379a000000000000000000000000000000000000000000000000000000000\n      dup2\n      mstore\n      0x04\n      add\n      tag_94\n      swap1\n      tag_95\n      jump\t// in\n    tag_94:\n      mload(0x40)\n      dup1\n      swap2\n      sub\n      swap1\n      revert\n    tag_93:\n        /* \"crowd_funding.sol\":2976:2980  true */\n      0x01\n        /* \"crowd_funding.sol\":2945:2956  thisRequest */\n      dup2\n        /* \"crowd_funding.sol\":2945:2963  thisRequest.voters */\n      0x05\n      add\n        /* \"crowd_funding.sol\":2945:2975  thisRequest.voters[msg.sender] */\n      0x00\n        /* \"crowd_funding.sol\":2964:2974  msg.sender */\n      caller\n        /* \"crowd_funding.sol\":2945:2975  thisRequest.voters[msg.sender] */\n      0xffffffffffffffffffffffffffffffffffffffff\n      and\n      0xffffffffffffffffffffffffffffffffffffffff\n      and\n      dup2\n      mstore\n      0x20\n      add\n      swap1\n      dup2\n      mstore\n      0x20\n      add\n      0x00\n      keccak256\n      0x00\n        /* \"crowd_funding.sol\":2945:2980  thisRequest.voters[msg.sender]=true */\n      0x0100\n      exp\n      dup2\n      sload\n      dup2\n      0xff\n      mul\n      not\n      and\n      swap1\n      dup4\n      iszero\n      iszero\n      mul\n      or\n      swap1\n      sstore\n      pop\n        /* \"crowd_funding.sol\":3019:3030  thisRequest */\n      dup1\n        /* \"crowd_funding.sol\":3019:3041  thisRequest.noofvoters */\n      0x04\n      add\n      0x00\n        /* \"crowd_funding.sol\":3019:3043  thisRequest.noofvoters++ */\n      dup2\n      sload\n      dup1\n      swap3\n      swap2\n      swap1\n      tag_96\n      swap1\n      tag_86\n      jump\t// in\n    tag_96:\n      swap2\n      swap1\n      pop\n      sstore\n      pop\n        /* \"crowd_funding.sol\":2664:3051  {\r... */\n      pop\n        /* \"crowd_funding.sol\":2620:3051  function voteRequest(uint _requestNo) public{\r... */\n      pop\n      jump\t// out\n        /* \"crowd_funding.sol\":1625:2016  function refund() public{\r... */\n    tag_51:\n        /* \"crowd_funding.sol\":1684:1692  deadline */\n      sload(0x02)\n        /* \"crowd_funding.sol\":1668:1683  block.timestamp */\n      timestamp\n        /* \"crowd_funding.sol\":1668:1692  block.timestamp>deadline */\n      gt\n        /* \"crowd_funding.sol\":1668:1715  block.timestamp>deadline && raisedAmount<target */\n      dup1\n      iszero\n      tag_98\n      jumpi\n      pop\n        /* \"crowd_funding.sol\":1709:1715  target */\n      sload(0x03)\n        /* \"crowd_funding.sol\":1696:1708  raisedAmount */\n      sload(0x04)\n        /* \"crowd_funding.sol\":1696:1715  raisedAmount<target */\n      lt\n        /* \"crowd_funding.sol\":1668:1715  block.timestamp>deadline && raisedAmount<target */\n    tag_98:\n        /* \"crowd_funding.sol\":1660:1750  require(block.timestamp>deadline && raisedAmount<target,\"you are not eligible for refund\") */\n      tag_99\n      jumpi\n      mload(0x40)\n      0x08c379a000000000000000000000000000000000000000000000000000000000\n      dup2\n      mstore\n      0x04\n      add\n      tag_100\n      swap1\n      tag_101\n      jump\t// in\n    tag_100:\n      mload(0x40)\n      dup1\n      swap2\n      sub\n      swap1\n      revert\n    tag_99:\n        /* \"crowd_funding.sol\":1794:1795  0 */\n      0x00\n        /* \"crowd_funding.sol\":1769:1781  contributers */\n      dup1\n        /* \"crowd_funding.sol\":1769:1793  contributers[msg.sender] */\n      0x00\n        /* \"crowd_funding.sol\":1782:1792  msg.sender */\n      caller\n        /* \"crowd_funding.sol\":1769:1793  contributers[msg.sender] */\n      0xffffffffffffffffffffffffffffffffffffffff\n      and\n      0xffffffffffffffffffffffffffffffffffffffff\n      and\n      dup2\n      mstore\n      0x20\n      add\n      swap1\n      dup2\n      mstore\n      0x20\n      add\n      0x00\n      keccak256\n      sload\n        /* \"crowd_funding.sol\":1769:1795  contributers[msg.sender]>0 */\n      gt\n        /* \"crowd_funding.sol\":1761:1796  require(contributers[msg.sender]>0) */\n      tag_102\n      jumpi\n      0x00\n      dup1\n      revert\n    tag_102:\n        /* \"crowd_funding.sol\":1878:1898  address payable user */\n      0x00\n        /* \"crowd_funding.sol\":1909:1919  msg.sender */\n      caller\n        /* \"crowd_funding.sol\":1878:1920  address payable user = payable(msg.sender) */\n      swap1\n      pop\n        /* \"crowd_funding.sol\":1932:1936  user */\n      dup1\n        /* \"crowd_funding.sol\":1932:1945  user.transfer */\n      0xffffffffffffffffffffffffffffffffffffffff\n      and\n        /* \"crowd_funding.sol\":1932:1971  user.transfer(contributers[msg.sender]) */\n      0x08fc\n        /* \"crowd_funding.sol\":1946:1958  contributers */\n      0x00\n        /* \"crowd_funding.sol\":1946:1970  contributers[msg.sender] */\n      dup1\n        /* \"crowd_funding.sol\":1959:1969  msg.sender */\n      caller\n        /* \"crowd_funding.sol\":1946:1970  contributers[msg.sender] */\n      0xffffffffffffffffffffffffffffffffffffffff\n      and\n      0xffffffffffffffffffffffffffffffffffffffff\n      and\n      dup2\n      mstore\n      0x20\n      add\n      swap1\n      dup2\n      mstore\n      0x20\n      add\n      0x00\n      keccak256\n      sload\n        /* \"crowd_funding.sol\":1932:1971  user.transfer(contributers[msg.sender]) */\n      swap1\n      dup2\n      iszero\n      mul\n      swap1\n      mload(0x40)\n      0x00\n      mload(0x40)\n      dup1\n      dup4\n      sub\n      dup2\n      dup6\n      dup9\n      dup9\n      call\n      swap4\n      pop\n      pop\n      pop\n      pop\n      iszero\n      dup1\n      iszero\n      tag_104\n      jumpi\n      returndatasize\n      0x00\n      dup1\n      returndatacopy\n      revert(0x00, returndatasize)\n    tag_104:\n      pop\n        /* \"crowd_funding.sol\":2007:2008  0 */\n      0x00\n        /* \"crowd_funding.sol\":1982:1994  contributers */\n      dup1\n        /* \"crowd_funding.sol\":1982:2006  contributers[msg.sender] */\n      0x00\n        /* \"crowd_funding.sol\":1995:2005  msg.sender */\n      caller\n        /* \"crowd_funding.sol\":1982:2006  contributers[msg.sender] */\n      0xffffffffffffffffffffffffffffffffffffffff\n      and\n      0xffffffffffffffffffffffffffffffffffffffff\n      and\n      dup2\n      mstore\n      0x20\n      add\n      swap1\n      dup2\n      mstore\n      0x20\n      add\n      0x00\n      keccak256\n        /* \"crowd_funding.sol\":1982:2008  contributers[msg.sender]=0 */\n      dup2\n      swap1\n      sstore\n      pop\n        /* \"crowd_funding.sol\":1649:2016  {\r... */\n      pop\n        /* \"crowd_funding.sol\":1625:2016  function refund() public{\r... */\n      jump\t// out\n        /* \"crowd_funding.sol\":1001:1507  function sedEth() public payable{\r... */\n    tag_53:\n        /* \"crowd_funding.sol\":1068:1076  deadline */\n      sload(0x02)\n        /* \"crowd_funding.sol\":1052:1067  block.timestamp */\n      timestamp\n        /* \"crowd_funding.sol\":1052:1076  block.timestamp<deadline */\n      lt\n        /* \"crowd_funding.sol\":1044:1099  require(block.timestamp<deadline,\"deadline has passed\") */\n      tag_106\n      jumpi\n      mload(0x40)\n      0x08c379a000000000000000000000000000000000000000000000000000000000\n      dup2\n      mstore\n      0x04\n      add\n      tag_107\n      swap1\n      tag_108\n      jump\t// in\n    tag_107:\n      mload(0x40)\n      dup1\n      swap2\n      sub\n      swap1\n      revert\n    tag_106:\n        /* \"crowd_funding.sol\":1129:1148  minimumContribution */\n      sload(0x06)\n        /* \"crowd_funding.sol\":1118:1127  msg.value */\n      callvalue\n        /* \"crowd_funding.sol\":1118:1148  msg.value>=minimumContribution */\n      lt\n      iszero\n        /* \"crowd_funding.sol\":1110:1182  require(msg.value>=minimumContribution,\"minimun Contrbution is not met\") */\n      tag_109\n      jumpi\n      mload(0x40)\n      0x08c379a000000000000000000000000000000000000000000000000000000000\n      dup2\n      mstore\n      0x04\n      add\n      tag_110\n      swap1\n      tag_111\n      jump\t// in\n    tag_110:\n      mload(0x40)\n      dup1\n      swap2\n      sub\n      swap1\n      revert\n    tag_109:\n        /* \"crowd_funding.sol\":1224:1225  0 */\n      0x00\n        /* \"crowd_funding.sol\":1198:1210  contributers */\n      dup1\n        /* \"crowd_funding.sol\":1198:1222  contributers[msg.sender] */\n      0x00\n        /* \"crowd_funding.sol\":1211:1221  msg.sender */\n      caller\n        /* \"crowd_funding.sol\":1198:1222  contributers[msg.sender] */\n      0xffffffffffffffffffffffffffffffffffffffff\n      and\n      0xffffffffffffffffffffffffffffffffffffffff\n      and\n      dup2\n      mstore\n      0x20\n      add\n      swap1\n      dup2\n      mstore\n      0x20\n      add\n      0x00\n      keccak256\n      sload\n        /* \"crowd_funding.sol\":1198:1225  contributers[msg.sender]==0 */\n      eq\n        /* \"crowd_funding.sol\":1195:1420  if(contributers[msg.sender]==0){ \r... */\n      iszero\n      tag_112\n      jumpi\n        /* \"crowd_funding.sol\":1390:1406  noOfContributers */\n      0x05\n      0x00\n        /* \"crowd_funding.sol\":1390:1408  noOfContributers++ */\n      dup2\n      sload\n      dup1\n      swap3\n      swap2\n      swap1\n      tag_113\n      swap1\n      tag_86\n      jump\t// in\n    tag_113:\n      swap2\n      swap1\n      pop\n      sstore\n      pop\n        /* \"crowd_funding.sol\":1195:1420  if(contributers[msg.sender]==0){ \r... */\n    tag_112:\n        /* \"crowd_funding.sol\":1456:1465  msg.value */\n      callvalue\n        /* \"crowd_funding.sol\":1430:1442  contributers */\n      0x00\n        /* \"crowd_funding.sol\":1430:1454  contributers[msg.sender] */\n      dup1\n        /* \"crowd_funding.sol\":1443:1453  msg.sender */\n      caller\n        /* \"crowd_funding.sol\":1430:1454  contributers[msg.sender] */\n      0xffffffffffffffffffffffffffffffffffffffff\n      and\n      0xffffffffffffffffffffffffffffffffffffffff\n      and\n      dup2\n      mstore\n      0x20\n      add\n      swap1\n      dup2\n      mstore\n      0x20\n      add\n      0x00\n      keccak256\n      0x00\n        /* \"crowd_funding.sol\":1430:1465  contributers[msg.sender]+=msg.value */\n      dup3\n      dup3\n      sload\n      tag_114\n      swap2\n      swap1\n      tag_115\n      jump\t// in\n    tag_114:\n      swap3\n      pop\n      pop\n      dup2\n      swap1\n      sstore\n      pop\n        /* \"crowd_funding.sol\":1490:1499  msg.value */\n      callvalue\n        /* \"crowd_funding.sol\":1476:1488  raisedAmount */\n      0x04\n      0x00\n        /* \"crowd_funding.sol\":1476:1499  raisedAmount+=msg.value */\n      dup3\n      dup3\n      sload\n      tag_116\n      swap2\n      swap1\n      tag_115\n      jump\t// in\n    tag_116:\n      swap3\n      pop\n      pop\n      dup2\n      swap1\n      sstore\n      pop\n        /* \"crowd_funding.sol\":1001:1507  function sedEth() public payable{\r... */\n      jump\t// out\n        /* \"crowd_funding.sol\":1515:1617  function getContractBalance() public view returns(uint){\r... */\n    tag_56:\n        /* \"crowd_funding.sol\":1565:1569  uint */\n      0x00\n        /* \"crowd_funding.sol\":1588:1609  address(this).balance */\n      selfbalance\n        /* \"crowd_funding.sol\":1581:1609  return address(this).balance */\n      swap1\n      pop\n        /* \"crowd_funding.sol\":1515:1617  function getContractBalance() public view returns(uint){\r... */\n      swap1\n      jump\t// out\n        /* \"crowd_funding.sol\":546:584  mapping(uint=>Request) public requests */\n    tag_61:\n      mstore(0x20, 0x07)\n      dup1\n      0x00\n      mstore\n      keccak256(0x00, 0x40)\n      0x00\n      swap2\n      pop\n      swap1\n      pop\n      dup1\n      0x00\n      add\n      dup1\n      sload\n      tag_118\n      swap1\n      tag_119\n      jump\t// in\n    tag_118:\n      dup1\n      0x1f\n      add\n      0x20\n      dup1\n      swap2\n      div\n      mul\n      0x20\n      add\n      mload(0x40)\n      swap1\n      dup2\n      add\n      0x40\n      mstore\n      dup1\n      swap3\n      swap2\n      swap1\n      dup2\n      dup2\n      mstore\n      0x20\n      add\n      dup3\n      dup1\n      sload\n      tag_120\n      swap1\n      tag_119\n      jump\t// in\n    tag_120:\n      dup1\n      iszero\n      tag_121\n      jumpi\n      dup1\n      0x1f\n      lt\n      tag_122\n      jumpi\n      0x0100\n      dup1\n      dup4\n      sload\n      div\n      mul\n      dup4\n      mstore\n      swap2\n      0x20\n      add\n      swap2\n      jump(tag_121)\n    tag_122:\n      dup3\n      add\n      swap2\n      swap1\n      0x00\n      mstore\n      keccak256(0x00, 0x20)\n      swap1\n    tag_123:\n      dup2\n      sload\n      dup2\n      mstore\n      swap1\n      0x01\n      add\n      swap1\n      0x20\n      add\n      dup1\n      dup4\n      gt\n      tag_123\n      jumpi\n      dup3\n      swap1\n      sub\n      0x1f\n      and\n      dup3\n      add\n      swap2\n    tag_121:\n      pop\n      pop\n      pop\n      pop\n      pop\n      swap1\n      dup1\n      0x01\n      add\n      0x00\n      swap1\n      sload\n      swap1\n      0x0100\n      exp\n      swap1\n      div\n      0xffffffffffffffffffffffffffffffffffffffff\n      and\n      swap1\n      dup1\n      0x02\n      add\n      sload\n      swap1\n      dup1\n      0x03\n      add\n      0x00\n      swap1\n      sload\n      swap1\n      0x0100\n      exp\n      swap1\n      div\n      0xff\n      and\n      swap1\n      dup1\n      0x04\n      add\n      sload\n      swap1\n      pop\n      dup6\n      jump\t// out\n        /* \"crowd_funding.sol\":301:332  uint public minimumContribution */\n    tag_66:\n      sload(0x06)\n      dup2\n      jump\t// out\n        /* \"crowd_funding.sol\":664:687  uint public numRequests */\n    tag_70:\n      sload(0x08)\n      dup2\n      jump\t// out\n        /* \"crowd_funding.sol\":235:259  uint public raisedAmount */\n    tag_74:\n      sload(0x04)\n      dup2\n      jump\t// out\n        /* \"crowd_funding.sol\":210:228  uint public target */\n    tag_78:\n      sload(0x03)\n      dup2\n      jump\t// out\n    tag_88:\n      dup3\n      dup1\n      sload\n      tag_124\n      swap1\n      tag_119\n      jump\t// in\n    tag_124:\n      swap1\n      0x00\n      mstore\n      keccak256(0x00, 0x20)\n      swap1\n      0x1f\n      add\n      0x20\n      swap1\n      div\n      dup2\n      add\n      swap3\n      dup3\n      tag_126\n      jumpi\n      0x00\n      dup6\n      sstore\n      jump(tag_125)\n    tag_126:\n      dup3\n      0x1f\n      lt\n      tag_127\n      jumpi\n      dup1\n      mload\n      not(0xff)\n      and\n      dup4\n      dup1\n      add\n      or\n      dup6\n      sstore\n      jump(tag_125)\n    tag_127:\n      dup3\n      dup1\n      add\n      0x01\n      add\n      dup6\n      sstore\n      dup3\n      iszero\n      tag_125\n      jumpi\n      swap2\n      dup3\n      add\n    tag_128:\n      dup3\n      dup2\n      gt\n      iszero\n      tag_129\n      jumpi\n      dup3\n      mload\n      dup3\n      sstore\n      swap2\n      0x20\n      add\n      swap2\n      swap1\n      0x01\n      add\n      swap1\n      jump(tag_128)\n    tag_129:\n    tag_125:\n      pop\n      swap1\n      pop\n      tag_130\n      swap2\n      swap1\n      tag_131\n      jump\t// in\n    tag_130:\n      pop\n      swap1\n      jump\t// out\n    tag_131:\n    tag_132:\n      dup1\n      dup3\n      gt\n      iszero\n      tag_133\n      jumpi\n      0x00\n      dup2\n      0x00\n      swap1\n      sstore\n      pop\n      0x01\n      add\n      jump(tag_132)\n    tag_133:\n      pop\n      swap1\n      jump\t// out\n        /* \"#utility.yul\":7:419   */\n    tag_135:\n        /* \"#utility.yul\":85:90   */\n      0x00\n        /* \"#utility.yul\":110:176   */\n      tag_137\n        /* \"#utility.yul\":126:175   */\n      tag_138\n        /* \"#utility.yul\":168:174   */\n      dup5\n        /* \"#utility.yul\":126:175   */\n      tag_139\n      jump\t// in\n    tag_138:\n        /* \"#utility.yul\":110:176   */\n      tag_140\n      jump\t// in\n    tag_137:\n        /* \"#utility.yul\":101:176   */\n      swap1\n      pop\n        /* \"#utility.yul\":199:205   */\n      dup3\n        /* \"#utility.yul\":192:197   */\n      dup2\n        /* \"#utility.yul\":185:206   */\n      mstore\n        /* \"#utility.yul\":237:241   */\n      0x20\n        /* \"#utility.yul\":230:235   */\n      dup2\n        /* \"#utility.yul\":226:242   */\n      add\n        /* \"#utility.yul\":275:278   */\n      dup5\n        /* \"#utility.yul\":266:272   */\n      dup5\n        /* \"#utility.yul\":261:264   */\n      dup5\n        /* \"#utility.yul\":257:273   */\n      add\n        /* \"#utility.yul\":254:279   */\n      gt\n        /* \"#utility.yul\":251:363   */\n      iszero\n      tag_141\n      jumpi\n        /* \"#utility.yul\":282:361   */\n      tag_142\n      tag_143\n      jump\t// in\n    tag_142:\n        /* \"#utility.yul\":251:363   */\n    tag_141:\n        /* \"#utility.yul\":372:413   */\n      tag_144\n        /* \"#utility.yul\":406:412   */\n      dup5\n        /* \"#utility.yul\":401:404   */\n      dup3\n        /* \"#utility.yul\":396:399   */\n      dup6\n        /* \"#utility.yul\":372:413   */\n      tag_145\n      jump\t// in\n    tag_144:\n        /* \"#utility.yul\":91:419   */\n      pop\n        /* \"#utility.yul\":7:419   */\n      swap4\n      swap3\n      pop\n      pop\n      pop\n      jump\t// out\n        /* \"#utility.yul\":425:564   */\n    tag_146:\n        /* \"#utility.yul\":471:476   */\n      0x00\n        /* \"#utility.yul\":509:515   */\n      dup2\n        /* \"#utility.yul\":496:516   */\n      calldataload\n        /* \"#utility.yul\":487:516   */\n      swap1\n      pop\n        /* \"#utility.yul\":525:558   */\n      tag_148\n        /* \"#utility.yul\":552:557   */\n      dup2\n        /* \"#utility.yul\":525:558   */\n      tag_149\n      jump\t// in\n    tag_148:\n        /* \"#utility.yul\":425:564   */\n      swap3\n      swap2\n      pop\n      pop\n      jump\t// out\n        /* \"#utility.yul\":570:725   */\n    tag_150:\n        /* \"#utility.yul\":624:629   */\n      0x00\n        /* \"#utility.yul\":662:668   */\n      dup2\n        /* \"#utility.yul\":649:669   */\n      calldataload\n        /* \"#utility.yul\":640:669   */\n      swap1\n      pop\n        /* \"#utility.yul\":678:719   */\n      tag_152\n        /* \"#utility.yul\":713:718   */\n      dup2\n        /* \"#utility.yul\":678:719   */\n      tag_153\n      jump\t// in\n    tag_152:\n        /* \"#utility.yul\":570:725   */\n      swap3\n      swap2\n      pop\n      pop\n      jump\t// out\n        /* \"#utility.yul\":745:1085   */\n    tag_154:\n        /* \"#utility.yul\":801:806   */\n      0x00\n        /* \"#utility.yul\":850:853   */\n      dup3\n        /* \"#utility.yul\":843:847   */\n      0x1f\n        /* \"#utility.yul\":835:841   */\n      dup4\n        /* \"#utility.yul\":831:848   */\n      add\n        /* \"#utility.yul\":827:854   */\n      slt\n        /* \"#utility.yul\":817:939   */\n      tag_156\n      jumpi\n        /* \"#utility.yul\":858:937   */\n      tag_157\n      tag_158\n      jump\t// in\n    tag_157:\n        /* \"#utility.yul\":817:939   */\n    tag_156:\n        /* \"#utility.yul\":975:981   */\n      dup2\n        /* \"#utility.yul\":962:982   */\n      calldataload\n        /* \"#utility.yul\":1000:1079   */\n      tag_159\n        /* \"#utility.yul\":1075:1078   */\n      dup5\n        /* \"#utility.yul\":1067:1073   */\n      dup3\n        /* \"#utility.yul\":1060:1064   */\n      0x20\n        /* \"#utility.yul\":1052:1058   */\n      dup7\n        /* \"#utility.yul\":1048:1065   */\n      add\n        /* \"#utility.yul\":1000:1079   */\n      tag_135\n      jump\t// in\n    tag_159:\n        /* \"#utility.yul\":991:1079   */\n      swap2\n      pop\n        /* \"#utility.yul\":807:1085   */\n      pop\n        /* \"#utility.yul\":745:1085   */\n      swap3\n      swap2\n      pop\n      pop\n      jump\t// out\n        /* \"#utility.yul\":1091:1230   */\n    tag_160:\n        /* \"#utility.yul\":1137:1142   */\n      0x00\n        /* \"#utility.yul\":1175:1181   */\n      dup2\n        /* \"#utility.yul\":1162:1182   */\n      calldataload\n        /* \"#utility.yul\":1153:1182   */\n      swap1\n      pop\n        /* \"#utility.yul\":1191:1224   */\n      tag_162\n        /* \"#utility.yul\":1218:1223   */\n      dup2\n        /* \"#utility.yul\":1191:1224   */\n      tag_163\n      jump\t// in\n    tag_162:\n        /* \"#utility.yul\":1091:1230   */\n      swap3\n      swap2\n      pop\n      pop\n      jump\t// out\n        /* \"#utility.yul\":1236:1565   */\n    tag_31:\n        /* \"#utility.yul\":1295:1301   */\n      0x00\n        /* \"#utility.yul\":1344:1346   */\n      0x20\n        /* \"#utility.yul\":1332:1341   */\n      dup3\n        /* \"#utility.yul\":1323:1330   */\n      dup5\n        /* \"#utility.yul\":1319:1342   */\n      sub\n        /* \"#utility.yul\":1315:1347   */\n      slt\n        /* \"#utility.yul\":1312:1431   */\n      iszero\n      tag_165\n      jumpi\n        /* \"#utility.yul\":1350:1429   */\n      tag_166\n      tag_167\n      jump\t// in\n    tag_166:\n        /* \"#utility.yul\":1312:1431   */\n    tag_165:\n        /* \"#utility.yul\":1470:1471   */\n      0x00\n        /* \"#utility.yul\":1495:1548   */\n      tag_168\n        /* \"#utility.yul\":1540:1547   */\n      dup5\n        /* \"#utility.yul\":1531:1537   */\n      dup3\n        /* \"#utility.yul\":1520:1529   */\n      dup6\n        /* \"#utility.yul\":1516:1538   */\n      add\n        /* \"#utility.yul\":1495:1548   */\n      tag_146\n      jump\t// in\n    tag_168:\n        /* \"#utility.yul\":1485:1548   */\n      swap2\n      pop\n        /* \"#utility.yul\":1441:1558   */\n      pop\n        /* \"#utility.yul\":1236:1565   */\n      swap3\n      swap2\n      pop\n      pop\n      jump\t// out\n        /* \"#utility.yul\":1571:2386   */\n    tag_37:\n        /* \"#utility.yul\":1666:1672   */\n      0x00\n        /* \"#utility.yul\":1674:1680   */\n      dup1\n        /* \"#utility.yul\":1682:1688   */\n      0x00\n        /* \"#utility.yul\":1731:1733   */\n      0x60\n        /* \"#utility.yul\":1719:1728   */\n      dup5\n        /* \"#utility.yul\":1710:1717   */\n      dup7\n        /* \"#utility.yul\":1706:1729   */\n      sub\n        /* \"#utility.yul\":1702:1734   */\n      slt\n        /* \"#utility.yul\":1699:1818   */\n      iszero\n      tag_170\n      jumpi\n        /* \"#utility.yul\":1737:1816   */\n      tag_171\n      tag_167\n      jump\t// in\n    tag_171:\n        /* \"#utility.yul\":1699:1818   */\n    tag_170:\n        /* \"#utility.yul\":1885:1886   */\n      0x00\n        /* \"#utility.yul\":1874:1883   */\n      dup5\n        /* \"#utility.yul\":1870:1887   */\n      add\n        /* \"#utility.yul\":1857:1888   */\n      calldataload\n        /* \"#utility.yul\":1915:1933   */\n      0xffffffffffffffff\n        /* \"#utility.yul\":1907:1913   */\n      dup2\n        /* \"#utility.yul\":1904:1934   */\n      gt\n        /* \"#utility.yul\":1901:2018   */\n      iszero\n      tag_172\n      jumpi\n        /* \"#utility.yul\":1937:2016   */\n      tag_173\n      tag_174\n      jump\t// in\n    tag_173:\n        /* \"#utility.yul\":1901:2018   */\n    tag_172:\n        /* \"#utility.yul\":2042:2105   */\n      tag_175\n        /* \"#utility.yul\":2097:2104   */\n      dup7\n        /* \"#utility.yul\":2088:2094   */\n      dup3\n        /* \"#utility.yul\":2077:2086   */\n      dup8\n        /* \"#utility.yul\":2073:2095   */\n      add\n        /* \"#utility.yul\":2042:2105   */\n      tag_154\n      jump\t// in\n    tag_175:\n        /* \"#utility.yul\":2032:2105   */\n      swap4\n      pop\n        /* \"#utility.yul\":1828:2115   */\n      pop\n        /* \"#utility.yul\":2154:2156   */\n      0x20\n        /* \"#utility.yul\":2180:2241   */\n      tag_176\n        /* \"#utility.yul\":2233:2240   */\n      dup7\n        /* \"#utility.yul\":2224:2230   */\n      dup3\n        /* \"#utility.yul\":2213:2222   */\n      dup8\n        /* \"#utility.yul\":2209:2231   */\n      add\n        /* \"#utility.yul\":2180:2241   */\n      tag_150\n      jump\t// in\n    tag_176:\n        /* \"#utility.yul\":2170:2241   */\n      swap3\n      pop\n        /* \"#utility.yul\":2125:2251   */\n      pop\n        /* \"#utility.yul\":2290:2292   */\n      0x40\n        /* \"#utility.yul\":2316:2369   */\n      tag_177\n        /* \"#utility.yul\":2361:2368   */\n      dup7\n        /* \"#utility.yul\":2352:2358   */\n      dup3\n        /* \"#utility.yul\":2341:2350   */\n      dup8\n        /* \"#utility.yul\":2337:2359   */\n      add\n        /* \"#utility.yul\":2316:2369   */\n      tag_160\n      jump\t// in\n    tag_177:\n        /* \"#utility.yul\":2306:2369   */\n      swap2\n      pop\n        /* \"#utility.yul\":2261:2379   */\n      pop\n        /* \"#utility.yul\":1571:2386   */\n      swap3\n      pop\n      swap3\n      pop\n      swap3\n      jump\t// out\n        /* \"#utility.yul\":2392:2721   */\n    tag_47:\n        /* \"#utility.yul\":2451:2457   */\n      0x00\n        /* \"#utility.yul\":2500:2502   */\n      0x20\n        /* \"#utility.yul\":2488:2497   */\n      dup3\n        /* \"#utility.yul\":2479:2486   */\n      dup5\n        /* \"#utility.yul\":2475:2498   */\n      sub\n        /* \"#utility.yul\":2471:2503   */\n      slt\n        /* \"#utility.yul\":2468:2587   */\n      iszero\n      tag_179\n      jumpi\n        /* \"#utility.yul\":2506:2585   */\n      tag_180\n      tag_167\n      jump\t// in\n    tag_180:\n        /* \"#utility.yul\":2468:2587   */\n    tag_179:\n        /* \"#utility.yul\":2626:2627   */\n      0x00\n        /* \"#utility.yul\":2651:2704   */\n      tag_181\n        /* \"#utility.yul\":2696:2703   */\n      dup5\n        /* \"#utility.yul\":2687:2693   */\n      dup3\n        /* \"#utility.yul\":2676:2685   */\n      dup6\n        /* \"#utility.yul\":2672:2694   */\n      add\n        /* \"#utility.yul\":2651:2704   */\n      tag_160\n      jump\t// in\n    tag_181:\n        /* \"#utility.yul\":2641:2704   */\n      swap2\n      pop\n        /* \"#utility.yul\":2597:2714   */\n      pop\n        /* \"#utility.yul\":2392:2721   */\n      swap3\n      swap2\n      pop\n      pop\n      jump\t// out\n        /* \"#utility.yul\":2727:2869   */\n    tag_182:\n        /* \"#utility.yul\":2830:2862   */\n      tag_184\n        /* \"#utility.yul\":2856:2861   */\n      dup2\n        /* \"#utility.yul\":2830:2862   */\n      tag_185\n      jump\t// in\n    tag_184:\n        /* \"#utility.yul\":2825:2828   */\n      dup3\n        /* \"#utility.yul\":2818:2863   */\n      mstore\n        /* \"#utility.yul\":2727:2869   */\n      pop\n      pop\n      jump\t// out\n        /* \"#utility.yul\":2875:2993   */\n    tag_186:\n        /* \"#utility.yul\":2962:2986   */\n      tag_188\n        /* \"#utility.yul\":2980:2985   */\n      dup2\n        /* \"#utility.yul\":2962:2986   */\n      tag_189\n      jump\t// in\n    tag_188:\n        /* \"#utility.yul\":2957:2960   */\n      dup3\n        /* \"#utility.yul\":2950:2987   */\n      mstore\n        /* \"#utility.yul\":2875:2993   */\n      pop\n      pop\n      jump\t// out\n        /* \"#utility.yul\":2999:3108   */\n    tag_190:\n        /* \"#utility.yul\":3080:3101   */\n      tag_192\n        /* \"#utility.yul\":3095:3100   */\n      dup2\n        /* \"#utility.yul\":3080:3101   */\n      tag_193\n      jump\t// in\n    tag_192:\n        /* \"#utility.yul\":3075:3078   */\n      dup3\n        /* \"#utility.yul\":3068:3102   */\n      mstore\n        /* \"#utility.yul\":2999:3108   */\n      pop\n      pop\n      jump\t// out\n        /* \"#utility.yul\":3114:3478   */\n    tag_194:\n        /* \"#utility.yul\":3202:3205   */\n      0x00\n        /* \"#utility.yul\":3230:3269   */\n      tag_196\n        /* \"#utility.yul\":3263:3268   */\n      dup3\n        /* \"#utility.yul\":3230:3269   */\n      tag_197\n      jump\t// in\n    tag_196:\n        /* \"#utility.yul\":3285:3356   */\n      tag_198\n        /* \"#utility.yul\":3349:3355   */\n      dup2\n        /* \"#utility.yul\":3344:3347   */\n      dup6\n        /* \"#utility.yul\":3285:3356   */\n      tag_199\n      jump\t// in\n    tag_198:\n        /* \"#utility.yul\":3278:3356   */\n      swap4\n      pop\n        /* \"#utility.yul\":3365:3417   */\n      tag_200\n        /* \"#utility.yul\":3410:3416   */\n      dup2\n        /* \"#utility.yul\":3405:3408   */\n      dup6\n        /* \"#utility.yul\":3398:3402   */\n      0x20\n        /* \"#utility.yul\":3391:3396   */\n      dup7\n        /* \"#utility.yul\":3387:3403   */\n      add\n        /* \"#utility.yul\":3365:3417   */\n      tag_201\n      jump\t// in\n    tag_200:\n        /* \"#utility.yul\":3442:3471   */\n      tag_202\n        /* \"#utility.yul\":3464:3470   */\n      dup2\n        /* \"#utility.yul\":3442:3471   */\n      tag_203\n      jump\t// in\n    tag_202:\n        /* \"#utility.yul\":3437:3440   */\n      dup5\n        /* \"#utility.yul\":3433:3472   */\n      add\n        /* \"#utility.yul\":3426:3472   */\n      swap2\n      pop\n        /* \"#utility.yul\":3206:3478   */\n      pop\n        /* \"#utility.yul\":3114:3478   */\n      swap3\n      swap2\n      pop\n      pop\n      jump\t// out\n        /* \"#utility.yul\":3484:3850   */\n    tag_204:\n        /* \"#utility.yul\":3626:3629   */\n      0x00\n        /* \"#utility.yul\":3647:3714   */\n      tag_206\n        /* \"#utility.yul\":3711:3713   */\n      0x16\n        /* \"#utility.yul\":3706:3709   */\n      dup4\n        /* \"#utility.yul\":3647:3714   */\n      tag_199\n      jump\t// in\n    tag_206:\n        /* \"#utility.yul\":3640:3714   */\n      swap2\n      pop\n        /* \"#utility.yul\":3723:3816   */\n      tag_207\n        /* \"#utility.yul\":3812:3815   */\n      dup3\n        /* \"#utility.yul\":3723:3816   */\n      tag_208\n      jump\t// in\n    tag_207:\n        /* \"#utility.yul\":3841:3843   */\n      0x20\n        /* \"#utility.yul\":3836:3839   */\n      dup3\n        /* \"#utility.yul\":3832:3844   */\n      add\n        /* \"#utility.yul\":3825:3844   */\n      swap1\n      pop\n        /* \"#utility.yul\":3484:3850   */\n      swap2\n      swap1\n      pop\n      jump\t// out\n        /* \"#utility.yul\":3856:4222   */\n    tag_209:\n        /* \"#utility.yul\":3998:4001   */\n      0x00\n        /* \"#utility.yul\":4019:4086   */\n      tag_211\n        /* \"#utility.yul\":4083:4085   */\n      0x1e\n        /* \"#utility.yul\":4078:4081   */\n      dup4\n        /* \"#utility.yul\":4019:4086   */\n      tag_199\n      jump\t// in\n    tag_211:\n        /* \"#utility.yul\":4012:4086   */\n      swap2\n      pop\n        /* \"#utility.yul\":4095:4188   */\n      tag_212\n        /* \"#utility.yul\":4184:4187   */\n      dup3\n        /* \"#utility.yul\":4095:4188   */\n      tag_213\n      jump\t// in\n    tag_212:\n        /* \"#utility.yul\":4213:4215   */\n      0x20\n        /* \"#utility.yul\":4208:4211   */\n      dup3\n        /* \"#utility.yul\":4204:4216   */\n      add\n        /* \"#utility.yul\":4197:4216   */\n      swap1\n      pop\n        /* \"#utility.yul\":3856:4222   */\n      swap2\n      swap1\n      pop\n      jump\t// out\n        /* \"#utility.yul\":4228:4594   */\n    tag_214:\n        /* \"#utility.yul\":4370:4373   */\n      0x00\n        /* \"#utility.yul\":4391:4458   */\n      tag_216\n        /* \"#utility.yul\":4455:4457   */\n      0x13\n        /* \"#utility.yul\":4450:4453   */\n      dup4\n        /* \"#utility.yul\":4391:4458   */\n      tag_199\n      jump\t// in\n    tag_216:\n        /* \"#utility.yul\":4384:4458   */\n      swap2\n      pop\n        /* \"#utility.yul\":4467:4560   */\n      tag_217\n        /* \"#utility.yul\":4556:4559   */\n      dup3\n        /* \"#utility.yul\":4467:4560   */\n      tag_218\n      jump\t// in\n    tag_217:\n        /* \"#utility.yul\":4585:4587   */\n      0x20\n        /* \"#utility.yul\":4580:4583   */\n      dup3\n        /* \"#utility.yul\":4576:4588   */\n      add\n        /* \"#utility.yul\":4569:4588   */\n      swap1\n      pop\n        /* \"#utility.yul\":4228:4594   */\n      swap2\n      swap1\n      pop\n      jump\t// out\n        /* \"#utility.yul\":4600:4966   */\n    tag_219:\n        /* \"#utility.yul\":4742:4745   */\n      0x00\n        /* \"#utility.yul\":4763:4830   */\n      tag_221\n        /* \"#utility.yul\":4827:4829   */\n      0x17\n        /* \"#utility.yul\":4822:4825   */\n      dup4\n        /* \"#utility.yul\":4763:4830   */\n      tag_199\n      jump\t// in\n    tag_221:\n        /* \"#utility.yul\":4756:4830   */\n      swap2\n      pop\n        /* \"#utility.yul\":4839:4932   */\n      tag_222\n        /* \"#utility.yul\":4928:4931   */\n      dup3\n        /* \"#utility.yul\":4839:4932   */\n      tag_223\n      jump\t// in\n    tag_222:\n        /* \"#utility.yul\":4957:4959   */\n      0x20\n        /* \"#utility.yul\":4952:4955   */\n      dup3\n        /* \"#utility.yul\":4948:4960   */\n      add\n        /* \"#utility.yul\":4941:4960   */\n      swap1\n      pop\n        /* \"#utility.yul\":4600:4966   */\n      swap2\n      swap1\n      pop\n      jump\t// out\n        /* \"#utility.yul\":4972:5338   */\n    tag_224:\n        /* \"#utility.yul\":5114:5117   */\n      0x00\n        /* \"#utility.yul\":5135:5202   */\n      tag_226\n        /* \"#utility.yul\":5199:5201   */\n      0x23\n        /* \"#utility.yul\":5194:5197   */\n      dup4\n        /* \"#utility.yul\":5135:5202   */\n      tag_199\n      jump\t// in\n    tag_226:\n        /* \"#utility.yul\":5128:5202   */\n      swap2\n      pop\n        /* \"#utility.yul\":5211:5304   */\n      tag_227\n        /* \"#utility.yul\":5300:5303   */\n      dup3\n        /* \"#utility.yul\":5211:5304   */\n      tag_228\n      jump\t// in\n    tag_227:\n        /* \"#utility.yul\":5329:5331   */\n      0x40\n        /* \"#utility.yul\":5324:5327   */\n      dup3\n        /* \"#utility.yul\":5320:5332   */\n      add\n        /* \"#utility.yul\":5313:5332   */\n      swap1\n      pop\n        /* \"#utility.yul\":4972:5338   */\n      swap2\n      swap1\n      pop\n      jump\t// out\n        /* \"#utility.yul\":5344:5710   */\n    tag_229:\n        /* \"#utility.yul\":5486:5489   */\n      0x00\n        /* \"#utility.yul\":5507:5574   */\n      tag_231\n        /* \"#utility.yul\":5571:5573   */\n      0x1f\n        /* \"#utility.yul\":5566:5569   */\n      dup4\n        /* \"#utility.yul\":5507:5574   */\n      tag_199\n      jump\t// in\n    tag_231:\n        /* \"#utility.yul\":5500:5574   */\n      swap2\n      pop\n        /* \"#utility.yul\":5583:5676   */\n      tag_232\n        /* \"#utility.yul\":5672:5675   */\n      dup3\n        /* \"#utility.yul\":5583:5676   */\n      tag_233\n      jump\t// in\n    tag_232:\n        /* \"#utility.yul\":5701:5703   */\n      0x20\n        /* \"#utility.yul\":5696:5699   */\n      dup3\n        /* \"#utility.yul\":5692:5704   */\n      add\n        /* \"#utility.yul\":5685:5704   */\n      swap1\n      pop\n        /* \"#utility.yul\":5344:5710   */\n      swap2\n      swap1\n      pop\n      jump\t// out\n        /* \"#utility.yul\":5716:5834   */\n    tag_234:\n        /* \"#utility.yul\":5803:5827   */\n      tag_236\n        /* \"#utility.yul\":5821:5826   */\n      dup2\n        /* \"#utility.yul\":5803:5827   */\n      tag_237\n      jump\t// in\n    tag_236:\n        /* \"#utility.yul\":5798:5801   */\n      dup3\n        /* \"#utility.yul\":5791:5828   */\n      mstore\n        /* \"#utility.yul\":5716:5834   */\n      pop\n      pop\n      jump\t// out\n        /* \"#utility.yul\":5840:6062   */\n    tag_43:\n        /* \"#utility.yul\":5933:5937   */\n      0x00\n        /* \"#utility.yul\":5971:5973   */\n      0x20\n        /* \"#utility.yul\":5960:5969   */\n      dup3\n        /* \"#utility.yul\":5956:5974   */\n      add\n        /* \"#utility.yul\":5948:5974   */\n      swap1\n      pop\n        /* \"#utility.yul\":5984:6055   */\n      tag_239\n        /* \"#utility.yul\":6052:6053   */\n      0x00\n        /* \"#utility.yul\":6041:6050   */\n      dup4\n        /* \"#utility.yul\":6037:6054   */\n      add\n        /* \"#utility.yul\":6028:6034   */\n      dup5\n        /* \"#utility.yul\":5984:6055   */\n      tag_186\n      jump\t// in\n    tag_239:\n        /* \"#utility.yul\":5840:6062   */\n      swap3\n      swap2\n      pop\n      pop\n      jump\t// out\n        /* \"#utility.yul\":6068:6843   */\n    tag_63:\n        /* \"#utility.yul\":6303:6307   */\n      0x00\n        /* \"#utility.yul\":6341:6344   */\n      0xa0\n        /* \"#utility.yul\":6330:6339   */\n      dup3\n        /* \"#utility.yul\":6326:6345   */\n      add\n        /* \"#utility.yul\":6318:6345   */\n      swap1\n      pop\n        /* \"#utility.yul\":6391:6400   */\n      dup2\n        /* \"#utility.yul\":6385:6389   */\n      dup2\n        /* \"#utility.yul\":6381:6401   */\n      sub\n        /* \"#utility.yul\":6377:6378   */\n      0x00\n        /* \"#utility.yul\":6366:6375   */\n      dup4\n        /* \"#utility.yul\":6362:6379   */\n      add\n        /* \"#utility.yul\":6355:6402   */\n      mstore\n        /* \"#utility.yul\":6419:6497   */\n      tag_241\n        /* \"#utility.yul\":6492:6496   */\n      dup2\n        /* \"#utility.yul\":6483:6489   */\n      dup9\n        /* \"#utility.yul\":6419:6497   */\n      tag_194\n      jump\t// in\n    tag_241:\n        /* \"#utility.yul\":6411:6497   */\n      swap1\n      pop\n        /* \"#utility.yul\":6507:6595   */\n      tag_242\n        /* \"#utility.yul\":6591:6593   */\n      0x20\n        /* \"#utility.yul\":6580:6589   */\n      dup4\n        /* \"#utility.yul\":6576:6594   */\n      add\n        /* \"#utility.yul\":6567:6573   */\n      dup8\n        /* \"#utility.yul\":6507:6595   */\n      tag_182\n      jump\t// in\n    tag_242:\n        /* \"#utility.yul\":6605:6677   */\n      tag_243\n        /* \"#utility.yul\":6673:6675   */\n      0x40\n        /* \"#utility.yul\":6662:6671   */\n      dup4\n        /* \"#utility.yul\":6658:6676   */\n      add\n        /* \"#utility.yul\":6649:6655   */\n      dup7\n        /* \"#utility.yul\":6605:6677   */\n      tag_234\n      jump\t// in\n    tag_243:\n        /* \"#utility.yul\":6687:6753   */\n      tag_244\n        /* \"#utility.yul\":6749:6751   */\n      0x60\n        /* \"#utility.yul\":6738:6747   */\n      dup4\n        /* \"#utility.yul\":6734:6752   */\n      add\n        /* \"#utility.yul\":6725:6731   */\n      dup6\n        /* \"#utility.yul\":6687:6753   */\n      tag_190\n      jump\t// in\n    tag_244:\n        /* \"#utility.yul\":6763:6836   */\n      tag_245\n        /* \"#utility.yul\":6831:6834   */\n      0x80\n        /* \"#utility.yul\":6820:6829   */\n      dup4\n        /* \"#utility.yul\":6816:6835   */\n      add\n        /* \"#utility.yul\":6807:6813   */\n      dup5\n        /* \"#utility.yul\":6763:6836   */\n      tag_234\n      jump\t// in\n    tag_245:\n        /* \"#utility.yul\":6068:6843   */\n      swap7\n      swap6\n      pop\n      pop\n      pop\n      pop\n      pop\n      pop\n      jump\t// out\n        /* \"#utility.yul\":6849:7268   */\n    tag_95:\n        /* \"#utility.yul\":7015:7019   */\n      0x00\n        /* \"#utility.yul\":7053:7055   */\n      0x20\n        /* \"#utility.yul\":7042:7051   */\n      dup3\n        /* \"#utility.yul\":7038:7056   */\n      add\n        /* \"#utility.yul\":7030:7056   */\n      swap1\n      pop\n        /* \"#utility.yul\":7102:7111   */\n      dup2\n        /* \"#utility.yul\":7096:7100   */\n      dup2\n        /* \"#utility.yul\":7092:7112   */\n      sub\n        /* \"#utility.yul\":7088:7089   */\n      0x00\n        /* \"#utility.yul\":7077:7086   */\n      dup4\n        /* \"#utility.yul\":7073:7090   */\n      add\n        /* \"#utility.yul\":7066:7113   */\n      mstore\n        /* \"#utility.yul\":7130:7261   */\n      tag_247\n        /* \"#utility.yul\":7256:7260   */\n      dup2\n        /* \"#utility.yul\":7130:7261   */\n      tag_204\n      jump\t// in\n    tag_247:\n        /* \"#utility.yul\":7122:7261   */\n      swap1\n      pop\n        /* \"#utility.yul\":6849:7268   */\n      swap2\n      swap1\n      pop\n      jump\t// out\n        /* \"#utility.yul\":7274:7693   */\n    tag_111:\n        /* \"#utility.yul\":7440:7444   */\n      0x00\n        /* \"#utility.yul\":7478:7480   */\n      0x20\n        /* \"#utility.yul\":7467:7476   */\n      dup3\n        /* \"#utility.yul\":7463:7481   */\n      add\n        /* \"#utility.yul\":7455:7481   */\n      swap1\n      pop\n        /* \"#utility.yul\":7527:7536   */\n      dup2\n        /* \"#utility.yul\":7521:7525   */\n      dup2\n        /* \"#utility.yul\":7517:7537   */\n      sub\n        /* \"#utility.yul\":7513:7514   */\n      0x00\n        /* \"#utility.yul\":7502:7511   */\n      dup4\n        /* \"#utility.yul\":7498:7515   */\n      add\n        /* \"#utility.yul\":7491:7538   */\n      mstore\n        /* \"#utility.yul\":7555:7686   */\n      tag_249\n        /* \"#utility.yul\":7681:7685   */\n      dup2\n        /* \"#utility.yul\":7555:7686   */\n      tag_209\n      jump\t// in\n    tag_249:\n        /* \"#utility.yul\":7547:7686   */\n      swap1\n      pop\n        /* \"#utility.yul\":7274:7693   */\n      swap2\n      swap1\n      pop\n      jump\t// out\n        /* \"#utility.yul\":7699:8118   */\n    tag_108:\n        /* \"#utility.yul\":7865:7869   */\n      0x00\n        /* \"#utility.yul\":7903:7905   */\n      0x20\n        /* \"#utility.yul\":7892:7901   */\n      dup3\n        /* \"#utility.yul\":7888:7906   */\n      add\n        /* \"#utility.yul\":7880:7906   */\n      swap1\n      pop\n        /* \"#utility.yul\":7952:7961   */\n      dup2\n        /* \"#utility.yul\":7946:7950   */\n      dup2\n        /* \"#utility.yul\":7942:7962   */\n      sub\n        /* \"#utility.yul\":7938:7939   */\n      0x00\n        /* \"#utility.yul\":7927:7936   */\n      dup4\n        /* \"#utility.yul\":7923:7940   */\n      add\n        /* \"#utility.yul\":7916:7963   */\n      mstore\n        /* \"#utility.yul\":7980:8111   */\n      tag_251\n        /* \"#utility.yul\":8106:8110   */\n      dup2\n        /* \"#utility.yul\":7980:8111   */\n      tag_214\n      jump\t// in\n    tag_251:\n        /* \"#utility.yul\":7972:8111   */\n      swap1\n      pop\n        /* \"#utility.yul\":7699:8118   */\n      swap2\n      swap1\n      pop\n      jump\t// out\n        /* \"#utility.yul\":8124:8543   */\n    tag_92:\n        /* \"#utility.yul\":8290:8294   */\n      0x00\n        /* \"#utility.yul\":8328:8330   */\n      0x20\n        /* \"#utility.yul\":8317:8326   */\n      dup3\n        /* \"#utility.yul\":8313:8331   */\n      add\n        /* \"#utility.yul\":8305:8331   */\n      swap1\n      pop\n        /* \"#utility.yul\":8377:8386   */\n      dup2\n        /* \"#utility.yul\":8371:8375   */\n      dup2\n        /* \"#utility.yul\":8367:8387   */\n      sub\n        /* \"#utility.yul\":8363:8364   */\n      0x00\n        /* \"#utility.yul\":8352:8361   */\n      dup4\n        /* \"#utility.yul\":8348:8365   */\n      add\n        /* \"#utility.yul\":8341:8388   */\n      mstore\n        /* \"#utility.yul\":8405:8536   */\n      tag_253\n        /* \"#utility.yul\":8531:8535   */\n      dup2\n        /* \"#utility.yul\":8405:8536   */\n      tag_219\n      jump\t// in\n    tag_253:\n        /* \"#utility.yul\":8397:8536   */\n      swap1\n      pop\n        /* \"#utility.yul\":8124:8543   */\n      swap2\n      swap1\n      pop\n      jump\t// out\n        /* \"#utility.yul\":8549:8968   */\n    tag_83:\n        /* \"#utility.yul\":8715:8719   */\n      0x00\n        /* \"#utility.yul\":8753:8755   */\n      0x20\n        /* \"#utility.yul\":8742:8751   */\n      dup3\n        /* \"#utility.yul\":8738:8756   */\n      add\n        /* \"#utility.yul\":8730:8756   */\n      swap1\n      pop\n        /* \"#utility.yul\":8802:8811   */\n      dup2\n        /* \"#utility.yul\":8796:8800   */\n      dup2\n        /* \"#utility.yul\":8792:8812   */\n      sub\n        /* \"#utility.yul\":8788:8789   */\n      0x00\n        /* \"#utility.yul\":8777:8786   */\n      dup4\n        /* \"#utility.yul\":8773:8790   */\n      add\n        /* \"#utility.yul\":8766:8813   */\n      mstore\n        /* \"#utility.yul\":8830:8961   */\n      tag_255\n        /* \"#utility.yul\":8956:8960   */\n      dup2\n        /* \"#utility.yul\":8830:8961   */\n      tag_224\n      jump\t// in\n    tag_255:\n        /* \"#utility.yul\":8822:8961   */\n      swap1\n      pop\n        /* \"#utility.yul\":8549:8968   */\n      swap2\n      swap1\n      pop\n      jump\t// out\n        /* \"#utility.yul\":8974:9393   */\n    tag_101:\n        /* \"#utility.yul\":9140:9144   */\n      0x00\n        /* \"#utility.yul\":9178:9180   */\n      0x20\n        /* \"#utility.yul\":9167:9176   */\n      dup3\n        /* \"#utility.yul\":9163:9181   */\n      add\n        /* \"#utility.yul\":9155:9181   */\n      swap1\n      pop\n        /* \"#utility.yul\":9227:9236   */\n      dup2\n        /* \"#utility.yul\":9221:9225   */\n      dup2\n        /* \"#utility.yul\":9217:9237   */\n      sub\n        /* \"#utility.yul\":9213:9214   */\n      0x00\n        /* \"#utility.yul\":9202:9211   */\n      dup4\n        /* \"#utility.yul\":9198:9215   */\n      add\n        /* \"#utility.yul\":9191:9238   */\n      mstore\n        /* \"#utility.yul\":9255:9386   */\n      tag_257\n        /* \"#utility.yul\":9381:9385   */\n      dup2\n        /* \"#utility.yul\":9255:9386   */\n      tag_229\n      jump\t// in\n    tag_257:\n        /* \"#utility.yul\":9247:9386   */\n      swap1\n      pop\n        /* \"#utility.yul\":8974:9393   */\n      swap2\n      swap1\n      pop\n      jump\t// out\n        /* \"#utility.yul\":9399:9621   */\n    tag_23:\n        /* \"#utility.yul\":9492:9496   */\n      0x00\n        /* \"#utility.yul\":9530:9532   */\n      0x20\n        /* \"#utility.yul\":9519:9528   */\n      dup3\n        /* \"#utility.yul\":9515:9533   */\n      add\n        /* \"#utility.yul\":9507:9533   */\n      swap1\n      pop\n        /* \"#utility.yul\":9543:9614   */\n      tag_259\n        /* \"#utility.yul\":9611:9612   */\n      0x00\n        /* \"#utility.yul\":9600:9609   */\n      dup4\n        /* \"#utility.yul\":9596:9613   */\n      add\n        /* \"#utility.yul\":9587:9593   */\n      dup5\n        /* \"#utility.yul\":9543:9614   */\n      tag_234\n      jump\t// in\n    tag_259:\n        /* \"#utility.yul\":9399:9621   */\n      swap3\n      swap2\n      pop\n      pop\n      jump\t// out\n        /* \"#utility.yul\":9627:9756   */\n    tag_140:\n        /* \"#utility.yul\":9661:9667   */\n      0x00\n        /* \"#utility.yul\":9688:9708   */\n      tag_261\n      tag_262\n      jump\t// in\n    tag_261:\n        /* \"#utility.yul\":9678:9708   */\n      swap1\n      pop\n        /* \"#utility.yul\":9717:9750   */\n      tag_263\n        /* \"#utility.yul\":9745:9749   */\n      dup3\n        /* \"#utility.yul\":9737:9743   */\n      dup3\n        /* \"#utility.yul\":9717:9750   */\n      tag_264\n      jump\t// in\n    tag_263:\n        /* \"#utility.yul\":9627:9756   */\n      swap2\n      swap1\n      pop\n      jump\t// out\n        /* \"#utility.yul\":9762:9837   */\n    tag_262:\n        /* \"#utility.yul\":9795:9801   */\n      0x00\n        /* \"#utility.yul\":9828:9830   */\n      0x40\n        /* \"#utility.yul\":9822:9831   */\n      mload\n        /* \"#utility.yul\":9812:9831   */\n      swap1\n      pop\n        /* \"#utility.yul\":9762:9837   */\n      swap1\n      jump\t// out\n        /* \"#utility.yul\":9843:10151   */\n    tag_139:\n        /* \"#utility.yul\":9905:9909   */\n      0x00\n        /* \"#utility.yul\":9995:10013   */\n      0xffffffffffffffff\n        /* \"#utility.yul\":9987:9993   */\n      dup3\n        /* \"#utility.yul\":9984:10014   */\n      gt\n        /* \"#utility.yul\":9981:10037   */\n      iszero\n      tag_267\n      jumpi\n        /* \"#utility.yul\":10017:10035   */\n      tag_268\n      tag_269\n      jump\t// in\n    tag_268:\n        /* \"#utility.yul\":9981:10037   */\n    tag_267:\n        /* \"#utility.yul\":10055:10084   */\n      tag_270\n        /* \"#utility.yul\":10077:10083   */\n      dup3\n        /* \"#utility.yul\":10055:10084   */\n      tag_203\n      jump\t// in\n    tag_270:\n        /* \"#utility.yul\":10047:10084   */\n      swap1\n      pop\n        /* \"#utility.yul\":10139:10143   */\n      0x20\n        /* \"#utility.yul\":10133:10137   */\n      dup2\n        /* \"#utility.yul\":10129:10144   */\n      add\n        /* \"#utility.yul\":10121:10144   */\n      swap1\n      pop\n        /* \"#utility.yul\":9843:10151   */\n      swap2\n      swap1\n      pop\n      jump\t// out\n        /* \"#utility.yul\":10157:10256   */\n    tag_197:\n        /* \"#utility.yul\":10209:10215   */\n      0x00\n        /* \"#utility.yul\":10243:10248   */\n      dup2\n        /* \"#utility.yul\":10237:10249   */\n      mload\n        /* \"#utility.yul\":10227:10249   */\n      swap1\n      pop\n        /* \"#utility.yul\":10157:10256   */\n      swap2\n      swap1\n      pop\n      jump\t// out\n        /* \"#utility.yul\":10262:10431   */\n    tag_199:\n        /* \"#utility.yul\":10346:10357   */\n      0x00\n        /* \"#utility.yul\":10380:10386   */\n      dup3\n        /* \"#utility.yul\":10375:10378   */\n      dup3\n        /* \"#utility.yul\":10368:10387   */\n      mstore\n        /* \"#utility.yul\":10420:10424   */\n      0x20\n        /* \"#utility.yul\":10415:10418   */\n      dup3\n        /* \"#utility.yul\":10411:10425   */\n      add\n        /* \"#utility.yul\":10396:10425   */\n      swap1\n      pop\n        /* \"#utility.yul\":10262:10431   */\n      swap3\n      swap2\n      pop\n      pop\n      jump\t// out\n        /* \"#utility.yul\":10437:10742   */\n    tag_115:\n        /* \"#utility.yul\":10477:10480   */\n      0x00\n        /* \"#utility.yul\":10496:10516   */\n      tag_274\n        /* \"#utility.yul\":10514:10515   */\n      dup3\n        /* \"#utility.yul\":10496:10516   */\n      tag_237\n      jump\t// in\n    tag_274:\n        /* \"#utility.yul\":10491:10516   */\n      swap2\n      pop\n        /* \"#utility.yul\":10530:10550   */\n      tag_275\n        /* \"#utility.yul\":10548:10549   */\n      dup4\n        /* \"#utility.yul\":10530:10550   */\n      tag_237\n      jump\t// in\n    tag_275:\n        /* \"#utility.yul\":10525:10550   */\n      swap3\n      pop\n        /* \"#utility.yul\":10684:10685   */\n      dup3\n        /* \"#utility.yul\":10616:10682   */\n      0xffffffffffffffffffffffffffffffffffffffffffffffffffffffffffffffff\n        /* \"#utility.yul\":10612:10686   */\n      sub\n        /* \"#utility.yul\":10609:10610   */\n      dup3\n        /* \"#utility.yul\":10606:10687   */\n      gt\n        /* \"#utility.yul\":10603:10710   */\n      iszero\n      tag_276\n      jumpi\n        /* \"#utility.yul\":10690:10708   */\n      tag_277\n      tag_278\n      jump\t// in\n    tag_277:\n        /* \"#utility.yul\":10603:10710   */\n    tag_276:\n        /* \"#utility.yul\":10734:10735   */\n      dup3\n        /* \"#utility.yul\":10731:10732   */\n      dup3\n        /* \"#utility.yul\":10727:10736   */\n      add\n        /* \"#utility.yul\":10720:10736   */\n      swap1\n      pop\n        /* \"#utility.yul\":10437:10742   */\n      swap3\n      swap2\n      pop\n      pop\n      jump\t// out\n        /* \"#utility.yul\":10748:10844   */\n    tag_189:\n        /* \"#utility.yul\":10785:10792   */\n      0x00\n        /* \"#utility.yul\":10814:10838   */\n      tag_280\n        /* \"#utility.yul\":10832:10837   */\n      dup3\n        /* \"#utility.yul\":10814:10838   */\n      tag_281\n      jump\t// in\n    tag_280:\n        /* \"#utility.yul\":10803:10838   */\n      swap1\n      pop\n        /* \"#utility.yul\":10748:10844   */\n      swap2\n      swap1\n      pop\n      jump\t// out\n        /* \"#utility.yul\":10850:10954   */\n    tag_185:\n        /* \"#utility.yul\":10895:10902   */\n      0x00\n        /* \"#utility.yul\":10924:10948   */\n      tag_283\n        /* \"#utility.yul\":10942:10947   */\n      dup3\n        /* \"#utility.yul\":10924:10948   */\n      tag_281\n      jump\t// in\n    tag_283:\n        /* \"#utility.yul\":10913:10948   */\n      swap1\n      pop\n        /* \"#utility.yul\":10850:10954   */\n      swap2\n      swap1\n      pop\n      jump\t// out\n        /* \"#utility.yul\":10960:11050   */\n    tag_193:\n        /* \"#utility.yul\":10994:11001   */\n      0x00\n        /* \"#utility.yul\":11037:11042   */\n      dup2\n        /* \"#utility.yul\":11030:11043   */\n      iszero\n        /* \"#utility.yul\":11023:11044   */\n      iszero\n        /* \"#utility.yul\":11012:11044   */\n      swap1\n      pop\n        /* \"#utility.yul\":10960:11050   */\n      swap2\n      swap1\n      pop\n      jump\t// out\n        /* \"#utility.yul\":11056:11182   */\n    tag_281:\n        /* \"#utility.yul\":11093:11100   */\n      0x00\n        /* \"#utility.yul\":11133:11175   */\n      0xffffffffffffffffffffffffffffffffffffffff\n        /* \"#utility.yul\":11126:11131   */\n      dup3\n        /* \"#utility.yul\":11122:11176   */\n      and\n        /* \"#utility.yul\":11111:11176   */\n      swap1\n      pop\n        /* \"#utility.yul\":11056:11182   */\n      swap2\n      swap1\n      pop\n      jump\t// out\n        /* \"#utility.yul\":11188:11265   */\n    tag_237:\n        /* \"#utility.yul\":11225:11232   */\n      0x00\n        /* \"#utility.yul\":11254:11259   */\n      dup2\n        /* \"#utility.yul\":11243:11259   */\n      swap1\n      pop\n        /* \"#utility.yul\":11188:11265   */\n      swap2\n      swap1\n      pop\n      jump\t// out\n        /* \"#utility.yul\":11271:11425   */\n    tag_145:\n        /* \"#utility.yul\":11355:11361   */\n      dup3\n        /* \"#utility.yul\":11350:11353   */\n      dup2\n        /* \"#utility.yul\":11345:11348   */\n      dup4\n        /* \"#utility.yul\":11332:11362   */\n      calldatacopy\n        /* \"#utility.yul\":11417:11418   */\n      0x00\n        /* \"#utility.yul\":11408:11414   */\n      dup4\n        /* \"#utility.yul\":11403:11406   */\n      dup4\n        /* \"#utility.yul\":11399:11415   */\n      add\n        /* \"#utility.yul\":11392:11419   */\n      mstore\n        /* \"#utility.yul\":11271:11425   */\n      pop\n      pop\n      pop\n      jump\t// out\n        /* \"#utility.yul\":11431:11738   */\n    tag_201:\n        /* \"#utility.yul\":11499:11500   */\n      0x00\n        /* \"#utility.yul\":11509:11622   */\n    tag_289:\n        /* \"#utility.yul\":11523:11529   */\n      dup4\n        /* \"#utility.yul\":11520:11521   */\n      dup2\n        /* \"#utility.yul\":11517:11530   */\n      lt\n        /* \"#utility.yul\":11509:11622   */\n      iszero\n      tag_291\n      jumpi\n        /* \"#utility.yul\":11608:11609   */\n      dup1\n        /* \"#utility.yul\":11603:11606   */\n      dup3\n        /* \"#utility.yul\":11599:11610   */\n      add\n        /* \"#utility.yul\":11593:11611   */\n      mload\n        /* \"#utility.yul\":11589:11590   */\n      dup2\n        /* \"#utility.yul\":11584:11587   */\n      dup5\n        /* \"#utility.yul\":11580:11591   */\n      add\n        /* \"#utility.yul\":11573:11612   */\n      mstore\n        /* \"#utility.yul\":11545:11547   */\n      0x20\n        /* \"#utility.yul\":11542:11543   */\n      dup2\n        /* \"#utility.yul\":11538:11548   */\n      add\n        /* \"#utility.yul\":11533:11548   */\n      swap1\n      pop\n        /* \"#utility.yul\":11509:11622   */\n      jump(tag_289)\n    tag_291:\n        /* \"#utility.yul\":11640:11646   */\n      dup4\n        /* \"#utility.yul\":11637:11638   */\n      dup2\n        /* \"#utility.yul\":11634:11647   */\n      gt\n        /* \"#utility.yul\":11631:11732   */\n      iszero\n      tag_292\n      jumpi\n        /* \"#utility.yul\":11720:11721   */\n      0x00\n        /* \"#utility.yul\":11711:11717   */\n      dup5\n        /* \"#utility.yul\":11706:11709   */\n      dup5\n        /* \"#utility.yul\":11702:11718   */\n      add\n        /* \"#utility.yul\":11695:11722   */\n      mstore\n        /* \"#utility.yul\":11631:11732   */\n    tag_292:\n        /* \"#utility.yul\":11480:11738   */\n      pop\n        /* \"#utility.yul\":11431:11738   */\n      pop\n      pop\n      pop\n      jump\t// out\n        /* \"#utility.yul\":11744:12064   */\n    tag_119:\n        /* \"#utility.yul\":11788:11794   */\n      0x00\n        /* \"#utility.yul\":11825:11826   */\n      0x02\n        /* \"#utility.yul\":11819:11823   */\n      dup3\n        /* \"#utility.yul\":11815:11827   */\n      div\n        /* \"#utility.yul\":11805:11827   */\n      swap1\n      pop\n        /* \"#utility.yul\":11872:11873   */\n      0x01\n        /* \"#utility.yul\":11866:11870   */\n      dup3\n        /* \"#utility.yul\":11862:11874   */\n      and\n        /* \"#utility.yul\":11893:11911   */\n      dup1\n        /* \"#utility.yul\":11883:11964   */\n      tag_294\n      jumpi\n        /* \"#utility.yul\":11949:11953   */\n      0x7f\n        /* \"#utility.yul\":11941:11947   */\n      dup3\n        /* \"#utility.yul\":11937:11954   */\n      and\n        /* \"#utility.yul\":11927:11954   */\n      swap2\n      pop\n        /* \"#utility.yul\":11883:11964   */\n    tag_294:\n        /* \"#utility.yul\":12011:12013   */\n      0x20\n        /* \"#utility.yul\":12003:12009   */\n      dup3\n        /* \"#utility.yul\":12000:12014   */\n      lt\n        /* \"#utility.yul\":11980:11998   */\n      dup2\n        /* \"#utility.yul\":11977:12015   */\n      eq\n        /* \"#utility.yul\":11974:12058   */\n      iszero\n      tag_295\n      jumpi\n        /* \"#utility.yul\":12030:12048   */\n      tag_296\n      tag_297\n      jump\t// in\n    tag_296:\n        /* \"#utility.yul\":11974:12058   */\n    tag_295:\n        /* \"#utility.yul\":11795:12064   */\n      pop\n        /* \"#utility.yul\":11744:12064   */\n      swap2\n      swap1\n      pop\n      jump\t// out\n        /* \"#utility.yul\":12070:12351   */\n    tag_264:\n        /* \"#utility.yul\":12153:12180   */\n      tag_299\n        /* \"#utility.yul\":12175:12179   */\n      dup3\n        /* \"#utility.yul\":12153:12180   */\n      tag_203\n      jump\t// in\n    tag_299:\n        /* \"#utility.yul\":12145:12151   */\n      dup2\n        /* \"#utility.yul\":12141:12181   */\n      add\n        /* \"#utility.yul\":12283:12289   */\n      dup2\n        /* \"#utility.yul\":12271:12281   */\n      dup2\n        /* \"#utility.yul\":12268:12290   */\n      lt\n        /* \"#utility.yul\":12247:12265   */\n      0xffffffffffffffff\n        /* \"#utility.yul\":12235:12245   */\n      dup3\n        /* \"#utility.yul\":12232:12266   */\n      gt\n        /* \"#utility.yul\":12229:12291   */\n      or\n        /* \"#utility.yul\":12226:12314   */\n      iszero\n      tag_300\n      jumpi\n        /* \"#utility.yul\":12294:12312   */\n      tag_301\n      tag_269\n      jump\t// in\n    tag_301:\n        /* \"#utility.yul\":12226:12314   */\n    tag_300:\n        /* \"#utility.yul\":12334:12344   */\n      dup1\n        /* \"#utility.yul\":12330:12332   */\n      0x40\n        /* \"#utility.yul\":12323:12345   */\n      mstore\n        /* \"#utility.yul\":12113:12351   */\n      pop\n        /* \"#utility.yul\":12070:12351   */\n      pop\n      pop\n      jump\t// out\n        /* \"#utility.yul\":12357:12590   */\n    tag_86:\n        /* \"#utility.yul\":12396:12399   */\n      0x00\n        /* \"#utility.yul\":12419:12443   */\n      tag_303\n        /* \"#utility.yul\":12437:12442   */\n      dup3\n        /* \"#utility.yul\":12419:12443   */\n      tag_237\n      jump\t// in\n    tag_303:\n        /* \"#utility.yul\":12410:12443   */\n      swap2\n      pop\n        /* \"#utility.yul\":12465:12531   */\n      0xffffffffffffffffffffffffffffffffffffffffffffffffffffffffffffffff\n        /* \"#utility.yul\":12458:12463   */\n      dup3\n        /* \"#utility.yul\":12455:12532   */\n      eq\n        /* \"#utility.yul\":12452:12555   */\n      iszero\n      tag_304\n      jumpi\n        /* \"#utility.yul\":12535:12553   */\n      tag_305\n      tag_278\n      jump\t// in\n    tag_305:\n        /* \"#utility.yul\":12452:12555   */\n    tag_304:\n        /* \"#utility.yul\":12582:12583   */\n      0x01\n        /* \"#utility.yul\":12575:12580   */\n      dup3\n        /* \"#utility.yul\":12571:12584   */\n      add\n        /* \"#utility.yul\":12564:12584   */\n      swap1\n      pop\n        /* \"#utility.yul\":12357:12590   */\n      swap2\n      swap1\n      pop\n      jump\t// out\n        /* \"#utility.yul\":12596:12776   */\n    tag_278:\n        /* \"#utility.yul\":12644:12721   */\n      0x4e487b7100000000000000000000000000000000000000000000000000000000\n        /* \"#utility.yul\":12641:12642   */\n      0x00\n        /* \"#utility.yul\":12634:12722   */\n      mstore\n        /* \"#utility.yul\":12741:12745   */\n      0x11\n        /* \"#utility.yul\":12738:12739   */\n      0x04\n        /* \"#utility.yul\":12731:12746   */\n      mstore\n        /* \"#utility.yul\":12765:12769   */\n      0x24\n        /* \"#utility.yul\":12762:12763   */\n      0x00\n        /* \"#utility.yul\":12755:12770   */\n      revert\n        /* \"#utility.yul\":12782:12962   */\n    tag_297:\n        /* \"#utility.yul\":12830:12907   */\n      0x4e487b7100000000000000000000000000000000000000000000000000000000\n        /* \"#utility.yul\":12827:12828   */\n      0x00\n        /* \"#utility.yul\":12820:12908   */\n      mstore\n        /* \"#utility.yul\":12927:12931   */\n      0x22\n        /* \"#utility.yul\":12924:12925   */\n      0x04\n        /* \"#utility.yul\":12917:12932   */\n      mstore\n        /* \"#utility.yul\":12951:12955   */\n      0x24\n        /* \"#utility.yul\":12948:12949   */\n      0x00\n        /* \"#utility.yul\":12941:12956   */\n      revert\n        /* \"#utility.yul\":12968:13148   */\n    tag_269:\n        /* \"#utility.yul\":13016:13093   */\n      0x4e487b7100000000000000000000000000000000000000000000000000000000\n        /* \"#utility.yul\":13013:13014   */\n      0x00\n        /* \"#utility.yul\":13006:13094   */\n      mstore\n        /* \"#utility.yul\":13113:13117   */\n      0x41\n        /* \"#utility.yul\":13110:13111   */\n      0x04\n        /* \"#utility.yul\":13103:13118   */\n      mstore\n        /* \"#utility.yul\":13137:13141   */\n      0x24\n        /* \"#utility.yul\":13134:13135   */\n      0x00\n        /* \"#utility.yul\":13127:13142   */\n      revert\n        /* \"#utility.yul\":13154:13271   */\n    tag_158:\n        /* \"#utility.yul\":13263:13264   */\n      0x00\n        /* \"#utility.yul\":13260:13261   */\n      dup1\n        /* \"#utility.yul\":13253:13265   */\n      revert\n        /* \"#utility.yul\":13277:13394   */\n    tag_143:\n        /* \"#utility.yul\":13386:13387   */\n      0x00\n        /* \"#utility.yul\":13383:13384   */\n      dup1\n        /* \"#utility.yul\":13376:13388   */\n      revert\n        /* \"#utility.yul\":13400:13517   */\n    tag_174:\n        /* \"#utility.yul\":13509:13510   */\n      0x00\n        /* \"#utility.yul\":13506:13507   */\n      dup1\n        /* \"#utility.yul\":13499:13511   */\n      revert\n        /* \"#utility.yul\":13523:13640   */\n    tag_167:\n        /* \"#utility.yul\":13632:13633   */\n      0x00\n        /* \"#utility.yul\":13629:13630   */\n      dup1\n        /* \"#utility.yul\":13622:13634   */\n      revert\n        /* \"#utility.yul\":13646:13748   */\n    tag_203:\n        /* \"#utility.yul\":13687:13693   */\n      0x00\n        /* \"#utility.yul\":13738:13740   */\n      0x1f\n        /* \"#utility.yul\":13734:13741   */\n      not\n        /* \"#utility.yul\":13729:13731   */\n      0x1f\n        /* \"#utility.yul\":13722:13727   */\n      dup4\n        /* \"#utility.yul\":13718:13732   */\n      add\n        /* \"#utility.yul\":13714:13742   */\n      and\n        /* \"#utility.yul\":13704:13742   */\n      swap1\n      pop\n        /* \"#utility.yul\":13646:13748   */\n      swap2\n      swap1\n      pop\n      jump\t// out\n        /* \"#utility.yul\":13754:13926   */\n    tag_208:\n        /* \"#utility.yul\":13894:13918   */\n      0x796f75206861766520616c726561647920766f74656400000000000000000000\n        /* \"#utility.yul\":13890:13891   */\n      0x00\n        /* \"#utility.yul\":13882:13888   */\n      dup3\n        /* \"#utility.yul\":13878:13892   */\n      add\n        /* \"#utility.yul\":13871:13919   */\n      mstore\n        /* \"#utility.yul\":13754:13926   */\n      pop\n      jump\t// out\n        /* \"#utility.yul\":13932:14112   */\n    tag_213:\n        /* \"#utility.yul\":14072:14104   */\n      0x6d696e696d756e20436f6e7472627574696f6e206973206e6f74206d65740000\n        /* \"#utility.yul\":14068:14069   */\n      0x00\n        /* \"#utility.yul\":14060:14066   */\n      dup3\n        /* \"#utility.yul\":14056:14070   */\n      add\n        /* \"#utility.yul\":14049:14105   */\n      mstore\n        /* \"#utility.yul\":13932:14112   */\n      pop\n      jump\t// out\n        /* \"#utility.yul\":14118:14287   */\n    tag_218:\n        /* \"#utility.yul\":14258:14279   */\n      0x646561646c696e65206861732070617373656400000000000000000000000000\n        /* \"#utility.yul\":14254:14255   */\n      0x00\n        /* \"#utility.yul\":14246:14252   */\n      dup3\n        /* \"#utility.yul\":14242:14256   */\n      add\n        /* \"#utility.yul\":14235:14280   */\n      mstore\n        /* \"#utility.yul\":14118:14287   */\n      pop\n      jump\t// out\n        /* \"#utility.yul\":14293:14466   */\n    tag_223:\n        /* \"#utility.yul\":14433:14458   */\n      0x796f75206d75737420626520636f6e7472696275746572000000000000000000\n        /* \"#utility.yul\":14429:14430   */\n      0x00\n        /* \"#utility.yul\":14421:14427   */\n      dup3\n        /* \"#utility.yul\":14417:14431   */\n      add\n        /* \"#utility.yul\":14410:14459   */\n      mstore\n        /* \"#utility.yul\":14293:14466   */\n      pop\n      jump\t// out\n        /* \"#utility.yul\":14472:14694   */\n    tag_228:\n        /* \"#utility.yul\":14612:14646   */\n      0x6f6e6c79206d616e616765722063616e2063616c6c20746869732066756e6374\n        /* \"#utility.yul\":14608:14609   */\n      0x00\n        /* \"#utility.yul\":14600:14606   */\n      dup3\n        /* \"#utility.yul\":14596:14610   */\n      add\n        /* \"#utility.yul\":14589:14647   */\n      mstore\n        /* \"#utility.yul\":14681:14686   */\n      0x696f6e0000000000000000000000000000000000000000000000000000000000\n        /* \"#utility.yul\":14676:14678   */\n      0x20\n        /* \"#utility.yul\":14668:14674   */\n      dup3\n        /* \"#utility.yul\":14664:14679   */\n      add\n        /* \"#utility.yul\":14657:14687   */\n      mstore\n        /* \"#utility.yul\":14472:14694   */\n      pop\n      jump\t// out\n        /* \"#utility.yul\":14700:14881   */\n    tag_233:\n        /* \"#utility.yul\":14840:14873   */\n      0x796f7520617265206e6f7420656c696769626c6520666f7220726566756e6400\n        /* \"#utility.yul\":14836:14837   */\n      0x00\n        /* \"#utility.yul\":14828:14834   */\n      dup3\n        /* \"#utility.yul\":14824:14838   */\n      add\n        /* \"#utility.yul\":14817:14874   */\n      mstore\n        /* \"#utility.yul\":14700:14881   */\n      pop\n      jump\t// out\n        /* \"#utility.yul\":14887:15009   */\n    tag_149:\n        /* \"#utility.yul\":14960:14984   */\n      tag_321\n        /* \"#utility.yul\":14978:14983   */\n      dup2\n        /* \"#utility.yul\":14960:14984   */\n      tag_189\n      jump\t// in\n    tag_321:\n        /* \"#utility.yul\":14953:14958   */\n      dup2\n        /* \"#utility.yul\":14950:14985   */\n      eq\n        /* \"#utility.yul\":14940:15003   */\n      tag_322\n      jumpi\n        /* \"#utility.yul\":14999:15000   */\n      0x00\n        /* \"#utility.yul\":14996:14997   */\n      dup1\n        /* \"#utility.yul\":14989:15001   */\n      revert\n        /* \"#utility.yul\":14940:15003   */\n    tag_322:\n        /* \"#utility.yul\":14887:15009   */\n      pop\n      jump\t// out\n        /* \"#utility.yul\":15015:15153   */\n    tag_153:\n        /* \"#utility.yul\":15096:15128   */\n      tag_324\n        /* \"#utility.yul\":15122:15127   */\n      dup2\n        /* \"#utility.yul\":15096:15128   */\n      tag_185\n      jump\t// in\n    tag_324:\n        /* \"#utility.yul\":15089:15094   */\n      dup2\n        /* \"#utility.yul\":15086:15129   */\n      eq\n        /* \"#utility.yul\":15076:15147   */\n      tag_325\n      jumpi\n        /* \"#utility.yul\":15143:15144   */\n      0x00\n        /* \"#utility.yul\":15140:15141   */\n      dup1\n        /* \"#utility.yul\":15133:15145   */\n      revert\n        /* \"#utility.yul\":15076:15147   */\n    tag_325:\n        /* \"#utility.yul\":15015:15153   */\n      pop\n      jump\t// out\n        /* \"#utility.yul\":15159:15281   */\n    tag_163:\n        /* \"#utility.yul\":15232:15256   */\n      tag_327\n        /* \"#utility.yul\":15250:15255   */\n      dup2\n        /* \"#utility.yul\":15232:15256   */\n      tag_237\n      jump\t// in\n    tag_327:\n        /* \"#utility.yul\":15225:15230   */\n      dup2\n        /* \"#utility.yul\":15222:15257   */\n      eq\n        /* \"#utility.yul\":15212:15275   */\n      tag_328\n      jumpi\n        /* \"#utility.yul\":15271:15272   */\n      0x00\n        /* \"#utility.yul\":15268:15269   */\n      dup1\n        /* \"#utility.yul\":15261:15273   */\n      revert\n        /* \"#utility.yul\":15212:15275   */\n    tag_328:\n        /* \"#utility.yul\":15159:15281   */\n      pop\n      jump\t// out\n\n    auxdata: 0xa26469706673582212203a3980548aa2440579b7d3ac124d87e2ac3f7d699c0b96b066ddbe84ea85c26e64736f6c63430008070033\n}\n",
				"bytecode": {
					"linkReferences": {},
					"object": "60806040523480156200001157600080fd5b5060405162001511380380620015118339818101604052810190620000379190620000ba565b8160038190555080426200004c919062000101565b600281905550606460068190555033600160006101000a81548173ffffffffffffffffffffffffffffffffffffffff021916908373ffffffffffffffffffffffffffffffffffffffff1602179055505050620001b6565b600081519050620000b4816200019c565b92915050565b60008060408385031215620000d457620000d362000197565b5b6000620000e485828601620000a3565b9250506020620000f785828601620000a3565b9150509250929050565b60006200010e826200015e565b91506200011b836200015e565b9250827fffffffffffffffffffffffffffffffffffffffffffffffffffffffffffffffff0382111562000153576200015262000168565b5b828201905092915050565b6000819050919050565b7f4e487b7100000000000000000000000000000000000000000000000000000000600052601160045260246000fd5b600080fd5b620001a7816200015e565b8114620001b357600080fd5b50565b61134b80620001c66000396000f3fe6080604052600436106100dd5760003560e01c80635edec2c41161007f578063937e09b111610059578063937e09b11461027f5780639fb42b1f146102aa578063c59ee1dc146102d5578063d4b8399214610300576100dd565b80635edec2c4146102095780636f9fb98a1461021357806381d12c581461023e576100dd565b80633eb7647b116100bb5780633eb7647b14610175578063481c6a751461019e5780634cb6f4a5146101c9578063590e1ae3146101f2576100dd565b806324274ee9146100e257806329dcb0cf1461010d57806334b6646014610138575b600080fd5b3480156100ee57600080fd5b506100f761032b565b6040516101049190610ed7565b60405180910390f35b34801561011957600080fd5b50610122610331565b60405161012f9190610ed7565b60405180910390f35b34801561014457600080fd5b5061015f600480360381019061015a9190610b92565b610337565b60405161016c9190610ed7565b60405180910390f35b34801561018157600080fd5b5061019c60048036038101906101979190610bbf565b61034f565b005b3480156101aa57600080fd5b506101b36104a2565b6040516101c09190610da2565b60405180910390f35b3480156101d557600080fd5b506101f060048036038101906101eb9190610c2e565b6104c8565b005b3480156101fe57600080fd5b5061020761066d565b005b6102116107dc565b005b34801561021f57600080fd5b50610228610935565b6040516102359190610ed7565b60405180910390f35b34801561024a57600080fd5b5061026560048036038101906102609190610c2e565b61093d565b604051610276959493929190610dbd565b60405180910390f35b34801561028b57600080fd5b50610294610a28565b6040516102a19190610ed7565b60405180910390f35b3480156102b657600080fd5b506102bf610a2e565b6040516102cc9190610ed7565b60405180910390f35b3480156102e157600080fd5b506102ea610a34565b6040516102f79190610ed7565b60405180910390f35b34801561030c57600080fd5b50610315610a3a565b6040516103229190610ed7565b60405180910390f35b60055481565b60025481565b60006020528060005260406000206000915090505481565b600160009054906101000a900473ffffffffffffffffffffffffffffffffffffffff1673ffffffffffffffffffffffffffffffffffffffff163373ffffffffffffffffffffffffffffffffffffffff16146103df576040517f08c379a00000000000000000000000000000000000000000000000000000000081526004016103d690610e97565b60405180910390fd5b600060076000600854815260200190815260200160002090506008600081548092919061040b906110b9565b919050555083816000019080519060200190610428929190610a40565b50828160010160006101000a81548173ffffffffffffffffffffffffffffffffffffffff021916908373ffffffffffffffffffffffffffffffffffffffff16021790555081816002018190555060008160030160006101000a81548160ff0219169083151502179055506000816004018190555050505050565b600160009054906101000a900473ffffffffffffffffffffffffffffffffffffffff1681565b60008060003373ffffffffffffffffffffffffffffffffffffffff1673ffffffffffffffffffffffffffffffffffffffff1681526020019081526020016000205411610549576040517f08c379a000000000000000000000000000000000000000000000000000000000815260040161054090610e77565b60405180910390fd5b6000600760008381526020019081526020016000209050600015158160050160003373ffffffffffffffffffffffffffffffffffffffff1673ffffffffffffffffffffffffffffffffffffffff16815260200190815260200160002060009054906101000a900460ff161515146105f5576040517f08c379a00000000000000000000000000000000000000000000000000000000081526004016105ec90610e17565b60405180910390fd5b60018160050160003373ffffffffffffffffffffffffffffffffffffffff1673ffffffffffffffffffffffffffffffffffffffff16815260200190815260200160002060006101000a81548160ff021916908315150217905550806004016000815480929190610664906110b9565b91905055505050565b600254421180156106815750600354600454105b6106c0576040517f08c379a00000000000000000000000000000000000000000000000000000000081526004016106b790610eb7565b60405180910390fd5b60008060003373ffffffffffffffffffffffffffffffffffffffff1673ffffffffffffffffffffffffffffffffffffffff168152602001908152602001600020541161070b57600080fd5b60003390508073ffffffffffffffffffffffffffffffffffffffff166108fc6000803373ffffffffffffffffffffffffffffffffffffffff1673ffffffffffffffffffffffffffffffffffffffff168152602001908152602001600020549081150290604051600060405180830381858888f19350505050158015610794573d6000803e3d6000fd5b5060008060003373ffffffffffffffffffffffffffffffffffffffff1673ffffffffffffffffffffffffffffffffffffffff1681526020019081526020016000208190555050565b6002544210610820576040517f08c379a000000000000000000000000000000000000000000000000000000000815260040161081790610e57565b60405180910390fd5b600654341015610865576040517f08c379a000000000000000000000000000000000000000000000000000000000815260040161085c90610e37565b60405180910390fd5b60008060003373ffffffffffffffffffffffffffffffffffffffff1673ffffffffffffffffffffffffffffffffffffffff1681526020019081526020016000205414156108c557600560008154809291906108bf906110b9565b91905055505b346000803373ffffffffffffffffffffffffffffffffffffffff1673ffffffffffffffffffffffffffffffffffffffff16815260200190815260200160002060008282546109139190610f64565b92505081905550346004600082825461092c9190610f64565b92505081905550565b600047905090565b600760205280600052604060002060009150905080600001805461096090611056565b80601f016020809104026020016040519081016040528092919081815260200182805461098c90611056565b80156109d95780601f106109ae576101008083540402835291602001916109d9565b820191906000526020600020905b8154815290600101906020018083116109bc57829003601f168201915b5050505050908060010160009054906101000a900473ffffffffffffffffffffffffffffffffffffffff16908060020154908060030160009054906101000a900460ff16908060040154905085565b60065481565b60085481565b60045481565b60035481565b828054610a4c90611056565b90600052602060002090601f016020900481019282610a6e5760008555610ab5565b82601f10610a8757805160ff1916838001178555610ab5565b82800160010185558215610ab5579182015b82811115610ab4578251825591602001919060010190610a99565b5b509050610ac29190610ac6565b5090565b5b80821115610adf576000816000905550600101610ac7565b5090565b6000610af6610af184610f17565b610ef2565b905082815260208101848484011115610b1257610b11611194565b5b610b1d848285611014565b509392505050565b600081359050610b34816112d0565b92915050565b600081359050610b49816112e7565b92915050565b600082601f830112610b6457610b6361118f565b5b8135610b74848260208601610ae3565b91505092915050565b600081359050610b8c816112fe565b92915050565b600060208284031215610ba857610ba761119e565b5b6000610bb684828501610b25565b91505092915050565b600080600060608486031215610bd857610bd761119e565b5b600084013567ffffffffffffffff811115610bf657610bf5611199565b5b610c0286828701610b4f565b9350506020610c1386828701610b3a565b9250506040610c2486828701610b7d565b9150509250925092565b600060208284031215610c4457610c4361119e565b5b6000610c5284828501610b7d565b91505092915050565b610c6481610fcc565b82525050565b610c7381610fba565b82525050565b610c8281610fde565b82525050565b6000610c9382610f48565b610c9d8185610f53565b9350610cad818560208601611023565b610cb6816111a3565b840191505092915050565b6000610cce601683610f53565b9150610cd9826111b4565b602082019050919050565b6000610cf1601e83610f53565b9150610cfc826111dd565b602082019050919050565b6000610d14601383610f53565b9150610d1f82611206565b602082019050919050565b6000610d37601783610f53565b9150610d428261122f565b602082019050919050565b6000610d5a602383610f53565b9150610d6582611258565b604082019050919050565b6000610d7d601f83610f53565b9150610d88826112a7565b602082019050919050565b610d9c8161100a565b82525050565b6000602082019050610db76000830184610c6a565b92915050565b600060a0820190508181036000830152610dd78188610c88565b9050610de66020830187610c5b565b610df36040830186610d93565b610e006060830185610c79565b610e0d6080830184610d93565b9695505050505050565b60006020820190508181036000830152610e3081610cc1565b9050919050565b60006020820190508181036000830152610e5081610ce4565b9050919050565b60006020820190508181036000830152610e7081610d07565b9050919050565b60006020820190508181036000830152610e9081610d2a565b9050919050565b60006020820190508181036000830152610eb081610d4d565b9050919050565b60006020820190508181036000830152610ed081610d70565b9050919050565b6000602082019050610eec6000830184610d93565b92915050565b6000610efc610f0d565b9050610f088282611088565b919050565b6000604051905090565b600067ffffffffffffffff821115610f3257610f31611160565b5b610f3b826111a3565b9050602081019050919050565b600081519050919050565b600082825260208201905092915050565b6000610f6f8261100a565b9150610f7a8361100a565b9250827fffffffffffffffffffffffffffffffffffffffffffffffffffffffffffffffff03821115610faf57610fae611102565b5b828201905092915050565b6000610fc582610fea565b9050919050565b6000610fd782610fea565b9050919050565b60008115159050919050565b600073ffffffffffffffffffffffffffffffffffffffff82169050919050565b6000819050919050565b82818337600083830152505050565b60005b83811015611041578082015181840152602081019050611026565b83811115611050576000848401525b50505050565b6000600282049050600182168061106e57607f821691505b6020821081141561108257611081611131565b5b50919050565b611091826111a3565b810181811067ffffffffffffffff821117156110b0576110af611160565b5b80604052505050565b60006110c48261100a565b91507fffffffffffffffffffffffffffffffffffffffffffffffffffffffffffffffff8214156110f7576110f6611102565b5b600182019050919050565b7f4e487b7100000000000000000000000000000000000000000000000000000000600052601160045260246000fd5b7f4e487b7100000000000000000000000000000000000000000000000000000000600052602260045260246000fd5b7f4e487b7100000000000000000000000000000000000000000000000000000000600052604160045260246000fd5b600080fd5b600080fd5b600080fd5b600080fd5b6000601f19601f8301169050919050565b7f796f75206861766520616c726561647920766f74656400000000000000000000600082015250565b7f6d696e696d756e20436f6e7472627574696f6e206973206e6f74206d65740000600082015250565b7f646561646c696e65206861732070617373656400000000000000000000000000600082015250565b7f796f75206d75737420626520636f6e7472696275746572000000000000000000600082015250565b7f6f6e6c79206d616e616765722063616e2063616c6c20746869732066756e637460008201527f696f6e0000000000000000000000000000000000000000000000000000000000602082015250565b7f796f7520617265206e6f7420656c696769626c6520666f7220726566756e6400600082015250565b6112d981610fba565b81146112e457600080fd5b50565b6112f081610fcc565b81146112fb57600080fd5b50565b6113078161100a565b811461131257600080fd5b5056fea26469706673582212203a3980548aa2440579b7d3ac124d87e2ac3f7d699c0b96b066ddbe84ea85c26e64736f6c63430008070033",
					"opcodes": "PUSH1 0x80 PUSH1 0x40 MSTORE CALLVALUE DUP1 ISZERO PUSH3 0x11 JUMPI PUSH1 0x0 DUP1 REVERT JUMPDEST POP PUSH1 0x40 MLOAD PUSH3 0x1511 CODESIZE SUB DUP1 PUSH3 0x1511 DUP4 CODECOPY DUP2 DUP2 ADD PUSH1 0x40 MSTORE DUP2 ADD SWAP1 PUSH3 0x37 SWAP2 SWAP1 PUSH3 0xBA JUMP JUMPDEST DUP2 PUSH1 0x3 DUP2 SWAP1 SSTORE POP DUP1 TIMESTAMP PUSH3 0x4C SWAP2 SWAP1 PUSH3 0x101 JUMP JUMPDEST PUSH1 0x2 DUP2 SWAP1 SSTORE POP PUSH1 0x64 PUSH1 0x6 DUP2 SWAP1 SSTORE POP CALLER PUSH1 0x1 PUSH1 0x0 PUSH2 0x100 EXP DUP2 SLOAD DUP2 PUSH20 0xFFFFFFFFFFFFFFFFFFFFFFFFFFFFFFFFFFFFFFFF MUL NOT AND SWAP1 DUP4 PUSH20 0xFFFFFFFFFFFFFFFFFFFFFFFFFFFFFFFFFFFFFFFF AND MUL OR SWAP1 SSTORE POP POP POP PUSH3 0x1B6 JUMP JUMPDEST PUSH1 0x0 DUP2 MLOAD SWAP1 POP PUSH3 0xB4 DUP2 PUSH3 0x19C JUMP JUMPDEST SWAP3 SWAP2 POP POP JUMP JUMPDEST PUSH1 0x0 DUP1 PUSH1 0x40 DUP4 DUP6 SUB SLT ISZERO PUSH3 0xD4 JUMPI PUSH3 0xD3 PUSH3 0x197 JUMP JUMPDEST JUMPDEST PUSH1 0x0 PUSH3 0xE4 DUP6 DUP3 DUP7 ADD PUSH3 0xA3 JUMP JUMPDEST SWAP3 POP POP PUSH1 0x20 PUSH3 0xF7 DUP6 DUP3 DUP7 ADD PUSH3 0xA3 JUMP JUMPDEST SWAP2 POP POP SWAP3 POP SWAP3 SWAP1 POP JUMP JUMPDEST PUSH1 0x0 PUSH3 0x10E DUP3 PUSH3 0x15E JUMP JUMPDEST SWAP2 POP PUSH3 0x11B DUP4 PUSH3 0x15E JUMP JUMPDEST SWAP3 POP DUP3 PUSH32 0xFFFFFFFFFFFFFFFFFFFFFFFFFFFFFFFFFFFFFFFFFFFFFFFFFFFFFFFFFFFFFFFF SUB DUP3 GT ISZERO PUSH3 0x153 JUMPI PUSH3 0x152 PUSH3 0x168 JUMP JUMPDEST JUMPDEST DUP3 DUP3 ADD SWAP1 POP SWAP3 SWAP2 POP POP JUMP JUMPDEST PUSH1 0x0 DUP2 SWAP1 POP SWAP2 SWAP1 POP JUMP JUMPDEST PUSH32 0x4E487B7100000000000000000000000000000000000000000000000000000000 PUSH1 0x0 MSTORE PUSH1 0x11 PUSH1 0x4 MSTORE PUSH1 0x24 PUSH1 0x0 REVERT JUMPDEST PUSH1 0x0 DUP1 REVERT JUMPDEST PUSH3 0x1A7 DUP2 PUSH3 0x15E JUMP JUMPDEST DUP2 EQ PUSH3 0x1B3 JUMPI PUSH1 0x0 DUP1 REVERT JUMPDEST POP JUMP JUMPDEST PUSH2 0x134B DUP1 PUSH3 0x1C6 PUSH1 0x0 CODECOPY PUSH1 0x0 RETURN INVALID PUSH1 0x80 PUSH1 0x40 MSTORE PUSH1 0x4 CALLDATASIZE LT PUSH2 0xDD JUMPI PUSH1 0x0 CALLDATALOAD PUSH1 0xE0 SHR DUP1 PUSH4 0x5EDEC2C4 GT PUSH2 0x7F JUMPI DUP1 PUSH4 0x937E09B1 GT PUSH2 0x59 JUMPI DUP1 PUSH4 0x937E09B1 EQ PUSH2 0x27F JUMPI DUP1 PUSH4 0x9FB42B1F EQ PUSH2 0x2AA JUMPI DUP1 PUSH4 0xC59EE1DC EQ PUSH2 0x2D5 JUMPI DUP1 PUSH4 0xD4B83992 EQ PUSH2 0x300 JUMPI PUSH2 0xDD JUMP JUMPDEST DUP1 PUSH4 0x5EDEC2C4 EQ PUSH2 0x209 JUMPI DUP1 PUSH4 0x6F9FB98A EQ PUSH2 0x213 JUMPI DUP1 PUSH4 0x81D12C58 EQ PUSH2 0x23E JUMPI PUSH2 0xDD JUMP JUMPDEST DUP1 PUSH4 0x3EB7647B GT PUSH2 0xBB JUMPI DUP1 PUSH4 0x3EB7647B EQ PUSH2 0x175 JUMPI DUP1 PUSH4 0x481C6A75 EQ PUSH2 0x19E JUMPI DUP1 PUSH4 0x4CB6F4A5 EQ PUSH2 0x1C9 JUMPI DUP1 PUSH4 0x590E1AE3 EQ PUSH2 0x1F2 JUMPI PUSH2 0xDD JUMP JUMPDEST DUP1 PUSH4 0x24274EE9 EQ PUSH2 0xE2 JUMPI DUP1 PUSH4 0x29DCB0CF EQ PUSH2 0x10D JUMPI DUP1 PUSH4 0x34B66460 EQ PUSH2 0x138 JUMPI JUMPDEST PUSH1 0x0 DUP1 REVERT JUMPDEST CALLVALUE DUP1 ISZERO PUSH2 0xEE JUMPI PUSH1 0x0 DUP1 REVERT JUMPDEST POP PUSH2 0xF7 PUSH2 0x32B JUMP JUMPDEST PUSH1 0x40 MLOAD PUSH2 0x104 SWAP2 SWAP1 PUSH2 0xED7 JUMP JUMPDEST PUSH1 0x40 MLOAD DUP1 SWAP2 SUB SWAP1 RETURN JUMPDEST CALLVALUE DUP1 ISZERO PUSH2 0x119 JUMPI PUSH1 0x0 DUP1 REVERT JUMPDEST POP PUSH2 0x122 PUSH2 0x331 JUMP JUMPDEST PUSH1 0x40 MLOAD PUSH2 0x12F SWAP2 SWAP1 PUSH2 0xED7 JUMP JUMPDEST PUSH1 0x40 MLOAD DUP1 SWAP2 SUB SWAP1 RETURN JUMPDEST CALLVALUE DUP1 ISZERO PUSH2 0x144 JUMPI PUSH1 0x0 DUP1 REVERT JUMPDEST POP PUSH2 0x15F PUSH1 0x4 DUP1 CALLDATASIZE SUB DUP2 ADD SWAP1 PUSH2 0x15A SWAP2 SWAP1 PUSH2 0xB92 JUMP JUMPDEST PUSH2 0x337 JUMP JUMPDEST PUSH1 0x40 MLOAD PUSH2 0x16C SWAP2 SWAP1 PUSH2 0xED7 JUMP JUMPDEST PUSH1 0x40 MLOAD DUP1 SWAP2 SUB SWAP1 RETURN JUMPDEST CALLVALUE DUP1 ISZERO PUSH2 0x181 JUMPI PUSH1 0x0 DUP1 REVERT JUMPDEST POP PUSH2 0x19C PUSH1 0x4 DUP1 CALLDATASIZE SUB DUP2 ADD SWAP1 PUSH2 0x197 SWAP2 SWAP1 PUSH2 0xBBF JUMP JUMPDEST PUSH2 0x34F JUMP JUMPDEST STOP JUMPDEST CALLVALUE DUP1 ISZERO PUSH2 0x1AA JUMPI PUSH1 0x0 DUP1 REVERT JUMPDEST POP PUSH2 0x1B3 PUSH2 0x4A2 JUMP JUMPDEST PUSH1 0x40 MLOAD PUSH2 0x1C0 SWAP2 SWAP1 PUSH2 0xDA2 JUMP JUMPDEST PUSH1 0x40 MLOAD DUP1 SWAP2 SUB SWAP1 RETURN JUMPDEST CALLVALUE DUP1 ISZERO PUSH2 0x1D5 JUMPI PUSH1 0x0 DUP1 REVERT JUMPDEST POP PUSH2 0x1F0 PUSH1 0x4 DUP1 CALLDATASIZE SUB DUP2 ADD SWAP1 PUSH2 0x1EB SWAP2 SWAP1 PUSH2 0xC2E JUMP JUMPDEST PUSH2 0x4C8 JUMP JUMPDEST STOP JUMPDEST CALLVALUE DUP1 ISZERO PUSH2 0x1FE JUMPI PUSH1 0x0 DUP1 REVERT JUMPDEST POP PUSH2 0x207 PUSH2 0x66D JUMP JUMPDEST STOP JUMPDEST PUSH2 0x211 PUSH2 0x7DC JUMP JUMPDEST STOP JUMPDEST CALLVALUE DUP1 ISZERO PUSH2 0x21F JUMPI PUSH1 0x0 DUP1 REVERT JUMPDEST POP PUSH2 0x228 PUSH2 0x935 JUMP JUMPDEST PUSH1 0x40 MLOAD PUSH2 0x235 SWAP2 SWAP1 PUSH2 0xED7 JUMP JUMPDEST PUSH1 0x40 MLOAD DUP1 SWAP2 SUB SWAP1 RETURN JUMPDEST CALLVALUE DUP1 ISZERO PUSH2 0x24A JUMPI PUSH1 0x0 DUP1 REVERT JUMPDEST POP PUSH2 0x265 PUSH1 0x4 DUP1 CALLDATASIZE SUB DUP2 ADD SWAP1 PUSH2 0x260 SWAP2 SWAP1 PUSH2 0xC2E JUMP JUMPDEST PUSH2 0x93D JUMP JUMPDEST PUSH1 0x40 MLOAD PUSH2 0x276 SWAP6 SWAP5 SWAP4 SWAP3 SWAP2 SWAP1 PUSH2 0xDBD JUMP JUMPDEST PUSH1 0x40 MLOAD DUP1 SWAP2 SUB SWAP1 RETURN JUMPDEST CALLVALUE DUP1 ISZERO PUSH2 0x28B JUMPI PUSH1 0x0 DUP1 REVERT JUMPDEST POP PUSH2 0x294 PUSH2 0xA28 JUMP JUMPDEST PUSH1 0x40 MLOAD PUSH2 0x2A1 SWAP2 SWAP1 PUSH2 0xED7 JUMP JUMPDEST PUSH1 0x40 MLOAD DUP1 SWAP2 SUB SWAP1 RETURN JUMPDEST CALLVALUE DUP1 ISZERO PUSH2 0x2B6 JUMPI PUSH1 0x0 DUP1 REVERT JUMPDEST POP PUSH2 0x2BF PUSH2 0xA2E JUMP JUMPDEST PUSH1 0x40 MLOAD PUSH2 0x2CC SWAP2 SWAP1 PUSH2 0xED7 JUMP JUMPDEST PUSH1 0x40 MLOAD DUP1 SWAP2 SUB SWAP1 RETURN JUMPDEST CALLVALUE DUP1 ISZERO PUSH2 0x2E1 JUMPI PUSH1 0x0 DUP1 REVERT JUMPDEST POP PUSH2 0x2EA PUSH2 0xA34 JUMP JUMPDEST PUSH1 0x40 MLOAD PUSH2 0x2F7 SWAP2 SWAP1 PUSH2 0xED7 JUMP JUMPDEST PUSH1 0x40 MLOAD DUP1 SWAP2 SUB SWAP1 RETURN JUMPDEST CALLVALUE DUP1 ISZERO PUSH2 0x30C JUMPI PUSH1 0x0 DUP1 REVERT JUMPDEST POP PUSH2 0x315 PUSH2 0xA3A JUMP JUMPDEST PUSH1 0x40 MLOAD PUSH2 0x322 SWAP2 SWAP1 PUSH2 0xED7 JUMP JUMPDEST PUSH1 0x40 MLOAD DUP1 SWAP2 SUB SWAP1 RETURN JUMPDEST PUSH1 0x5 SLOAD DUP2 JUMP JUMPDEST PUSH1 0x2 SLOAD DUP2 JUMP JUMPDEST PUSH1 0x0 PUSH1 0x20 MSTORE DUP1 PUSH1 0x0 MSTORE PUSH1 0x40 PUSH1 0x0 KECCAK256 PUSH1 0x0 SWAP2 POP SWAP1 POP SLOAD DUP2 JUMP JUMPDEST PUSH1 0x1 PUSH1 0x0 SWAP1 SLOAD SWAP1 PUSH2 0x100 EXP SWAP1 DIV PUSH20 0xFFFFFFFFFFFFFFFFFFFFFFFFFFFFFFFFFFFFFFFF AND PUSH20 0xFFFFFFFFFFFFFFFFFFFFFFFFFFFFFFFFFFFFFFFF AND CALLER PUSH20 0xFFFFFFFFFFFFFFFFFFFFFFFFFFFFFFFFFFFFFFFF AND EQ PUSH2 0x3DF JUMPI PUSH1 0x40 MLOAD PUSH32 0x8C379A000000000000000000000000000000000000000000000000000000000 DUP2 MSTORE PUSH1 0x4 ADD PUSH2 0x3D6 SWAP1 PUSH2 0xE97 JUMP JUMPDEST PUSH1 0x40 MLOAD DUP1 SWAP2 SUB SWAP1 REVERT JUMPDEST PUSH1 0x0 PUSH1 0x7 PUSH1 0x0 PUSH1 0x8 SLOAD DUP2 MSTORE PUSH1 0x20 ADD SWAP1 DUP2 MSTORE PUSH1 0x20 ADD PUSH1 0x0 KECCAK256 SWAP1 POP PUSH1 0x8 PUSH1 0x0 DUP2 SLOAD DUP1 SWAP3 SWAP2 SWAP1 PUSH2 0x40B SWAP1 PUSH2 0x10B9 JUMP JUMPDEST SWAP2 SWAP1 POP SSTORE POP DUP4 DUP2 PUSH1 0x0 ADD SWAP1 DUP1 MLOAD SWAP1 PUSH1 0x20 ADD SWAP1 PUSH2 0x428 SWAP3 SWAP2 SWAP1 PUSH2 0xA40 JUMP JUMPDEST POP DUP3 DUP2 PUSH1 0x1 ADD PUSH1 0x0 PUSH2 0x100 EXP DUP2 SLOAD DUP2 PUSH20 0xFFFFFFFFFFFFFFFFFFFFFFFFFFFFFFFFFFFFFFFF MUL NOT AND SWAP1 DUP4 PUSH20 0xFFFFFFFFFFFFFFFFFFFFFFFFFFFFFFFFFFFFFFFF AND MUL OR SWAP1 SSTORE POP DUP2 DUP2 PUSH1 0x2 ADD DUP2 SWAP1 SSTORE POP PUSH1 0x0 DUP2 PUSH1 0x3 ADD PUSH1 0x0 PUSH2 0x100 EXP DUP2 SLOAD DUP2 PUSH1 0xFF MUL NOT AND SWAP1 DUP4 ISZERO ISZERO MUL OR SWAP1 SSTORE POP PUSH1 0x0 DUP2 PUSH1 0x4 ADD DUP2 SWAP1 SSTORE POP POP POP POP POP JUMP JUMPDEST PUSH1 0x1 PUSH1 0x0 SWAP1 SLOAD SWAP1 PUSH2 0x100 EXP SWAP1 DIV PUSH20 0xFFFFFFFFFFFFFFFFFFFFFFFFFFFFFFFFFFFFFFFF AND DUP2 JUMP JUMPDEST PUSH1 0x0 DUP1 PUSH1 0x0 CALLER PUSH20 0xFFFFFFFFFFFFFFFFFFFFFFFFFFFFFFFFFFFFFFFF AND PUSH20 0xFFFFFFFFFFFFFFFFFFFFFFFFFFFFFFFFFFFFFFFF AND DUP2 MSTORE PUSH1 0x20 ADD SWAP1 DUP2 MSTORE PUSH1 0x20 ADD PUSH1 0x0 KECCAK256 SLOAD GT PUSH2 0x549 JUMPI PUSH1 0x40 MLOAD PUSH32 0x8C379A000000000000000000000000000000000000000000000000000000000 DUP2 MSTORE PUSH1 0x4 ADD PUSH2 0x540 SWAP1 PUSH2 0xE77 JUMP JUMPDEST PUSH1 0x40 MLOAD DUP1 SWAP2 SUB SWAP1 REVERT JUMPDEST PUSH1 0x0 PUSH1 0x7 PUSH1 0x0 DUP4 DUP2 MSTORE PUSH1 0x20 ADD SWAP1 DUP2 MSTORE PUSH1 0x20 ADD PUSH1 0x0 KECCAK256 SWAP1 POP PUSH1 0x0 ISZERO ISZERO DUP2 PUSH1 0x5 ADD PUSH1 0x0 CALLER PUSH20 0xFFFFFFFFFFFFFFFFFFFFFFFFFFFFFFFFFFFFFFFF AND PUSH20 0xFFFFFFFFFFFFFFFFFFFFFFFFFFFFFFFFFFFFFFFF AND DUP2 MSTORE PUSH1 0x20 ADD SWAP1 DUP2 MSTORE PUSH1 0x20 ADD PUSH1 0x0 KECCAK256 PUSH1 0x0 SWAP1 SLOAD SWAP1 PUSH2 0x100 EXP SWAP1 DIV PUSH1 0xFF AND ISZERO ISZERO EQ PUSH2 0x5F5 JUMPI PUSH1 0x40 MLOAD PUSH32 0x8C379A000000000000000000000000000000000000000000000000000000000 DUP2 MSTORE PUSH1 0x4 ADD PUSH2 0x5EC SWAP1 PUSH2 0xE17 JUMP JUMPDEST PUSH1 0x40 MLOAD DUP1 SWAP2 SUB SWAP1 REVERT JUMPDEST PUSH1 0x1 DUP2 PUSH1 0x5 ADD PUSH1 0x0 CALLER PUSH20 0xFFFFFFFFFFFFFFFFFFFFFFFFFFFFFFFFFFFFFFFF AND PUSH20 0xFFFFFFFFFFFFFFFFFFFFFFFFFFFFFFFFFFFFFFFF AND DUP2 MSTORE PUSH1 0x20 ADD SWAP1 DUP2 MSTORE PUSH1 0x20 ADD PUSH1 0x0 KECCAK256 PUSH1 0x0 PUSH2 0x100 EXP DUP2 SLOAD DUP2 PUSH1 0xFF MUL NOT AND SWAP1 DUP4 ISZERO ISZERO MUL OR SWAP1 SSTORE POP DUP1 PUSH1 0x4 ADD PUSH1 0x0 DUP2 SLOAD DUP1 SWAP3 SWAP2 SWAP1 PUSH2 0x664 SWAP1 PUSH2 0x10B9 JUMP JUMPDEST SWAP2 SWAP1 POP SSTORE POP POP POP JUMP JUMPDEST PUSH1 0x2 SLOAD TIMESTAMP GT DUP1 ISZERO PUSH2 0x681 JUMPI POP PUSH1 0x3 SLOAD PUSH1 0x4 SLOAD LT JUMPDEST PUSH2 0x6C0 JUMPI PUSH1 0x40 MLOAD PUSH32 0x8C379A000000000000000000000000000000000000000000000000000000000 DUP2 MSTORE PUSH1 0x4 ADD PUSH2 0x6B7 SWAP1 PUSH2 0xEB7 JUMP JUMPDEST PUSH1 0x40 MLOAD DUP1 SWAP2 SUB SWAP1 REVERT JUMPDEST PUSH1 0x0 DUP1 PUSH1 0x0 CALLER PUSH20 0xFFFFFFFFFFFFFFFFFFFFFFFFFFFFFFFFFFFFFFFF AND PUSH20 0xFFFFFFFFFFFFFFFFFFFFFFFFFFFFFFFFFFFFFFFF AND DUP2 MSTORE PUSH1 0x20 ADD SWAP1 DUP2 MSTORE PUSH1 0x20 ADD PUSH1 0x0 KECCAK256 SLOAD GT PUSH2 0x70B JUMPI PUSH1 0x0 DUP1 REVERT JUMPDEST PUSH1 0x0 CALLER SWAP1 POP DUP1 PUSH20 0xFFFFFFFFFFFFFFFFFFFFFFFFFFFFFFFFFFFFFFFF AND PUSH2 0x8FC PUSH1 0x0 DUP1 CALLER PUSH20 0xFFFFFFFFFFFFFFFFFFFFFFFFFFFFFFFFFFFFFFFF AND PUSH20 0xFFFFFFFFFFFFFFFFFFFFFFFFFFFFFFFFFFFFFFFF AND DUP2 MSTORE PUSH1 0x20 ADD SWAP1 DUP2 MSTORE PUSH1 0x20 ADD PUSH1 0x0 KECCAK256 SLOAD SWAP1 DUP2 ISZERO MUL SWAP1 PUSH1 0x40 MLOAD PUSH1 0x0 PUSH1 0x40 MLOAD DUP1 DUP4 SUB DUP2 DUP6 DUP9 DUP9 CALL SWAP4 POP POP POP POP ISZERO DUP1 ISZERO PUSH2 0x794 JUMPI RETURNDATASIZE PUSH1 0x0 DUP1 RETURNDATACOPY RETURNDATASIZE PUSH1 0x0 REVERT JUMPDEST POP PUSH1 0x0 DUP1 PUSH1 0x0 CALLER PUSH20 0xFFFFFFFFFFFFFFFFFFFFFFFFFFFFFFFFFFFFFFFF AND PUSH20 0xFFFFFFFFFFFFFFFFFFFFFFFFFFFFFFFFFFFFFFFF AND DUP2 MSTORE PUSH1 0x20 ADD SWAP1 DUP2 MSTORE PUSH1 0x20 ADD PUSH1 0x0 KECCAK256 DUP2 SWAP1 SSTORE POP POP JUMP JUMPDEST PUSH1 0x2 SLOAD TIMESTAMP LT PUSH2 0x820 JUMPI PUSH1 0x40 MLOAD PUSH32 0x8C379A000000000000000000000000000000000000000000000000000000000 DUP2 MSTORE PUSH1 0x4 ADD PUSH2 0x817 SWAP1 PUSH2 0xE57 JUMP JUMPDEST PUSH1 0x40 MLOAD DUP1 SWAP2 SUB SWAP1 REVERT JUMPDEST PUSH1 0x6 SLOAD CALLVALUE LT ISZERO PUSH2 0x865 JUMPI PUSH1 0x40 MLOAD PUSH32 0x8C379A000000000000000000000000000000000000000000000000000000000 DUP2 MSTORE PUSH1 0x4 ADD PUSH2 0x85C SWAP1 PUSH2 0xE37 JUMP JUMPDEST PUSH1 0x40 MLOAD DUP1 SWAP2 SUB SWAP1 REVERT JUMPDEST PUSH1 0x0 DUP1 PUSH1 0x0 CALLER PUSH20 0xFFFFFFFFFFFFFFFFFFFFFFFFFFFFFFFFFFFFFFFF AND PUSH20 0xFFFFFFFFFFFFFFFFFFFFFFFFFFFFFFFFFFFFFFFF AND DUP2 MSTORE PUSH1 0x20 ADD SWAP1 DUP2 MSTORE PUSH1 0x20 ADD PUSH1 0x0 KECCAK256 SLOAD EQ ISZERO PUSH2 0x8C5 JUMPI PUSH1 0x5 PUSH1 0x0 DUP2 SLOAD DUP1 SWAP3 SWAP2 SWAP1 PUSH2 0x8BF SWAP1 PUSH2 0x10B9 JUMP JUMPDEST SWAP2 SWAP1 POP SSTORE POP JUMPDEST CALLVALUE PUSH1 0x0 DUP1 CALLER PUSH20 0xFFFFFFFFFFFFFFFFFFFFFFFFFFFFFFFFFFFFFFFF AND PUSH20 0xFFFFFFFFFFFFFFFFFFFFFFFFFFFFFFFFFFFFFFFF AND DUP2 MSTORE PUSH1 0x20 ADD SWAP1 DUP2 MSTORE PUSH1 0x20 ADD PUSH1 0x0 KECCAK256 PUSH1 0x0 DUP3 DUP3 SLOAD PUSH2 0x913 SWAP2 SWAP1 PUSH2 0xF64 JUMP JUMPDEST SWAP3 POP POP DUP2 SWAP1 SSTORE POP CALLVALUE PUSH1 0x4 PUSH1 0x0 DUP3 DUP3 SLOAD PUSH2 0x92C SWAP2 SWAP1 PUSH2 0xF64 JUMP JUMPDEST SWAP3 POP POP DUP2 SWAP1 SSTORE POP JUMP JUMPDEST PUSH1 0x0 SELFBALANCE SWAP1 POP SWAP1 JUMP JUMPDEST PUSH1 0x7 PUSH1 0x20 MSTORE DUP1 PUSH1 0x0 MSTORE PUSH1 0x40 PUSH1 0x0 KECCAK256 PUSH1 0x0 SWAP2 POP SWAP1 POP DUP1 PUSH1 0x0 ADD DUP1 SLOAD PUSH2 0x960 SWAP1 PUSH2 0x1056 JUMP JUMPDEST DUP1 PUSH1 0x1F ADD PUSH1 0x20 DUP1 SWAP2 DIV MUL PUSH1 0x20 ADD PUSH1 0x40 MLOAD SWAP1 DUP2 ADD PUSH1 0x40 MSTORE DUP1 SWAP3 SWAP2 SWAP1 DUP2 DUP2 MSTORE PUSH1 0x20 ADD DUP3 DUP1 SLOAD PUSH2 0x98C SWAP1 PUSH2 0x1056 JUMP JUMPDEST DUP1 ISZERO PUSH2 0x9D9 JUMPI DUP1 PUSH1 0x1F LT PUSH2 0x9AE JUMPI PUSH2 0x100 DUP1 DUP4 SLOAD DIV MUL DUP4 MSTORE SWAP2 PUSH1 0x20 ADD SWAP2 PUSH2 0x9D9 JUMP JUMPDEST DUP3 ADD SWAP2 SWAP1 PUSH1 0x0 MSTORE PUSH1 0x20 PUSH1 0x0 KECCAK256 SWAP1 JUMPDEST DUP2 SLOAD DUP2 MSTORE SWAP1 PUSH1 0x1 ADD SWAP1 PUSH1 0x20 ADD DUP1 DUP4 GT PUSH2 0x9BC JUMPI DUP3 SWAP1 SUB PUSH1 0x1F AND DUP3 ADD SWAP2 JUMPDEST POP POP POP POP POP SWAP1 DUP1 PUSH1 0x1 ADD PUSH1 0x0 SWAP1 SLOAD SWAP1 PUSH2 0x100 EXP SWAP1 DIV PUSH20 0xFFFFFFFFFFFFFFFFFFFFFFFFFFFFFFFFFFFFFFFF AND SWAP1 DUP1 PUSH1 0x2 ADD SLOAD SWAP1 DUP1 PUSH1 0x3 ADD PUSH1 0x0 SWAP1 SLOAD SWAP1 PUSH2 0x100 EXP SWAP1 DIV PUSH1 0xFF AND SWAP1 DUP1 PUSH1 0x4 ADD SLOAD SWAP1 POP DUP6 JUMP JUMPDEST PUSH1 0x6 SLOAD DUP2 JUMP JUMPDEST PUSH1 0x8 SLOAD DUP2 JUMP JUMPDEST PUSH1 0x4 SLOAD DUP2 JUMP JUMPDEST PUSH1 0x3 SLOAD DUP2 JUMP JUMPDEST DUP3 DUP1 SLOAD PUSH2 0xA4C SWAP1 PUSH2 0x1056 JUMP JUMPDEST SWAP1 PUSH1 0x0 MSTORE PUSH1 0x20 PUSH1 0x0 KECCAK256 SWAP1 PUSH1 0x1F ADD PUSH1 0x20 SWAP1 DIV DUP2 ADD SWAP3 DUP3 PUSH2 0xA6E JUMPI PUSH1 0x0 DUP6 SSTORE PUSH2 0xAB5 JUMP JUMPDEST DUP3 PUSH1 0x1F LT PUSH2 0xA87 JUMPI DUP1 MLOAD PUSH1 0xFF NOT AND DUP4 DUP1 ADD OR DUP6 SSTORE PUSH2 0xAB5 JUMP JUMPDEST DUP3 DUP1 ADD PUSH1 0x1 ADD DUP6 SSTORE DUP3 ISZERO PUSH2 0xAB5 JUMPI SWAP2 DUP3 ADD JUMPDEST DUP3 DUP2 GT ISZERO PUSH2 0xAB4 JUMPI DUP3 MLOAD DUP3 SSTORE SWAP2 PUSH1 0x20 ADD SWAP2 SWAP1 PUSH1 0x1 ADD SWAP1 PUSH2 0xA99 JUMP JUMPDEST JUMPDEST POP SWAP1 POP PUSH2 0xAC2 SWAP2 SWAP1 PUSH2 0xAC6 JUMP JUMPDEST POP SWAP1 JUMP JUMPDEST JUMPDEST DUP1 DUP3 GT ISZERO PUSH2 0xADF JUMPI PUSH1 0x0 DUP2 PUSH1 0x0 SWAP1 SSTORE POP PUSH1 0x1 ADD PUSH2 0xAC7 JUMP JUMPDEST POP SWAP1 JUMP JUMPDEST PUSH1 0x0 PUSH2 0xAF6 PUSH2 0xAF1 DUP5 PUSH2 0xF17 JUMP JUMPDEST PUSH2 0xEF2 JUMP JUMPDEST SWAP1 POP DUP3 DUP2 MSTORE PUSH1 0x20 DUP2 ADD DUP5 DUP5 DUP5 ADD GT ISZERO PUSH2 0xB12 JUMPI PUSH2 0xB11 PUSH2 0x1194 JUMP JUMPDEST JUMPDEST PUSH2 0xB1D DUP5 DUP3 DUP6 PUSH2 0x1014 JUMP JUMPDEST POP SWAP4 SWAP3 POP POP POP JUMP JUMPDEST PUSH1 0x0 DUP2 CALLDATALOAD SWAP1 POP PUSH2 0xB34 DUP2 PUSH2 0x12D0 JUMP JUMPDEST SWAP3 SWAP2 POP POP JUMP JUMPDEST PUSH1 0x0 DUP2 CALLDATALOAD SWAP1 POP PUSH2 0xB49 DUP2 PUSH2 0x12E7 JUMP JUMPDEST SWAP3 SWAP2 POP POP JUMP JUMPDEST PUSH1 0x0 DUP3 PUSH1 0x1F DUP4 ADD SLT PUSH2 0xB64 JUMPI PUSH2 0xB63 PUSH2 0x118F JUMP JUMPDEST JUMPDEST DUP2 CALLDATALOAD PUSH2 0xB74 DUP5 DUP3 PUSH1 0x20 DUP7 ADD PUSH2 0xAE3 JUMP JUMPDEST SWAP2 POP POP SWAP3 SWAP2 POP POP JUMP JUMPDEST PUSH1 0x0 DUP2 CALLDATALOAD SWAP1 POP PUSH2 0xB8C DUP2 PUSH2 0x12FE JUMP JUMPDEST SWAP3 SWAP2 POP POP JUMP JUMPDEST PUSH1 0x0 PUSH1 0x20 DUP3 DUP5 SUB SLT ISZERO PUSH2 0xBA8 JUMPI PUSH2 0xBA7 PUSH2 0x119E JUMP JUMPDEST JUMPDEST PUSH1 0x0 PUSH2 0xBB6 DUP5 DUP3 DUP6 ADD PUSH2 0xB25 JUMP JUMPDEST SWAP2 POP POP SWAP3 SWAP2 POP POP JUMP JUMPDEST PUSH1 0x0 DUP1 PUSH1 0x0 PUSH1 0x60 DUP5 DUP7 SUB SLT ISZERO PUSH2 0xBD8 JUMPI PUSH2 0xBD7 PUSH2 0x119E JUMP JUMPDEST JUMPDEST PUSH1 0x0 DUP5 ADD CALLDATALOAD PUSH8 0xFFFFFFFFFFFFFFFF DUP2 GT ISZERO PUSH2 0xBF6 JUMPI PUSH2 0xBF5 PUSH2 0x1199 JUMP JUMPDEST JUMPDEST PUSH2 0xC02 DUP7 DUP3 DUP8 ADD PUSH2 0xB4F JUMP JUMPDEST SWAP4 POP POP PUSH1 0x20 PUSH2 0xC13 DUP7 DUP3 DUP8 ADD PUSH2 0xB3A JUMP JUMPDEST SWAP3 POP POP PUSH1 0x40 PUSH2 0xC24 DUP7 DUP3 DUP8 ADD PUSH2 0xB7D JUMP JUMPDEST SWAP2 POP POP SWAP3 POP SWAP3 POP SWAP3 JUMP JUMPDEST PUSH1 0x0 PUSH1 0x20 DUP3 DUP5 SUB SLT ISZERO PUSH2 0xC44 JUMPI PUSH2 0xC43 PUSH2 0x119E JUMP JUMPDEST JUMPDEST PUSH1 0x0 PUSH2 0xC52 DUP5 DUP3 DUP6 ADD PUSH2 0xB7D JUMP JUMPDEST SWAP2 POP POP SWAP3 SWAP2 POP POP JUMP JUMPDEST PUSH2 0xC64 DUP2 PUSH2 0xFCC JUMP JUMPDEST DUP3 MSTORE POP POP JUMP JUMPDEST PUSH2 0xC73 DUP2 PUSH2 0xFBA JUMP JUMPDEST DUP3 MSTORE POP POP JUMP JUMPDEST PUSH2 0xC82 DUP2 PUSH2 0xFDE JUMP JUMPDEST DUP3 MSTORE POP POP JUMP JUMPDEST PUSH1 0x0 PUSH2 0xC93 DUP3 PUSH2 0xF48 JUMP JUMPDEST PUSH2 0xC9D DUP2 DUP6 PUSH2 0xF53 JUMP JUMPDEST SWAP4 POP PUSH2 0xCAD DUP2 DUP6 PUSH1 0x20 DUP7 ADD PUSH2 0x1023 JUMP JUMPDEST PUSH2 0xCB6 DUP2 PUSH2 0x11A3 JUMP JUMPDEST DUP5 ADD SWAP2 POP POP SWAP3 SWAP2 POP POP JUMP JUMPDEST PUSH1 0x0 PUSH2 0xCCE PUSH1 0x16 DUP4 PUSH2 0xF53 JUMP JUMPDEST SWAP2 POP PUSH2 0xCD9 DUP3 PUSH2 0x11B4 JUMP JUMPDEST PUSH1 0x20 DUP3 ADD SWAP1 POP SWAP2 SWAP1 POP JUMP JUMPDEST PUSH1 0x0 PUSH2 0xCF1 PUSH1 0x1E DUP4 PUSH2 0xF53 JUMP JUMPDEST SWAP2 POP PUSH2 0xCFC DUP3 PUSH2 0x11DD JUMP JUMPDEST PUSH1 0x20 DUP3 ADD SWAP1 POP SWAP2 SWAP1 POP JUMP JUMPDEST PUSH1 0x0 PUSH2 0xD14 PUSH1 0x13 DUP4 PUSH2 0xF53 JUMP JUMPDEST SWAP2 POP PUSH2 0xD1F DUP3 PUSH2 0x1206 JUMP JUMPDEST PUSH1 0x20 DUP3 ADD SWAP1 POP SWAP2 SWAP1 POP JUMP JUMPDEST PUSH1 0x0 PUSH2 0xD37 PUSH1 0x17 DUP4 PUSH2 0xF53 JUMP JUMPDEST SWAP2 POP PUSH2 0xD42 DUP3 PUSH2 0x122F JUMP JUMPDEST PUSH1 0x20 DUP3 ADD SWAP1 POP SWAP2 SWAP1 POP JUMP JUMPDEST PUSH1 0x0 PUSH2 0xD5A PUSH1 0x23 DUP4 PUSH2 0xF53 JUMP JUMPDEST SWAP2 POP PUSH2 0xD65 DUP3 PUSH2 0x1258 JUMP JUMPDEST PUSH1 0x40 DUP3 ADD SWAP1 POP SWAP2 SWAP1 POP JUMP JUMPDEST PUSH1 0x0 PUSH2 0xD7D PUSH1 0x1F DUP4 PUSH2 0xF53 JUMP JUMPDEST SWAP2 POP PUSH2 0xD88 DUP3 PUSH2 0x12A7 JUMP JUMPDEST PUSH1 0x20 DUP3 ADD SWAP1 POP SWAP2 SWAP1 POP JUMP JUMPDEST PUSH2 0xD9C DUP2 PUSH2 0x100A JUMP JUMPDEST DUP3 MSTORE POP POP JUMP JUMPDEST PUSH1 0x0 PUSH1 0x20 DUP3 ADD SWAP1 POP PUSH2 0xDB7 PUSH1 0x0 DUP4 ADD DUP5 PUSH2 0xC6A JUMP JUMPDEST SWAP3 SWAP2 POP POP JUMP JUMPDEST PUSH1 0x0 PUSH1 0xA0 DUP3 ADD SWAP1 POP DUP2 DUP2 SUB PUSH1 0x0 DUP4 ADD MSTORE PUSH2 0xDD7 DUP2 DUP9 PUSH2 0xC88 JUMP JUMPDEST SWAP1 POP PUSH2 0xDE6 PUSH1 0x20 DUP4 ADD DUP8 PUSH2 0xC5B JUMP JUMPDEST PUSH2 0xDF3 PUSH1 0x40 DUP4 ADD DUP7 PUSH2 0xD93 JUMP JUMPDEST PUSH2 0xE00 PUSH1 0x60 DUP4 ADD DUP6 PUSH2 0xC79 JUMP JUMPDEST PUSH2 0xE0D PUSH1 0x80 DUP4 ADD DUP5 PUSH2 0xD93 JUMP JUMPDEST SWAP7 SWAP6 POP POP POP POP POP POP JUMP JUMPDEST PUSH1 0x0 PUSH1 0x20 DUP3 ADD SWAP1 POP DUP2 DUP2 SUB PUSH1 0x0 DUP4 ADD MSTORE PUSH2 0xE30 DUP2 PUSH2 0xCC1 JUMP JUMPDEST SWAP1 POP SWAP2 SWAP1 POP JUMP JUMPDEST PUSH1 0x0 PUSH1 0x20 DUP3 ADD SWAP1 POP DUP2 DUP2 SUB PUSH1 0x0 DUP4 ADD MSTORE PUSH2 0xE50 DUP2 PUSH2 0xCE4 JUMP JUMPDEST SWAP1 POP SWAP2 SWAP1 POP JUMP JUMPDEST PUSH1 0x0 PUSH1 0x20 DUP3 ADD SWAP1 POP DUP2 DUP2 SUB PUSH1 0x0 DUP4 ADD MSTORE PUSH2 0xE70 DUP2 PUSH2 0xD07 JUMP JUMPDEST SWAP1 POP SWAP2 SWAP1 POP JUMP JUMPDEST PUSH1 0x0 PUSH1 0x20 DUP3 ADD SWAP1 POP DUP2 DUP2 SUB PUSH1 0x0 DUP4 ADD MSTORE PUSH2 0xE90 DUP2 PUSH2 0xD2A JUMP JUMPDEST SWAP1 POP SWAP2 SWAP1 POP JUMP JUMPDEST PUSH1 0x0 PUSH1 0x20 DUP3 ADD SWAP1 POP DUP2 DUP2 SUB PUSH1 0x0 DUP4 ADD MSTORE PUSH2 0xEB0 DUP2 PUSH2 0xD4D JUMP JUMPDEST SWAP1 POP SWAP2 SWAP1 POP JUMP JUMPDEST PUSH1 0x0 PUSH1 0x20 DUP3 ADD SWAP1 POP DUP2 DUP2 SUB PUSH1 0x0 DUP4 ADD MSTORE PUSH2 0xED0 DUP2 PUSH2 0xD70 JUMP JUMPDEST SWAP1 POP SWAP2 SWAP1 POP JUMP JUMPDEST PUSH1 0x0 PUSH1 0x20 DUP3 ADD SWAP1 POP PUSH2 0xEEC PUSH1 0x0 DUP4 ADD DUP5 PUSH2 0xD93 JUMP JUMPDEST SWAP3 SWAP2 POP POP JUMP JUMPDEST PUSH1 0x0 PUSH2 0xEFC PUSH2 0xF0D JUMP JUMPDEST SWAP1 POP PUSH2 0xF08 DUP3 DUP3 PUSH2 0x1088 JUMP JUMPDEST SWAP2 SWAP1 POP JUMP JUMPDEST PUSH1 0x0 PUSH1 0x40 MLOAD SWAP1 POP SWAP1 JUMP JUMPDEST PUSH1 0x0 PUSH8 0xFFFFFFFFFFFFFFFF DUP3 GT ISZERO PUSH2 0xF32 JUMPI PUSH2 0xF31 PUSH2 0x1160 JUMP JUMPDEST JUMPDEST PUSH2 0xF3B DUP3 PUSH2 0x11A3 JUMP JUMPDEST SWAP1 POP PUSH1 0x20 DUP2 ADD SWAP1 POP SWAP2 SWAP1 POP JUMP JUMPDEST PUSH1 0x0 DUP2 MLOAD SWAP1 POP SWAP2 SWAP1 POP JUMP JUMPDEST PUSH1 0x0 DUP3 DUP3 MSTORE PUSH1 0x20 DUP3 ADD SWAP1 POP SWAP3 SWAP2 POP POP JUMP JUMPDEST PUSH1 0x0 PUSH2 0xF6F DUP3 PUSH2 0x100A JUMP JUMPDEST SWAP2 POP PUSH2 0xF7A DUP4 PUSH2 0x100A JUMP JUMPDEST SWAP3 POP DUP3 PUSH32 0xFFFFFFFFFFFFFFFFFFFFFFFFFFFFFFFFFFFFFFFFFFFFFFFFFFFFFFFFFFFFFFFF SUB DUP3 GT ISZERO PUSH2 0xFAF JUMPI PUSH2 0xFAE PUSH2 0x1102 JUMP JUMPDEST JUMPDEST DUP3 DUP3 ADD SWAP1 POP SWAP3 SWAP2 POP POP JUMP JUMPDEST PUSH1 0x0 PUSH2 0xFC5 DUP3 PUSH2 0xFEA JUMP JUMPDEST SWAP1 POP SWAP2 SWAP1 POP JUMP JUMPDEST PUSH1 0x0 PUSH2 0xFD7 DUP3 PUSH2 0xFEA JUMP JUMPDEST SWAP1 POP SWAP2 SWAP1 POP JUMP JUMPDEST PUSH1 0x0 DUP2 ISZERO ISZERO SWAP1 POP SWAP2 SWAP1 POP JUMP JUMPDEST PUSH1 0x0 PUSH20 0xFFFFFFFFFFFFFFFFFFFFFFFFFFFFFFFFFFFFFFFF DUP3 AND SWAP1 POP SWAP2 SWAP1 POP JUMP JUMPDEST PUSH1 0x0 DUP2 SWAP1 POP SWAP2 SWAP1 POP JUMP JUMPDEST DUP3 DUP2 DUP4 CALLDATACOPY PUSH1 0x0 DUP4 DUP4 ADD MSTORE POP POP POP JUMP JUMPDEST PUSH1 0x0 JUMPDEST DUP4 DUP2 LT ISZERO PUSH2 0x1041 JUMPI DUP1 DUP3 ADD MLOAD DUP2 DUP5 ADD MSTORE PUSH1 0x20 DUP2 ADD SWAP1 POP PUSH2 0x1026 JUMP JUMPDEST DUP4 DUP2 GT ISZERO PUSH2 0x1050 JUMPI PUSH1 0x0 DUP5 DUP5 ADD MSTORE JUMPDEST POP POP POP POP JUMP JUMPDEST PUSH1 0x0 PUSH1 0x2 DUP3 DIV SWAP1 POP PUSH1 0x1 DUP3 AND DUP1 PUSH2 0x106E JUMPI PUSH1 0x7F DUP3 AND SWAP2 POP JUMPDEST PUSH1 0x20 DUP3 LT DUP2 EQ ISZERO PUSH2 0x1082 JUMPI PUSH2 0x1081 PUSH2 0x1131 JUMP JUMPDEST JUMPDEST POP SWAP2 SWAP1 POP JUMP JUMPDEST PUSH2 0x1091 DUP3 PUSH2 0x11A3 JUMP JUMPDEST DUP2 ADD DUP2 DUP2 LT PUSH8 0xFFFFFFFFFFFFFFFF DUP3 GT OR ISZERO PUSH2 0x10B0 JUMPI PUSH2 0x10AF PUSH2 0x1160 JUMP JUMPDEST JUMPDEST DUP1 PUSH1 0x40 MSTORE POP POP POP JUMP JUMPDEST PUSH1 0x0 PUSH2 0x10C4 DUP3 PUSH2 0x100A JUMP JUMPDEST SWAP2 POP PUSH32 0xFFFFFFFFFFFFFFFFFFFFFFFFFFFFFFFFFFFFFFFFFFFFFFFFFFFFFFFFFFFFFFFF DUP3 EQ ISZERO PUSH2 0x10F7 JUMPI PUSH2 0x10F6 PUSH2 0x1102 JUMP JUMPDEST JUMPDEST PUSH1 0x1 DUP3 ADD SWAP1 POP SWAP2 SWAP1 POP JUMP JUMPDEST PUSH32 0x4E487B7100000000000000000000000000000000000000000000000000000000 PUSH1 0x0 MSTORE PUSH1 0x11 PUSH1 0x4 MSTORE PUSH1 0x24 PUSH1 0x0 REVERT JUMPDEST PUSH32 0x4E487B7100000000000000000000000000000000000000000000000000000000 PUSH1 0x0 MSTORE PUSH1 0x22 PUSH1 0x4 MSTORE PUSH1 0x24 PUSH1 0x0 REVERT JUMPDEST PUSH32 0x4E487B7100000000000000000000000000000000000000000000000000000000 PUSH1 0x0 MSTORE PUSH1 0x41 PUSH1 0x4 MSTORE PUSH1 0x24 PUSH1 0x0 REVERT JUMPDEST PUSH1 0x0 DUP1 REVERT JUMPDEST PUSH1 0x0 DUP1 REVERT JUMPDEST PUSH1 0x0 DUP1 REVERT JUMPDEST PUSH1 0x0 DUP1 REVERT JUMPDEST PUSH1 0x0 PUSH1 0x1F NOT PUSH1 0x1F DUP4 ADD AND SWAP1 POP SWAP2 SWAP1 POP JUMP JUMPDEST PUSH32 0x796F75206861766520616C726561647920766F74656400000000000000000000 PUSH1 0x0 DUP3 ADD MSTORE POP JUMP JUMPDEST PUSH32 0x6D696E696D756E20436F6E7472627574696F6E206973206E6F74206D65740000 PUSH1 0x0 DUP3 ADD MSTORE POP JUMP JUMPDEST PUSH32 0x646561646C696E65206861732070617373656400000000000000000000000000 PUSH1 0x0 DUP3 ADD MSTORE POP JUMP JUMPDEST PUSH32 0x796F75206D75737420626520636F6E7472696275746572000000000000000000 PUSH1 0x0 DUP3 ADD MSTORE POP JUMP JUMPDEST PUSH32 0x6F6E6C79206D616E616765722063616E2063616C6C20746869732066756E6374 PUSH1 0x0 DUP3 ADD MSTORE PUSH32 0x696F6E0000000000000000000000000000000000000000000000000000000000 PUSH1 0x20 DUP3 ADD MSTORE POP JUMP JUMPDEST PUSH32 0x796F7520617265206E6F7420656C696769626C6520666F7220726566756E6400 PUSH1 0x0 DUP3 ADD MSTORE POP JUMP JUMPDEST PUSH2 0x12D9 DUP2 PUSH2 0xFBA JUMP JUMPDEST DUP2 EQ PUSH2 0x12E4 JUMPI PUSH1 0x0 DUP1 REVERT JUMPDEST POP JUMP JUMPDEST PUSH2 0x12F0 DUP2 PUSH2 0xFCC JUMP JUMPDEST DUP2 EQ PUSH2 0x12FB JUMPI PUSH1 0x0 DUP1 REVERT JUMPDEST POP JUMP JUMPDEST PUSH2 0x1307 DUP2 PUSH2 0x100A JUMP JUMPDEST DUP2 EQ PUSH2 0x1312 JUMPI PUSH1 0x0 DUP1 REVERT JUMPDEST POP JUMP INVALID LOG2 PUSH5 0x6970667358 0x22 SLT KECCAK256 GASPRICE CODECOPY DUP1 SLOAD DUP11 LOG2 DIFFICULTY SDIV PUSH26 0xB7D3AC124D87E2AC3F7D699C0B96B066DDBE84EA85C26E64736F PUSH13 0x63430008070033000000000000 "
				},
				"gasEstimates": {
					"creation": {
						"codeDepositCost": "987800",
						"executionCost": "infinite",
						"totalCost": "infinite"
					},
					"external": {
						"contributers(address)": "2882",
						"createRequests(string,address,uint256)": "infinite",
						"deadline()": "2475",
						"getContractBalance()": "384",
						"manager()": "2559",
						"minimumContribution()": "2451",
						"noOfContributers()": "2453",
						"numRequests()": "2473",
						"raisedAmount()": "2495",
						"refund()": "infinite",
						"requests(uint256)": "infinite",
						"sedEth()": "infinite",
						"target()": "2517",
						"voteRequest(uint256)": "infinite"
					}
				},
				"methodIdentifiers": {
					"contributers(address)": "34b66460",
					"createRequests(string,address,uint256)": "3eb7647b",
					"deadline()": "29dcb0cf",
					"getContractBalance()": "6f9fb98a",
					"manager()": "481c6a75",
					"minimumContribution()": "937e09b1",
					"noOfContributers()": "24274ee9",
					"numRequests()": "9fb42b1f",
					"raisedAmount()": "c59ee1dc",
					"refund()": "590e1ae3",
					"requests(uint256)": "81d12c58",
					"sedEth()": "5edec2c4",
					"target()": "d4b83992",
					"voteRequest(uint256)": "4cb6f4a5"
				}
			},
			"storageLayout": {
				"storage": [
					{
						"astId": 5,
						"contract": "crowd_funding.sol:CrowdFunding",
						"label": "contributers",
						"offset": 0,
						"slot": "0",
						"type": "t_mapping(t_address,t_uint256)"
					},
					{
						"astId": 7,
						"contract": "crowd_funding.sol:CrowdFunding",
						"label": "manager",
						"offset": 0,
						"slot": "1",
						"type": "t_address"
					},
					{
						"astId": 9,
						"contract": "crowd_funding.sol:CrowdFunding",
						"label": "deadline",
						"offset": 0,
						"slot": "2",
						"type": "t_uint256"
					},
					{
						"astId": 11,
						"contract": "crowd_funding.sol:CrowdFunding",
						"label": "target",
						"offset": 0,
						"slot": "3",
						"type": "t_uint256"
					},
					{
						"astId": 13,
						"contract": "crowd_funding.sol:CrowdFunding",
						"label": "raisedAmount",
						"offset": 0,
						"slot": "4",
						"type": "t_uint256"
					},
					{
						"astId": 15,
						"contract": "crowd_funding.sol:CrowdFunding",
						"label": "noOfContributers",
						"offset": 0,
						"slot": "5",
						"type": "t_uint256"
					},
					{
						"astId": 17,
						"contract": "crowd_funding.sol:CrowdFunding",
						"label": "minimumContribution",
						"offset": 0,
						"slot": "6",
						"type": "t_uint256"
					},
					{
						"astId": 37,
						"contract": "crowd_funding.sol:CrowdFunding",
						"label": "requests",
						"offset": 0,
						"slot": "7",
						"type": "t_mapping(t_uint256,t_struct(Request)32_storage)"
					},
					{
						"astId": 39,
						"contract": "crowd_funding.sol:CrowdFunding",
						"label": "numRequests",
						"offset": 0,
						"slot": "8",
						"type": "t_uint256"
					}
				],
				"types": {
					"t_address": {
						"encoding": "inplace",
						"label": "address",
						"numberOfBytes": "20"
					},
					"t_address_payable": {
						"encoding": "inplace",
						"label": "address payable",
						"numberOfBytes": "20"
					},
					"t_bool": {
						"encoding": "inplace",
						"label": "bool",
						"numberOfBytes": "1"
					},
					"t_mapping(t_address,t_bool)": {
						"encoding": "mapping",
						"key": "t_address",
						"label": "mapping(address => bool)",
						"numberOfBytes": "32",
						"value": "t_bool"
					},
					"t_mapping(t_address,t_uint256)": {
						"encoding": "mapping",
						"key": "t_address",
						"label": "mapping(address => uint256)",
						"numberOfBytes": "32",
						"value": "t_uint256"
					},
					"t_mapping(t_uint256,t_struct(Request)32_storage)": {
						"encoding": "mapping",
						"key": "t_uint256",
						"label": "mapping(uint256 => struct CrowdFunding.Request)",
						"numberOfBytes": "32",
						"value": "t_struct(Request)32_storage"
					},
					"t_string_storage": {
						"encoding": "bytes",
						"label": "string",
						"numberOfBytes": "32"
					},
					"t_struct(Request)32_storage": {
						"encoding": "inplace",
						"label": "struct CrowdFunding.Request",
						"members": [
							{
								"astId": 19,
								"contract": "crowd_funding.sol:CrowdFunding",
								"label": "description",
								"offset": 0,
								"slot": "0",
								"type": "t_string_storage"
							},
							{
								"astId": 21,
								"contract": "crowd_funding.sol:CrowdFunding",
								"label": "recipient",
								"offset": 0,
								"slot": "1",
								"type": "t_address_payable"
							},
							{
								"astId": 23,
								"contract": "crowd_funding.sol:CrowdFunding",
								"label": "value",
								"offset": 0,
								"slot": "2",
								"type": "t_uint256"
							},
							{
								"astId": 25,
								"contract": "crowd_funding.sol:CrowdFunding",
								"label": "completed",
								"offset": 0,
								"slot": "3",
								"type": "t_bool"
							},
							{
								"astId": 27,
								"contract": "crowd_funding.sol:CrowdFunding",
								"label": "noofvoters",
								"offset": 0,
								"slot": "4",
								"type": "t_uint256"
							},
							{
								"astId": 31,
								"contract": "crowd_funding.sol:CrowdFunding",
								"label": "voters",
								"offset": 0,
								"slot": "5",
								"type": "t_mapping(t_address,t_bool)"
							}
						],
						"numberOfBytes": "192"
					},
					"t_uint256": {
						"encoding": "inplace",
						"label": "uint256",
						"numberOfBytes": "32"
					}
				}
			},
			"userdoc": {
				"kind": "user",
				"methods": {},
				"version": 1
			}
		}
	}
}