{
	"struct.sol": {
		"Struct": {
			"abi": [
				{
					"inputs": [
						{
							"internalType": "uint256",
							"name": "_roll",
							"type": "uint256"
						},
						{
							"internalType": "string",
							"name": "name",
							"type": "string"
						}
					],
					"stateMutability": "nonpayable",
					"type": "constructor"
				},
				{
					"inputs": [],
					"name": "s1",
					"outputs": [
						{
							"internalType": "uint256",
							"name": "roll",
							"type": "uint256"
						},
						{
							"internalType": "string",
							"name": "name",
							"type": "string"
						}
					],
					"stateMutability": "view",
					"type": "function"
				}
			],
			"devdoc": {
				"kind": "dev",
				"methods": {},
				"version": 1
			},
			"evm": {
				"assembly": "    /* \"struct.sol\":78:198  contract Struct\r... */\n  mstore(0x40, 0x80)\n    /* \"struct.sol\":126:193  constructor(uint _roll, string memory name)\r... */\n  callvalue\n  dup1\n  iszero\n  tag_1\n  jumpi\n  0x00\n  dup1\n  revert\ntag_1:\n  pop\n  mload(0x40)\n  sub(codesize, bytecodeSize)\n  dup1\n  bytecodeSize\n  dup4\n  codecopy\n  dup2\n  dup2\n  add\n  0x40\n  mstore\n  dup2\n  add\n  swap1\n  tag_2\n  swap2\n  swap1\n  tag_3\n  jump\t// in\ntag_2:\n  pop\n  pop\n    /* \"struct.sol\":78:198  contract Struct\r... */\n  jump(tag_6)\n    /* \"#utility.yul\":7:360   */\ntag_8:\n  0x00\n    /* \"#utility.yul\":121:186   */\n  tag_10\n    /* \"#utility.yul\":136:185   */\n  tag_11\n    /* \"#utility.yul\":178:184   */\n  dup5\n    /* \"#utility.yul\":136:185   */\n  tag_12\n  jump\t// in\ntag_11:\n    /* \"#utility.yul\":121:186   */\n  tag_13\n  jump\t// in\ntag_10:\n    /* \"#utility.yul\":112:186   */\n  swap1\n  pop\n    /* \"#utility.yul\":209:215   */\n  dup3\n    /* \"#utility.yul\":202:207   */\n  dup2\n    /* \"#utility.yul\":195:216   */\n  mstore\n    /* \"#utility.yul\":247:251   */\n  0x20\n    /* \"#utility.yul\":240:245   */\n  dup2\n    /* \"#utility.yul\":236:252   */\n  add\n    /* \"#utility.yul\":285:288   */\n  dup5\n    /* \"#utility.yul\":276:282   */\n  dup5\n    /* \"#utility.yul\":271:274   */\n  dup5\n    /* \"#utility.yul\":267:283   */\n  add\n    /* \"#utility.yul\":264:289   */\n  gt\n    /* \"#utility.yul\":261:263   */\n  iszero\n  tag_14\n  jumpi\n    /* \"#utility.yul\":302:303   */\n  0x00\n    /* \"#utility.yul\":299:300   */\n  dup1\n    /* \"#utility.yul\":292:304   */\n  revert\n    /* \"#utility.yul\":261:263   */\ntag_14:\n    /* \"#utility.yul\":315:354   */\n  tag_15\n    /* \"#utility.yul\":347:353   */\n  dup5\n    /* \"#utility.yul\":342:345   */\n  dup3\n    /* \"#utility.yul\":337:340   */\n  dup6\n    /* \"#utility.yul\":315:354   */\n  tag_16\n  jump\t// in\ntag_15:\n    /* \"#utility.yul\":102:360   */\n  pop\n  swap4\n  swap3\n  pop\n  pop\n  pop\n  jump\t// out\n    /* \"#utility.yul\":380:668   */\ntag_17:\n  0x00\n    /* \"#utility.yul\":496:499   */\n  dup3\n    /* \"#utility.yul\":489:493   */\n  0x1f\n    /* \"#utility.yul\":481:487   */\n  dup4\n    /* \"#utility.yul\":477:494   */\n  add\n    /* \"#utility.yul\":473:500   */\n  slt\n    /* \"#utility.yul\":463:465   */\n  tag_19\n  jumpi\n    /* \"#utility.yul\":514:515   */\n  0x00\n    /* \"#utility.yul\":511:512   */\n  dup1\n    /* \"#utility.yul\":504:516   */\n  revert\n    /* \"#utility.yul\":463:465   */\ntag_19:\n    /* \"#utility.yul\":547:553   */\n  dup2\n    /* \"#utility.yul\":541:554   */\n  mload\n    /* \"#utility.yul\":572:662   */\n  tag_20\n    /* \"#utility.yul\":658:661   */\n  dup5\n    /* \"#utility.yul\":650:656   */\n  dup3\n    /* \"#utility.yul\":643:647   */\n  0x20\n    /* \"#utility.yul\":635:641   */\n  dup7\n    /* \"#utility.yul\":631:648   */\n  add\n    /* \"#utility.yul\":572:662   */\n  tag_8\n  jump\t// in\ntag_20:\n    /* \"#utility.yul\":563:662   */\n  swap2\n  pop\n    /* \"#utility.yul\":453:668   */\n  pop\n  swap3\n  swap2\n  pop\n  pop\n  jump\t// out\n    /* \"#utility.yul\":674:817   */\ntag_21:\n  0x00\n    /* \"#utility.yul\":762:768   */\n  dup2\n    /* \"#utility.yul\":756:769   */\n  mload\n    /* \"#utility.yul\":747:769   */\n  swap1\n  pop\n    /* \"#utility.yul\":778:811   */\n  tag_23\n    /* \"#utility.yul\":805:810   */\n  dup2\n    /* \"#utility.yul\":778:811   */\n  tag_24\n  jump\t// in\ntag_23:\n    /* \"#utility.yul\":737:817   */\n  swap3\n  swap2\n  pop\n  pop\n  jump\t// out\n    /* \"#utility.yul\":823:1369   */\ntag_3:\n  0x00\n  dup1\n    /* \"#utility.yul\":969:971   */\n  0x40\n    /* \"#utility.yul\":957:966   */\n  dup4\n    /* \"#utility.yul\":948:955   */\n  dup6\n    /* \"#utility.yul\":944:967   */\n  sub\n    /* \"#utility.yul\":940:972   */\n  slt\n    /* \"#utility.yul\":937:939   */\n  iszero\n  tag_26\n  jumpi\n    /* \"#utility.yul\":985:986   */\n  0x00\n    /* \"#utility.yul\":982:983   */\n  dup1\n    /* \"#utility.yul\":975:987   */\n  revert\n    /* \"#utility.yul\":937:939   */\ntag_26:\n    /* \"#utility.yul\":1028:1029   */\n  0x00\n    /* \"#utility.yul\":1053:1117   */\n  tag_27\n    /* \"#utility.yul\":1109:1116   */\n  dup6\n    /* \"#utility.yul\":1100:1106   */\n  dup3\n    /* \"#utility.yul\":1089:1098   */\n  dup7\n    /* \"#utility.yul\":1085:1107   */\n  add\n    /* \"#utility.yul\":1053:1117   */\n  tag_21\n  jump\t// in\ntag_27:\n    /* \"#utility.yul\":1043:1117   */\n  swap3\n  pop\n    /* \"#utility.yul\":999:1127   */\n  pop\n    /* \"#utility.yul\":1187:1189   */\n  0x20\n    /* \"#utility.yul\":1176:1185   */\n  dup4\n    /* \"#utility.yul\":1172:1190   */\n  add\n    /* \"#utility.yul\":1166:1191   */\n  mload\n    /* \"#utility.yul\":1218:1236   */\n  0xffffffffffffffff\n    /* \"#utility.yul\":1210:1216   */\n  dup2\n    /* \"#utility.yul\":1207:1237   */\n  gt\n    /* \"#utility.yul\":1204:1206   */\n  iszero\n  tag_28\n  jumpi\n    /* \"#utility.yul\":1250:1251   */\n  0x00\n    /* \"#utility.yul\":1247:1248   */\n  dup1\n    /* \"#utility.yul\":1240:1252   */\n  revert\n    /* \"#utility.yul\":1204:1206   */\ntag_28:\n    /* \"#utility.yul\":1278:1352   */\n  tag_29\n    /* \"#utility.yul\":1344:1351   */\n  dup6\n    /* \"#utility.yul\":1335:1341   */\n  dup3\n    /* \"#utility.yul\":1324:1333   */\n  dup7\n    /* \"#utility.yul\":1320:1342   */\n  add\n    /* \"#utility.yul\":1278:1352   */\n  tag_17\n  jump\t// in\ntag_29:\n    /* \"#utility.yul\":1268:1352   */\n  swap2\n  pop\n    /* \"#utility.yul\":1137:1362   */\n  pop\n    /* \"#utility.yul\":927:1369   */\n  swap3\n  pop\n  swap3\n  swap1\n  pop\n  jump\t// out\n    /* \"#utility.yul\":1375:1658   */\ntag_13:\n  0x00\n    /* \"#utility.yul\":1441:1443   */\n  0x40\n    /* \"#utility.yul\":1435:1444   */\n  mload\n    /* \"#utility.yul\":1425:1444   */\n  swap1\n  pop\n    /* \"#utility.yul\":1483:1487   */\n  dup2\n    /* \"#utility.yul\":1475:1481   */\n  dup2\n    /* \"#utility.yul\":1471:1488   */\n  add\n    /* \"#utility.yul\":1590:1596   */\n  dup2\n    /* \"#utility.yul\":1578:1588   */\n  dup2\n    /* \"#utility.yul\":1575:1597   */\n  lt\n    /* \"#utility.yul\":1554:1572   */\n  0xffffffffffffffff\n    /* \"#utility.yul\":1542:1552   */\n  dup3\n    /* \"#utility.yul\":1539:1573   */\n  gt\n    /* \"#utility.yul\":1536:1598   */\n  or\n    /* \"#utility.yul\":1533:1535   */\n  iszero\n  tag_31\n  jumpi\n    /* \"#utility.yul\":1601:1619   */\n  tag_32\n  tag_33\n  jump\t// in\ntag_32:\n    /* \"#utility.yul\":1533:1535   */\ntag_31:\n    /* \"#utility.yul\":1641:1651   */\n  dup1\n    /* \"#utility.yul\":1637:1639   */\n  0x40\n    /* \"#utility.yul\":1630:1652   */\n  mstore\n    /* \"#utility.yul\":1415:1658   */\n  pop\n  swap2\n  swap1\n  pop\n  jump\t// out\n    /* \"#utility.yul\":1664:1996   */\ntag_12:\n  0x00\n    /* \"#utility.yul\":1816:1834   */\n  0xffffffffffffffff\n    /* \"#utility.yul\":1808:1814   */\n  dup3\n    /* \"#utility.yul\":1805:1835   */\n  gt\n    /* \"#utility.yul\":1802:1804   */\n  iszero\n  tag_35\n  jumpi\n    /* \"#utility.yul\":1838:1856   */\n  tag_36\n  tag_33\n  jump\t// in\ntag_36:\n    /* \"#utility.yul\":1802:1804   */\ntag_35:\n    /* \"#utility.yul\":1923:1927   */\n  0x1f\n    /* \"#utility.yul\":1919:1928   */\n  not\n    /* \"#utility.yul\":1912:1916   */\n  0x1f\n    /* \"#utility.yul\":1904:1910   */\n  dup4\n    /* \"#utility.yul\":1900:1917   */\n  add\n    /* \"#utility.yul\":1896:1929   */\n  and\n    /* \"#utility.yul\":1888:1929   */\n  swap1\n  pop\n    /* \"#utility.yul\":1984:1988   */\n  0x20\n    /* \"#utility.yul\":1978:1982   */\n  dup2\n    /* \"#utility.yul\":1974:1989   */\n  add\n    /* \"#utility.yul\":1966:1989   */\n  swap1\n  pop\n    /* \"#utility.yul\":1731:1996   */\n  swap2\n  swap1\n  pop\n  jump\t// out\n    /* \"#utility.yul\":2002:2079   */\ntag_37:\n  0x00\n    /* \"#utility.yul\":2068:2073   */\n  dup2\n    /* \"#utility.yul\":2057:2073   */\n  swap1\n  pop\n    /* \"#utility.yul\":2047:2079   */\n  swap2\n  swap1\n  pop\n  jump\t// out\n    /* \"#utility.yul\":2085:2392   */\ntag_16:\n    /* \"#utility.yul\":2153:2154   */\n  0x00\n    /* \"#utility.yul\":2163:2276   */\ntag_40:\n    /* \"#utility.yul\":2177:2183   */\n  dup4\n    /* \"#utility.yul\":2174:2175   */\n  dup2\n    /* \"#utility.yul\":2171:2184   */\n  lt\n    /* \"#utility.yul\":2163:2276   */\n  iszero\n  tag_42\n  jumpi\n    /* \"#utility.yul\":2262:2263   */\n  dup1\n    /* \"#utility.yul\":2257:2260   */\n  dup3\n    /* \"#utility.yul\":2253:2264   */\n  add\n    /* \"#utility.yul\":2247:2265   */\n  mload\n    /* \"#utility.yul\":2243:2244   */\n  dup2\n    /* \"#utility.yul\":2238:2241   */\n  dup5\n    /* \"#utility.yul\":2234:2245   */\n  add\n    /* \"#utility.yul\":2227:2266   */\n  mstore\n    /* \"#utility.yul\":2199:2201   */\n  0x20\n    /* \"#utility.yul\":2196:2197   */\n  dup2\n    /* \"#utility.yul\":2192:2202   */\n  add\n    /* \"#utility.yul\":2187:2202   */\n  swap1\n  pop\n    /* \"#utility.yul\":2163:2276   */\n  jump(tag_40)\ntag_42:\n    /* \"#utility.yul\":2294:2300   */\n  dup4\n    /* \"#utility.yul\":2291:2292   */\n  dup2\n    /* \"#utility.yul\":2288:2301   */\n  gt\n    /* \"#utility.yul\":2285:2287   */\n  iszero\n  tag_43\n  jumpi\n    /* \"#utility.yul\":2374:2375   */\n  0x00\n    /* \"#utility.yul\":2365:2371   */\n  dup5\n    /* \"#utility.yul\":2360:2363   */\n  dup5\n    /* \"#utility.yul\":2356:2372   */\n  add\n    /* \"#utility.yul\":2349:2376   */\n  mstore\n    /* \"#utility.yul\":2285:2287   */\ntag_43:\n    /* \"#utility.yul\":2134:2392   */\n  pop\n  pop\n  pop\n  pop\n  jump\t// out\n    /* \"#utility.yul\":2398:2578   */\ntag_33:\n    /* \"#utility.yul\":2446:2523   */\n  0x4e487b7100000000000000000000000000000000000000000000000000000000\n    /* \"#utility.yul\":2443:2444   */\n  0x00\n    /* \"#utility.yul\":2436:2524   */\n  mstore\n    /* \"#utility.yul\":2543:2547   */\n  0x41\n    /* \"#utility.yul\":2540:2541   */\n  0x04\n    /* \"#utility.yul\":2533:2548   */\n  mstore\n    /* \"#utility.yul\":2567:2571   */\n  0x24\n    /* \"#utility.yul\":2564:2565   */\n  0x00\n    /* \"#utility.yul\":2557:2572   */\n  revert\n    /* \"#utility.yul\":2584:2706   */\ntag_24:\n    /* \"#utility.yul\":2657:2681   */\n  tag_46\n    /* \"#utility.yul\":2675:2680   */\n  dup2\n    /* \"#utility.yul\":2657:2681   */\n  tag_37\n  jump\t// in\ntag_46:\n    /* \"#utility.yul\":2650:2655   */\n  dup2\n    /* \"#utility.yul\":2647:2682   */\n  eq\n    /* \"#utility.yul\":2637:2639   */\n  tag_47\n  jumpi\n    /* \"#utility.yul\":2696:2697   */\n  0x00\n    /* \"#utility.yul\":2693:2694   */\n  dup1\n    /* \"#utility.yul\":2686:2698   */\n  revert\n    /* \"#utility.yul\":2637:2639   */\ntag_47:\n    /* \"#utility.yul\":2627:2706   */\n  pop\n  jump\t// out\n    /* \"struct.sol\":78:198  contract Struct\r... */\ntag_6:\n  dataSize(sub_0)\n  dup1\n  dataOffset(sub_0)\n  0x00\n  codecopy\n  0x00\n  return\nstop\n\nsub_0: assembly {\n        /* \"struct.sol\":78:198  contract Struct\r... */\n      mstore(0x40, 0x80)\n      callvalue\n      dup1\n      iszero\n      tag_1\n      jumpi\n      0x00\n      dup1\n      revert\n    tag_1:\n      pop\n      jumpi(tag_2, lt(calldatasize, 0x04))\n      shr(0xe0, calldataload(0x00))\n      dup1\n      0x6cc014de\n      eq\n      tag_3\n      jumpi\n    tag_2:\n      0x00\n      dup1\n      revert\n        /* \"struct.sol\":102:119  student public s1 */\n    tag_3:\n      tag_4\n      tag_5\n      jump\t// in\n    tag_4:\n      mload(0x40)\n      tag_6\n      swap3\n      swap2\n      swap1\n      tag_7\n      jump\t// in\n    tag_6:\n      mload(0x40)\n      dup1\n      swap2\n      sub\n      swap1\n      return\n    tag_5:\n      0x00\n      dup1\n      0x00\n      add\n      sload\n      swap1\n      dup1\n      0x01\n      add\n      dup1\n      sload\n      tag_8\n      swap1\n      tag_9\n      jump\t// in\n    tag_8:\n      dup1\n      0x1f\n      add\n      0x20\n      dup1\n      swap2\n      div\n      mul\n      0x20\n      add\n      mload(0x40)\n      swap1\n      dup2\n      add\n      0x40\n      mstore\n      dup1\n      swap3\n      swap2\n      swap1\n      dup2\n      dup2\n      mstore\n      0x20\n      add\n      dup3\n      dup1\n      sload\n      tag_10\n      swap1\n      tag_9\n      jump\t// in\n    tag_10:\n      dup1\n      iszero\n      tag_11\n      jumpi\n      dup1\n      0x1f\n      lt\n      tag_12\n      jumpi\n      0x0100\n      dup1\n      dup4\n      sload\n      div\n      mul\n      dup4\n      mstore\n      swap2\n      0x20\n      add\n      swap2\n      jump(tag_11)\n    tag_12:\n      dup3\n      add\n      swap2\n      swap1\n      0x00\n      mstore\n      keccak256(0x00, 0x20)\n      swap1\n    tag_13:\n      dup2\n      sload\n      dup2\n      mstore\n      swap1\n      0x01\n      add\n      swap1\n      0x20\n      add\n      dup1\n      dup4\n      gt\n      tag_13\n      jumpi\n      dup3\n      swap1\n      sub\n      0x1f\n      and\n      dup3\n      add\n      swap2\n    tag_11:\n      pop\n      pop\n      pop\n      pop\n      pop\n      swap1\n      pop\n      dup3\n      jump\t// out\n        /* \"#utility.yul\":7:371   */\n    tag_15:\n      0x00\n        /* \"#utility.yul\":123:162   */\n      tag_17\n        /* \"#utility.yul\":156:161   */\n      dup3\n        /* \"#utility.yul\":123:162   */\n      tag_18\n      jump\t// in\n    tag_17:\n        /* \"#utility.yul\":178:249   */\n      tag_19\n        /* \"#utility.yul\":242:248   */\n      dup2\n        /* \"#utility.yul\":237:240   */\n      dup6\n        /* \"#utility.yul\":178:249   */\n      tag_20\n      jump\t// in\n    tag_19:\n        /* \"#utility.yul\":171:249   */\n      swap4\n      pop\n        /* \"#utility.yul\":258:310   */\n      tag_21\n        /* \"#utility.yul\":303:309   */\n      dup2\n        /* \"#utility.yul\":298:301   */\n      dup6\n        /* \"#utility.yul\":291:295   */\n      0x20\n        /* \"#utility.yul\":284:289   */\n      dup7\n        /* \"#utility.yul\":280:296   */\n      add\n        /* \"#utility.yul\":258:310   */\n      tag_22\n      jump\t// in\n    tag_21:\n        /* \"#utility.yul\":335:364   */\n      tag_23\n        /* \"#utility.yul\":357:363   */\n      dup2\n        /* \"#utility.yul\":335:364   */\n      tag_24\n      jump\t// in\n    tag_23:\n        /* \"#utility.yul\":330:333   */\n      dup5\n        /* \"#utility.yul\":326:365   */\n      add\n        /* \"#utility.yul\":319:365   */\n      swap2\n      pop\n        /* \"#utility.yul\":99:371   */\n      pop\n      swap3\n      swap2\n      pop\n      pop\n      jump\t// out\n        /* \"#utility.yul\":377:495   */\n    tag_25:\n        /* \"#utility.yul\":464:488   */\n      tag_27\n        /* \"#utility.yul\":482:487   */\n      dup2\n        /* \"#utility.yul\":464:488   */\n      tag_28\n      jump\t// in\n    tag_27:\n        /* \"#utility.yul\":459:462   */\n      dup3\n        /* \"#utility.yul\":452:489   */\n      mstore\n        /* \"#utility.yul\":442:495   */\n      pop\n      pop\n      jump\t// out\n        /* \"#utility.yul\":501:924   */\n    tag_7:\n      0x00\n        /* \"#utility.yul\":680:682   */\n      0x40\n        /* \"#utility.yul\":669:678   */\n      dup3\n        /* \"#utility.yul\":665:683   */\n      add\n        /* \"#utility.yul\":657:683   */\n      swap1\n      pop\n        /* \"#utility.yul\":693:764   */\n      tag_30\n        /* \"#utility.yul\":761:762   */\n      0x00\n        /* \"#utility.yul\":750:759   */\n      dup4\n        /* \"#utility.yul\":746:763   */\n      add\n        /* \"#utility.yul\":737:743   */\n      dup6\n        /* \"#utility.yul\":693:764   */\n      tag_25\n      jump\t// in\n    tag_30:\n        /* \"#utility.yul\":811:820   */\n      dup2\n        /* \"#utility.yul\":805:809   */\n      dup2\n        /* \"#utility.yul\":801:821   */\n      sub\n        /* \"#utility.yul\":796:798   */\n      0x20\n        /* \"#utility.yul\":785:794   */\n      dup4\n        /* \"#utility.yul\":781:799   */\n      add\n        /* \"#utility.yul\":774:822   */\n      mstore\n        /* \"#utility.yul\":839:917   */\n      tag_31\n        /* \"#utility.yul\":912:916   */\n      dup2\n        /* \"#utility.yul\":903:909   */\n      dup5\n        /* \"#utility.yul\":839:917   */\n      tag_15\n      jump\t// in\n    tag_31:\n        /* \"#utility.yul\":831:917   */\n      swap1\n      pop\n        /* \"#utility.yul\":647:924   */\n      swap4\n      swap3\n      pop\n      pop\n      pop\n      jump\t// out\n        /* \"#utility.yul\":930:1029   */\n    tag_18:\n      0x00\n        /* \"#utility.yul\":1016:1021   */\n      dup2\n        /* \"#utility.yul\":1010:1022   */\n      mload\n        /* \"#utility.yul\":1000:1022   */\n      swap1\n      pop\n        /* \"#utility.yul\":989:1029   */\n      swap2\n      swap1\n      pop\n      jump\t// out\n        /* \"#utility.yul\":1035:1204   */\n    tag_20:\n      0x00\n        /* \"#utility.yul\":1153:1159   */\n      dup3\n        /* \"#utility.yul\":1148:1151   */\n      dup3\n        /* \"#utility.yul\":1141:1160   */\n      mstore\n        /* \"#utility.yul\":1193:1197   */\n      0x20\n        /* \"#utility.yul\":1188:1191   */\n      dup3\n        /* \"#utility.yul\":1184:1198   */\n      add\n        /* \"#utility.yul\":1169:1198   */\n      swap1\n      pop\n        /* \"#utility.yul\":1131:1204   */\n      swap3\n      swap2\n      pop\n      pop\n      jump\t// out\n        /* \"#utility.yul\":1210:1287   */\n    tag_28:\n      0x00\n        /* \"#utility.yul\":1276:1281   */\n      dup2\n        /* \"#utility.yul\":1265:1281   */\n      swap1\n      pop\n        /* \"#utility.yul\":1255:1287   */\n      swap2\n      swap1\n      pop\n      jump\t// out\n        /* \"#utility.yul\":1293:1600   */\n    tag_22:\n        /* \"#utility.yul\":1361:1362   */\n      0x00\n        /* \"#utility.yul\":1371:1484   */\n    tag_36:\n        /* \"#utility.yul\":1385:1391   */\n      dup4\n        /* \"#utility.yul\":1382:1383   */\n      dup2\n        /* \"#utility.yul\":1379:1392   */\n      lt\n        /* \"#utility.yul\":1371:1484   */\n      iszero\n      tag_38\n      jumpi\n        /* \"#utility.yul\":1470:1471   */\n      dup1\n        /* \"#utility.yul\":1465:1468   */\n      dup3\n        /* \"#utility.yul\":1461:1472   */\n      add\n        /* \"#utility.yul\":1455:1473   */\n      mload\n        /* \"#utility.yul\":1451:1452   */\n      dup2\n        /* \"#utility.yul\":1446:1449   */\n      dup5\n        /* \"#utility.yul\":1442:1453   */\n      add\n        /* \"#utility.yul\":1435:1474   */\n      mstore\n        /* \"#utility.yul\":1407:1409   */\n      0x20\n        /* \"#utility.yul\":1404:1405   */\n      dup2\n        /* \"#utility.yul\":1400:1410   */\n      add\n        /* \"#utility.yul\":1395:1410   */\n      swap1\n      pop\n        /* \"#utility.yul\":1371:1484   */\n      jump(tag_36)\n    tag_38:\n        /* \"#utility.yul\":1502:1508   */\n      dup4\n        /* \"#utility.yul\":1499:1500   */\n      dup2\n        /* \"#utility.yul\":1496:1509   */\n      gt\n        /* \"#utility.yul\":1493:1495   */\n      iszero\n      tag_39\n      jumpi\n        /* \"#utility.yul\":1582:1583   */\n      0x00\n        /* \"#utility.yul\":1573:1579   */\n      dup5\n        /* \"#utility.yul\":1568:1571   */\n      dup5\n        /* \"#utility.yul\":1564:1580   */\n      add\n        /* \"#utility.yul\":1557:1584   */\n      mstore\n        /* \"#utility.yul\":1493:1495   */\n    tag_39:\n        /* \"#utility.yul\":1342:1600   */\n      pop\n      pop\n      pop\n      pop\n      jump\t// out\n        /* \"#utility.yul\":1606:1926   */\n    tag_9:\n      0x00\n        /* \"#utility.yul\":1687:1688   */\n      0x02\n        /* \"#utility.yul\":1681:1685   */\n      dup3\n        /* \"#utility.yul\":1677:1689   */\n      div\n        /* \"#utility.yul\":1667:1689   */\n      swap1\n      pop\n        /* \"#utility.yul\":1734:1735   */\n      0x01\n        /* \"#utility.yul\":1728:1732   */\n      dup3\n        /* \"#utility.yul\":1724:1736   */\n      and\n        /* \"#utility.yul\":1755:1773   */\n      dup1\n        /* \"#utility.yul\":1745:1747   */\n      tag_41\n      jumpi\n        /* \"#utility.yul\":1811:1815   */\n      0x7f\n        /* \"#utility.yul\":1803:1809   */\n      dup3\n        /* \"#utility.yul\":1799:1816   */\n      and\n        /* \"#utility.yul\":1789:1816   */\n      swap2\n      pop\n        /* \"#utility.yul\":1745:1747   */\n    tag_41:\n        /* \"#utility.yul\":1873:1875   */\n      0x20\n        /* \"#utility.yul\":1865:1871   */\n      dup3\n        /* \"#utility.yul\":1862:1876   */\n      lt\n        /* \"#utility.yul\":1842:1860   */\n      dup2\n        /* \"#utility.yul\":1839:1877   */\n      eq\n        /* \"#utility.yul\":1836:1838   */\n      iszero\n      tag_42\n      jumpi\n        /* \"#utility.yul\":1892:1910   */\n      tag_43\n      tag_44\n      jump\t// in\n    tag_43:\n        /* \"#utility.yul\":1836:1838   */\n    tag_42:\n        /* \"#utility.yul\":1657:1926   */\n      pop\n      swap2\n      swap1\n      pop\n      jump\t// out\n        /* \"#utility.yul\":1932:2112   */\n    tag_44:\n        /* \"#utility.yul\":1980:2057   */\n      0x4e487b7100000000000000000000000000000000000000000000000000000000\n        /* \"#utility.yul\":1977:1978   */\n      0x00\n        /* \"#utility.yul\":1970:2058   */\n      mstore\n        /* \"#utility.yul\":2077:2081   */\n      0x22\n        /* \"#utility.yul\":2074:2075   */\n      0x04\n        /* \"#utility.yul\":2067:2082   */\n      mstore\n        /* \"#utility.yul\":2101:2105   */\n      0x24\n        /* \"#utility.yul\":2098:2099   */\n      0x00\n        /* \"#utility.yul\":2091:2106   */\n      revert\n        /* \"#utility.yul\":2118:2220   */\n    tag_24:\n      0x00\n        /* \"#utility.yul\":2210:2212   */\n      0x1f\n        /* \"#utility.yul\":2206:2213   */\n      not\n        /* \"#utility.yul\":2201:2203   */\n      0x1f\n        /* \"#utility.yul\":2194:2199   */\n      dup4\n        /* \"#utility.yul\":2190:2204   */\n      add\n        /* \"#utility.yul\":2186:2214   */\n      and\n        /* \"#utility.yul\":2176:2214   */\n      swap1\n      pop\n        /* \"#utility.yul\":2166:2220   */\n      swap2\n      swap1\n      pop\n      jump\t// out\n\n    auxdata: 0xa2646970667358221220ec311402628cf86a5c059c8432a71e5d40bcfc2e78fc7824f8dc9437d9f2456a64736f6c63430008000033\n}\n",
				"bytecode": {
					"linkReferences": {},
					"object": "608060405234801561001057600080fd5b5060405161045f38038061045f833981810160405281019061003291906100b6565b50506101ee565b600061004c6100478461013b565b61010a565b90508281526020810184848401111561006457600080fd5b61006f848285610175565b509392505050565b600082601f83011261008857600080fd5b8151610098848260208601610039565b91505092915050565b6000815190506100b0816101d7565b92915050565b600080604083850312156100c957600080fd5b60006100d7858286016100a1565b925050602083015167ffffffffffffffff8111156100f457600080fd5b61010085828601610077565b9150509250929050565b6000604051905081810181811067ffffffffffffffff82111715610131576101306101a8565b5b8060405250919050565b600067ffffffffffffffff821115610156576101556101a8565b5b601f19601f8301169050602081019050919050565b6000819050919050565b60005b83811015610193578082015181840152602081019050610178565b838111156101a2576000848401525b50505050565b7f4e487b7100000000000000000000000000000000000000000000000000000000600052604160045260246000fd5b6101e08161016b565b81146101eb57600080fd5b50565b610262806101fd6000396000f3fe608060405234801561001057600080fd5b506004361061002b5760003560e01c80636cc014de14610030575b600080fd5b61003861004f565b604051610046929190610131565b60405180910390f35b6000806000015490806001018054610066906101ba565b80601f0160208091040260200160405190810160405280929190818152602001828054610092906101ba565b80156100df5780601f106100b4576101008083540402835291602001916100df565b820191906000526020600020905b8154815290600101906020018083116100c257829003601f168201915b5050505050905082565b60006100f482610161565b6100fe818561016c565b935061010e818560208601610187565b6101178161021b565b840191505092915050565b61012b8161017d565b82525050565b60006040820190506101466000830185610122565b818103602083015261015881846100e9565b90509392505050565b600081519050919050565b600082825260208201905092915050565b6000819050919050565b60005b838110156101a557808201518184015260208101905061018a565b838111156101b4576000848401525b50505050565b600060028204905060018216806101d257607f821691505b602082108114156101e6576101e56101ec565b5b50919050565b7f4e487b7100000000000000000000000000000000000000000000000000000000600052602260045260246000fd5b6000601f19601f830116905091905056fea2646970667358221220ec311402628cf86a5c059c8432a71e5d40bcfc2e78fc7824f8dc9437d9f2456a64736f6c63430008000033",
					"opcodes": "PUSH1 0x80 PUSH1 0x40 MSTORE CALLVALUE DUP1 ISZERO PUSH2 0x10 JUMPI PUSH1 0x0 DUP1 REVERT JUMPDEST POP PUSH1 0x40 MLOAD PUSH2 0x45F CODESIZE SUB DUP1 PUSH2 0x45F DUP4 CODECOPY DUP2 DUP2 ADD PUSH1 0x40 MSTORE DUP2 ADD SWAP1 PUSH2 0x32 SWAP2 SWAP1 PUSH2 0xB6 JUMP JUMPDEST POP POP PUSH2 0x1EE JUMP JUMPDEST PUSH1 0x0 PUSH2 0x4C PUSH2 0x47 DUP5 PUSH2 0x13B JUMP JUMPDEST PUSH2 0x10A JUMP JUMPDEST SWAP1 POP DUP3 DUP2 MSTORE PUSH1 0x20 DUP2 ADD DUP5 DUP5 DUP5 ADD GT ISZERO PUSH2 0x64 JUMPI PUSH1 0x0 DUP1 REVERT JUMPDEST PUSH2 0x6F DUP5 DUP3 DUP6 PUSH2 0x175 JUMP JUMPDEST POP SWAP4 SWAP3 POP POP POP JUMP JUMPDEST PUSH1 0x0 DUP3 PUSH1 0x1F DUP4 ADD SLT PUSH2 0x88 JUMPI PUSH1 0x0 DUP1 REVERT JUMPDEST DUP2 MLOAD PUSH2 0x98 DUP5 DUP3 PUSH1 0x20 DUP7 ADD PUSH2 0x39 JUMP JUMPDEST SWAP2 POP POP SWAP3 SWAP2 POP POP JUMP JUMPDEST PUSH1 0x0 DUP2 MLOAD SWAP1 POP PUSH2 0xB0 DUP2 PUSH2 0x1D7 JUMP JUMPDEST SWAP3 SWAP2 POP POP JUMP JUMPDEST PUSH1 0x0 DUP1 PUSH1 0x40 DUP4 DUP6 SUB SLT ISZERO PUSH2 0xC9 JUMPI PUSH1 0x0 DUP1 REVERT JUMPDEST PUSH1 0x0 PUSH2 0xD7 DUP6 DUP3 DUP7 ADD PUSH2 0xA1 JUMP JUMPDEST SWAP3 POP POP PUSH1 0x20 DUP4 ADD MLOAD PUSH8 0xFFFFFFFFFFFFFFFF DUP2 GT ISZERO PUSH2 0xF4 JUMPI PUSH1 0x0 DUP1 REVERT JUMPDEST PUSH2 0x100 DUP6 DUP3 DUP7 ADD PUSH2 0x77 JUMP JUMPDEST SWAP2 POP POP SWAP3 POP SWAP3 SWAP1 POP JUMP JUMPDEST PUSH1 0x0 PUSH1 0x40 MLOAD SWAP1 POP DUP2 DUP2 ADD DUP2 DUP2 LT PUSH8 0xFFFFFFFFFFFFFFFF DUP3 GT OR ISZERO PUSH2 0x131 JUMPI PUSH2 0x130 PUSH2 0x1A8 JUMP JUMPDEST JUMPDEST DUP1 PUSH1 0x40 MSTORE POP SWAP2 SWAP1 POP JUMP JUMPDEST PUSH1 0x0 PUSH8 0xFFFFFFFFFFFFFFFF DUP3 GT ISZERO PUSH2 0x156 JUMPI PUSH2 0x155 PUSH2 0x1A8 JUMP JUMPDEST JUMPDEST PUSH1 0x1F NOT PUSH1 0x1F DUP4 ADD AND SWAP1 POP PUSH1 0x20 DUP2 ADD SWAP1 POP SWAP2 SWAP1 POP JUMP JUMPDEST PUSH1 0x0 DUP2 SWAP1 POP SWAP2 SWAP1 POP JUMP JUMPDEST PUSH1 0x0 JUMPDEST DUP4 DUP2 LT ISZERO PUSH2 0x193 JUMPI DUP1 DUP3 ADD MLOAD DUP2 DUP5 ADD MSTORE PUSH1 0x20 DUP2 ADD SWAP1 POP PUSH2 0x178 JUMP JUMPDEST DUP4 DUP2 GT ISZERO PUSH2 0x1A2 JUMPI PUSH1 0x0 DUP5 DUP5 ADD MSTORE JUMPDEST POP POP POP POP JUMP JUMPDEST PUSH32 0x4E487B7100000000000000000000000000000000000000000000000000000000 PUSH1 0x0 MSTORE PUSH1 0x41 PUSH1 0x4 MSTORE PUSH1 0x24 PUSH1 0x0 REVERT JUMPDEST PUSH2 0x1E0 DUP2 PUSH2 0x16B JUMP JUMPDEST DUP2 EQ PUSH2 0x1EB JUMPI PUSH1 0x0 DUP1 REVERT JUMPDEST POP JUMP JUMPDEST PUSH2 0x262 DUP1 PUSH2 0x1FD PUSH1 0x0 CODECOPY PUSH1 0x0 RETURN INVALID PUSH1 0x80 PUSH1 0x40 MSTORE CALLVALUE DUP1 ISZERO PUSH2 0x10 JUMPI PUSH1 0x0 DUP1 REVERT JUMPDEST POP PUSH1 0x4 CALLDATASIZE LT PUSH2 0x2B JUMPI PUSH1 0x0 CALLDATALOAD PUSH1 0xE0 SHR DUP1 PUSH4 0x6CC014DE EQ PUSH2 0x30 JUMPI JUMPDEST PUSH1 0x0 DUP1 REVERT JUMPDEST PUSH2 0x38 PUSH2 0x4F JUMP JUMPDEST PUSH1 0x40 MLOAD PUSH2 0x46 SWAP3 SWAP2 SWAP1 PUSH2 0x131 JUMP JUMPDEST PUSH1 0x40 MLOAD DUP1 SWAP2 SUB SWAP1 RETURN JUMPDEST PUSH1 0x0 DUP1 PUSH1 0x0 ADD SLOAD SWAP1 DUP1 PUSH1 0x1 ADD DUP1 SLOAD PUSH2 0x66 SWAP1 PUSH2 0x1BA JUMP JUMPDEST DUP1 PUSH1 0x1F ADD PUSH1 0x20 DUP1 SWAP2 DIV MUL PUSH1 0x20 ADD PUSH1 0x40 MLOAD SWAP1 DUP2 ADD PUSH1 0x40 MSTORE DUP1 SWAP3 SWAP2 SWAP1 DUP2 DUP2 MSTORE PUSH1 0x20 ADD DUP3 DUP1 SLOAD PUSH2 0x92 SWAP1 PUSH2 0x1BA JUMP JUMPDEST DUP1 ISZERO PUSH2 0xDF JUMPI DUP1 PUSH1 0x1F LT PUSH2 0xB4 JUMPI PUSH2 0x100 DUP1 DUP4 SLOAD DIV MUL DUP4 MSTORE SWAP2 PUSH1 0x20 ADD SWAP2 PUSH2 0xDF JUMP JUMPDEST DUP3 ADD SWAP2 SWAP1 PUSH1 0x0 MSTORE PUSH1 0x20 PUSH1 0x0 KECCAK256 SWAP1 JUMPDEST DUP2 SLOAD DUP2 MSTORE SWAP1 PUSH1 0x1 ADD SWAP1 PUSH1 0x20 ADD DUP1 DUP4 GT PUSH2 0xC2 JUMPI DUP3 SWAP1 SUB PUSH1 0x1F AND DUP3 ADD SWAP2 JUMPDEST POP POP POP POP POP SWAP1 POP DUP3 JUMP JUMPDEST PUSH1 0x0 PUSH2 0xF4 DUP3 PUSH2 0x161 JUMP JUMPDEST PUSH2 0xFE DUP2 DUP6 PUSH2 0x16C JUMP JUMPDEST SWAP4 POP PUSH2 0x10E DUP2 DUP6 PUSH1 0x20 DUP7 ADD PUSH2 0x187 JUMP JUMPDEST PUSH2 0x117 DUP2 PUSH2 0x21B JUMP JUMPDEST DUP5 ADD SWAP2 POP POP SWAP3 SWAP2 POP POP JUMP JUMPDEST PUSH2 0x12B DUP2 PUSH2 0x17D JUMP JUMPDEST DUP3 MSTORE POP POP JUMP JUMPDEST PUSH1 0x0 PUSH1 0x40 DUP3 ADD SWAP1 POP PUSH2 0x146 PUSH1 0x0 DUP4 ADD DUP6 PUSH2 0x122 JUMP JUMPDEST DUP2 DUP2 SUB PUSH1 0x20 DUP4 ADD MSTORE PUSH2 0x158 DUP2 DUP5 PUSH2 0xE9 JUMP JUMPDEST SWAP1 POP SWAP4 SWAP3 POP POP POP JUMP JUMPDEST PUSH1 0x0 DUP2 MLOAD SWAP1 POP SWAP2 SWAP1 POP JUMP JUMPDEST PUSH1 0x0 DUP3 DUP3 MSTORE PUSH1 0x20 DUP3 ADD SWAP1 POP SWAP3 SWAP2 POP POP JUMP JUMPDEST PUSH1 0x0 DUP2 SWAP1 POP SWAP2 SWAP1 POP JUMP JUMPDEST PUSH1 0x0 JUMPDEST DUP4 DUP2 LT ISZERO PUSH2 0x1A5 JUMPI DUP1 DUP3 ADD MLOAD DUP2 DUP5 ADD MSTORE PUSH1 0x20 DUP2 ADD SWAP1 POP PUSH2 0x18A JUMP JUMPDEST DUP4 DUP2 GT ISZERO PUSH2 0x1B4 JUMPI PUSH1 0x0 DUP5 DUP5 ADD MSTORE JUMPDEST POP POP POP POP JUMP JUMPDEST PUSH1 0x0 PUSH1 0x2 DUP3 DIV SWAP1 POP PUSH1 0x1 DUP3 AND DUP1 PUSH2 0x1D2 JUMPI PUSH1 0x7F DUP3 AND SWAP2 POP JUMPDEST PUSH1 0x20 DUP3 LT DUP2 EQ ISZERO PUSH2 0x1E6 JUMPI PUSH2 0x1E5 PUSH2 0x1EC JUMP JUMPDEST JUMPDEST POP SWAP2 SWAP1 POP JUMP JUMPDEST PUSH32 0x4E487B7100000000000000000000000000000000000000000000000000000000 PUSH1 0x0 MSTORE PUSH1 0x22 PUSH1 0x4 MSTORE PUSH1 0x24 PUSH1 0x0 REVERT JUMPDEST PUSH1 0x0 PUSH1 0x1F NOT PUSH1 0x1F DUP4 ADD AND SWAP1 POP SWAP2 SWAP1 POP JUMP INVALID LOG2 PUSH5 0x6970667358 0x22 SLT KECCAK256 0xEC BALANCE EQ MUL PUSH3 0x8CF86A 0x5C SDIV SWAP13 DUP5 ORIGIN 0xA7 0x1E 0x5D BLOCKHASH 0xBC 0xFC 0x2E PUSH25 0xFC7824F8DC9437D9F2456A64736F6C63430008000033000000 "
				},
				"gasEstimates": {
					"creation": {
						"codeDepositCost": "122000",
						"executionCost": "infinite",
						"totalCost": "infinite"
					},
					"external": {
						"s1()": "infinite"
					}
				},
				"methodIdentifiers": {
					"s1()": "6cc014de"
				}
			},
			"storageLayout": {
				"storage": [
					{
						"astId": 9,
						"contract": "struct.sol:Struct",
						"label": "s1",
						"offset": 0,
						"slot": "0",
						"type": "t_struct(student)6_storage"
					}
				],
				"types": {
					"t_string_storage": {
						"encoding": "bytes",
						"label": "string",
						"numberOfBytes": "32"
					},
					"t_struct(student)6_storage": {
						"encoding": "inplace",
						"label": "struct student",
						"members": [
							{
								"astId": 3,
								"contract": "struct.sol:Struct",
								"label": "roll",
								"offset": 0,
								"slot": "0",
								"type": "t_uint256"
							},
							{
								"astId": 5,
								"contract": "struct.sol:Struct",
								"label": "name",
								"offset": 0,
								"slot": "1",
								"type": "t_string_storage"
							}
						],
						"numberOfBytes": "64"
					},
					"t_uint256": {
						"encoding": "inplace",
						"label": "uint256",
						"numberOfBytes": "32"
					}
				}
			},
			"userdoc": {
				"kind": "user",
				"methods": {},
				"version": 1
			}
		}
	}
}