{
	"crowd_funding.sol": {
		"CrowdFunding": {
			"abi": [
				{
					"inputs": [
						{
							"internalType": "address",
							"name": "",
							"type": "address"
						}
					],
					"name": "contributers",
					"outputs": [
						{
							"internalType": "uint256",
							"name": "",
							"type": "uint256"
						}
					],
					"stateMutability": "view",
					"type": "function"
				},
				{
					"inputs": [],
					"name": "minimumcontribution",
					"outputs": [
						{
							"internalType": "address",
							"name": "",
							"type": "address"
						}
					],
					"stateMutability": "view",
					"type": "function"
				}
			],
			"devdoc": {
				"kind": "dev",
				"methods": {},
				"version": 1
			},
			"evm": {
				"assembly": "    /* \"crowd_funding.sol\":76:197  contract CrowdFunding{\r... */\n  mstore(0x40, 0x80)\n  callvalue\n  dup1\n  iszero\n  tag_1\n  jumpi\n  0x00\n  dup1\n  revert\ntag_1:\n  pop\n  dataSize(sub_0)\n  dup1\n  dataOffset(sub_0)\n  0x00\n  codecopy\n  0x00\n  return\nstop\n\nsub_0: assembly {\n        /* \"crowd_funding.sol\":76:197  contract CrowdFunding{\r... */\n      mstore(0x40, 0x80)\n      callvalue\n      dup1\n      iszero\n      tag_1\n      jumpi\n      0x00\n      dup1\n      revert\n    tag_1:\n      pop\n      jumpi(tag_2, lt(calldatasize, 0x04))\n      shr(0xe0, calldataload(0x00))\n      dup1\n      0x34b66460\n      eq\n      tag_3\n      jumpi\n      dup1\n      0xa8622ffe\n      eq\n      tag_4\n      jumpi\n    tag_2:\n      0x00\n      dup1\n      revert\n        /* \"crowd_funding.sol\":104:146  mapping(address=>uint) public contributers */\n    tag_3:\n      tag_5\n      0x04\n      dup1\n      calldatasize\n      sub\n      dup2\n      add\n      swap1\n      tag_6\n      swap2\n      swap1\n      tag_7\n      jump\t// in\n    tag_6:\n      tag_8\n      jump\t// in\n    tag_5:\n      mload(0x40)\n      tag_9\n      swap2\n      swap1\n      tag_10\n      jump\t// in\n    tag_9:\n      mload(0x40)\n      dup1\n      swap2\n      sub\n      swap1\n      return\n        /* \"crowd_funding.sol\":153:187  address public minimumcontribution */\n    tag_4:\n      tag_11\n      tag_12\n      jump\t// in\n    tag_11:\n      mload(0x40)\n      tag_13\n      swap2\n      swap1\n      tag_14\n      jump\t// in\n    tag_13:\n      mload(0x40)\n      dup1\n      swap2\n      sub\n      swap1\n      return\n        /* \"crowd_funding.sol\":104:146  mapping(address=>uint) public contributers */\n    tag_8:\n      mstore(0x20, 0x00)\n      dup1\n      0x00\n      mstore\n      keccak256(0x00, 0x40)\n      0x00\n      swap2\n      pop\n      swap1\n      pop\n      sload\n      dup2\n      jump\t// out\n        /* \"crowd_funding.sol\":153:187  address public minimumcontribution */\n    tag_12:\n      0x01\n      0x00\n      swap1\n      sload\n      swap1\n      0x0100\n      exp\n      swap1\n      div\n      0xffffffffffffffffffffffffffffffffffffffff\n      and\n      dup2\n      jump\t// out\n        /* \"#utility.yul\":7:146   */\n    tag_16:\n        /* \"#utility.yul\":53:58   */\n      0x00\n        /* \"#utility.yul\":91:97   */\n      dup2\n        /* \"#utility.yul\":78:98   */\n      calldataload\n        /* \"#utility.yul\":69:98   */\n      swap1\n      pop\n        /* \"#utility.yul\":107:140   */\n      tag_18\n        /* \"#utility.yul\":134:139   */\n      dup2\n        /* \"#utility.yul\":107:140   */\n      tag_19\n      jump\t// in\n    tag_18:\n        /* \"#utility.yul\":59:146   */\n      swap3\n      swap2\n      pop\n      pop\n      jump\t// out\n        /* \"#utility.yul\":152:414   */\n    tag_7:\n        /* \"#utility.yul\":211:217   */\n      0x00\n        /* \"#utility.yul\":260:262   */\n      0x20\n        /* \"#utility.yul\":248:257   */\n      dup3\n        /* \"#utility.yul\":239:246   */\n      dup5\n        /* \"#utility.yul\":235:258   */\n      sub\n        /* \"#utility.yul\":231:263   */\n      slt\n        /* \"#utility.yul\":228:230   */\n      iszero\n      tag_21\n      jumpi\n        /* \"#utility.yul\":276:277   */\n      0x00\n        /* \"#utility.yul\":273:274   */\n      dup1\n        /* \"#utility.yul\":266:278   */\n      revert\n        /* \"#utility.yul\":228:230   */\n    tag_21:\n        /* \"#utility.yul\":319:320   */\n      0x00\n        /* \"#utility.yul\":344:397   */\n      tag_22\n        /* \"#utility.yul\":389:396   */\n      dup5\n        /* \"#utility.yul\":380:386   */\n      dup3\n        /* \"#utility.yul\":369:378   */\n      dup6\n        /* \"#utility.yul\":365:387   */\n      add\n        /* \"#utility.yul\":344:397   */\n      tag_16\n      jump\t// in\n    tag_22:\n        /* \"#utility.yul\":334:397   */\n      swap2\n      pop\n        /* \"#utility.yul\":290:407   */\n      pop\n        /* \"#utility.yul\":218:414   */\n      swap3\n      swap2\n      pop\n      pop\n      jump\t// out\n        /* \"#utility.yul\":420:538   */\n    tag_23:\n        /* \"#utility.yul\":507:531   */\n      tag_25\n        /* \"#utility.yul\":525:530   */\n      dup2\n        /* \"#utility.yul\":507:531   */\n      tag_26\n      jump\t// in\n    tag_25:\n        /* \"#utility.yul\":502:505   */\n      dup3\n        /* \"#utility.yul\":495:532   */\n      mstore\n        /* \"#utility.yul\":485:538   */\n      pop\n      pop\n      jump\t// out\n        /* \"#utility.yul\":544:662   */\n    tag_27:\n        /* \"#utility.yul\":631:655   */\n      tag_29\n        /* \"#utility.yul\":649:654   */\n      dup2\n        /* \"#utility.yul\":631:655   */\n      tag_30\n      jump\t// in\n    tag_29:\n        /* \"#utility.yul\":626:629   */\n      dup3\n        /* \"#utility.yul\":619:656   */\n      mstore\n        /* \"#utility.yul\":609:662   */\n      pop\n      pop\n      jump\t// out\n        /* \"#utility.yul\":668:890   */\n    tag_14:\n        /* \"#utility.yul\":761:765   */\n      0x00\n        /* \"#utility.yul\":799:801   */\n      0x20\n        /* \"#utility.yul\":788:797   */\n      dup3\n        /* \"#utility.yul\":784:802   */\n      add\n        /* \"#utility.yul\":776:802   */\n      swap1\n      pop\n        /* \"#utility.yul\":812:883   */\n      tag_32\n        /* \"#utility.yul\":880:881   */\n      0x00\n        /* \"#utility.yul\":869:878   */\n      dup4\n        /* \"#utility.yul\":865:882   */\n      add\n        /* \"#utility.yul\":856:862   */\n      dup5\n        /* \"#utility.yul\":812:883   */\n      tag_23\n      jump\t// in\n    tag_32:\n        /* \"#utility.yul\":766:890   */\n      swap3\n      swap2\n      pop\n      pop\n      jump\t// out\n        /* \"#utility.yul\":896:1118   */\n    tag_10:\n        /* \"#utility.yul\":989:993   */\n      0x00\n        /* \"#utility.yul\":1027:1029   */\n      0x20\n        /* \"#utility.yul\":1016:1025   */\n      dup3\n        /* \"#utility.yul\":1012:1030   */\n      add\n        /* \"#utility.yul\":1004:1030   */\n      swap1\n      pop\n        /* \"#utility.yul\":1040:1111   */\n      tag_34\n        /* \"#utility.yul\":1108:1109   */\n      0x00\n        /* \"#utility.yul\":1097:1106   */\n      dup4\n        /* \"#utility.yul\":1093:1110   */\n      add\n        /* \"#utility.yul\":1084:1090   */\n      dup5\n        /* \"#utility.yul\":1040:1111   */\n      tag_27\n      jump\t// in\n    tag_34:\n        /* \"#utility.yul\":994:1118   */\n      swap3\n      swap2\n      pop\n      pop\n      jump\t// out\n        /* \"#utility.yul\":1124:1220   */\n    tag_26:\n        /* \"#utility.yul\":1161:1168   */\n      0x00\n        /* \"#utility.yul\":1190:1214   */\n      tag_36\n        /* \"#utility.yul\":1208:1213   */\n      dup3\n        /* \"#utility.yul\":1190:1214   */\n      tag_37\n      jump\t// in\n    tag_36:\n        /* \"#utility.yul\":1179:1214   */\n      swap1\n      pop\n        /* \"#utility.yul\":1169:1220   */\n      swap2\n      swap1\n      pop\n      jump\t// out\n        /* \"#utility.yul\":1226:1352   */\n    tag_37:\n        /* \"#utility.yul\":1263:1270   */\n      0x00\n        /* \"#utility.yul\":1303:1345   */\n      0xffffffffffffffffffffffffffffffffffffffff\n        /* \"#utility.yul\":1296:1301   */\n      dup3\n        /* \"#utility.yul\":1292:1346   */\n      and\n        /* \"#utility.yul\":1281:1346   */\n      swap1\n      pop\n        /* \"#utility.yul\":1271:1352   */\n      swap2\n      swap1\n      pop\n      jump\t// out\n        /* \"#utility.yul\":1358:1435   */\n    tag_30:\n        /* \"#utility.yul\":1395:1402   */\n      0x00\n        /* \"#utility.yul\":1424:1429   */\n      dup2\n        /* \"#utility.yul\":1413:1429   */\n      swap1\n      pop\n        /* \"#utility.yul\":1403:1435   */\n      swap2\n      swap1\n      pop\n      jump\t// out\n        /* \"#utility.yul\":1441:1563   */\n    tag_19:\n        /* \"#utility.yul\":1514:1538   */\n      tag_41\n        /* \"#utility.yul\":1532:1537   */\n      dup2\n        /* \"#utility.yul\":1514:1538   */\n      tag_26\n      jump\t// in\n    tag_41:\n        /* \"#utility.yul\":1507:1512   */\n      dup2\n        /* \"#utility.yul\":1504:1539   */\n      eq\n        /* \"#utility.yul\":1494:1496   */\n      tag_42\n      jumpi\n        /* \"#utility.yul\":1553:1554   */\n      0x00\n        /* \"#utility.yul\":1550:1551   */\n      dup1\n        /* \"#utility.yul\":1543:1555   */\n      revert\n        /* \"#utility.yul\":1494:1496   */\n    tag_42:\n        /* \"#utility.yul\":1484:1563   */\n      pop\n      jump\t// out\n\n    auxdata: 0xa2646970667358221220014fd3b84ebc6b5e603264deef592e881747d7aecc386daf7a7b130e3c0c300864736f6c63430008040033\n}\n",
				"bytecode": {
					"linkReferences": {},
					"object": "608060405234801561001057600080fd5b506101e2806100206000396000f3fe608060405234801561001057600080fd5b50600436106100365760003560e01c806334b664601461003b578063a8622ffe1461006b575b600080fd5b610055600480360381019061005091906100dc565b610089565b604051610062919061013e565b60405180910390f35b6100736100a1565b6040516100809190610123565b60405180910390f35b60006020528060005260406000206000915090505481565b600160009054906101000a900473ffffffffffffffffffffffffffffffffffffffff1681565b6000813590506100d681610195565b92915050565b6000602082840312156100ee57600080fd5b60006100fc848285016100c7565b91505092915050565b61010e81610159565b82525050565b61011d8161018b565b82525050565b60006020820190506101386000830184610105565b92915050565b60006020820190506101536000830184610114565b92915050565b60006101648261016b565b9050919050565b600073ffffffffffffffffffffffffffffffffffffffff82169050919050565b6000819050919050565b61019e81610159565b81146101a957600080fd5b5056fea2646970667358221220014fd3b84ebc6b5e603264deef592e881747d7aecc386daf7a7b130e3c0c300864736f6c63430008040033",
					"opcodes": "PUSH1 0x80 PUSH1 0x40 MSTORE CALLVALUE DUP1 ISZERO PUSH2 0x10 JUMPI PUSH1 0x0 DUP1 REVERT JUMPDEST POP PUSH2 0x1E2 DUP1 PUSH2 0x20 PUSH1 0x0 CODECOPY PUSH1 0x0 RETURN INVALID PUSH1 0x80 PUSH1 0x40 MSTORE CALLVALUE DUP1 ISZERO PUSH2 0x10 JUMPI PUSH1 0x0 DUP1 REVERT JUMPDEST POP PUSH1 0x4 CALLDATASIZE LT PUSH2 0x36 JUMPI PUSH1 0x0 CALLDATALOAD PUSH1 0xE0 SHR DUP1 PUSH4 0x34B66460 EQ PUSH2 0x3B JUMPI DUP1 PUSH4 0xA8622FFE EQ PUSH2 0x6B JUMPI JUMPDEST PUSH1 0x0 DUP1 REVERT JUMPDEST PUSH2 0x55 PUSH1 0x4 DUP1 CALLDATASIZE SUB DUP2 ADD SWAP1 PUSH2 0x50 SWAP2 SWAP1 PUSH2 0xDC JUMP JUMPDEST PUSH2 0x89 JUMP JUMPDEST PUSH1 0x40 MLOAD PUSH2 0x62 SWAP2 SWAP1 PUSH2 0x13E JUMP JUMPDEST PUSH1 0x40 MLOAD DUP1 SWAP2 SUB SWAP1 RETURN JUMPDEST PUSH2 0x73 PUSH2 0xA1 JUMP JUMPDEST PUSH1 0x40 MLOAD PUSH2 0x80 SWAP2 SWAP1 PUSH2 0x123 JUMP JUMPDEST PUSH1 0x40 MLOAD DUP1 SWAP2 SUB SWAP1 RETURN JUMPDEST PUSH1 0x0 PUSH1 0x20 MSTORE DUP1 PUSH1 0x0 MSTORE PUSH1 0x40 PUSH1 0x0 KECCAK256 PUSH1 0x0 SWAP2 POP SWAP1 POP SLOAD DUP2 JUMP JUMPDEST PUSH1 0x1 PUSH1 0x0 SWAP1 SLOAD SWAP1 PUSH2 0x100 EXP SWAP1 DIV PUSH20 0xFFFFFFFFFFFFFFFFFFFFFFFFFFFFFFFFFFFFFFFF AND DUP2 JUMP JUMPDEST PUSH1 0x0 DUP2 CALLDATALOAD SWAP1 POP PUSH2 0xD6 DUP2 PUSH2 0x195 JUMP JUMPDEST SWAP3 SWAP2 POP POP JUMP JUMPDEST PUSH1 0x0 PUSH1 0x20 DUP3 DUP5 SUB SLT ISZERO PUSH2 0xEE JUMPI PUSH1 0x0 DUP1 REVERT JUMPDEST PUSH1 0x0 PUSH2 0xFC DUP5 DUP3 DUP6 ADD PUSH2 0xC7 JUMP JUMPDEST SWAP2 POP POP SWAP3 SWAP2 POP POP JUMP JUMPDEST PUSH2 0x10E DUP2 PUSH2 0x159 JUMP JUMPDEST DUP3 MSTORE POP POP JUMP JUMPDEST PUSH2 0x11D DUP2 PUSH2 0x18B JUMP JUMPDEST DUP3 MSTORE POP POP JUMP JUMPDEST PUSH1 0x0 PUSH1 0x20 DUP3 ADD SWAP1 POP PUSH2 0x138 PUSH1 0x0 DUP4 ADD DUP5 PUSH2 0x105 JUMP JUMPDEST SWAP3 SWAP2 POP POP JUMP JUMPDEST PUSH1 0x0 PUSH1 0x20 DUP3 ADD SWAP1 POP PUSH2 0x153 PUSH1 0x0 DUP4 ADD DUP5 PUSH2 0x114 JUMP JUMPDEST SWAP3 SWAP2 POP POP JUMP JUMPDEST PUSH1 0x0 PUSH2 0x164 DUP3 PUSH2 0x16B JUMP JUMPDEST SWAP1 POP SWAP2 SWAP1 POP JUMP JUMPDEST PUSH1 0x0 PUSH20 0xFFFFFFFFFFFFFFFFFFFFFFFFFFFFFFFFFFFFFFFF DUP3 AND SWAP1 POP SWAP2 SWAP1 POP JUMP JUMPDEST PUSH1 0x0 DUP2 SWAP1 POP SWAP2 SWAP1 POP JUMP JUMPDEST PUSH2 0x19E DUP2 PUSH2 0x159 JUMP JUMPDEST DUP2 EQ PUSH2 0x1A9 JUMPI PUSH1 0x0 DUP1 REVERT JUMPDEST POP JUMP INVALID LOG2 PUSH5 0x6970667358 0x22 SLT KECCAK256 ADD 0x4F 0xD3 0xB8 0x4E 0xBC PUSH12 0x5E603264DEEF592E881747D7 0xAE 0xCC CODESIZE PUSH14 0xAF7A7B130E3C0C300864736F6C63 NUMBER STOP ADDMOD DIV STOP CALLER "
				},
				"gasEstimates": {
					"creation": {
						"codeDepositCost": "96400",
						"executionCost": "147",
						"totalCost": "96547"
					},
					"external": {
						"contributers(address)": "1492",
						"minimumcontribution()": "1214"
					}
				},
				"methodIdentifiers": {
					"contributers(address)": "34b66460",
					"minimumcontribution()": "a8622ffe"
				}
			},
			"storageLayout": {
				"storage": [
					{
						"astId": 5,
						"contract": "crowd_funding.sol:CrowdFunding",
						"label": "contributers",
						"offset": 0,
						"slot": "0",
						"type": "t_mapping(t_address,t_uint256)"
					},
					{
						"astId": 7,
						"contract": "crowd_funding.sol:CrowdFunding",
						"label": "minimumcontribution",
						"offset": 0,
						"slot": "1",
						"type": "t_address"
					}
				],
				"types": {
					"t_address": {
						"encoding": "inplace",
						"label": "address",
						"numberOfBytes": "20"
					},
					"t_mapping(t_address,t_uint256)": {
						"encoding": "mapping",
						"key": "t_address",
						"label": "mapping(address => uint256)",
						"numberOfBytes": "32",
						"value": "t_uint256"
					},
					"t_uint256": {
						"encoding": "inplace",
						"label": "uint256",
						"numberOfBytes": "32"
					}
				}
			},
			"userdoc": {
				"kind": "user",
				"methods": {},
				"version": 1
			}
		}
	}
}