{
	"visibilty.sol": {
		"C": {
			"abi": [
				{
					"constant": true,
					"inputs": [],
					"name": "data",
					"outputs": [
						{
							"internalType": "uint256",
							"name": "",
							"type": "uint256"
						}
					],
					"payable": false,
					"stateMutability": "view",
					"type": "function"
				},
				{
					"constant": false,
					"inputs": [],
					"name": "x",
					"outputs": [
						{
							"internalType": "uint256",
							"name": "",
							"type": "uint256"
						}
					],
					"payable": false,
					"stateMutability": "nonpayable",
					"type": "function"
				}
			],
			"devdoc": {
				"methods": {}
			},
			"evm": {
				"assembly": "    /* \"visibilty.sol\":68:268  contract C {\r... */\n  mstore(0x40, 0x80)\n    /* \"visibilty.sol\":104:106  30 */\n  0x1e\n    /* \"visibilty.sol\":85:106  uint public data = 30 */\n  0x00\n  sstore\n    /* \"visibilty.sol\":133:135  10 */\n  0x0a\n    /* \"visibilty.sol\":112:135  uint internal iData= 10 */\n  0x01\n  sstore\n    /* \"visibilty.sol\":68:268  contract C {\r... */\n  callvalue\n    /* \"--CODEGEN--\":8:17   */\n  dup1\n    /* \"--CODEGEN--\":5:7   */\n  iszero\n  tag_1\n  jumpi\n    /* \"--CODEGEN--\":30:31   */\n  0x00\n    /* \"--CODEGEN--\":27:28   */\n  dup1\n    /* \"--CODEGEN--\":20:32   */\n  revert\n    /* \"--CODEGEN--\":5:7   */\ntag_1:\n    /* \"visibilty.sol\":68:268  contract C {\r... */\n  pop\n  dataSize(sub_0)\n  dup1\n  dataOffset(sub_0)\n  0x00\n  codecopy\n  0x00\n  return\nstop\n\nsub_0: assembly {\n        /* \"visibilty.sol\":68:268  contract C {\r... */\n      mstore(0x40, 0x80)\n      callvalue\n        /* \"--CODEGEN--\":8:17   */\n      dup1\n        /* \"--CODEGEN--\":5:7   */\n      iszero\n      tag_1\n      jumpi\n        /* \"--CODEGEN--\":30:31   */\n      0x00\n        /* \"--CODEGEN--\":27:28   */\n      dup1\n        /* \"--CODEGEN--\":20:32   */\n      revert\n        /* \"--CODEGEN--\":5:7   */\n    tag_1:\n        /* \"visibilty.sol\":68:268  contract C {\r... */\n      pop\n      jumpi(tag_2, lt(calldatasize, 0x04))\n      shr(0xe0, calldataload(0x00))\n      dup1\n      0x0c55699c\n      eq\n      tag_3\n      jumpi\n      dup1\n      0x73d4a13a\n      eq\n      tag_4\n      jumpi\n    tag_2:\n      0x00\n      dup1\n      revert\n        /* \"visibilty.sol\":167:265  function x() public returns (uint) {\r... */\n    tag_3:\n      tag_5\n      tag_6\n      jump\t// in\n    tag_5:\n      mload(0x40)\n      dup1\n      dup3\n      dup2\n      mstore\n      0x20\n      add\n      swap2\n      pop\n      pop\n      mload(0x40)\n      dup1\n      swap2\n      sub\n      swap1\n      return\n        /* \"visibilty.sol\":85:106  uint public data = 30 */\n    tag_4:\n      tag_7\n      tag_8\n      jump\t// in\n    tag_7:\n      mload(0x40)\n      dup1\n      dup3\n      dup2\n      mstore\n      0x20\n      add\n      swap2\n      pop\n      pop\n      mload(0x40)\n      dup1\n      swap2\n      sub\n      swap1\n      return\n        /* \"visibilty.sol\":167:265  function x() public returns (uint) {\r... */\n    tag_6:\n        /* \"visibilty.sol\":196:200  uint */\n      0x00\n        /* \"visibilty.sol\":218:219  3 */\n      0x03\n        /* \"visibilty.sol\":211:215  data */\n      0x00\n        /* \"visibilty.sol\":211:219  data = 3 */\n      dup2\n      swap1\n      sstore\n      pop\n        /* \"visibilty.sol\":254:258  data */\n      sload(0x00)\n        /* \"visibilty.sol\":247:258  return data */\n      swap1\n      pop\n        /* \"visibilty.sol\":167:265  function x() public returns (uint) {\r... */\n      swap1\n      jump\t// out\n        /* \"visibilty.sol\":85:106  uint public data = 30 */\n    tag_8:\n      sload(0x00)\n      dup2\n      jump\t// out\n\n    auxdata: 0xa265627a7a72315820782bf356df8cf618bddc5498307b5fb088a7070edb5cd08ad5fa195b0d82b25864736f6c63430005110032\n}\n",
				"bytecode": {
					"linkReferences": {},
					"object": "6080604052601e600055600a60015534801561001a57600080fd5b5060bc806100296000396000f3fe6080604052348015600f57600080fd5b506004361060325760003560e01c80630c55699c14603757806373d4a13a146053575b600080fd5b603d606f565b6040518082815260200191505060405180910390f35b60596081565b6040518082815260200191505060405180910390f35b60006003600081905550600054905090565b6000548156fea265627a7a72315820782bf356df8cf618bddc5498307b5fb088a7070edb5cd08ad5fa195b0d82b25864736f6c63430005110032",
					"opcodes": "PUSH1 0x80 PUSH1 0x40 MSTORE PUSH1 0x1E PUSH1 0x0 SSTORE PUSH1 0xA PUSH1 0x1 SSTORE CALLVALUE DUP1 ISZERO PUSH2 0x1A JUMPI PUSH1 0x0 DUP1 REVERT JUMPDEST POP PUSH1 0xBC DUP1 PUSH2 0x29 PUSH1 0x0 CODECOPY PUSH1 0x0 RETURN INVALID PUSH1 0x80 PUSH1 0x40 MSTORE CALLVALUE DUP1 ISZERO PUSH1 0xF JUMPI PUSH1 0x0 DUP1 REVERT JUMPDEST POP PUSH1 0x4 CALLDATASIZE LT PUSH1 0x32 JUMPI PUSH1 0x0 CALLDATALOAD PUSH1 0xE0 SHR DUP1 PUSH4 0xC55699C EQ PUSH1 0x37 JUMPI DUP1 PUSH4 0x73D4A13A EQ PUSH1 0x53 JUMPI JUMPDEST PUSH1 0x0 DUP1 REVERT JUMPDEST PUSH1 0x3D PUSH1 0x6F JUMP JUMPDEST PUSH1 0x40 MLOAD DUP1 DUP3 DUP2 MSTORE PUSH1 0x20 ADD SWAP2 POP POP PUSH1 0x40 MLOAD DUP1 SWAP2 SUB SWAP1 RETURN JUMPDEST PUSH1 0x59 PUSH1 0x81 JUMP JUMPDEST PUSH1 0x40 MLOAD DUP1 DUP3 DUP2 MSTORE PUSH1 0x20 ADD SWAP2 POP POP PUSH1 0x40 MLOAD DUP1 SWAP2 SUB SWAP1 RETURN JUMPDEST PUSH1 0x0 PUSH1 0x3 PUSH1 0x0 DUP2 SWAP1 SSTORE POP PUSH1 0x0 SLOAD SWAP1 POP SWAP1 JUMP JUMPDEST PUSH1 0x0 SLOAD DUP2 JUMP INVALID LOG2 PUSH6 0x627A7A723158 KECCAK256 PUSH25 0x2BF356DF8CF618BDDC5498307B5FB088A7070EDB5CD08AD5FA NOT JUMPDEST 0xD DUP3 0xB2 PC PUSH5 0x736F6C6343 STOP SDIV GT STOP ORIGIN "
				},
				"gasEstimates": {
					"creation": {
						"codeDepositCost": "37600",
						"executionCost": "40099",
						"totalCost": "77699"
					},
					"external": {
						"data()": "1005",
						"x()": "21005"
					}
				},
				"methodIdentifiers": {
					"data()": "73d4a13a",
					"x()": "0c55699c"
				}
			},
			"storageLayout": {
				"storage": [
					{
						"astId": 4,
						"contract": "visibilty.sol:C",
						"label": "data",
						"offset": 0,
						"slot": "0",
						"type": "t_uint256"
					},
					{
						"astId": 7,
						"contract": "visibilty.sol:C",
						"label": "iData",
						"offset": 0,
						"slot": "1",
						"type": "t_uint256"
					},
					{
						"astId": 9,
						"contract": "visibilty.sol:C",
						"label": "storedData",
						"offset": 0,
						"slot": "2",
						"type": "t_uint256"
					}
				],
				"types": {
					"t_uint256": {
						"encoding": "inplace",
						"label": "uint256",
						"numberOfBytes": "32"
					}
				}
			},
			"userdoc": {
				"methods": {}
			}
		}
	}
}