{
	"visibilty.sol": {
		"D": {
			"abi": [
				{
					"constant": true,
					"inputs": [],
					"name": "data",
					"outputs": [
						{
							"internalType": "uint256",
							"name": "",
							"type": "uint256"
						}
					],
					"payable": false,
					"stateMutability": "view",
					"type": "function"
				},
				{
					"constant": true,
					"inputs": [],
					"name": "getResult",
					"outputs": [
						{
							"internalType": "uint256",
							"name": "",
							"type": "uint256"
						}
					],
					"payable": false,
					"stateMutability": "view",
					"type": "function"
				},
				{
					"constant": false,
					"inputs": [],
					"name": "x",
					"outputs": [
						{
							"internalType": "uint256",
							"name": "",
							"type": "uint256"
						}
					],
					"payable": false,
					"stateMutability": "nonpayable",
					"type": "function"
				},
				{
					"constant": false,
					"inputs": [],
					"name": "y",
					"outputs": [
						{
							"internalType": "uint256",
							"name": "",
							"type": "uint256"
						}
					],
					"payable": false,
					"stateMutability": "nonpayable",
					"type": "function"
				}
			],
			"devdoc": {
				"methods": {}
			},
			"evm": {
				"assembly": "    /* \"visibilty.sol\":409:730  contract D is C {\r... */\n  mstore(0x40, 0x80)\n    /* \"visibilty.sol\":104:106  30 */\n  0x1e\n    /* \"visibilty.sol\":85:106  uint public data = 30 */\n  0x00\n  sstore\n    /* \"visibilty.sol\":133:135  10 */\n  0x0a\n    /* \"visibilty.sol\":112:135  uint internal iData= 10 */\n  0x01\n  sstore\n    /* \"visibilty.sol\":409:730  contract D is C {\r... */\n  callvalue\n    /* \"--CODEGEN--\":8:17   */\n  dup1\n    /* \"--CODEGEN--\":5:7   */\n  iszero\n  tag_1\n  jumpi\n    /* \"--CODEGEN--\":30:31   */\n  0x00\n    /* \"--CODEGEN--\":27:28   */\n  dup1\n    /* \"--CODEGEN--\":20:32   */\n  revert\n    /* \"--CODEGEN--\":5:7   */\ntag_1:\n    /* \"visibilty.sol\":409:730  contract D is C {\r... */\n  pop\n  dataSize(sub_0)\n  dup1\n  dataOffset(sub_0)\n  0x00\n  codecopy\n  0x00\n  return\nstop\n\nsub_0: assembly {\n        /* \"visibilty.sol\":409:730  contract D is C {\r... */\n      mstore(0x40, 0x80)\n      callvalue\n        /* \"--CODEGEN--\":8:17   */\n      dup1\n        /* \"--CODEGEN--\":5:7   */\n      iszero\n      tag_1\n      jumpi\n        /* \"--CODEGEN--\":30:31   */\n      0x00\n        /* \"--CODEGEN--\":27:28   */\n      dup1\n        /* \"--CODEGEN--\":20:32   */\n      revert\n        /* \"--CODEGEN--\":5:7   */\n    tag_1:\n        /* \"visibilty.sol\":409:730  contract D is C {\r... */\n      pop\n      jumpi(tag_2, lt(calldatasize, 0x04))\n      shr(0xe0, calldataload(0x00))\n      dup1\n      0x0c55699c\n      eq\n      tag_3\n      jumpi\n      dup1\n      0x73d4a13a\n      eq\n      tag_4\n      jumpi\n      dup1\n      0xa56dfe4a\n      eq\n      tag_5\n      jumpi\n      dup1\n      0xde292789\n      eq\n      tag_6\n      jumpi\n    tag_2:\n      0x00\n      dup1\n      revert\n        /* \"visibilty.sol\":167:265  function x() public returns (uint) {\r... */\n    tag_3:\n      tag_7\n      tag_8\n      jump\t// in\n    tag_7:\n      mload(0x40)\n      dup1\n      dup3\n      dup2\n      mstore\n      0x20\n      add\n      swap2\n      pop\n      pop\n      mload(0x40)\n      dup1\n      swap2\n      sub\n      swap1\n      return\n        /* \"visibilty.sol\":85:106  uint public data = 30 */\n    tag_4:\n      tag_9\n      tag_10\n      jump\t// in\n    tag_9:\n      mload(0x40)\n      dup1\n      dup3\n      dup2\n      mstore\n      0x20\n      add\n      swap2\n      pop\n      pop\n      mload(0x40)\n      dup1\n      swap2\n      sub\n      swap1\n      return\n        /* \"visibilty.sol\":431:531  function y() public returns (uint) {\r... */\n    tag_5:\n      tag_11\n      tag_12\n      jump\t// in\n    tag_11:\n      mload(0x40)\n      dup1\n      dup3\n      dup2\n      mstore\n      0x20\n      add\n      swap2\n      pop\n      pop\n      mload(0x40)\n      dup1\n      swap2\n      sub\n      swap1\n      return\n        /* \"visibilty.sol\":536:727  function getResult() public view returns(uint){\r... */\n    tag_6:\n      tag_13\n      tag_14\n      jump\t// in\n    tag_13:\n      mload(0x40)\n      dup1\n      dup3\n      dup2\n      mstore\n      0x20\n      add\n      swap2\n      pop\n      pop\n      mload(0x40)\n      dup1\n      swap2\n      sub\n      swap1\n      return\n        /* \"visibilty.sol\":167:265  function x() public returns (uint) {\r... */\n    tag_8:\n        /* \"visibilty.sol\":196:200  uint */\n      0x00\n        /* \"visibilty.sol\":218:219  3 */\n      0x03\n        /* \"visibilty.sol\":211:215  data */\n      0x00\n        /* \"visibilty.sol\":211:219  data = 3 */\n      dup2\n      swap1\n      sstore\n      pop\n        /* \"visibilty.sol\":254:258  data */\n      sload(0x00)\n        /* \"visibilty.sol\":247:258  return data */\n      swap1\n      pop\n        /* \"visibilty.sol\":167:265  function x() public returns (uint) {\r... */\n      swap1\n      jump\t// out\n        /* \"visibilty.sol\":85:106  uint public data = 30 */\n    tag_10:\n      sload(0x00)\n      dup2\n      jump\t// out\n        /* \"visibilty.sol\":431:531  function y() public returns (uint) {\r... */\n    tag_12:\n        /* \"visibilty.sol\":460:464  uint */\n      0x00\n        /* \"visibilty.sol\":483:484  3 */\n      0x03\n        /* \"visibilty.sol\":475:480  iData */\n      0x01\n        /* \"visibilty.sol\":475:484  iData = 3 */\n      dup2\n      swap1\n      sstore\n      pop\n        /* \"visibilty.sol\":519:524  iData */\n      sload(0x01)\n        /* \"visibilty.sol\":512:524  return iData */\n      swap1\n      pop\n        /* \"visibilty.sol\":431:531  function y() public returns (uint) {\r... */\n      swap1\n      jump\t// out\n        /* \"visibilty.sol\":536:727  function getResult() public view returns(uint){\r... */\n    tag_14:\n        /* \"visibilty.sol\":577:581  uint */\n      0x00\n        /* \"visibilty.sol\":591:597  uint a */\n      dup1\n        /* \"visibilty.sol\":600:601  1 */\n      0x01\n        /* \"visibilty.sol\":591:601  uint a = 1 */\n      swap1\n      pop\n        /* \"visibilty.sol\":628:634  uint b */\n      0x00\n        /* \"visibilty.sol\":637:638  2 */\n      0x02\n        /* \"visibilty.sol\":628:638  uint b = 2 */\n      swap1\n      pop\n        /* \"visibilty.sol\":647:658  uint result */\n      0x00\n        /* \"visibilty.sol\":665:666  b */\n      dup2\n        /* \"visibilty.sol\":661:662  a */\n      dup4\n        /* \"visibilty.sol\":661:666  a + b */\n      add\n        /* \"visibilty.sol\":647:666  uint result = a + b */\n      swap1\n      pop\n        /* \"visibilty.sol\":682:692  storedData */\n      sload(0x02)\n        /* \"visibilty.sol\":675:692  return storedData */\n      swap4\n      pop\n      pop\n      pop\n      pop\n        /* \"visibilty.sol\":536:727  function getResult() public view returns(uint){\r... */\n      swap1\n      jump\t// out\n\n    auxdata: 0xa265627a7a72315820e044062cd0f45ff438997b2ed2351ad05fc4d37be8f3bcc68098205e0bc2a55464736f6c63430005110032\n}\n",
				"bytecode": {
					"linkReferences": {},
					"object": "6080604052601e600055600a60015534801561001a57600080fd5b506101478061002a6000396000f3fe608060405234801561001057600080fd5b506004361061004c5760003560e01c80630c55699c1461005157806373d4a13a1461006f578063a56dfe4a1461008d578063de292789146100ab575b600080fd5b6100596100c9565b6040518082815260200191505060405180910390f35b6100776100db565b6040518082815260200191505060405180910390f35b6100956100e1565b6040518082815260200191505060405180910390f35b6100b36100f3565b6040518082815260200191505060405180910390f35b60006003600081905550600054905090565b60005481565b60006003600181905550600154905090565b600080600190506000600290506000818301905060025493505050509056fea265627a7a72315820e044062cd0f45ff438997b2ed2351ad05fc4d37be8f3bcc68098205e0bc2a55464736f6c63430005110032",
					"opcodes": "PUSH1 0x80 PUSH1 0x40 MSTORE PUSH1 0x1E PUSH1 0x0 SSTORE PUSH1 0xA PUSH1 0x1 SSTORE CALLVALUE DUP1 ISZERO PUSH2 0x1A JUMPI PUSH1 0x0 DUP1 REVERT JUMPDEST POP PUSH2 0x147 DUP1 PUSH2 0x2A PUSH1 0x0 CODECOPY PUSH1 0x0 RETURN INVALID PUSH1 0x80 PUSH1 0x40 MSTORE CALLVALUE DUP1 ISZERO PUSH2 0x10 JUMPI PUSH1 0x0 DUP1 REVERT JUMPDEST POP PUSH1 0x4 CALLDATASIZE LT PUSH2 0x4C JUMPI PUSH1 0x0 CALLDATALOAD PUSH1 0xE0 SHR DUP1 PUSH4 0xC55699C EQ PUSH2 0x51 JUMPI DUP1 PUSH4 0x73D4A13A EQ PUSH2 0x6F JUMPI DUP1 PUSH4 0xA56DFE4A EQ PUSH2 0x8D JUMPI DUP1 PUSH4 0xDE292789 EQ PUSH2 0xAB JUMPI JUMPDEST PUSH1 0x0 DUP1 REVERT JUMPDEST PUSH2 0x59 PUSH2 0xC9 JUMP JUMPDEST PUSH1 0x40 MLOAD DUP1 DUP3 DUP2 MSTORE PUSH1 0x20 ADD SWAP2 POP POP PUSH1 0x40 MLOAD DUP1 SWAP2 SUB SWAP1 RETURN JUMPDEST PUSH2 0x77 PUSH2 0xDB JUMP JUMPDEST PUSH1 0x40 MLOAD DUP1 DUP3 DUP2 MSTORE PUSH1 0x20 ADD SWAP2 POP POP PUSH1 0x40 MLOAD DUP1 SWAP2 SUB SWAP1 RETURN JUMPDEST PUSH2 0x95 PUSH2 0xE1 JUMP JUMPDEST PUSH1 0x40 MLOAD DUP1 DUP3 DUP2 MSTORE PUSH1 0x20 ADD SWAP2 POP POP PUSH1 0x40 MLOAD DUP1 SWAP2 SUB SWAP1 RETURN JUMPDEST PUSH2 0xB3 PUSH2 0xF3 JUMP JUMPDEST PUSH1 0x40 MLOAD DUP1 DUP3 DUP2 MSTORE PUSH1 0x20 ADD SWAP2 POP POP PUSH1 0x40 MLOAD DUP1 SWAP2 SUB SWAP1 RETURN JUMPDEST PUSH1 0x0 PUSH1 0x3 PUSH1 0x0 DUP2 SWAP1 SSTORE POP PUSH1 0x0 SLOAD SWAP1 POP SWAP1 JUMP JUMPDEST PUSH1 0x0 SLOAD DUP2 JUMP JUMPDEST PUSH1 0x0 PUSH1 0x3 PUSH1 0x1 DUP2 SWAP1 SSTORE POP PUSH1 0x1 SLOAD SWAP1 POP SWAP1 JUMP JUMPDEST PUSH1 0x0 DUP1 PUSH1 0x1 SWAP1 POP PUSH1 0x0 PUSH1 0x2 SWAP1 POP PUSH1 0x0 DUP2 DUP4 ADD SWAP1 POP PUSH1 0x2 SLOAD SWAP4 POP POP POP POP SWAP1 JUMP INVALID LOG2 PUSH6 0x627A7A723158 KECCAK256 0xE0 DIFFICULTY MOD 0x2C 0xD0 DELEGATECALL 0x5F DELEGATECALL CODESIZE SWAP10 PUSH28 0x2ED2351AD05FC4D37BE8F3BCC68098205E0BC2A55464736F6C634300 SDIV GT STOP ORIGIN "
				},
				"gasEstimates": {
					"creation": {
						"codeDepositCost": "65400",
						"executionCost": "40129",
						"totalCost": "105529"
					},
					"external": {
						"data()": "1005",
						"getResult()": "1102",
						"x()": "21005",
						"y()": "21049"
					}
				},
				"methodIdentifiers": {
					"data()": "73d4a13a",
					"getResult()": "de292789",
					"x()": "0c55699c",
					"y()": "a56dfe4a"
				}
			},
			"storageLayout": {
				"storage": [
					{
						"astId": 4,
						"contract": "visibilty.sol:D",
						"label": "data",
						"offset": 0,
						"slot": "0",
						"type": "t_uint256"
					},
					{
						"astId": 7,
						"contract": "visibilty.sol:D",
						"label": "iData",
						"offset": 0,
						"slot": "1",
						"type": "t_uint256"
					},
					{
						"astId": 9,
						"contract": "visibilty.sol:D",
						"label": "storedData",
						"offset": 0,
						"slot": "2",
						"type": "t_uint256"
					}
				],
				"types": {
					"t_uint256": {
						"encoding": "inplace",
						"label": "uint256",
						"numberOfBytes": "32"
					}
				}
			},
			"userdoc": {
				"methods": {}
			}
		}
	}
}