{
	"payable.sol": {
		"State": {
			"abi": [
				{
					"constant": true,
					"inputs": [],
					"name": "age",
					"outputs": [
						{
							"internalType": "uint256",
							"name": "",
							"type": "uint256"
						}
					],
					"payable": false,
					"stateMutability": "view",
					"type": "function"
				},
				{
					"constant": false,
					"inputs": [],
					"name": "s",
					"outputs": [],
					"payable": false,
					"stateMutability": "nonpayable",
					"type": "function"
				}
			],
			"devdoc": {
				"methods": {}
			},
			"evm": {
				"assembly": "    /* \"payable.sol\":76:182  contract State\r... */\n  mstore(0x40, 0x80)\n  callvalue\n    /* \"--CODEGEN--\":8:17   */\n  dup1\n    /* \"--CODEGEN--\":5:7   */\n  iszero\n  tag_1\n  jumpi\n    /* \"--CODEGEN--\":30:31   */\n  0x00\n    /* \"--CODEGEN--\":27:28   */\n  dup1\n    /* \"--CODEGEN--\":20:32   */\n  revert\n    /* \"--CODEGEN--\":5:7   */\ntag_1:\n    /* \"payable.sol\":76:182  contract State\r... */\n  pop\n  dataSize(sub_0)\n  dup1\n  dataOffset(sub_0)\n  0x00\n  codecopy\n  0x00\n  return\nstop\n\nsub_0: assembly {\n        /* \"payable.sol\":76:182  contract State\r... */\n      mstore(0x40, 0x80)\n      callvalue\n        /* \"--CODEGEN--\":8:17   */\n      dup1\n        /* \"--CODEGEN--\":5:7   */\n      iszero\n      tag_1\n      jumpi\n        /* \"--CODEGEN--\":30:31   */\n      0x00\n        /* \"--CODEGEN--\":27:28   */\n      dup1\n        /* \"--CODEGEN--\":20:32   */\n      revert\n        /* \"--CODEGEN--\":5:7   */\n    tag_1:\n        /* \"payable.sol\":76:182  contract State\r... */\n      pop\n      jumpi(tag_2, lt(calldatasize, 0x04))\n      shr(0xe0, calldataload(0x00))\n      dup1\n      0x262a9dff\n      eq\n      tag_3\n      jumpi\n      dup1\n      0x86b714e2\n      eq\n      tag_4\n      jumpi\n    tag_2:\n      0x00\n      dup1\n      revert\n        /* \"payable.sol\":99:114  uint public age */\n    tag_3:\n      tag_5\n      tag_6\n      jump\t// in\n    tag_5:\n      mload(0x40)\n      dup1\n      dup3\n      dup2\n      mstore\n      0x20\n      add\n      swap2\n      pop\n      pop\n      mload(0x40)\n      dup1\n      swap2\n      sub\n      swap1\n      return\n        /* \"payable.sol\":129:179  function s() public\r... */\n    tag_4:\n      tag_7\n      tag_8\n      jump\t// in\n    tag_7:\n      stop\n        /* \"payable.sol\":99:114  uint public age */\n    tag_6:\n      sload(0x00)\n      dup2\n      jump\t// out\n        /* \"payable.sol\":129:179  function s() public\r... */\n    tag_8:\n        /* \"payable.sol\":169:171  10 */\n      0x0a\n        /* \"payable.sol\":165:168  age */\n      0x00\n        /* \"payable.sol\":165:171  age=10 */\n      dup2\n      swap1\n      sstore\n      pop\n        /* \"payable.sol\":129:179  function s() public\r... */\n      jump\t// out\n\n    auxdata: 0xa265627a7a72315820d8829a689811329a6b270654b184f5b9030c5c9aeb7aab56162cb75a2cfb2bc764736f6c63430005110032\n}\n",
				"bytecode": {
					"linkReferences": {},
					"object": "6080604052348015600f57600080fd5b5060a08061001e6000396000f3fe6080604052348015600f57600080fd5b506004361060325760003560e01c8063262a9dff14603757806386b714e2146053575b600080fd5b603d605b565b6040518082815260200191505060405180910390f35b60596061565b005b60005481565b600a60008190555056fea265627a7a72315820d8829a689811329a6b270654b184f5b9030c5c9aeb7aab56162cb75a2cfb2bc764736f6c63430005110032",
					"opcodes": "PUSH1 0x80 PUSH1 0x40 MSTORE CALLVALUE DUP1 ISZERO PUSH1 0xF JUMPI PUSH1 0x0 DUP1 REVERT JUMPDEST POP PUSH1 0xA0 DUP1 PUSH2 0x1E PUSH1 0x0 CODECOPY PUSH1 0x0 RETURN INVALID PUSH1 0x80 PUSH1 0x40 MSTORE CALLVALUE DUP1 ISZERO PUSH1 0xF JUMPI PUSH1 0x0 DUP1 REVERT JUMPDEST POP PUSH1 0x4 CALLDATASIZE LT PUSH1 0x32 JUMPI PUSH1 0x0 CALLDATALOAD PUSH1 0xE0 SHR DUP1 PUSH4 0x262A9DFF EQ PUSH1 0x37 JUMPI DUP1 PUSH4 0x86B714E2 EQ PUSH1 0x53 JUMPI JUMPDEST PUSH1 0x0 DUP1 REVERT JUMPDEST PUSH1 0x3D PUSH1 0x5B JUMP JUMPDEST PUSH1 0x40 MLOAD DUP1 DUP3 DUP2 MSTORE PUSH1 0x20 ADD SWAP2 POP POP PUSH1 0x40 MLOAD DUP1 SWAP2 SUB SWAP1 RETURN JUMPDEST PUSH1 0x59 PUSH1 0x61 JUMP JUMPDEST STOP JUMPDEST PUSH1 0x0 SLOAD DUP2 JUMP JUMPDEST PUSH1 0xA PUSH1 0x0 DUP2 SWAP1 SSTORE POP JUMP INVALID LOG2 PUSH6 0x627A7A723158 KECCAK256 0xD8 DUP3 SWAP11 PUSH9 0x9811329A6B270654B1 DUP5 CREATE2 0xB9 SUB 0xC 0x5C SWAP11 0xEB PUSH27 0xAB56162CB75A2CFB2BC764736F6C63430005110032000000000000 "
				},
				"gasEstimates": {
					"creation": {
						"codeDepositCost": "32000",
						"executionCost": "81",
						"totalCost": "32081"
					},
					"external": {
						"age()": "983",
						"s()": "20158"
					}
				},
				"methodIdentifiers": {
					"age()": "262a9dff",
					"s()": "86b714e2"
				}
			},
			"storageLayout": {
				"storage": [
					{
						"astId": 3,
						"contract": "payable.sol:State",
						"label": "age",
						"offset": 0,
						"slot": "0",
						"type": "t_uint256"
					}
				],
				"types": {
					"t_uint256": {
						"encoding": "inplace",
						"label": "uint256",
						"numberOfBytes": "32"
					}
				}
			},
			"userdoc": {
				"methods": {}
			}
		}
	}
}