{
	"crowd_funding.sol": {
		"CrowdFunding": {
			"abi": [
				{
					"inputs": [
						{
							"internalType": "uint256",
							"name": "_target",
							"type": "uint256"
						},
						{
							"internalType": "uint256",
							"name": "_deadline",
							"type": "uint256"
						}
					],
					"stateMutability": "nonpayable",
					"type": "constructor"
				},
				{
					"inputs": [
						{
							"internalType": "address",
							"name": "",
							"type": "address"
						}
					],
					"name": "contributers",
					"outputs": [
						{
							"internalType": "uint256",
							"name": "",
							"type": "uint256"
						}
					],
					"stateMutability": "view",
					"type": "function"
				},
				{
					"inputs": [],
					"name": "deadline",
					"outputs": [
						{
							"internalType": "uint256",
							"name": "",
							"type": "uint256"
						}
					],
					"stateMutability": "view",
					"type": "function"
				},
				{
					"inputs": [],
					"name": "getContractBalance",
					"outputs": [
						{
							"internalType": "uint256",
							"name": "",
							"type": "uint256"
						}
					],
					"stateMutability": "view",
					"type": "function"
				},
				{
					"inputs": [],
					"name": "manager",
					"outputs": [
						{
							"internalType": "address",
							"name": "",
							"type": "address"
						}
					],
					"stateMutability": "view",
					"type": "function"
				},
				{
					"inputs": [],
					"name": "minimumContribution",
					"outputs": [
						{
							"internalType": "uint256",
							"name": "",
							"type": "uint256"
						}
					],
					"stateMutability": "view",
					"type": "function"
				},
				{
					"inputs": [],
					"name": "noOfContributers",
					"outputs": [
						{
							"internalType": "uint256",
							"name": "",
							"type": "uint256"
						}
					],
					"stateMutability": "view",
					"type": "function"
				},
				{
					"inputs": [],
					"name": "raisedAmount",
					"outputs": [
						{
							"internalType": "uint256",
							"name": "",
							"type": "uint256"
						}
					],
					"stateMutability": "view",
					"type": "function"
				},
				{
					"inputs": [],
					"name": "refund",
					"outputs": [],
					"stateMutability": "nonpayable",
					"type": "function"
				},
				{
					"inputs": [],
					"name": "sedEth",
					"outputs": [],
					"stateMutability": "payable",
					"type": "function"
				},
				{
					"inputs": [],
					"name": "target",
					"outputs": [
						{
							"internalType": "uint256",
							"name": "",
							"type": "uint256"
						}
					],
					"stateMutability": "view",
					"type": "function"
				}
			],
			"devdoc": {
				"kind": "dev",
				"methods": {},
				"version": 1
			},
			"evm": {
				"assembly": "    /* \"crowd_funding.sol\":76:1663  contract CrowdFunding{\r... */\n  mstore(0x40, 0x80)\n    /* \"crowd_funding.sol\":341:634  constructor(uint _target,uint _deadline){\r... */\n  callvalue\n  dup1\n  iszero\n  tag_1\n  jumpi\n  0x00\n  dup1\n  revert\ntag_1:\n  pop\n  mload(0x40)\n  sub(codesize, bytecodeSize)\n  dup1\n  bytecodeSize\n  dup4\n  codecopy\n  dup2\n  dup2\n  add\n  0x40\n  mstore\n  dup2\n  add\n  swap1\n  tag_2\n  swap2\n  swap1\n  tag_3\n  jump\t// in\ntag_2:\n    /* \"crowd_funding.sol\":399:406  _target */\n  dup2\n    /* \"crowd_funding.sol\":392:398  target */\n  0x03\n    /* \"crowd_funding.sol\":392:406  target=_target */\n  dup2\n  swap1\n  sstore\n  pop\n    /* \"crowd_funding.sol\":442:451  _deadline */\n  dup1\n    /* \"crowd_funding.sol\":426:441  block.timestamp */\n  timestamp\n    /* \"crowd_funding.sol\":426:451  block.timestamp+_deadline */\n  tag_6\n  swap2\n  swap1\n  tag_7\n  jump\t// in\ntag_6:\n    /* \"crowd_funding.sol\":417:425  deadline */\n  0x02\n    /* \"crowd_funding.sol\":417:451  deadline=block.timestamp+_deadline */\n  dup2\n  swap1\n  sstore\n  pop\n    /* \"crowd_funding.sol\":499:506  100 wei */\n  0x64\n    /* \"crowd_funding.sol\":479:498  minimumContribution */\n  0x06\n    /* \"crowd_funding.sol\":479:506  minimumContribution=100 wei */\n  dup2\n  swap1\n  sstore\n  pop\n    /* \"crowd_funding.sol\":525:535  msg.sender */\n  caller\n    /* \"crowd_funding.sol\":517:524  manager */\n  0x01\n  0x00\n    /* \"crowd_funding.sol\":517:535  manager=msg.sender */\n  0x0100\n  exp\n  dup2\n  sload\n  dup2\n  0xffffffffffffffffffffffffffffffffffffffff\n  mul\n  not\n  and\n  swap1\n  dup4\n  0xffffffffffffffffffffffffffffffffffffffff\n  and\n  mul\n  or\n  swap1\n  sstore\n  pop\n    /* \"crowd_funding.sol\":341:634  constructor(uint _target,uint _deadline){\r... */\n  pop\n  pop\n    /* \"crowd_funding.sol\":76:1663  contract CrowdFunding{\r... */\n  jump(tag_8)\n    /* \"#utility.yul\":7:150   */\ntag_10:\n  0x00\n    /* \"#utility.yul\":95:101   */\n  dup2\n    /* \"#utility.yul\":89:102   */\n  mload\n    /* \"#utility.yul\":80:102   */\n  swap1\n  pop\n    /* \"#utility.yul\":111:144   */\n  tag_12\n    /* \"#utility.yul\":138:143   */\n  dup2\n    /* \"#utility.yul\":111:144   */\n  tag_13\n  jump\t// in\ntag_12:\n    /* \"#utility.yul\":70:150   */\n  swap3\n  swap2\n  pop\n  pop\n  jump\t// out\n    /* \"#utility.yul\":156:596   */\ntag_3:\n  0x00\n  dup1\n    /* \"#utility.yul\":292:294   */\n  0x40\n    /* \"#utility.yul\":280:289   */\n  dup4\n    /* \"#utility.yul\":271:278   */\n  dup6\n    /* \"#utility.yul\":267:290   */\n  sub\n    /* \"#utility.yul\":263:295   */\n  slt\n    /* \"#utility.yul\":260:262   */\n  iszero\n  tag_15\n  jumpi\n    /* \"#utility.yul\":308:309   */\n  0x00\n    /* \"#utility.yul\":305:306   */\n  dup1\n    /* \"#utility.yul\":298:310   */\n  revert\n    /* \"#utility.yul\":260:262   */\ntag_15:\n    /* \"#utility.yul\":351:352   */\n  0x00\n    /* \"#utility.yul\":376:440   */\n  tag_16\n    /* \"#utility.yul\":432:439   */\n  dup6\n    /* \"#utility.yul\":423:429   */\n  dup3\n    /* \"#utility.yul\":412:421   */\n  dup7\n    /* \"#utility.yul\":408:430   */\n  add\n    /* \"#utility.yul\":376:440   */\n  tag_10\n  jump\t// in\ntag_16:\n    /* \"#utility.yul\":366:440   */\n  swap3\n  pop\n    /* \"#utility.yul\":322:450   */\n  pop\n    /* \"#utility.yul\":489:491   */\n  0x20\n    /* \"#utility.yul\":515:579   */\n  tag_17\n    /* \"#utility.yul\":571:578   */\n  dup6\n    /* \"#utility.yul\":562:568   */\n  dup3\n    /* \"#utility.yul\":551:560   */\n  dup7\n    /* \"#utility.yul\":547:569   */\n  add\n    /* \"#utility.yul\":515:579   */\n  tag_10\n  jump\t// in\ntag_17:\n    /* \"#utility.yul\":505:579   */\n  swap2\n  pop\n    /* \"#utility.yul\":460:589   */\n  pop\n    /* \"#utility.yul\":250:596   */\n  swap3\n  pop\n  swap3\n  swap1\n  pop\n  jump\t// out\n    /* \"#utility.yul\":602:907   */\ntag_7:\n  0x00\n    /* \"#utility.yul\":661:681   */\n  tag_19\n    /* \"#utility.yul\":679:680   */\n  dup3\n    /* \"#utility.yul\":661:681   */\n  tag_20\n  jump\t// in\ntag_19:\n    /* \"#utility.yul\":656:681   */\n  swap2\n  pop\n    /* \"#utility.yul\":695:715   */\n  tag_21\n    /* \"#utility.yul\":713:714   */\n  dup4\n    /* \"#utility.yul\":695:715   */\n  tag_20\n  jump\t// in\ntag_21:\n    /* \"#utility.yul\":690:715   */\n  swap3\n  pop\n    /* \"#utility.yul\":849:850   */\n  dup3\n    /* \"#utility.yul\":781:847   */\n  0xffffffffffffffffffffffffffffffffffffffffffffffffffffffffffffffff\n    /* \"#utility.yul\":777:851   */\n  sub\n    /* \"#utility.yul\":774:775   */\n  dup3\n    /* \"#utility.yul\":771:852   */\n  gt\n    /* \"#utility.yul\":768:770   */\n  iszero\n  tag_22\n  jumpi\n    /* \"#utility.yul\":855:873   */\n  tag_23\n  tag_24\n  jump\t// in\ntag_23:\n    /* \"#utility.yul\":768:770   */\ntag_22:\n    /* \"#utility.yul\":899:900   */\n  dup3\n    /* \"#utility.yul\":896:897   */\n  dup3\n    /* \"#utility.yul\":892:901   */\n  add\n    /* \"#utility.yul\":885:901   */\n  swap1\n  pop\n    /* \"#utility.yul\":646:907   */\n  swap3\n  swap2\n  pop\n  pop\n  jump\t// out\n    /* \"#utility.yul\":913:990   */\ntag_20:\n  0x00\n    /* \"#utility.yul\":979:984   */\n  dup2\n    /* \"#utility.yul\":968:984   */\n  swap1\n  pop\n    /* \"#utility.yul\":958:990   */\n  swap2\n  swap1\n  pop\n  jump\t// out\n    /* \"#utility.yul\":996:1176   */\ntag_24:\n    /* \"#utility.yul\":1044:1121   */\n  0x4e487b7100000000000000000000000000000000000000000000000000000000\n    /* \"#utility.yul\":1041:1042   */\n  0x00\n    /* \"#utility.yul\":1034:1122   */\n  mstore\n    /* \"#utility.yul\":1141:1145   */\n  0x11\n    /* \"#utility.yul\":1138:1139   */\n  0x04\n    /* \"#utility.yul\":1131:1146   */\n  mstore\n    /* \"#utility.yul\":1165:1169   */\n  0x24\n    /* \"#utility.yul\":1162:1163   */\n  0x00\n    /* \"#utility.yul\":1155:1170   */\n  revert\n    /* \"#utility.yul\":1182:1304   */\ntag_13:\n    /* \"#utility.yul\":1255:1279   */\n  tag_28\n    /* \"#utility.yul\":1273:1278   */\n  dup2\n    /* \"#utility.yul\":1255:1279   */\n  tag_20\n  jump\t// in\ntag_28:\n    /* \"#utility.yul\":1248:1253   */\n  dup2\n    /* \"#utility.yul\":1245:1280   */\n  eq\n    /* \"#utility.yul\":1235:1237   */\n  tag_29\n  jumpi\n    /* \"#utility.yul\":1294:1295   */\n  0x00\n    /* \"#utility.yul\":1291:1292   */\n  dup1\n    /* \"#utility.yul\":1284:1296   */\n  revert\n    /* \"#utility.yul\":1235:1237   */\ntag_29:\n    /* \"#utility.yul\":1225:1304   */\n  pop\n  jump\t// out\n    /* \"crowd_funding.sol\":76:1663  contract CrowdFunding{\r... */\ntag_8:\n  dataSize(sub_0)\n  dup1\n  dataOffset(sub_0)\n  0x00\n  codecopy\n  0x00\n  return\nstop\n\nsub_0: assembly {\n        /* \"crowd_funding.sol\":76:1663  contract CrowdFunding{\r... */\n      mstore(0x40, 0x80)\n      jumpi(tag_1, lt(calldatasize, 0x04))\n      shr(0xe0, calldataload(0x00))\n      dup1\n      0x5edec2c4\n      gt\n      tag_12\n      jumpi\n      dup1\n      0x5edec2c4\n      eq\n      tag_7\n      jumpi\n      dup1\n      0x6f9fb98a\n      eq\n      tag_8\n      jumpi\n      dup1\n      0x937e09b1\n      eq\n      tag_9\n      jumpi\n      dup1\n      0xc59ee1dc\n      eq\n      tag_10\n      jumpi\n      dup1\n      0xd4b83992\n      eq\n      tag_11\n      jumpi\n      jump(tag_1)\n    tag_12:\n      dup1\n      0x24274ee9\n      eq\n      tag_2\n      jumpi\n      dup1\n      0x29dcb0cf\n      eq\n      tag_3\n      jumpi\n      dup1\n      0x34b66460\n      eq\n      tag_4\n      jumpi\n      dup1\n      0x481c6a75\n      eq\n      tag_5\n      jumpi\n      dup1\n      0x590e1ae3\n      eq\n      tag_6\n      jumpi\n    tag_1:\n      0x00\n      dup1\n      revert\n        /* \"crowd_funding.sol\":266:294  uint public noOfContributers */\n    tag_2:\n      callvalue\n      dup1\n      iszero\n      tag_13\n      jumpi\n      0x00\n      dup1\n      revert\n    tag_13:\n      pop\n      tag_14\n      tag_15\n      jump\t// in\n    tag_14:\n      mload(0x40)\n      tag_16\n      swap2\n      swap1\n      tag_17\n      jump\t// in\n    tag_16:\n      mload(0x40)\n      dup1\n      swap2\n      sub\n      swap1\n      return\n        /* \"crowd_funding.sol\":183:203  uint public deadline */\n    tag_3:\n      callvalue\n      dup1\n      iszero\n      tag_18\n      jumpi\n      0x00\n      dup1\n      revert\n    tag_18:\n      pop\n      tag_19\n      tag_20\n      jump\t// in\n    tag_19:\n      mload(0x40)\n      tag_21\n      swap2\n      swap1\n      tag_17\n      jump\t// in\n    tag_21:\n      mload(0x40)\n      dup1\n      swap2\n      sub\n      swap1\n      return\n        /* \"crowd_funding.sol\":104:146  mapping(address=>uint) public contributers */\n    tag_4:\n      callvalue\n      dup1\n      iszero\n      tag_22\n      jumpi\n      0x00\n      dup1\n      revert\n    tag_22:\n      pop\n      tag_23\n      0x04\n      dup1\n      calldatasize\n      sub\n      dup2\n      add\n      swap1\n      tag_24\n      swap2\n      swap1\n      tag_25\n      jump\t// in\n    tag_24:\n      tag_26\n      jump\t// in\n    tag_23:\n      mload(0x40)\n      tag_27\n      swap2\n      swap1\n      tag_17\n      jump\t// in\n    tag_27:\n      mload(0x40)\n      dup1\n      swap2\n      sub\n      swap1\n      return\n        /* \"crowd_funding.sol\":154:176  address public manager */\n    tag_5:\n      callvalue\n      dup1\n      iszero\n      tag_28\n      jumpi\n      0x00\n      dup1\n      revert\n    tag_28:\n      pop\n      tag_29\n      tag_30\n      jump\t// in\n    tag_29:\n      mload(0x40)\n      tag_31\n      swap2\n      swap1\n      tag_32\n      jump\t// in\n    tag_31:\n      mload(0x40)\n      dup1\n      swap2\n      sub\n      swap1\n      return\n        /* \"crowd_funding.sol\":1266:1657  function refund() public{\r... */\n    tag_6:\n      callvalue\n      dup1\n      iszero\n      tag_33\n      jumpi\n      0x00\n      dup1\n      revert\n    tag_33:\n      pop\n      tag_34\n      tag_35\n      jump\t// in\n    tag_34:\n      stop\n        /* \"crowd_funding.sol\":642:1148  function sedEth() public payable{\r... */\n    tag_7:\n      tag_36\n      tag_37\n      jump\t// in\n    tag_36:\n      stop\n        /* \"crowd_funding.sol\":1156:1258  function getContractBalance() public view returns(uint){\r... */\n    tag_8:\n      callvalue\n      dup1\n      iszero\n      tag_38\n      jumpi\n      0x00\n      dup1\n      revert\n    tag_38:\n      pop\n      tag_39\n      tag_40\n      jump\t// in\n    tag_39:\n      mload(0x40)\n      tag_41\n      swap2\n      swap1\n      tag_17\n      jump\t// in\n    tag_41:\n      mload(0x40)\n      dup1\n      swap2\n      sub\n      swap1\n      return\n        /* \"crowd_funding.sol\":301:332  uint public minimumContribution */\n    tag_9:\n      callvalue\n      dup1\n      iszero\n      tag_42\n      jumpi\n      0x00\n      dup1\n      revert\n    tag_42:\n      pop\n      tag_43\n      tag_44\n      jump\t// in\n    tag_43:\n      mload(0x40)\n      tag_45\n      swap2\n      swap1\n      tag_17\n      jump\t// in\n    tag_45:\n      mload(0x40)\n      dup1\n      swap2\n      sub\n      swap1\n      return\n        /* \"crowd_funding.sol\":235:259  uint public raisedAmount */\n    tag_10:\n      callvalue\n      dup1\n      iszero\n      tag_46\n      jumpi\n      0x00\n      dup1\n      revert\n    tag_46:\n      pop\n      tag_47\n      tag_48\n      jump\t// in\n    tag_47:\n      mload(0x40)\n      tag_49\n      swap2\n      swap1\n      tag_17\n      jump\t// in\n    tag_49:\n      mload(0x40)\n      dup1\n      swap2\n      sub\n      swap1\n      return\n        /* \"crowd_funding.sol\":210:228  uint public target */\n    tag_11:\n      callvalue\n      dup1\n      iszero\n      tag_50\n      jumpi\n      0x00\n      dup1\n      revert\n    tag_50:\n      pop\n      tag_51\n      tag_52\n      jump\t// in\n    tag_51:\n      mload(0x40)\n      tag_53\n      swap2\n      swap1\n      tag_17\n      jump\t// in\n    tag_53:\n      mload(0x40)\n      dup1\n      swap2\n      sub\n      swap1\n      return\n        /* \"crowd_funding.sol\":266:294  uint public noOfContributers */\n    tag_15:\n      sload(0x05)\n      dup2\n      jump\t// out\n        /* \"crowd_funding.sol\":183:203  uint public deadline */\n    tag_20:\n      sload(0x02)\n      dup2\n      jump\t// out\n        /* \"crowd_funding.sol\":104:146  mapping(address=>uint) public contributers */\n    tag_26:\n      mstore(0x20, 0x00)\n      dup1\n      0x00\n      mstore\n      keccak256(0x00, 0x40)\n      0x00\n      swap2\n      pop\n      swap1\n      pop\n      sload\n      dup2\n      jump\t// out\n        /* \"crowd_funding.sol\":154:176  address public manager */\n    tag_30:\n      0x01\n      0x00\n      swap1\n      sload\n      swap1\n      0x0100\n      exp\n      swap1\n      div\n      0xffffffffffffffffffffffffffffffffffffffff\n      and\n      dup2\n      jump\t// out\n        /* \"crowd_funding.sol\":1266:1657  function refund() public{\r... */\n    tag_35:\n        /* \"crowd_funding.sol\":1325:1333  deadline */\n      sload(0x02)\n        /* \"crowd_funding.sol\":1309:1324  block.timestamp */\n      timestamp\n        /* \"crowd_funding.sol\":1309:1333  block.timestamp>deadline */\n      gt\n        /* \"crowd_funding.sol\":1309:1356  block.timestamp>deadline && raisedAmount<target */\n      dup1\n      iszero\n      tag_55\n      jumpi\n      pop\n        /* \"crowd_funding.sol\":1350:1356  target */\n      sload(0x03)\n        /* \"crowd_funding.sol\":1337:1349  raisedAmount */\n      sload(0x04)\n        /* \"crowd_funding.sol\":1337:1356  raisedAmount<target */\n      lt\n        /* \"crowd_funding.sol\":1309:1356  block.timestamp>deadline && raisedAmount<target */\n    tag_55:\n        /* \"crowd_funding.sol\":1301:1391  require(block.timestamp>deadline && raisedAmount<target,\"you are not eligible for refund\") */\n      tag_56\n      jumpi\n      mload(0x40)\n      0x08c379a000000000000000000000000000000000000000000000000000000000\n      dup2\n      mstore\n      0x04\n      add\n      tag_57\n      swap1\n      tag_58\n      jump\t// in\n    tag_57:\n      mload(0x40)\n      dup1\n      swap2\n      sub\n      swap1\n      revert\n    tag_56:\n        /* \"crowd_funding.sol\":1435:1436  0 */\n      0x00\n        /* \"crowd_funding.sol\":1410:1422  contributers */\n      dup1\n        /* \"crowd_funding.sol\":1410:1434  contributers[msg.sender] */\n      0x00\n        /* \"crowd_funding.sol\":1423:1433  msg.sender */\n      caller\n        /* \"crowd_funding.sol\":1410:1434  contributers[msg.sender] */\n      0xffffffffffffffffffffffffffffffffffffffff\n      and\n      0xffffffffffffffffffffffffffffffffffffffff\n      and\n      dup2\n      mstore\n      0x20\n      add\n      swap1\n      dup2\n      mstore\n      0x20\n      add\n      0x00\n      keccak256\n      sload\n        /* \"crowd_funding.sol\":1410:1436  contributers[msg.sender]>0 */\n      gt\n        /* \"crowd_funding.sol\":1402:1437  require(contributers[msg.sender]>0) */\n      tag_59\n      jumpi\n      0x00\n      dup1\n      revert\n    tag_59:\n        /* \"crowd_funding.sol\":1519:1539  address payable user */\n      0x00\n        /* \"crowd_funding.sol\":1550:1560  msg.sender */\n      caller\n        /* \"crowd_funding.sol\":1519:1561  address payable user = payable(msg.sender) */\n      swap1\n      pop\n        /* \"crowd_funding.sol\":1573:1577  user */\n      dup1\n        /* \"crowd_funding.sol\":1573:1586  user.transfer */\n      0xffffffffffffffffffffffffffffffffffffffff\n      and\n        /* \"crowd_funding.sol\":1573:1612  user.transfer(contributers[msg.sender]) */\n      0x08fc\n        /* \"crowd_funding.sol\":1587:1599  contributers */\n      0x00\n        /* \"crowd_funding.sol\":1587:1611  contributers[msg.sender] */\n      dup1\n        /* \"crowd_funding.sol\":1600:1610  msg.sender */\n      caller\n        /* \"crowd_funding.sol\":1587:1611  contributers[msg.sender] */\n      0xffffffffffffffffffffffffffffffffffffffff\n      and\n      0xffffffffffffffffffffffffffffffffffffffff\n      and\n      dup2\n      mstore\n      0x20\n      add\n      swap1\n      dup2\n      mstore\n      0x20\n      add\n      0x00\n      keccak256\n      sload\n        /* \"crowd_funding.sol\":1573:1612  user.transfer(contributers[msg.sender]) */\n      swap1\n      dup2\n      iszero\n      mul\n      swap1\n      mload(0x40)\n      0x00\n      mload(0x40)\n      dup1\n      dup4\n      sub\n      dup2\n      dup6\n      dup9\n      dup9\n      call\n      swap4\n      pop\n      pop\n      pop\n      pop\n      iszero\n      dup1\n      iszero\n      tag_61\n      jumpi\n      returndatasize\n      0x00\n      dup1\n      returndatacopy\n      revert(0x00, returndatasize)\n    tag_61:\n      pop\n        /* \"crowd_funding.sol\":1648:1649  0 */\n      0x00\n        /* \"crowd_funding.sol\":1623:1635  contributers */\n      dup1\n        /* \"crowd_funding.sol\":1623:1647  contributers[msg.sender] */\n      0x00\n        /* \"crowd_funding.sol\":1636:1646  msg.sender */\n      caller\n        /* \"crowd_funding.sol\":1623:1647  contributers[msg.sender] */\n      0xffffffffffffffffffffffffffffffffffffffff\n      and\n      0xffffffffffffffffffffffffffffffffffffffff\n      and\n      dup2\n      mstore\n      0x20\n      add\n      swap1\n      dup2\n      mstore\n      0x20\n      add\n      0x00\n      keccak256\n        /* \"crowd_funding.sol\":1623:1649  contributers[msg.sender]=0 */\n      dup2\n      swap1\n      sstore\n      pop\n        /* \"crowd_funding.sol\":1266:1657  function refund() public{\r... */\n      pop\n      jump\t// out\n        /* \"crowd_funding.sol\":642:1148  function sedEth() public payable{\r... */\n    tag_37:\n        /* \"crowd_funding.sol\":709:717  deadline */\n      sload(0x02)\n        /* \"crowd_funding.sol\":693:708  block.timestamp */\n      timestamp\n        /* \"crowd_funding.sol\":693:717  block.timestamp<deadline */\n      lt\n        /* \"crowd_funding.sol\":685:740  require(block.timestamp<deadline,\"deadline has passed\") */\n      tag_63\n      jumpi\n      mload(0x40)\n      0x08c379a000000000000000000000000000000000000000000000000000000000\n      dup2\n      mstore\n      0x04\n      add\n      tag_64\n      swap1\n      tag_65\n      jump\t// in\n    tag_64:\n      mload(0x40)\n      dup1\n      swap2\n      sub\n      swap1\n      revert\n    tag_63:\n        /* \"crowd_funding.sol\":770:789  minimumContribution */\n      sload(0x06)\n        /* \"crowd_funding.sol\":759:768  msg.value */\n      callvalue\n        /* \"crowd_funding.sol\":759:789  msg.value>=minimumContribution */\n      lt\n      iszero\n        /* \"crowd_funding.sol\":751:823  require(msg.value>=minimumContribution,\"minimun Contrbution is not met\") */\n      tag_66\n      jumpi\n      mload(0x40)\n      0x08c379a000000000000000000000000000000000000000000000000000000000\n      dup2\n      mstore\n      0x04\n      add\n      tag_67\n      swap1\n      tag_68\n      jump\t// in\n    tag_67:\n      mload(0x40)\n      dup1\n      swap2\n      sub\n      swap1\n      revert\n    tag_66:\n        /* \"crowd_funding.sol\":865:866  0 */\n      0x00\n        /* \"crowd_funding.sol\":839:851  contributers */\n      dup1\n        /* \"crowd_funding.sol\":839:863  contributers[msg.sender] */\n      0x00\n        /* \"crowd_funding.sol\":852:862  msg.sender */\n      caller\n        /* \"crowd_funding.sol\":839:863  contributers[msg.sender] */\n      0xffffffffffffffffffffffffffffffffffffffff\n      and\n      0xffffffffffffffffffffffffffffffffffffffff\n      and\n      dup2\n      mstore\n      0x20\n      add\n      swap1\n      dup2\n      mstore\n      0x20\n      add\n      0x00\n      keccak256\n      sload\n        /* \"crowd_funding.sol\":839:866  contributers[msg.sender]==0 */\n      eq\n        /* \"crowd_funding.sol\":836:1061  if(contributers[msg.sender]==0){ \r... */\n      iszero\n      tag_69\n      jumpi\n        /* \"crowd_funding.sol\":1031:1047  noOfContributers */\n      0x05\n      0x00\n        /* \"crowd_funding.sol\":1031:1049  noOfContributers++ */\n      dup2\n      sload\n      dup1\n      swap3\n      swap2\n      swap1\n      tag_70\n      swap1\n      tag_71\n      jump\t// in\n    tag_70:\n      swap2\n      swap1\n      pop\n      sstore\n      pop\n        /* \"crowd_funding.sol\":836:1061  if(contributers[msg.sender]==0){ \r... */\n    tag_69:\n        /* \"crowd_funding.sol\":1097:1106  msg.value */\n      callvalue\n        /* \"crowd_funding.sol\":1071:1083  contributers */\n      0x00\n        /* \"crowd_funding.sol\":1071:1095  contributers[msg.sender] */\n      dup1\n        /* \"crowd_funding.sol\":1084:1094  msg.sender */\n      caller\n        /* \"crowd_funding.sol\":1071:1095  contributers[msg.sender] */\n      0xffffffffffffffffffffffffffffffffffffffff\n      and\n      0xffffffffffffffffffffffffffffffffffffffff\n      and\n      dup2\n      mstore\n      0x20\n      add\n      swap1\n      dup2\n      mstore\n      0x20\n      add\n      0x00\n      keccak256\n      0x00\n        /* \"crowd_funding.sol\":1071:1106  contributers[msg.sender]+=msg.value */\n      dup3\n      dup3\n      sload\n      tag_72\n      swap2\n      swap1\n      tag_73\n      jump\t// in\n    tag_72:\n      swap3\n      pop\n      pop\n      dup2\n      swap1\n      sstore\n      pop\n        /* \"crowd_funding.sol\":1131:1140  msg.value */\n      callvalue\n        /* \"crowd_funding.sol\":1117:1129  raisedAmount */\n      0x04\n      0x00\n        /* \"crowd_funding.sol\":1117:1140  raisedAmount+=msg.value */\n      dup3\n      dup3\n      sload\n      tag_74\n      swap2\n      swap1\n      tag_73\n      jump\t// in\n    tag_74:\n      swap3\n      pop\n      pop\n      dup2\n      swap1\n      sstore\n      pop\n        /* \"crowd_funding.sol\":642:1148  function sedEth() public payable{\r... */\n      jump\t// out\n        /* \"crowd_funding.sol\":1156:1258  function getContractBalance() public view returns(uint){\r... */\n    tag_40:\n        /* \"crowd_funding.sol\":1206:1210  uint */\n      0x00\n        /* \"crowd_funding.sol\":1229:1250  address(this).balance */\n      selfbalance\n        /* \"crowd_funding.sol\":1222:1250  return address(this).balance */\n      swap1\n      pop\n        /* \"crowd_funding.sol\":1156:1258  function getContractBalance() public view returns(uint){\r... */\n      swap1\n      jump\t// out\n        /* \"crowd_funding.sol\":301:332  uint public minimumContribution */\n    tag_44:\n      sload(0x06)\n      dup2\n      jump\t// out\n        /* \"crowd_funding.sol\":235:259  uint public raisedAmount */\n    tag_48:\n      sload(0x04)\n      dup2\n      jump\t// out\n        /* \"crowd_funding.sol\":210:228  uint public target */\n    tag_52:\n      sload(0x03)\n      dup2\n      jump\t// out\n        /* \"#utility.yul\":7:146   */\n    tag_77:\n      0x00\n        /* \"#utility.yul\":91:97   */\n      dup2\n        /* \"#utility.yul\":78:98   */\n      calldataload\n        /* \"#utility.yul\":69:98   */\n      swap1\n      pop\n        /* \"#utility.yul\":107:140   */\n      tag_79\n        /* \"#utility.yul\":134:139   */\n      dup2\n        /* \"#utility.yul\":107:140   */\n      tag_80\n      jump\t// in\n    tag_79:\n        /* \"#utility.yul\":59:146   */\n      swap3\n      swap2\n      pop\n      pop\n      jump\t// out\n        /* \"#utility.yul\":152:414   */\n    tag_25:\n      0x00\n        /* \"#utility.yul\":260:262   */\n      0x20\n        /* \"#utility.yul\":248:257   */\n      dup3\n        /* \"#utility.yul\":239:246   */\n      dup5\n        /* \"#utility.yul\":235:258   */\n      sub\n        /* \"#utility.yul\":231:263   */\n      slt\n        /* \"#utility.yul\":228:230   */\n      iszero\n      tag_82\n      jumpi\n        /* \"#utility.yul\":276:277   */\n      0x00\n        /* \"#utility.yul\":273:274   */\n      dup1\n        /* \"#utility.yul\":266:278   */\n      revert\n        /* \"#utility.yul\":228:230   */\n    tag_82:\n        /* \"#utility.yul\":319:320   */\n      0x00\n        /* \"#utility.yul\":344:397   */\n      tag_83\n        /* \"#utility.yul\":389:396   */\n      dup5\n        /* \"#utility.yul\":380:386   */\n      dup3\n        /* \"#utility.yul\":369:378   */\n      dup6\n        /* \"#utility.yul\":365:387   */\n      add\n        /* \"#utility.yul\":344:397   */\n      tag_77\n      jump\t// in\n    tag_83:\n        /* \"#utility.yul\":334:397   */\n      swap2\n      pop\n        /* \"#utility.yul\":290:407   */\n      pop\n        /* \"#utility.yul\":218:414   */\n      swap3\n      swap2\n      pop\n      pop\n      jump\t// out\n        /* \"#utility.yul\":420:538   */\n    tag_84:\n        /* \"#utility.yul\":507:531   */\n      tag_86\n        /* \"#utility.yul\":525:530   */\n      dup2\n        /* \"#utility.yul\":507:531   */\n      tag_87\n      jump\t// in\n    tag_86:\n        /* \"#utility.yul\":502:505   */\n      dup3\n        /* \"#utility.yul\":495:532   */\n      mstore\n        /* \"#utility.yul\":485:538   */\n      pop\n      pop\n      jump\t// out\n        /* \"#utility.yul\":544:872   */\n    tag_88:\n      0x00\n        /* \"#utility.yul\":707:774   */\n      tag_90\n        /* \"#utility.yul\":771:773   */\n      0x1e\n        /* \"#utility.yul\":766:769   */\n      dup4\n        /* \"#utility.yul\":707:774   */\n      tag_91\n      jump\t// in\n    tag_90:\n        /* \"#utility.yul\":700:774   */\n      swap2\n      pop\n        /* \"#utility.yul\":804:836   */\n      0x6d696e696d756e20436f6e7472627574696f6e206973206e6f74206d65740000\n        /* \"#utility.yul\":800:801   */\n      0x00\n        /* \"#utility.yul\":795:798   */\n      dup4\n        /* \"#utility.yul\":791:802   */\n      add\n        /* \"#utility.yul\":784:837   */\n      mstore\n        /* \"#utility.yul\":863:865   */\n      0x20\n        /* \"#utility.yul\":858:861   */\n      dup3\n        /* \"#utility.yul\":854:866   */\n      add\n        /* \"#utility.yul\":847:866   */\n      swap1\n      pop\n        /* \"#utility.yul\":690:872   */\n      swap2\n      swap1\n      pop\n      jump\t// out\n        /* \"#utility.yul\":878:1195   */\n    tag_92:\n      0x00\n        /* \"#utility.yul\":1041:1108   */\n      tag_94\n        /* \"#utility.yul\":1105:1107   */\n      0x13\n        /* \"#utility.yul\":1100:1103   */\n      dup4\n        /* \"#utility.yul\":1041:1108   */\n      tag_91\n      jump\t// in\n    tag_94:\n        /* \"#utility.yul\":1034:1108   */\n      swap2\n      pop\n        /* \"#utility.yul\":1138:1159   */\n      0x646561646c696e65206861732070617373656400000000000000000000000000\n        /* \"#utility.yul\":1134:1135   */\n      0x00\n        /* \"#utility.yul\":1129:1132   */\n      dup4\n        /* \"#utility.yul\":1125:1136   */\n      add\n        /* \"#utility.yul\":1118:1160   */\n      mstore\n        /* \"#utility.yul\":1186:1188   */\n      0x20\n        /* \"#utility.yul\":1181:1184   */\n      dup3\n        /* \"#utility.yul\":1177:1189   */\n      add\n        /* \"#utility.yul\":1170:1189   */\n      swap1\n      pop\n        /* \"#utility.yul\":1024:1195   */\n      swap2\n      swap1\n      pop\n      jump\t// out\n        /* \"#utility.yul\":1201:1530   */\n    tag_95:\n      0x00\n        /* \"#utility.yul\":1364:1431   */\n      tag_97\n        /* \"#utility.yul\":1428:1430   */\n      0x1f\n        /* \"#utility.yul\":1423:1426   */\n      dup4\n        /* \"#utility.yul\":1364:1431   */\n      tag_91\n      jump\t// in\n    tag_97:\n        /* \"#utility.yul\":1357:1431   */\n      swap2\n      pop\n        /* \"#utility.yul\":1461:1494   */\n      0x796f7520617265206e6f7420656c696769626c6520666f7220726566756e6400\n        /* \"#utility.yul\":1457:1458   */\n      0x00\n        /* \"#utility.yul\":1452:1455   */\n      dup4\n        /* \"#utility.yul\":1448:1459   */\n      add\n        /* \"#utility.yul\":1441:1495   */\n      mstore\n        /* \"#utility.yul\":1521:1523   */\n      0x20\n        /* \"#utility.yul\":1516:1519   */\n      dup3\n        /* \"#utility.yul\":1512:1524   */\n      add\n        /* \"#utility.yul\":1505:1524   */\n      swap1\n      pop\n        /* \"#utility.yul\":1347:1530   */\n      swap2\n      swap1\n      pop\n      jump\t// out\n        /* \"#utility.yul\":1536:1654   */\n    tag_98:\n        /* \"#utility.yul\":1623:1647   */\n      tag_100\n        /* \"#utility.yul\":1641:1646   */\n      dup2\n        /* \"#utility.yul\":1623:1647   */\n      tag_101\n      jump\t// in\n    tag_100:\n        /* \"#utility.yul\":1618:1621   */\n      dup3\n        /* \"#utility.yul\":1611:1648   */\n      mstore\n        /* \"#utility.yul\":1601:1654   */\n      pop\n      pop\n      jump\t// out\n        /* \"#utility.yul\":1660:1882   */\n    tag_32:\n      0x00\n        /* \"#utility.yul\":1791:1793   */\n      0x20\n        /* \"#utility.yul\":1780:1789   */\n      dup3\n        /* \"#utility.yul\":1776:1794   */\n      add\n        /* \"#utility.yul\":1768:1794   */\n      swap1\n      pop\n        /* \"#utility.yul\":1804:1875   */\n      tag_103\n        /* \"#utility.yul\":1872:1873   */\n      0x00\n        /* \"#utility.yul\":1861:1870   */\n      dup4\n        /* \"#utility.yul\":1857:1874   */\n      add\n        /* \"#utility.yul\":1848:1854   */\n      dup5\n        /* \"#utility.yul\":1804:1875   */\n      tag_84\n      jump\t// in\n    tag_103:\n        /* \"#utility.yul\":1758:1882   */\n      swap3\n      swap2\n      pop\n      pop\n      jump\t// out\n        /* \"#utility.yul\":1888:2307   */\n    tag_68:\n      0x00\n        /* \"#utility.yul\":2092:2094   */\n      0x20\n        /* \"#utility.yul\":2081:2090   */\n      dup3\n        /* \"#utility.yul\":2077:2095   */\n      add\n        /* \"#utility.yul\":2069:2095   */\n      swap1\n      pop\n        /* \"#utility.yul\":2141:2150   */\n      dup2\n        /* \"#utility.yul\":2135:2139   */\n      dup2\n        /* \"#utility.yul\":2131:2151   */\n      sub\n        /* \"#utility.yul\":2127:2128   */\n      0x00\n        /* \"#utility.yul\":2116:2125   */\n      dup4\n        /* \"#utility.yul\":2112:2129   */\n      add\n        /* \"#utility.yul\":2105:2152   */\n      mstore\n        /* \"#utility.yul\":2169:2300   */\n      tag_105\n        /* \"#utility.yul\":2295:2299   */\n      dup2\n        /* \"#utility.yul\":2169:2300   */\n      tag_88\n      jump\t// in\n    tag_105:\n        /* \"#utility.yul\":2161:2300   */\n      swap1\n      pop\n        /* \"#utility.yul\":2059:2307   */\n      swap2\n      swap1\n      pop\n      jump\t// out\n        /* \"#utility.yul\":2313:2732   */\n    tag_65:\n      0x00\n        /* \"#utility.yul\":2517:2519   */\n      0x20\n        /* \"#utility.yul\":2506:2515   */\n      dup3\n        /* \"#utility.yul\":2502:2520   */\n      add\n        /* \"#utility.yul\":2494:2520   */\n      swap1\n      pop\n        /* \"#utility.yul\":2566:2575   */\n      dup2\n        /* \"#utility.yul\":2560:2564   */\n      dup2\n        /* \"#utility.yul\":2556:2576   */\n      sub\n        /* \"#utility.yul\":2552:2553   */\n      0x00\n        /* \"#utility.yul\":2541:2550   */\n      dup4\n        /* \"#utility.yul\":2537:2554   */\n      add\n        /* \"#utility.yul\":2530:2577   */\n      mstore\n        /* \"#utility.yul\":2594:2725   */\n      tag_107\n        /* \"#utility.yul\":2720:2724   */\n      dup2\n        /* \"#utility.yul\":2594:2725   */\n      tag_92\n      jump\t// in\n    tag_107:\n        /* \"#utility.yul\":2586:2725   */\n      swap1\n      pop\n        /* \"#utility.yul\":2484:2732   */\n      swap2\n      swap1\n      pop\n      jump\t// out\n        /* \"#utility.yul\":2738:3157   */\n    tag_58:\n      0x00\n        /* \"#utility.yul\":2942:2944   */\n      0x20\n        /* \"#utility.yul\":2931:2940   */\n      dup3\n        /* \"#utility.yul\":2927:2945   */\n      add\n        /* \"#utility.yul\":2919:2945   */\n      swap1\n      pop\n        /* \"#utility.yul\":2991:3000   */\n      dup2\n        /* \"#utility.yul\":2985:2989   */\n      dup2\n        /* \"#utility.yul\":2981:3001   */\n      sub\n        /* \"#utility.yul\":2977:2978   */\n      0x00\n        /* \"#utility.yul\":2966:2975   */\n      dup4\n        /* \"#utility.yul\":2962:2979   */\n      add\n        /* \"#utility.yul\":2955:3002   */\n      mstore\n        /* \"#utility.yul\":3019:3150   */\n      tag_109\n        /* \"#utility.yul\":3145:3149   */\n      dup2\n        /* \"#utility.yul\":3019:3150   */\n      tag_95\n      jump\t// in\n    tag_109:\n        /* \"#utility.yul\":3011:3150   */\n      swap1\n      pop\n        /* \"#utility.yul\":2909:3157   */\n      swap2\n      swap1\n      pop\n      jump\t// out\n        /* \"#utility.yul\":3163:3385   */\n    tag_17:\n      0x00\n        /* \"#utility.yul\":3294:3296   */\n      0x20\n        /* \"#utility.yul\":3283:3292   */\n      dup3\n        /* \"#utility.yul\":3279:3297   */\n      add\n        /* \"#utility.yul\":3271:3297   */\n      swap1\n      pop\n        /* \"#utility.yul\":3307:3378   */\n      tag_111\n        /* \"#utility.yul\":3375:3376   */\n      0x00\n        /* \"#utility.yul\":3364:3373   */\n      dup4\n        /* \"#utility.yul\":3360:3377   */\n      add\n        /* \"#utility.yul\":3351:3357   */\n      dup5\n        /* \"#utility.yul\":3307:3378   */\n      tag_98\n      jump\t// in\n    tag_111:\n        /* \"#utility.yul\":3261:3385   */\n      swap3\n      swap2\n      pop\n      pop\n      jump\t// out\n        /* \"#utility.yul\":3391:3560   */\n    tag_91:\n      0x00\n        /* \"#utility.yul\":3509:3515   */\n      dup3\n        /* \"#utility.yul\":3504:3507   */\n      dup3\n        /* \"#utility.yul\":3497:3516   */\n      mstore\n        /* \"#utility.yul\":3549:3553   */\n      0x20\n        /* \"#utility.yul\":3544:3547   */\n      dup3\n        /* \"#utility.yul\":3540:3554   */\n      add\n        /* \"#utility.yul\":3525:3554   */\n      swap1\n      pop\n        /* \"#utility.yul\":3487:3560   */\n      swap3\n      swap2\n      pop\n      pop\n      jump\t// out\n        /* \"#utility.yul\":3566:3871   */\n    tag_73:\n      0x00\n        /* \"#utility.yul\":3625:3645   */\n      tag_114\n        /* \"#utility.yul\":3643:3644   */\n      dup3\n        /* \"#utility.yul\":3625:3645   */\n      tag_101\n      jump\t// in\n    tag_114:\n        /* \"#utility.yul\":3620:3645   */\n      swap2\n      pop\n        /* \"#utility.yul\":3659:3679   */\n      tag_115\n        /* \"#utility.yul\":3677:3678   */\n      dup4\n        /* \"#utility.yul\":3659:3679   */\n      tag_101\n      jump\t// in\n    tag_115:\n        /* \"#utility.yul\":3654:3679   */\n      swap3\n      pop\n        /* \"#utility.yul\":3813:3814   */\n      dup3\n        /* \"#utility.yul\":3745:3811   */\n      0xffffffffffffffffffffffffffffffffffffffffffffffffffffffffffffffff\n        /* \"#utility.yul\":3741:3815   */\n      sub\n        /* \"#utility.yul\":3738:3739   */\n      dup3\n        /* \"#utility.yul\":3735:3816   */\n      gt\n        /* \"#utility.yul\":3732:3734   */\n      iszero\n      tag_116\n      jumpi\n        /* \"#utility.yul\":3819:3837   */\n      tag_117\n      tag_118\n      jump\t// in\n    tag_117:\n        /* \"#utility.yul\":3732:3734   */\n    tag_116:\n        /* \"#utility.yul\":3863:3864   */\n      dup3\n        /* \"#utility.yul\":3860:3861   */\n      dup3\n        /* \"#utility.yul\":3856:3865   */\n      add\n        /* \"#utility.yul\":3849:3865   */\n      swap1\n      pop\n        /* \"#utility.yul\":3610:3871   */\n      swap3\n      swap2\n      pop\n      pop\n      jump\t// out\n        /* \"#utility.yul\":3877:3973   */\n    tag_87:\n      0x00\n        /* \"#utility.yul\":3943:3967   */\n      tag_120\n        /* \"#utility.yul\":3961:3966   */\n      dup3\n        /* \"#utility.yul\":3943:3967   */\n      tag_121\n      jump\t// in\n    tag_120:\n        /* \"#utility.yul\":3932:3967   */\n      swap1\n      pop\n        /* \"#utility.yul\":3922:3973   */\n      swap2\n      swap1\n      pop\n      jump\t// out\n        /* \"#utility.yul\":3979:4105   */\n    tag_121:\n      0x00\n        /* \"#utility.yul\":4056:4098   */\n      0xffffffffffffffffffffffffffffffffffffffff\n        /* \"#utility.yul\":4049:4054   */\n      dup3\n        /* \"#utility.yul\":4045:4099   */\n      and\n        /* \"#utility.yul\":4034:4099   */\n      swap1\n      pop\n        /* \"#utility.yul\":4024:4105   */\n      swap2\n      swap1\n      pop\n      jump\t// out\n        /* \"#utility.yul\":4111:4188   */\n    tag_101:\n      0x00\n        /* \"#utility.yul\":4177:4182   */\n      dup2\n        /* \"#utility.yul\":4166:4182   */\n      swap1\n      pop\n        /* \"#utility.yul\":4156:4188   */\n      swap2\n      swap1\n      pop\n      jump\t// out\n        /* \"#utility.yul\":4194:4427   */\n    tag_71:\n      0x00\n        /* \"#utility.yul\":4256:4280   */\n      tag_125\n        /* \"#utility.yul\":4274:4279   */\n      dup3\n        /* \"#utility.yul\":4256:4280   */\n      tag_101\n      jump\t// in\n    tag_125:\n        /* \"#utility.yul\":4247:4280   */\n      swap2\n      pop\n        /* \"#utility.yul\":4302:4368   */\n      0xffffffffffffffffffffffffffffffffffffffffffffffffffffffffffffffff\n        /* \"#utility.yul\":4295:4300   */\n      dup3\n        /* \"#utility.yul\":4292:4369   */\n      eq\n        /* \"#utility.yul\":4289:4291   */\n      iszero\n      tag_126\n      jumpi\n        /* \"#utility.yul\":4372:4390   */\n      tag_127\n      tag_118\n      jump\t// in\n    tag_127:\n        /* \"#utility.yul\":4289:4291   */\n    tag_126:\n        /* \"#utility.yul\":4419:4420   */\n      0x01\n        /* \"#utility.yul\":4412:4417   */\n      dup3\n        /* \"#utility.yul\":4408:4421   */\n      add\n        /* \"#utility.yul\":4401:4421   */\n      swap1\n      pop\n        /* \"#utility.yul\":4237:4427   */\n      swap2\n      swap1\n      pop\n      jump\t// out\n        /* \"#utility.yul\":4433:4613   */\n    tag_118:\n        /* \"#utility.yul\":4481:4558   */\n      0x4e487b7100000000000000000000000000000000000000000000000000000000\n        /* \"#utility.yul\":4478:4479   */\n      0x00\n        /* \"#utility.yul\":4471:4559   */\n      mstore\n        /* \"#utility.yul\":4578:4582   */\n      0x11\n        /* \"#utility.yul\":4575:4576   */\n      0x04\n        /* \"#utility.yul\":4568:4583   */\n      mstore\n        /* \"#utility.yul\":4602:4606   */\n      0x24\n        /* \"#utility.yul\":4599:4600   */\n      0x00\n        /* \"#utility.yul\":4592:4607   */\n      revert\n        /* \"#utility.yul\":4619:4741   */\n    tag_80:\n        /* \"#utility.yul\":4692:4716   */\n      tag_130\n        /* \"#utility.yul\":4710:4715   */\n      dup2\n        /* \"#utility.yul\":4692:4716   */\n      tag_87\n      jump\t// in\n    tag_130:\n        /* \"#utility.yul\":4685:4690   */\n      dup2\n        /* \"#utility.yul\":4682:4717   */\n      eq\n        /* \"#utility.yul\":4672:4674   */\n      tag_131\n      jumpi\n        /* \"#utility.yul\":4731:4732   */\n      0x00\n        /* \"#utility.yul\":4728:4729   */\n      dup1\n        /* \"#utility.yul\":4721:4733   */\n      revert\n        /* \"#utility.yul\":4672:4674   */\n    tag_131:\n        /* \"#utility.yul\":4662:4741   */\n      pop\n      jump\t// out\n\n    auxdata: 0xa2646970667358221220264214a5c49591c612a2904b3680591572dbcf6173be8e291f049fff5afe578164736f6c63430008000033\n}\n",
				"bytecode": {
					"linkReferences": {},
					"object": "608060405234801561001057600080fd5b50604051610a08380380610a08833981810160405281019061003291906100b0565b81600381905550804261004591906100ec565b600281905550606460068190555033600160006101000a81548173ffffffffffffffffffffffffffffffffffffffff021916908373ffffffffffffffffffffffffffffffffffffffff1602179055505050610192565b6000815190506100aa8161017b565b92915050565b600080604083850312156100c357600080fd5b60006100d18582860161009b565b92505060206100e28582860161009b565b9150509250929050565b60006100f782610142565b915061010283610142565b9250827fffffffffffffffffffffffffffffffffffffffffffffffffffffffffffffffff038211156101375761013661014c565b5b828201905092915050565b6000819050919050565b7f4e487b7100000000000000000000000000000000000000000000000000000000600052601160045260246000fd5b61018481610142565b811461018f57600080fd5b50565b610867806101a16000396000f3fe6080604052600436106100915760003560e01c80635edec2c4116100595780635edec2c41461016b5780636f9fb98a14610175578063937e09b1146101a0578063c59ee1dc146101cb578063d4b83992146101f657610091565b806324274ee91461009657806329dcb0cf146100c157806334b66460146100ec578063481c6a7514610129578063590e1ae314610154575b600080fd5b3480156100a257600080fd5b506100ab610221565b6040516100b891906106e4565b60405180910390f35b3480156100cd57600080fd5b506100d6610227565b6040516100e391906106e4565b60405180910390f35b3480156100f857600080fd5b50610113600480360381019061010e9190610562565b61022d565b60405161012091906106e4565b60405180910390f35b34801561013557600080fd5b5061013e610245565b60405161014b9190610669565b60405180910390f35b34801561016057600080fd5b5061016961026b565b005b6101736103da565b005b34801561018157600080fd5b5061018a610533565b60405161019791906106e4565b60405180910390f35b3480156101ac57600080fd5b506101b561053b565b6040516101c291906106e4565b60405180910390f35b3480156101d757600080fd5b506101e0610541565b6040516101ed91906106e4565b60405180910390f35b34801561020257600080fd5b5061020b610547565b60405161021891906106e4565b60405180910390f35b60055481565b60025481565b60006020528060005260406000206000915090505481565b600160009054906101000a900473ffffffffffffffffffffffffffffffffffffffff1681565b6002544211801561027f5750600354600454105b6102be576040517f08c379a00000000000000000000000000000000000000000000000000000000081526004016102b5906106c4565b60405180910390fd5b60008060003373ffffffffffffffffffffffffffffffffffffffff1673ffffffffffffffffffffffffffffffffffffffff168152602001908152602001600020541161030957600080fd5b60003390508073ffffffffffffffffffffffffffffffffffffffff166108fc6000803373ffffffffffffffffffffffffffffffffffffffff1673ffffffffffffffffffffffffffffffffffffffff168152602001908152602001600020549081150290604051600060405180830381858888f19350505050158015610392573d6000803e3d6000fd5b5060008060003373ffffffffffffffffffffffffffffffffffffffff1673ffffffffffffffffffffffffffffffffffffffff1681526020019081526020016000208190555050565b600254421061041e576040517f08c379a0000000000000000000000000000000000000000000000000000000008152600401610415906106a4565b60405180910390fd5b600654341015610463576040517f08c379a000000000000000000000000000000000000000000000000000000000815260040161045a90610684565b60405180910390fd5b60008060003373ffffffffffffffffffffffffffffffffffffffff1673ffffffffffffffffffffffffffffffffffffffff1681526020019081526020016000205414156104c357600560008154809291906104bd906107a2565b91905055505b346000803373ffffffffffffffffffffffffffffffffffffffff1673ffffffffffffffffffffffffffffffffffffffff16815260200190815260200160002060008282546105119190610710565b92505081905550346004600082825461052a9190610710565b92505081905550565b600047905090565b60065481565b60045481565b60035481565b60008135905061055c8161081a565b92915050565b60006020828403121561057457600080fd5b60006105828482850161054d565b91505092915050565b61059481610766565b82525050565b60006105a7601e836106ff565b91507f6d696e696d756e20436f6e7472627574696f6e206973206e6f74206d657400006000830152602082019050919050565b60006105e76013836106ff565b91507f646561646c696e652068617320706173736564000000000000000000000000006000830152602082019050919050565b6000610627601f836106ff565b91507f796f7520617265206e6f7420656c696769626c6520666f7220726566756e64006000830152602082019050919050565b61066381610798565b82525050565b600060208201905061067e600083018461058b565b92915050565b6000602082019050818103600083015261069d8161059a565b9050919050565b600060208201905081810360008301526106bd816105da565b9050919050565b600060208201905081810360008301526106dd8161061a565b9050919050565b60006020820190506106f9600083018461065a565b92915050565b600082825260208201905092915050565b600061071b82610798565b915061072683610798565b9250827fffffffffffffffffffffffffffffffffffffffffffffffffffffffffffffffff0382111561075b5761075a6107eb565b5b828201905092915050565b600061077182610778565b9050919050565b600073ffffffffffffffffffffffffffffffffffffffff82169050919050565b6000819050919050565b60006107ad82610798565b91507fffffffffffffffffffffffffffffffffffffffffffffffffffffffffffffffff8214156107e0576107df6107eb565b5b600182019050919050565b7f4e487b7100000000000000000000000000000000000000000000000000000000600052601160045260246000fd5b61082381610766565b811461082e57600080fd5b5056fea2646970667358221220264214a5c49591c612a2904b3680591572dbcf6173be8e291f049fff5afe578164736f6c63430008000033",
					"opcodes": "PUSH1 0x80 PUSH1 0x40 MSTORE CALLVALUE DUP1 ISZERO PUSH2 0x10 JUMPI PUSH1 0x0 DUP1 REVERT JUMPDEST POP PUSH1 0x40 MLOAD PUSH2 0xA08 CODESIZE SUB DUP1 PUSH2 0xA08 DUP4 CODECOPY DUP2 DUP2 ADD PUSH1 0x40 MSTORE DUP2 ADD SWAP1 PUSH2 0x32 SWAP2 SWAP1 PUSH2 0xB0 JUMP JUMPDEST DUP2 PUSH1 0x3 DUP2 SWAP1 SSTORE POP DUP1 TIMESTAMP PUSH2 0x45 SWAP2 SWAP1 PUSH2 0xEC JUMP JUMPDEST PUSH1 0x2 DUP2 SWAP1 SSTORE POP PUSH1 0x64 PUSH1 0x6 DUP2 SWAP1 SSTORE POP CALLER PUSH1 0x1 PUSH1 0x0 PUSH2 0x100 EXP DUP2 SLOAD DUP2 PUSH20 0xFFFFFFFFFFFFFFFFFFFFFFFFFFFFFFFFFFFFFFFF MUL NOT AND SWAP1 DUP4 PUSH20 0xFFFFFFFFFFFFFFFFFFFFFFFFFFFFFFFFFFFFFFFF AND MUL OR SWAP1 SSTORE POP POP POP PUSH2 0x192 JUMP JUMPDEST PUSH1 0x0 DUP2 MLOAD SWAP1 POP PUSH2 0xAA DUP2 PUSH2 0x17B JUMP JUMPDEST SWAP3 SWAP2 POP POP JUMP JUMPDEST PUSH1 0x0 DUP1 PUSH1 0x40 DUP4 DUP6 SUB SLT ISZERO PUSH2 0xC3 JUMPI PUSH1 0x0 DUP1 REVERT JUMPDEST PUSH1 0x0 PUSH2 0xD1 DUP6 DUP3 DUP7 ADD PUSH2 0x9B JUMP JUMPDEST SWAP3 POP POP PUSH1 0x20 PUSH2 0xE2 DUP6 DUP3 DUP7 ADD PUSH2 0x9B JUMP JUMPDEST SWAP2 POP POP SWAP3 POP SWAP3 SWAP1 POP JUMP JUMPDEST PUSH1 0x0 PUSH2 0xF7 DUP3 PUSH2 0x142 JUMP JUMPDEST SWAP2 POP PUSH2 0x102 DUP4 PUSH2 0x142 JUMP JUMPDEST SWAP3 POP DUP3 PUSH32 0xFFFFFFFFFFFFFFFFFFFFFFFFFFFFFFFFFFFFFFFFFFFFFFFFFFFFFFFFFFFFFFFF SUB DUP3 GT ISZERO PUSH2 0x137 JUMPI PUSH2 0x136 PUSH2 0x14C JUMP JUMPDEST JUMPDEST DUP3 DUP3 ADD SWAP1 POP SWAP3 SWAP2 POP POP JUMP JUMPDEST PUSH1 0x0 DUP2 SWAP1 POP SWAP2 SWAP1 POP JUMP JUMPDEST PUSH32 0x4E487B7100000000000000000000000000000000000000000000000000000000 PUSH1 0x0 MSTORE PUSH1 0x11 PUSH1 0x4 MSTORE PUSH1 0x24 PUSH1 0x0 REVERT JUMPDEST PUSH2 0x184 DUP2 PUSH2 0x142 JUMP JUMPDEST DUP2 EQ PUSH2 0x18F JUMPI PUSH1 0x0 DUP1 REVERT JUMPDEST POP JUMP JUMPDEST PUSH2 0x867 DUP1 PUSH2 0x1A1 PUSH1 0x0 CODECOPY PUSH1 0x0 RETURN INVALID PUSH1 0x80 PUSH1 0x40 MSTORE PUSH1 0x4 CALLDATASIZE LT PUSH2 0x91 JUMPI PUSH1 0x0 CALLDATALOAD PUSH1 0xE0 SHR DUP1 PUSH4 0x5EDEC2C4 GT PUSH2 0x59 JUMPI DUP1 PUSH4 0x5EDEC2C4 EQ PUSH2 0x16B JUMPI DUP1 PUSH4 0x6F9FB98A EQ PUSH2 0x175 JUMPI DUP1 PUSH4 0x937E09B1 EQ PUSH2 0x1A0 JUMPI DUP1 PUSH4 0xC59EE1DC EQ PUSH2 0x1CB JUMPI DUP1 PUSH4 0xD4B83992 EQ PUSH2 0x1F6 JUMPI PUSH2 0x91 JUMP JUMPDEST DUP1 PUSH4 0x24274EE9 EQ PUSH2 0x96 JUMPI DUP1 PUSH4 0x29DCB0CF EQ PUSH2 0xC1 JUMPI DUP1 PUSH4 0x34B66460 EQ PUSH2 0xEC JUMPI DUP1 PUSH4 0x481C6A75 EQ PUSH2 0x129 JUMPI DUP1 PUSH4 0x590E1AE3 EQ PUSH2 0x154 JUMPI JUMPDEST PUSH1 0x0 DUP1 REVERT JUMPDEST CALLVALUE DUP1 ISZERO PUSH2 0xA2 JUMPI PUSH1 0x0 DUP1 REVERT JUMPDEST POP PUSH2 0xAB PUSH2 0x221 JUMP JUMPDEST PUSH1 0x40 MLOAD PUSH2 0xB8 SWAP2 SWAP1 PUSH2 0x6E4 JUMP JUMPDEST PUSH1 0x40 MLOAD DUP1 SWAP2 SUB SWAP1 RETURN JUMPDEST CALLVALUE DUP1 ISZERO PUSH2 0xCD JUMPI PUSH1 0x0 DUP1 REVERT JUMPDEST POP PUSH2 0xD6 PUSH2 0x227 JUMP JUMPDEST PUSH1 0x40 MLOAD PUSH2 0xE3 SWAP2 SWAP1 PUSH2 0x6E4 JUMP JUMPDEST PUSH1 0x40 MLOAD DUP1 SWAP2 SUB SWAP1 RETURN JUMPDEST CALLVALUE DUP1 ISZERO PUSH2 0xF8 JUMPI PUSH1 0x0 DUP1 REVERT JUMPDEST POP PUSH2 0x113 PUSH1 0x4 DUP1 CALLDATASIZE SUB DUP2 ADD SWAP1 PUSH2 0x10E SWAP2 SWAP1 PUSH2 0x562 JUMP JUMPDEST PUSH2 0x22D JUMP JUMPDEST PUSH1 0x40 MLOAD PUSH2 0x120 SWAP2 SWAP1 PUSH2 0x6E4 JUMP JUMPDEST PUSH1 0x40 MLOAD DUP1 SWAP2 SUB SWAP1 RETURN JUMPDEST CALLVALUE DUP1 ISZERO PUSH2 0x135 JUMPI PUSH1 0x0 DUP1 REVERT JUMPDEST POP PUSH2 0x13E PUSH2 0x245 JUMP JUMPDEST PUSH1 0x40 MLOAD PUSH2 0x14B SWAP2 SWAP1 PUSH2 0x669 JUMP JUMPDEST PUSH1 0x40 MLOAD DUP1 SWAP2 SUB SWAP1 RETURN JUMPDEST CALLVALUE DUP1 ISZERO PUSH2 0x160 JUMPI PUSH1 0x0 DUP1 REVERT JUMPDEST POP PUSH2 0x169 PUSH2 0x26B JUMP JUMPDEST STOP JUMPDEST PUSH2 0x173 PUSH2 0x3DA JUMP JUMPDEST STOP JUMPDEST CALLVALUE DUP1 ISZERO PUSH2 0x181 JUMPI PUSH1 0x0 DUP1 REVERT JUMPDEST POP PUSH2 0x18A PUSH2 0x533 JUMP JUMPDEST PUSH1 0x40 MLOAD PUSH2 0x197 SWAP2 SWAP1 PUSH2 0x6E4 JUMP JUMPDEST PUSH1 0x40 MLOAD DUP1 SWAP2 SUB SWAP1 RETURN JUMPDEST CALLVALUE DUP1 ISZERO PUSH2 0x1AC JUMPI PUSH1 0x0 DUP1 REVERT JUMPDEST POP PUSH2 0x1B5 PUSH2 0x53B JUMP JUMPDEST PUSH1 0x40 MLOAD PUSH2 0x1C2 SWAP2 SWAP1 PUSH2 0x6E4 JUMP JUMPDEST PUSH1 0x40 MLOAD DUP1 SWAP2 SUB SWAP1 RETURN JUMPDEST CALLVALUE DUP1 ISZERO PUSH2 0x1D7 JUMPI PUSH1 0x0 DUP1 REVERT JUMPDEST POP PUSH2 0x1E0 PUSH2 0x541 JUMP JUMPDEST PUSH1 0x40 MLOAD PUSH2 0x1ED SWAP2 SWAP1 PUSH2 0x6E4 JUMP JUMPDEST PUSH1 0x40 MLOAD DUP1 SWAP2 SUB SWAP1 RETURN JUMPDEST CALLVALUE DUP1 ISZERO PUSH2 0x202 JUMPI PUSH1 0x0 DUP1 REVERT JUMPDEST POP PUSH2 0x20B PUSH2 0x547 JUMP JUMPDEST PUSH1 0x40 MLOAD PUSH2 0x218 SWAP2 SWAP1 PUSH2 0x6E4 JUMP JUMPDEST PUSH1 0x40 MLOAD DUP1 SWAP2 SUB SWAP1 RETURN JUMPDEST PUSH1 0x5 SLOAD DUP2 JUMP JUMPDEST PUSH1 0x2 SLOAD DUP2 JUMP JUMPDEST PUSH1 0x0 PUSH1 0x20 MSTORE DUP1 PUSH1 0x0 MSTORE PUSH1 0x40 PUSH1 0x0 KECCAK256 PUSH1 0x0 SWAP2 POP SWAP1 POP SLOAD DUP2 JUMP JUMPDEST PUSH1 0x1 PUSH1 0x0 SWAP1 SLOAD SWAP1 PUSH2 0x100 EXP SWAP1 DIV PUSH20 0xFFFFFFFFFFFFFFFFFFFFFFFFFFFFFFFFFFFFFFFF AND DUP2 JUMP JUMPDEST PUSH1 0x2 SLOAD TIMESTAMP GT DUP1 ISZERO PUSH2 0x27F JUMPI POP PUSH1 0x3 SLOAD PUSH1 0x4 SLOAD LT JUMPDEST PUSH2 0x2BE JUMPI PUSH1 0x40 MLOAD PUSH32 0x8C379A000000000000000000000000000000000000000000000000000000000 DUP2 MSTORE PUSH1 0x4 ADD PUSH2 0x2B5 SWAP1 PUSH2 0x6C4 JUMP JUMPDEST PUSH1 0x40 MLOAD DUP1 SWAP2 SUB SWAP1 REVERT JUMPDEST PUSH1 0x0 DUP1 PUSH1 0x0 CALLER PUSH20 0xFFFFFFFFFFFFFFFFFFFFFFFFFFFFFFFFFFFFFFFF AND PUSH20 0xFFFFFFFFFFFFFFFFFFFFFFFFFFFFFFFFFFFFFFFF AND DUP2 MSTORE PUSH1 0x20 ADD SWAP1 DUP2 MSTORE PUSH1 0x20 ADD PUSH1 0x0 KECCAK256 SLOAD GT PUSH2 0x309 JUMPI PUSH1 0x0 DUP1 REVERT JUMPDEST PUSH1 0x0 CALLER SWAP1 POP DUP1 PUSH20 0xFFFFFFFFFFFFFFFFFFFFFFFFFFFFFFFFFFFFFFFF AND PUSH2 0x8FC PUSH1 0x0 DUP1 CALLER PUSH20 0xFFFFFFFFFFFFFFFFFFFFFFFFFFFFFFFFFFFFFFFF AND PUSH20 0xFFFFFFFFFFFFFFFFFFFFFFFFFFFFFFFFFFFFFFFF AND DUP2 MSTORE PUSH1 0x20 ADD SWAP1 DUP2 MSTORE PUSH1 0x20 ADD PUSH1 0x0 KECCAK256 SLOAD SWAP1 DUP2 ISZERO MUL SWAP1 PUSH1 0x40 MLOAD PUSH1 0x0 PUSH1 0x40 MLOAD DUP1 DUP4 SUB DUP2 DUP6 DUP9 DUP9 CALL SWAP4 POP POP POP POP ISZERO DUP1 ISZERO PUSH2 0x392 JUMPI RETURNDATASIZE PUSH1 0x0 DUP1 RETURNDATACOPY RETURNDATASIZE PUSH1 0x0 REVERT JUMPDEST POP PUSH1 0x0 DUP1 PUSH1 0x0 CALLER PUSH20 0xFFFFFFFFFFFFFFFFFFFFFFFFFFFFFFFFFFFFFFFF AND PUSH20 0xFFFFFFFFFFFFFFFFFFFFFFFFFFFFFFFFFFFFFFFF AND DUP2 MSTORE PUSH1 0x20 ADD SWAP1 DUP2 MSTORE PUSH1 0x20 ADD PUSH1 0x0 KECCAK256 DUP2 SWAP1 SSTORE POP POP JUMP JUMPDEST PUSH1 0x2 SLOAD TIMESTAMP LT PUSH2 0x41E JUMPI PUSH1 0x40 MLOAD PUSH32 0x8C379A000000000000000000000000000000000000000000000000000000000 DUP2 MSTORE PUSH1 0x4 ADD PUSH2 0x415 SWAP1 PUSH2 0x6A4 JUMP JUMPDEST PUSH1 0x40 MLOAD DUP1 SWAP2 SUB SWAP1 REVERT JUMPDEST PUSH1 0x6 SLOAD CALLVALUE LT ISZERO PUSH2 0x463 JUMPI PUSH1 0x40 MLOAD PUSH32 0x8C379A000000000000000000000000000000000000000000000000000000000 DUP2 MSTORE PUSH1 0x4 ADD PUSH2 0x45A SWAP1 PUSH2 0x684 JUMP JUMPDEST PUSH1 0x40 MLOAD DUP1 SWAP2 SUB SWAP1 REVERT JUMPDEST PUSH1 0x0 DUP1 PUSH1 0x0 CALLER PUSH20 0xFFFFFFFFFFFFFFFFFFFFFFFFFFFFFFFFFFFFFFFF AND PUSH20 0xFFFFFFFFFFFFFFFFFFFFFFFFFFFFFFFFFFFFFFFF AND DUP2 MSTORE PUSH1 0x20 ADD SWAP1 DUP2 MSTORE PUSH1 0x20 ADD PUSH1 0x0 KECCAK256 SLOAD EQ ISZERO PUSH2 0x4C3 JUMPI PUSH1 0x5 PUSH1 0x0 DUP2 SLOAD DUP1 SWAP3 SWAP2 SWAP1 PUSH2 0x4BD SWAP1 PUSH2 0x7A2 JUMP JUMPDEST SWAP2 SWAP1 POP SSTORE POP JUMPDEST CALLVALUE PUSH1 0x0 DUP1 CALLER PUSH20 0xFFFFFFFFFFFFFFFFFFFFFFFFFFFFFFFFFFFFFFFF AND PUSH20 0xFFFFFFFFFFFFFFFFFFFFFFFFFFFFFFFFFFFFFFFF AND DUP2 MSTORE PUSH1 0x20 ADD SWAP1 DUP2 MSTORE PUSH1 0x20 ADD PUSH1 0x0 KECCAK256 PUSH1 0x0 DUP3 DUP3 SLOAD PUSH2 0x511 SWAP2 SWAP1 PUSH2 0x710 JUMP JUMPDEST SWAP3 POP POP DUP2 SWAP1 SSTORE POP CALLVALUE PUSH1 0x4 PUSH1 0x0 DUP3 DUP3 SLOAD PUSH2 0x52A SWAP2 SWAP1 PUSH2 0x710 JUMP JUMPDEST SWAP3 POP POP DUP2 SWAP1 SSTORE POP JUMP JUMPDEST PUSH1 0x0 SELFBALANCE SWAP1 POP SWAP1 JUMP JUMPDEST PUSH1 0x6 SLOAD DUP2 JUMP JUMPDEST PUSH1 0x4 SLOAD DUP2 JUMP JUMPDEST PUSH1 0x3 SLOAD DUP2 JUMP JUMPDEST PUSH1 0x0 DUP2 CALLDATALOAD SWAP1 POP PUSH2 0x55C DUP2 PUSH2 0x81A JUMP JUMPDEST SWAP3 SWAP2 POP POP JUMP JUMPDEST PUSH1 0x0 PUSH1 0x20 DUP3 DUP5 SUB SLT ISZERO PUSH2 0x574 JUMPI PUSH1 0x0 DUP1 REVERT JUMPDEST PUSH1 0x0 PUSH2 0x582 DUP5 DUP3 DUP6 ADD PUSH2 0x54D JUMP JUMPDEST SWAP2 POP POP SWAP3 SWAP2 POP POP JUMP JUMPDEST PUSH2 0x594 DUP2 PUSH2 0x766 JUMP JUMPDEST DUP3 MSTORE POP POP JUMP JUMPDEST PUSH1 0x0 PUSH2 0x5A7 PUSH1 0x1E DUP4 PUSH2 0x6FF JUMP JUMPDEST SWAP2 POP PUSH32 0x6D696E696D756E20436F6E7472627574696F6E206973206E6F74206D65740000 PUSH1 0x0 DUP4 ADD MSTORE PUSH1 0x20 DUP3 ADD SWAP1 POP SWAP2 SWAP1 POP JUMP JUMPDEST PUSH1 0x0 PUSH2 0x5E7 PUSH1 0x13 DUP4 PUSH2 0x6FF JUMP JUMPDEST SWAP2 POP PUSH32 0x646561646C696E65206861732070617373656400000000000000000000000000 PUSH1 0x0 DUP4 ADD MSTORE PUSH1 0x20 DUP3 ADD SWAP1 POP SWAP2 SWAP1 POP JUMP JUMPDEST PUSH1 0x0 PUSH2 0x627 PUSH1 0x1F DUP4 PUSH2 0x6FF JUMP JUMPDEST SWAP2 POP PUSH32 0x796F7520617265206E6F7420656C696769626C6520666F7220726566756E6400 PUSH1 0x0 DUP4 ADD MSTORE PUSH1 0x20 DUP3 ADD SWAP1 POP SWAP2 SWAP1 POP JUMP JUMPDEST PUSH2 0x663 DUP2 PUSH2 0x798 JUMP JUMPDEST DUP3 MSTORE POP POP JUMP JUMPDEST PUSH1 0x0 PUSH1 0x20 DUP3 ADD SWAP1 POP PUSH2 0x67E PUSH1 0x0 DUP4 ADD DUP5 PUSH2 0x58B JUMP JUMPDEST SWAP3 SWAP2 POP POP JUMP JUMPDEST PUSH1 0x0 PUSH1 0x20 DUP3 ADD SWAP1 POP DUP2 DUP2 SUB PUSH1 0x0 DUP4 ADD MSTORE PUSH2 0x69D DUP2 PUSH2 0x59A JUMP JUMPDEST SWAP1 POP SWAP2 SWAP1 POP JUMP JUMPDEST PUSH1 0x0 PUSH1 0x20 DUP3 ADD SWAP1 POP DUP2 DUP2 SUB PUSH1 0x0 DUP4 ADD MSTORE PUSH2 0x6BD DUP2 PUSH2 0x5DA JUMP JUMPDEST SWAP1 POP SWAP2 SWAP1 POP JUMP JUMPDEST PUSH1 0x0 PUSH1 0x20 DUP3 ADD SWAP1 POP DUP2 DUP2 SUB PUSH1 0x0 DUP4 ADD MSTORE PUSH2 0x6DD DUP2 PUSH2 0x61A JUMP JUMPDEST SWAP1 POP SWAP2 SWAP1 POP JUMP JUMPDEST PUSH1 0x0 PUSH1 0x20 DUP3 ADD SWAP1 POP PUSH2 0x6F9 PUSH1 0x0 DUP4 ADD DUP5 PUSH2 0x65A JUMP JUMPDEST SWAP3 SWAP2 POP POP JUMP JUMPDEST PUSH1 0x0 DUP3 DUP3 MSTORE PUSH1 0x20 DUP3 ADD SWAP1 POP SWAP3 SWAP2 POP POP JUMP JUMPDEST PUSH1 0x0 PUSH2 0x71B DUP3 PUSH2 0x798 JUMP JUMPDEST SWAP2 POP PUSH2 0x726 DUP4 PUSH2 0x798 JUMP JUMPDEST SWAP3 POP DUP3 PUSH32 0xFFFFFFFFFFFFFFFFFFFFFFFFFFFFFFFFFFFFFFFFFFFFFFFFFFFFFFFFFFFFFFFF SUB DUP3 GT ISZERO PUSH2 0x75B JUMPI PUSH2 0x75A PUSH2 0x7EB JUMP JUMPDEST JUMPDEST DUP3 DUP3 ADD SWAP1 POP SWAP3 SWAP2 POP POP JUMP JUMPDEST PUSH1 0x0 PUSH2 0x771 DUP3 PUSH2 0x778 JUMP JUMPDEST SWAP1 POP SWAP2 SWAP1 POP JUMP JUMPDEST PUSH1 0x0 PUSH20 0xFFFFFFFFFFFFFFFFFFFFFFFFFFFFFFFFFFFFFFFF DUP3 AND SWAP1 POP SWAP2 SWAP1 POP JUMP JUMPDEST PUSH1 0x0 DUP2 SWAP1 POP SWAP2 SWAP1 POP JUMP JUMPDEST PUSH1 0x0 PUSH2 0x7AD DUP3 PUSH2 0x798 JUMP JUMPDEST SWAP2 POP PUSH32 0xFFFFFFFFFFFFFFFFFFFFFFFFFFFFFFFFFFFFFFFFFFFFFFFFFFFFFFFFFFFFFFFF DUP3 EQ ISZERO PUSH2 0x7E0 JUMPI PUSH2 0x7DF PUSH2 0x7EB JUMP JUMPDEST JUMPDEST PUSH1 0x1 DUP3 ADD SWAP1 POP SWAP2 SWAP1 POP JUMP JUMPDEST PUSH32 0x4E487B7100000000000000000000000000000000000000000000000000000000 PUSH1 0x0 MSTORE PUSH1 0x11 PUSH1 0x4 MSTORE PUSH1 0x24 PUSH1 0x0 REVERT JUMPDEST PUSH2 0x823 DUP2 PUSH2 0x766 JUMP JUMPDEST DUP2 EQ PUSH2 0x82E JUMPI PUSH1 0x0 DUP1 REVERT JUMPDEST POP JUMP INVALID LOG2 PUSH5 0x6970667358 0x22 SLT KECCAK256 0x26 TIMESTAMP EQ 0xA5 0xC4 SWAP6 SWAP2 0xC6 SLT LOG2 SWAP1 0x4B CALLDATASIZE DUP1 MSIZE ISZERO PUSH19 0xDBCF6173BE8E291F049FFF5AFE578164736F6C PUSH4 0x43000800 STOP CALLER "
				},
				"gasEstimates": {
					"creation": {
						"codeDepositCost": "430200",
						"executionCost": "infinite",
						"totalCost": "infinite"
					},
					"external": {
						"contributers(address)": "1559",
						"deadline()": "1152",
						"getContractBalance()": "361",
						"manager()": "1281",
						"minimumContribution()": "1173",
						"noOfContributers()": "1130",
						"raisedAmount()": "1195",
						"refund()": "infinite",
						"sedEth()": "infinite",
						"target()": "1217"
					}
				},
				"methodIdentifiers": {
					"contributers(address)": "34b66460",
					"deadline()": "29dcb0cf",
					"getContractBalance()": "6f9fb98a",
					"manager()": "481c6a75",
					"minimumContribution()": "937e09b1",
					"noOfContributers()": "24274ee9",
					"raisedAmount()": "c59ee1dc",
					"refund()": "590e1ae3",
					"sedEth()": "5edec2c4",
					"target()": "d4b83992"
				}
			},
			"storageLayout": {
				"storage": [
					{
						"astId": 5,
						"contract": "crowd_funding.sol:CrowdFunding",
						"label": "contributers",
						"offset": 0,
						"slot": "0",
						"type": "t_mapping(t_address,t_uint256)"
					},
					{
						"astId": 7,
						"contract": "crowd_funding.sol:CrowdFunding",
						"label": "manager",
						"offset": 0,
						"slot": "1",
						"type": "t_address"
					},
					{
						"astId": 9,
						"contract": "crowd_funding.sol:CrowdFunding",
						"label": "deadline",
						"offset": 0,
						"slot": "2",
						"type": "t_uint256"
					},
					{
						"astId": 11,
						"contract": "crowd_funding.sol:CrowdFunding",
						"label": "target",
						"offset": 0,
						"slot": "3",
						"type": "t_uint256"
					},
					{
						"astId": 13,
						"contract": "crowd_funding.sol:CrowdFunding",
						"label": "raisedAmount",
						"offset": 0,
						"slot": "4",
						"type": "t_uint256"
					},
					{
						"astId": 15,
						"contract": "crowd_funding.sol:CrowdFunding",
						"label": "noOfContributers",
						"offset": 0,
						"slot": "5",
						"type": "t_uint256"
					},
					{
						"astId": 17,
						"contract": "crowd_funding.sol:CrowdFunding",
						"label": "minimumContribution",
						"offset": 0,
						"slot": "6",
						"type": "t_uint256"
					}
				],
				"types": {
					"t_address": {
						"encoding": "inplace",
						"label": "address",
						"numberOfBytes": "20"
					},
					"t_mapping(t_address,t_uint256)": {
						"encoding": "mapping",
						"key": "t_address",
						"label": "mapping(address => uint256)",
						"numberOfBytes": "32",
						"value": "t_uint256"
					},
					"t_uint256": {
						"encoding": "inplace",
						"label": "uint256",
						"numberOfBytes": "32"
					}
				}
			},
			"userdoc": {
				"kind": "user",
				"methods": {},
				"version": 1
			}
		}
	}
}