{
	"crowd_funding.sol": {
		"CrowdFunding": {
			"abi": [
				{
					"inputs": [
						{
							"internalType": "address",
							"name": "",
							"type": "address"
						}
					],
					"name": "contributers",
					"outputs": [
						{
							"internalType": "uint256",
							"name": "",
							"type": "uint256"
						}
					],
					"stateMutability": "view",
					"type": "function"
				},
				{
					"inputs": [],
					"name": "deadline",
					"outputs": [
						{
							"internalType": "uint256",
							"name": "",
							"type": "uint256"
						}
					],
					"stateMutability": "view",
					"type": "function"
				},
				{
					"inputs": [],
					"name": "minimumcontribution",
					"outputs": [
						{
							"internalType": "address",
							"name": "",
							"type": "address"
						}
					],
					"stateMutability": "view",
					"type": "function"
				}
			],
			"devdoc": {
				"kind": "dev",
				"methods": {},
				"version": 1
			},
			"evm": {
				"assembly": "    /* \"crowd_funding.sol\":76:224  contract CrowdFunding{\r... */\n  mstore(0x40, 0x80)\n  callvalue\n  dup1\n  iszero\n  tag_1\n  jumpi\n  0x00\n  dup1\n  revert\ntag_1:\n  pop\n  dataSize(sub_0)\n  dup1\n  dataOffset(sub_0)\n  0x00\n  codecopy\n  0x00\n  return\nstop\n\nsub_0: assembly {\n        /* \"crowd_funding.sol\":76:224  contract CrowdFunding{\r... */\n      mstore(0x40, 0x80)\n      callvalue\n      dup1\n      iszero\n      tag_1\n      jumpi\n      0x00\n      dup1\n      revert\n    tag_1:\n      pop\n      jumpi(tag_2, lt(calldatasize, 0x04))\n      shr(0xe0, calldataload(0x00))\n      dup1\n      0x29dcb0cf\n      eq\n      tag_3\n      jumpi\n      dup1\n      0x34b66460\n      eq\n      tag_4\n      jumpi\n      dup1\n      0xa8622ffe\n      eq\n      tag_5\n      jumpi\n    tag_2:\n      0x00\n      dup1\n      revert\n        /* \"crowd_funding.sol\":194:214  uint public deadline */\n    tag_3:\n      tag_6\n      tag_7\n      jump\t// in\n    tag_6:\n      mload(0x40)\n      tag_8\n      swap2\n      swap1\n      tag_9\n      jump\t// in\n    tag_8:\n      mload(0x40)\n      dup1\n      swap2\n      sub\n      swap1\n      return\n        /* \"crowd_funding.sol\":104:146  mapping(address=>uint) public contributers */\n    tag_4:\n      tag_10\n      0x04\n      dup1\n      calldatasize\n      sub\n      dup2\n      add\n      swap1\n      tag_11\n      swap2\n      swap1\n      tag_12\n      jump\t// in\n    tag_11:\n      tag_13\n      jump\t// in\n    tag_10:\n      mload(0x40)\n      tag_14\n      swap2\n      swap1\n      tag_9\n      jump\t// in\n    tag_14:\n      mload(0x40)\n      dup1\n      swap2\n      sub\n      swap1\n      return\n        /* \"crowd_funding.sol\":153:187  address public minimumcontribution */\n    tag_5:\n      tag_15\n      tag_16\n      jump\t// in\n    tag_15:\n      mload(0x40)\n      tag_17\n      swap2\n      swap1\n      tag_18\n      jump\t// in\n    tag_17:\n      mload(0x40)\n      dup1\n      swap2\n      sub\n      swap1\n      return\n        /* \"crowd_funding.sol\":194:214  uint public deadline */\n    tag_7:\n      sload(0x02)\n      dup2\n      jump\t// out\n        /* \"crowd_funding.sol\":104:146  mapping(address=>uint) public contributers */\n    tag_13:\n      mstore(0x20, 0x00)\n      dup1\n      0x00\n      mstore\n      keccak256(0x00, 0x40)\n      0x00\n      swap2\n      pop\n      swap1\n      pop\n      sload\n      dup2\n      jump\t// out\n        /* \"crowd_funding.sol\":153:187  address public minimumcontribution */\n    tag_16:\n      0x01\n      0x00\n      swap1\n      sload\n      swap1\n      0x0100\n      exp\n      swap1\n      div\n      0xffffffffffffffffffffffffffffffffffffffff\n      and\n      dup2\n      jump\t// out\n        /* \"#utility.yul\":7:146   */\n    tag_20:\n        /* \"#utility.yul\":53:58   */\n      0x00\n        /* \"#utility.yul\":91:97   */\n      dup2\n        /* \"#utility.yul\":78:98   */\n      calldataload\n        /* \"#utility.yul\":69:98   */\n      swap1\n      pop\n        /* \"#utility.yul\":107:140   */\n      tag_22\n        /* \"#utility.yul\":134:139   */\n      dup2\n        /* \"#utility.yul\":107:140   */\n      tag_23\n      jump\t// in\n    tag_22:\n        /* \"#utility.yul\":59:146   */\n      swap3\n      swap2\n      pop\n      pop\n      jump\t// out\n        /* \"#utility.yul\":152:414   */\n    tag_12:\n        /* \"#utility.yul\":211:217   */\n      0x00\n        /* \"#utility.yul\":260:262   */\n      0x20\n        /* \"#utility.yul\":248:257   */\n      dup3\n        /* \"#utility.yul\":239:246   */\n      dup5\n        /* \"#utility.yul\":235:258   */\n      sub\n        /* \"#utility.yul\":231:263   */\n      slt\n        /* \"#utility.yul\":228:230   */\n      iszero\n      tag_25\n      jumpi\n        /* \"#utility.yul\":276:277   */\n      0x00\n        /* \"#utility.yul\":273:274   */\n      dup1\n        /* \"#utility.yul\":266:278   */\n      revert\n        /* \"#utility.yul\":228:230   */\n    tag_25:\n        /* \"#utility.yul\":319:320   */\n      0x00\n        /* \"#utility.yul\":344:397   */\n      tag_26\n        /* \"#utility.yul\":389:396   */\n      dup5\n        /* \"#utility.yul\":380:386   */\n      dup3\n        /* \"#utility.yul\":369:378   */\n      dup6\n        /* \"#utility.yul\":365:387   */\n      add\n        /* \"#utility.yul\":344:397   */\n      tag_20\n      jump\t// in\n    tag_26:\n        /* \"#utility.yul\":334:397   */\n      swap2\n      pop\n        /* \"#utility.yul\":290:407   */\n      pop\n        /* \"#utility.yul\":218:414   */\n      swap3\n      swap2\n      pop\n      pop\n      jump\t// out\n        /* \"#utility.yul\":420:538   */\n    tag_27:\n        /* \"#utility.yul\":507:531   */\n      tag_29\n        /* \"#utility.yul\":525:530   */\n      dup2\n        /* \"#utility.yul\":507:531   */\n      tag_30\n      jump\t// in\n    tag_29:\n        /* \"#utility.yul\":502:505   */\n      dup3\n        /* \"#utility.yul\":495:532   */\n      mstore\n        /* \"#utility.yul\":485:538   */\n      pop\n      pop\n      jump\t// out\n        /* \"#utility.yul\":544:662   */\n    tag_31:\n        /* \"#utility.yul\":631:655   */\n      tag_33\n        /* \"#utility.yul\":649:654   */\n      dup2\n        /* \"#utility.yul\":631:655   */\n      tag_34\n      jump\t// in\n    tag_33:\n        /* \"#utility.yul\":626:629   */\n      dup3\n        /* \"#utility.yul\":619:656   */\n      mstore\n        /* \"#utility.yul\":609:662   */\n      pop\n      pop\n      jump\t// out\n        /* \"#utility.yul\":668:890   */\n    tag_18:\n        /* \"#utility.yul\":761:765   */\n      0x00\n        /* \"#utility.yul\":799:801   */\n      0x20\n        /* \"#utility.yul\":788:797   */\n      dup3\n        /* \"#utility.yul\":784:802   */\n      add\n        /* \"#utility.yul\":776:802   */\n      swap1\n      pop\n        /* \"#utility.yul\":812:883   */\n      tag_36\n        /* \"#utility.yul\":880:881   */\n      0x00\n        /* \"#utility.yul\":869:878   */\n      dup4\n        /* \"#utility.yul\":865:882   */\n      add\n        /* \"#utility.yul\":856:862   */\n      dup5\n        /* \"#utility.yul\":812:883   */\n      tag_27\n      jump\t// in\n    tag_36:\n        /* \"#utility.yul\":766:890   */\n      swap3\n      swap2\n      pop\n      pop\n      jump\t// out\n        /* \"#utility.yul\":896:1118   */\n    tag_9:\n        /* \"#utility.yul\":989:993   */\n      0x00\n        /* \"#utility.yul\":1027:1029   */\n      0x20\n        /* \"#utility.yul\":1016:1025   */\n      dup3\n        /* \"#utility.yul\":1012:1030   */\n      add\n        /* \"#utility.yul\":1004:1030   */\n      swap1\n      pop\n        /* \"#utility.yul\":1040:1111   */\n      tag_38\n        /* \"#utility.yul\":1108:1109   */\n      0x00\n        /* \"#utility.yul\":1097:1106   */\n      dup4\n        /* \"#utility.yul\":1093:1110   */\n      add\n        /* \"#utility.yul\":1084:1090   */\n      dup5\n        /* \"#utility.yul\":1040:1111   */\n      tag_31\n      jump\t// in\n    tag_38:\n        /* \"#utility.yul\":994:1118   */\n      swap3\n      swap2\n      pop\n      pop\n      jump\t// out\n        /* \"#utility.yul\":1124:1220   */\n    tag_30:\n        /* \"#utility.yul\":1161:1168   */\n      0x00\n        /* \"#utility.yul\":1190:1214   */\n      tag_40\n        /* \"#utility.yul\":1208:1213   */\n      dup3\n        /* \"#utility.yul\":1190:1214   */\n      tag_41\n      jump\t// in\n    tag_40:\n        /* \"#utility.yul\":1179:1214   */\n      swap1\n      pop\n        /* \"#utility.yul\":1169:1220   */\n      swap2\n      swap1\n      pop\n      jump\t// out\n        /* \"#utility.yul\":1226:1352   */\n    tag_41:\n        /* \"#utility.yul\":1263:1270   */\n      0x00\n        /* \"#utility.yul\":1303:1345   */\n      0xffffffffffffffffffffffffffffffffffffffff\n        /* \"#utility.yul\":1296:1301   */\n      dup3\n        /* \"#utility.yul\":1292:1346   */\n      and\n        /* \"#utility.yul\":1281:1346   */\n      swap1\n      pop\n        /* \"#utility.yul\":1271:1352   */\n      swap2\n      swap1\n      pop\n      jump\t// out\n        /* \"#utility.yul\":1358:1435   */\n    tag_34:\n        /* \"#utility.yul\":1395:1402   */\n      0x00\n        /* \"#utility.yul\":1424:1429   */\n      dup2\n        /* \"#utility.yul\":1413:1429   */\n      swap1\n      pop\n        /* \"#utility.yul\":1403:1435   */\n      swap2\n      swap1\n      pop\n      jump\t// out\n        /* \"#utility.yul\":1441:1563   */\n    tag_23:\n        /* \"#utility.yul\":1514:1538   */\n      tag_45\n        /* \"#utility.yul\":1532:1537   */\n      dup2\n        /* \"#utility.yul\":1514:1538   */\n      tag_30\n      jump\t// in\n    tag_45:\n        /* \"#utility.yul\":1507:1512   */\n      dup2\n        /* \"#utility.yul\":1504:1539   */\n      eq\n        /* \"#utility.yul\":1494:1496   */\n      tag_46\n      jumpi\n        /* \"#utility.yul\":1553:1554   */\n      0x00\n        /* \"#utility.yul\":1550:1551   */\n      dup1\n        /* \"#utility.yul\":1543:1555   */\n      revert\n        /* \"#utility.yul\":1494:1496   */\n    tag_46:\n        /* \"#utility.yul\":1484:1563   */\n      pop\n      jump\t// out\n\n    auxdata: 0xa2646970667358221220d276d8183533553158cb4df9dc8046ce61c59660c6a52d798157611a5acd3dd764736f6c63430008040033\n}\n",
				"bytecode": {
					"linkReferences": {},
					"object": "608060405234801561001057600080fd5b50610211806100206000396000f3fe608060405234801561001057600080fd5b50600436106100415760003560e01c806329dcb0cf1461004657806334b6646014610064578063a8622ffe14610094575b600080fd5b61004e6100b2565b60405161005b919061016d565b60405180910390f35b61007e6004803603810190610079919061010b565b6100b8565b60405161008b919061016d565b60405180910390f35b61009c6100d0565b6040516100a99190610152565b60405180910390f35b60025481565b60006020528060005260406000206000915090505481565b600160009054906101000a900473ffffffffffffffffffffffffffffffffffffffff1681565b600081359050610105816101c4565b92915050565b60006020828403121561011d57600080fd5b600061012b848285016100f6565b91505092915050565b61013d81610188565b82525050565b61014c816101ba565b82525050565b60006020820190506101676000830184610134565b92915050565b60006020820190506101826000830184610143565b92915050565b60006101938261019a565b9050919050565b600073ffffffffffffffffffffffffffffffffffffffff82169050919050565b6000819050919050565b6101cd81610188565b81146101d857600080fd5b5056fea2646970667358221220d276d8183533553158cb4df9dc8046ce61c59660c6a52d798157611a5acd3dd764736f6c63430008040033",
					"opcodes": "PUSH1 0x80 PUSH1 0x40 MSTORE CALLVALUE DUP1 ISZERO PUSH2 0x10 JUMPI PUSH1 0x0 DUP1 REVERT JUMPDEST POP PUSH2 0x211 DUP1 PUSH2 0x20 PUSH1 0x0 CODECOPY PUSH1 0x0 RETURN INVALID PUSH1 0x80 PUSH1 0x40 MSTORE CALLVALUE DUP1 ISZERO PUSH2 0x10 JUMPI PUSH1 0x0 DUP1 REVERT JUMPDEST POP PUSH1 0x4 CALLDATASIZE LT PUSH2 0x41 JUMPI PUSH1 0x0 CALLDATALOAD PUSH1 0xE0 SHR DUP1 PUSH4 0x29DCB0CF EQ PUSH2 0x46 JUMPI DUP1 PUSH4 0x34B66460 EQ PUSH2 0x64 JUMPI DUP1 PUSH4 0xA8622FFE EQ PUSH2 0x94 JUMPI JUMPDEST PUSH1 0x0 DUP1 REVERT JUMPDEST PUSH2 0x4E PUSH2 0xB2 JUMP JUMPDEST PUSH1 0x40 MLOAD PUSH2 0x5B SWAP2 SWAP1 PUSH2 0x16D JUMP JUMPDEST PUSH1 0x40 MLOAD DUP1 SWAP2 SUB SWAP1 RETURN JUMPDEST PUSH2 0x7E PUSH1 0x4 DUP1 CALLDATASIZE SUB DUP2 ADD SWAP1 PUSH2 0x79 SWAP2 SWAP1 PUSH2 0x10B JUMP JUMPDEST PUSH2 0xB8 JUMP JUMPDEST PUSH1 0x40 MLOAD PUSH2 0x8B SWAP2 SWAP1 PUSH2 0x16D JUMP JUMPDEST PUSH1 0x40 MLOAD DUP1 SWAP2 SUB SWAP1 RETURN JUMPDEST PUSH2 0x9C PUSH2 0xD0 JUMP JUMPDEST PUSH1 0x40 MLOAD PUSH2 0xA9 SWAP2 SWAP1 PUSH2 0x152 JUMP JUMPDEST PUSH1 0x40 MLOAD DUP1 SWAP2 SUB SWAP1 RETURN JUMPDEST PUSH1 0x2 SLOAD DUP2 JUMP JUMPDEST PUSH1 0x0 PUSH1 0x20 MSTORE DUP1 PUSH1 0x0 MSTORE PUSH1 0x40 PUSH1 0x0 KECCAK256 PUSH1 0x0 SWAP2 POP SWAP1 POP SLOAD DUP2 JUMP JUMPDEST PUSH1 0x1 PUSH1 0x0 SWAP1 SLOAD SWAP1 PUSH2 0x100 EXP SWAP1 DIV PUSH20 0xFFFFFFFFFFFFFFFFFFFFFFFFFFFFFFFFFFFFFFFF AND DUP2 JUMP JUMPDEST PUSH1 0x0 DUP2 CALLDATALOAD SWAP1 POP PUSH2 0x105 DUP2 PUSH2 0x1C4 JUMP JUMPDEST SWAP3 SWAP2 POP POP JUMP JUMPDEST PUSH1 0x0 PUSH1 0x20 DUP3 DUP5 SUB SLT ISZERO PUSH2 0x11D JUMPI PUSH1 0x0 DUP1 REVERT JUMPDEST PUSH1 0x0 PUSH2 0x12B DUP5 DUP3 DUP6 ADD PUSH2 0xF6 JUMP JUMPDEST SWAP2 POP POP SWAP3 SWAP2 POP POP JUMP JUMPDEST PUSH2 0x13D DUP2 PUSH2 0x188 JUMP JUMPDEST DUP3 MSTORE POP POP JUMP JUMPDEST PUSH2 0x14C DUP2 PUSH2 0x1BA JUMP JUMPDEST DUP3 MSTORE POP POP JUMP JUMPDEST PUSH1 0x0 PUSH1 0x20 DUP3 ADD SWAP1 POP PUSH2 0x167 PUSH1 0x0 DUP4 ADD DUP5 PUSH2 0x134 JUMP JUMPDEST SWAP3 SWAP2 POP POP JUMP JUMPDEST PUSH1 0x0 PUSH1 0x20 DUP3 ADD SWAP1 POP PUSH2 0x182 PUSH1 0x0 DUP4 ADD DUP5 PUSH2 0x143 JUMP JUMPDEST SWAP3 SWAP2 POP POP JUMP JUMPDEST PUSH1 0x0 PUSH2 0x193 DUP3 PUSH2 0x19A JUMP JUMPDEST SWAP1 POP SWAP2 SWAP1 POP JUMP JUMPDEST PUSH1 0x0 PUSH20 0xFFFFFFFFFFFFFFFFFFFFFFFFFFFFFFFFFFFFFFFF DUP3 AND SWAP1 POP SWAP2 SWAP1 POP JUMP JUMPDEST PUSH1 0x0 DUP2 SWAP1 POP SWAP2 SWAP1 POP JUMP JUMPDEST PUSH2 0x1CD DUP2 PUSH2 0x188 JUMP JUMPDEST DUP2 EQ PUSH2 0x1D8 JUMPI PUSH1 0x0 DUP1 REVERT JUMPDEST POP JUMP INVALID LOG2 PUSH5 0x6970667358 0x22 SLT KECCAK256 0xD2 PUSH23 0xD8183533553158CB4DF9DC8046CE61C59660C6A52D7981 JUMPI PUSH2 0x1A5A 0xCD RETURNDATASIZE 0xD7 PUSH5 0x736F6C6343 STOP ADDMOD DIV STOP CALLER "
				},
				"gasEstimates": {
					"creation": {
						"codeDepositCost": "105800",
						"executionCost": "153",
						"totalCost": "105953"
					},
					"external": {
						"contributers(address)": "1514",
						"deadline()": "1107",
						"minimumcontribution()": "1236"
					}
				},
				"methodIdentifiers": {
					"contributers(address)": "34b66460",
					"deadline()": "29dcb0cf",
					"minimumcontribution()": "a8622ffe"
				}
			},
			"storageLayout": {
				"storage": [
					{
						"astId": 5,
						"contract": "crowd_funding.sol:CrowdFunding",
						"label": "contributers",
						"offset": 0,
						"slot": "0",
						"type": "t_mapping(t_address,t_uint256)"
					},
					{
						"astId": 7,
						"contract": "crowd_funding.sol:CrowdFunding",
						"label": "minimumcontribution",
						"offset": 0,
						"slot": "1",
						"type": "t_address"
					},
					{
						"astId": 9,
						"contract": "crowd_funding.sol:CrowdFunding",
						"label": "deadline",
						"offset": 0,
						"slot": "2",
						"type": "t_uint256"
					}
				],
				"types": {
					"t_address": {
						"encoding": "inplace",
						"label": "address",
						"numberOfBytes": "20"
					},
					"t_mapping(t_address,t_uint256)": {
						"encoding": "mapping",
						"key": "t_address",
						"label": "mapping(address => uint256)",
						"numberOfBytes": "32",
						"value": "t_uint256"
					},
					"t_uint256": {
						"encoding": "inplace",
						"label": "uint256",
						"numberOfBytes": "32"
					}
				}
			},
			"userdoc": {
				"kind": "user",
				"methods": {},
				"version": 1
			}
		}
	}
}