{
	"data": {
		"bytecode": {
			"linkReferences": {},
			"object": "60806040523480156200001157600080fd5b5060405162001934380380620019348339818101604052810190620000379190620000ba565b8160038190555080426200004c919062000101565b600281905550606460068190555033600160006101000a81548173ffffffffffffffffffffffffffffffffffffffff021916908373ffffffffffffffffffffffffffffffffffffffff1602179055505050620001b6565b600081519050620000b4816200019c565b92915050565b60008060408385031215620000d457620000d362000197565b5b6000620000e485828601620000a3565b9250506020620000f785828601620000a3565b9150509250929050565b60006200010e826200015e565b91506200011b836200015e565b9250827fffffffffffffffffffffffffffffffffffffffffffffffffffffffffffffffff0382111562000153576200015262000168565b5b828201905092915050565b6000819050919050565b7f4e487b7100000000000000000000000000000000000000000000000000000000600052601160045260246000fd5b600080fd5b620001a7816200015e565b8114620001b357600080fd5b50565b61176e80620001c66000396000f3fe6080604052600436106100e85760003560e01c80635edec2c41161008a5780639fb42b1f116100595780639fb42b1f146102b5578063c59ee1dc146102e0578063cbaf86711461030b578063d4b8399214610334576100e8565b80635edec2c4146102145780636f9fb98a1461021e57806381d12c5814610249578063937e09b11461028a576100e8565b80633eb7647b116100c65780633eb7647b14610180578063481c6a75146101a95780634cb6f4a5146101d4578063590e1ae3146101fd576100e8565b806324274ee9146100ed57806329dcb0cf1461011857806334b6646014610143575b600080fd5b3480156100f957600080fd5b5061010261035f565b60405161010f91906111f9565b60405180910390f35b34801561012457600080fd5b5061012d610365565b60405161013a91906111f9565b60405180910390f35b34801561014f57600080fd5b5061016a60048036038101906101659190610deb565b61036b565b60405161017791906111f9565b60405180910390f35b34801561018c57600080fd5b506101a760048036038101906101a29190610e18565b610383565b005b3480156101b557600080fd5b506101be6104d6565b6040516101cb9190611064565b60405180910390f35b3480156101e057600080fd5b506101fb60048036038101906101f69190610e87565b6104fc565b005b34801561020957600080fd5b506102126106a1565b005b61021c610846565b005b34801561022a57600080fd5b5061023361099a565b60405161024091906111f9565b60405180910390f35b34801561025557600080fd5b50610270600480360381019061026b9190610e87565b6109a2565b60405161028195949392919061107f565b60405180910390f35b34801561029657600080fd5b5061029f610a8d565b6040516102ac91906111f9565b60405180910390f35b3480156102c157600080fd5b506102ca610a93565b6040516102d791906111f9565b60405180910390f35b3480156102ec57600080fd5b506102f5610a99565b60405161030291906111f9565b60405180910390f35b34801561031757600080fd5b50610332600480360381019061032d9190610e87565b610a9f565b005b34801561034057600080fd5b50610349610c93565b60405161035691906111f9565b60405180910390f35b60055481565b60025481565b60006020528060005260406000206000915090505481565b600160009054906101000a900473ffffffffffffffffffffffffffffffffffffffff1673ffffffffffffffffffffffffffffffffffffffff163373ffffffffffffffffffffffffffffffffffffffff1614610413576040517f08c379a000000000000000000000000000000000000000000000000000000000815260040161040a90611199565b60405180910390fd5b600060076000600854815260200190815260200160002090506008600081548092919061043f9061140c565b91905055508381600001908051906020019061045c929190610c99565b50828160010160006101000a81548173ffffffffffffffffffffffffffffffffffffffff021916908373ffffffffffffffffffffffffffffffffffffffff16021790555081816002018190555060008160030160006101000a81548160ff0219169083151502179055506000816004018190555050505050565b600160009054906101000a900473ffffffffffffffffffffffffffffffffffffffff1681565b60008060003373ffffffffffffffffffffffffffffffffffffffff1673ffffffffffffffffffffffffffffffffffffffff168152602001908152602001600020541161057d576040517f08c379a000000000000000000000000000000000000000000000000000000000815260040161057490611179565b60405180910390fd5b6000600760008381526020019081526020016000209050600015158160050160003373ffffffffffffffffffffffffffffffffffffffff1673ffffffffffffffffffffffffffffffffffffffff16815260200190815260200160002060009054906101000a900460ff16151514610629576040517f08c379a0000000000000000000000000000000000000000000000000000000008152600401610620906110f9565b60405180910390fd5b60018160050160003373ffffffffffffffffffffffffffffffffffffffff1673ffffffffffffffffffffffffffffffffffffffff16815260200190815260200160002060006101000a81548160ff0219169083151502179055508060040160008154809291906106989061140c565b91905055505050565b600254421180156106b55750600354600454105b6106f4576040517f08c379a00000000000000000000000000000000000000000000000000000000081526004016106eb906111d9565b60405180910390fd5b60008060003373ffffffffffffffffffffffffffffffffffffffff1673ffffffffffffffffffffffffffffffffffffffff1681526020019081526020016000205411610775576040517f08c379a000000000000000000000000000000000000000000000000000000000815260040161076c90611119565b60405180910390fd5b60003390508073ffffffffffffffffffffffffffffffffffffffff166108fc6000803373ffffffffffffffffffffffffffffffffffffffff1673ffffffffffffffffffffffffffffffffffffffff168152602001908152602001600020549081150290604051600060405180830381858888f193505050501580156107fe573d6000803e3d6000fd5b5060008060003373ffffffffffffffffffffffffffffffffffffffff1673ffffffffffffffffffffffffffffffffffffffff1681526020019081526020016000208190555050565b600254421061088a576040517f08c379a000000000000000000000000000000000000000000000000000000000815260040161088190611159565b60405180910390fd5b6006543410156108cf576040517f08c379a00000000000000000000000000000000000000000000000000000000081526004016108c690611139565b60405180910390fd5b60008060003373ffffffffffffffffffffffffffffffffffffffff1673ffffffffffffffffffffffffffffffffffffffff16815260200190815260200160002054141561092f57600560008154809291906109299061140c565b91905055505b346000803373ffffffffffffffffffffffffffffffffffffffff1673ffffffffffffffffffffffffffffffffffffffff168152602001908152602001600020600082825461097d9190611286565b92505081905550346004546109929190611286565b600481905550565b600047905090565b60076020528060005260406000206000915090508060000180546109c5906113a9565b80601f01602080910402602001604051908101604052809291908181526020018280546109f1906113a9565b8015610a3e5780601f10610a1357610100808354040283529160200191610a3e565b820191906000526020600020905b815481529060010190602001808311610a2157829003601f168201915b5050505050908060010160009054906101000a900473ffffffffffffffffffffffffffffffffffffffff16908060020154908060030160009054906101000a900460ff16908060040154905085565b60065481565b60085481565b60045481565b600160009054906101000a900473ffffffffffffffffffffffffffffffffffffffff1673ffffffffffffffffffffffffffffffffffffffff163373ffffffffffffffffffffffffffffffffffffffff1614610b2f576040517f08c379a0000000000000000000000000000000000000000000000000000000008152600401610b2690611199565b60405180910390fd5b6003546004541015610b4057600080fd5b6000600760008381526020019081526020016000209050600015158160030160009054906101000a900460ff16151514610baf576040517f08c379a0000000000000000000000000000000000000000000000000000000008152600401610ba6906111b9565b60405180910390fd5b6002600554610bbe91906112dc565b816004015411610c03576040517f08c379a0000000000000000000000000000000000000000000000000000000008152600401610bfa906110d9565b60405180910390fd5b8060010160009054906101000a900473ffffffffffffffffffffffffffffffffffffffff1673ffffffffffffffffffffffffffffffffffffffff166108fc82600201549081150290604051600060405180830381858888f19350505050158015610c71573d6000803e3d6000fd5b5060018160030160006101000a81548160ff0219169083151502179055505050565b60035481565b828054610ca5906113a9565b90600052602060002090601f016020900481019282610cc75760008555610d0e565b82601f10610ce057805160ff1916838001178555610d0e565b82800160010185558215610d0e579182015b82811115610d0d578251825591602001919060010190610cf2565b5b509050610d1b9190610d1f565b5090565b5b80821115610d38576000816000905550600101610d20565b5090565b6000610d4f610d4a84611239565b611214565b905082815260208101848484011115610d6b57610d6a611516565b5b610d76848285611367565b509392505050565b600081359050610d8d816116f3565b92915050565b600081359050610da28161170a565b92915050565b600082601f830112610dbd57610dbc611511565b5b8135610dcd848260208601610d3c565b91505092915050565b600081359050610de581611721565b92915050565b600060208284031215610e0157610e00611520565b5b6000610e0f84828501610d7e565b91505092915050565b600080600060608486031215610e3157610e30611520565b5b600084013567ffffffffffffffff811115610e4f57610e4e61151b565b5b610e5b86828701610da8565b9350506020610e6c86828701610d93565b9250506040610e7d86828701610dd6565b9150509250925092565b600060208284031215610e9d57610e9c611520565b5b6000610eab84828501610dd6565b91505092915050565b610ebd8161131f565b82525050565b610ecc8161130d565b82525050565b610edb81611331565b82525050565b6000610eec8261126a565b610ef68185611275565b9350610f06818560208601611376565b610f0f81611525565b840191505092915050565b6000610f27601983611275565b9150610f3282611536565b602082019050919050565b6000610f4a601683611275565b9150610f558261155f565b602082019050919050565b6000610f6d602183611275565b9150610f7882611588565b604082019050919050565b6000610f90601e83611275565b9150610f9b826115d7565b602082019050919050565b6000610fb3601383611275565b9150610fbe82611600565b602082019050919050565b6000610fd6601783611275565b9150610fe182611629565b602082019050919050565b6000610ff9602383611275565b915061100482611652565b604082019050919050565b600061101c601a83611275565b9150611027826116a1565b602082019050919050565b600061103f601f83611275565b915061104a826116ca565b602082019050919050565b61105e8161135d565b82525050565b60006020820190506110796000830184610ec3565b92915050565b600060a08201905081810360008301526110998188610ee1565b90506110a86020830187610eb4565b6110b56040830186611055565b6110c26060830185610ed2565b6110cf6080830184611055565b9695505050505050565b600060208201905081810360008301526110f281610f1a565b9050919050565b6000602082019050818103600083015261111281610f3d565b9050919050565b6000602082019050818103600083015261113281610f60565b9050919050565b6000602082019050818103600083015261115281610f83565b9050919050565b6000602082019050818103600083015261117281610fa6565b9050919050565b6000602082019050818103600083015261119281610fc9565b9050919050565b600060208201905081810360008301526111b281610fec565b9050919050565b600060208201905081810360008301526111d28161100f565b9050919050565b600060208201905081810360008301526111f281611032565b9050919050565b600060208201905061120e6000830184611055565b92915050565b600061121e61122f565b905061122a82826113db565b919050565b6000604051905090565b600067ffffffffffffffff821115611254576112536114e2565b5b61125d82611525565b9050602081019050919050565b600081519050919050565b600082825260208201905092915050565b60006112918261135d565b915061129c8361135d565b9250827fffffffffffffffffffffffffffffffffffffffffffffffffffffffffffffffff038211156112d1576112d0611455565b5b828201905092915050565b60006112e78261135d565b91506112f28361135d565b92508261130257611301611484565b5b828204905092915050565b60006113188261133d565b9050919050565b600061132a8261133d565b9050919050565b60008115159050919050565b600073ffffffffffffffffffffffffffffffffffffffff82169050919050565b6000819050919050565b82818337600083830152505050565b60005b83811015611394578082015181840152602081019050611379565b838111156113a3576000848401525b50505050565b600060028204905060018216806113c157607f821691505b602082108114156113d5576113d46114b3565b5b50919050565b6113e482611525565b810181811067ffffffffffffffff82111715611403576114026114e2565b5b80604052505050565b60006114178261135d565b91507fffffffffffffffffffffffffffffffffffffffffffffffffffffffffffffffff82141561144a57611449611455565b5b600182019050919050565b7f4e487b7100000000000000000000000000000000000000000000000000000000600052601160045260246000fd5b7f4e487b7100000000000000000000000000000000000000000000000000000000600052601260045260246000fd5b7f4e487b7100000000000000000000000000000000000000000000000000000000600052602260045260246000fd5b7f4e487b7100000000000000000000000000000000000000000000000000000000600052604160045260246000fd5b600080fd5b600080fd5b600080fd5b600080fd5b6000601f19601f8301169050919050565b7f6d616a6f7269747920646f6573206e6f7420737570706f727400000000000000600082015250565b7f796f75206861766520616c726561647920766f74656400000000000000000000600082015250565b7f796f752068617665206e6f7420636f6e747269627574656420616e797468696e60008201527f6700000000000000000000000000000000000000000000000000000000000000602082015250565b7f6d696e696d756e20436f6e7472627574696f6e206973206e6f74206d65740000600082015250565b7f646561646c696e65206861732070617373656400000000000000000000000000600082015250565b7f796f75206d75737420626520636f6e7472696275746572000000000000000000600082015250565b7f6f6e6c79206d616e616765722063616e2063616c6c20746869732066756e637460008201527f696f6e0000000000000000000000000000000000000000000000000000000000602082015250565b7f7265717565737420686173206265656e20636f6d706c65746564000000000000600082015250565b7f796f7520617265206e6f7420656c696769626c6520666f7220726566756e6400600082015250565b6116fc8161130d565b811461170757600080fd5b50565b6117138161131f565b811461171e57600080fd5b50565b61172a8161135d565b811461173557600080fd5b5056fea2646970667358221220fd36379ffbba39bc0459db3ff01c8477507068f5320e49f9f3c34352a61a7a1c64736f6c63430008070033",
			"opcodes": "PUSH1 0x80 PUSH1 0x40 MSTORE CALLVALUE DUP1 ISZERO PUSH3 0x11 JUMPI PUSH1 0x0 DUP1 REVERT JUMPDEST POP PUSH1 0x40 MLOAD PUSH3 0x1934 CODESIZE SUB DUP1 PUSH3 0x1934 DUP4 CODECOPY DUP2 DUP2 ADD PUSH1 0x40 MSTORE DUP2 ADD SWAP1 PUSH3 0x37 SWAP2 SWAP1 PUSH3 0xBA JUMP JUMPDEST DUP2 PUSH1 0x3 DUP2 SWAP1 SSTORE POP DUP1 TIMESTAMP PUSH3 0x4C SWAP2 SWAP1 PUSH3 0x101 JUMP JUMPDEST PUSH1 0x2 DUP2 SWAP1 SSTORE POP PUSH1 0x64 PUSH1 0x6 DUP2 SWAP1 SSTORE POP CALLER PUSH1 0x1 PUSH1 0x0 PUSH2 0x100 EXP DUP2 SLOAD DUP2 PUSH20 0xFFFFFFFFFFFFFFFFFFFFFFFFFFFFFFFFFFFFFFFF MUL NOT AND SWAP1 DUP4 PUSH20 0xFFFFFFFFFFFFFFFFFFFFFFFFFFFFFFFFFFFFFFFF AND MUL OR SWAP1 SSTORE POP POP POP PUSH3 0x1B6 JUMP JUMPDEST PUSH1 0x0 DUP2 MLOAD SWAP1 POP PUSH3 0xB4 DUP2 PUSH3 0x19C JUMP JUMPDEST SWAP3 SWAP2 POP POP JUMP JUMPDEST PUSH1 0x0 DUP1 PUSH1 0x40 DUP4 DUP6 SUB SLT ISZERO PUSH3 0xD4 JUMPI PUSH3 0xD3 PUSH3 0x197 JUMP JUMPDEST JUMPDEST PUSH1 0x0 PUSH3 0xE4 DUP6 DUP3 DUP7 ADD PUSH3 0xA3 JUMP JUMPDEST SWAP3 POP POP PUSH1 0x20 PUSH3 0xF7 DUP6 DUP3 DUP7 ADD PUSH3 0xA3 JUMP JUMPDEST SWAP2 POP POP SWAP3 POP SWAP3 SWAP1 POP JUMP JUMPDEST PUSH1 0x0 PUSH3 0x10E DUP3 PUSH3 0x15E JUMP JUMPDEST SWAP2 POP PUSH3 0x11B DUP4 PUSH3 0x15E JUMP JUMPDEST SWAP3 POP DUP3 PUSH32 0xFFFFFFFFFFFFFFFFFFFFFFFFFFFFFFFFFFFFFFFFFFFFFFFFFFFFFFFFFFFFFFFF SUB DUP3 GT ISZERO PUSH3 0x153 JUMPI PUSH3 0x152 PUSH3 0x168 JUMP JUMPDEST JUMPDEST DUP3 DUP3 ADD SWAP1 POP SWAP3 SWAP2 POP POP JUMP JUMPDEST PUSH1 0x0 DUP2 SWAP1 POP SWAP2 SWAP1 POP JUMP JUMPDEST PUSH32 0x4E487B7100000000000000000000000000000000000000000000000000000000 PUSH1 0x0 MSTORE PUSH1 0x11 PUSH1 0x4 MSTORE PUSH1 0x24 PUSH1 0x0 REVERT JUMPDEST PUSH1 0x0 DUP1 REVERT JUMPDEST PUSH3 0x1A7 DUP2 PUSH3 0x15E JUMP JUMPDEST DUP2 EQ PUSH3 0x1B3 JUMPI PUSH1 0x0 DUP1 REVERT JUMPDEST POP JUMP JUMPDEST PUSH2 0x176E DUP1 PUSH3 0x1C6 PUSH1 0x0 CODECOPY PUSH1 0x0 RETURN INVALID PUSH1 0x80 PUSH1 0x40 MSTORE PUSH1 0x4 CALLDATASIZE LT PUSH2 0xE8 JUMPI PUSH1 0x0 CALLDATALOAD PUSH1 0xE0 SHR DUP1 PUSH4 0x5EDEC2C4 GT PUSH2 0x8A JUMPI DUP1 PUSH4 0x9FB42B1F GT PUSH2 0x59 JUMPI DUP1 PUSH4 0x9FB42B1F EQ PUSH2 0x2B5 JUMPI DUP1 PUSH4 0xC59EE1DC EQ PUSH2 0x2E0 JUMPI DUP1 PUSH4 0xCBAF8671 EQ PUSH2 0x30B JUMPI DUP1 PUSH4 0xD4B83992 EQ PUSH2 0x334 JUMPI PUSH2 0xE8 JUMP JUMPDEST DUP1 PUSH4 0x5EDEC2C4 EQ PUSH2 0x214 JUMPI DUP1 PUSH4 0x6F9FB98A EQ PUSH2 0x21E JUMPI DUP1 PUSH4 0x81D12C58 EQ PUSH2 0x249 JUMPI DUP1 PUSH4 0x937E09B1 EQ PUSH2 0x28A JUMPI PUSH2 0xE8 JUMP JUMPDEST DUP1 PUSH4 0x3EB7647B GT PUSH2 0xC6 JUMPI DUP1 PUSH4 0x3EB7647B EQ PUSH2 0x180 JUMPI DUP1 PUSH4 0x481C6A75 EQ PUSH2 0x1A9 JUMPI DUP1 PUSH4 0x4CB6F4A5 EQ PUSH2 0x1D4 JUMPI DUP1 PUSH4 0x590E1AE3 EQ PUSH2 0x1FD JUMPI PUSH2 0xE8 JUMP JUMPDEST DUP1 PUSH4 0x24274EE9 EQ PUSH2 0xED JUMPI DUP1 PUSH4 0x29DCB0CF EQ PUSH2 0x118 JUMPI DUP1 PUSH4 0x34B66460 EQ PUSH2 0x143 JUMPI JUMPDEST PUSH1 0x0 DUP1 REVERT JUMPDEST CALLVALUE DUP1 ISZERO PUSH2 0xF9 JUMPI PUSH1 0x0 DUP1 REVERT JUMPDEST POP PUSH2 0x102 PUSH2 0x35F JUMP JUMPDEST PUSH1 0x40 MLOAD PUSH2 0x10F SWAP2 SWAP1 PUSH2 0x11F9 JUMP JUMPDEST PUSH1 0x40 MLOAD DUP1 SWAP2 SUB SWAP1 RETURN JUMPDEST CALLVALUE DUP1 ISZERO PUSH2 0x124 JUMPI PUSH1 0x0 DUP1 REVERT JUMPDEST POP PUSH2 0x12D PUSH2 0x365 JUMP JUMPDEST PUSH1 0x40 MLOAD PUSH2 0x13A SWAP2 SWAP1 PUSH2 0x11F9 JUMP JUMPDEST PUSH1 0x40 MLOAD DUP1 SWAP2 SUB SWAP1 RETURN JUMPDEST CALLVALUE DUP1 ISZERO PUSH2 0x14F JUMPI PUSH1 0x0 DUP1 REVERT JUMPDEST POP PUSH2 0x16A PUSH1 0x4 DUP1 CALLDATASIZE SUB DUP2 ADD SWAP1 PUSH2 0x165 SWAP2 SWAP1 PUSH2 0xDEB JUMP JUMPDEST PUSH2 0x36B JUMP JUMPDEST PUSH1 0x40 MLOAD PUSH2 0x177 SWAP2 SWAP1 PUSH2 0x11F9 JUMP JUMPDEST PUSH1 0x40 MLOAD DUP1 SWAP2 SUB SWAP1 RETURN JUMPDEST CALLVALUE DUP1 ISZERO PUSH2 0x18C JUMPI PUSH1 0x0 DUP1 REVERT JUMPDEST POP PUSH2 0x1A7 PUSH1 0x4 DUP1 CALLDATASIZE SUB DUP2 ADD SWAP1 PUSH2 0x1A2 SWAP2 SWAP1 PUSH2 0xE18 JUMP JUMPDEST PUSH2 0x383 JUMP JUMPDEST STOP JUMPDEST CALLVALUE DUP1 ISZERO PUSH2 0x1B5 JUMPI PUSH1 0x0 DUP1 REVERT JUMPDEST POP PUSH2 0x1BE PUSH2 0x4D6 JUMP JUMPDEST PUSH1 0x40 MLOAD PUSH2 0x1CB SWAP2 SWAP1 PUSH2 0x1064 JUMP JUMPDEST PUSH1 0x40 MLOAD DUP1 SWAP2 SUB SWAP1 RETURN JUMPDEST CALLVALUE DUP1 ISZERO PUSH2 0x1E0 JUMPI PUSH1 0x0 DUP1 REVERT JUMPDEST POP PUSH2 0x1FB PUSH1 0x4 DUP1 CALLDATASIZE SUB DUP2 ADD SWAP1 PUSH2 0x1F6 SWAP2 SWAP1 PUSH2 0xE87 JUMP JUMPDEST PUSH2 0x4FC JUMP JUMPDEST STOP JUMPDEST CALLVALUE DUP1 ISZERO PUSH2 0x209 JUMPI PUSH1 0x0 DUP1 REVERT JUMPDEST POP PUSH2 0x212 PUSH2 0x6A1 JUMP JUMPDEST STOP JUMPDEST PUSH2 0x21C PUSH2 0x846 JUMP JUMPDEST STOP JUMPDEST CALLVALUE DUP1 ISZERO PUSH2 0x22A JUMPI PUSH1 0x0 DUP1 REVERT JUMPDEST POP PUSH2 0x233 PUSH2 0x99A JUMP JUMPDEST PUSH1 0x40 MLOAD PUSH2 0x240 SWAP2 SWAP1 PUSH2 0x11F9 JUMP JUMPDEST PUSH1 0x40 MLOAD DUP1 SWAP2 SUB SWAP1 RETURN JUMPDEST CALLVALUE DUP1 ISZERO PUSH2 0x255 JUMPI PUSH1 0x0 DUP1 REVERT JUMPDEST POP PUSH2 0x270 PUSH1 0x4 DUP1 CALLDATASIZE SUB DUP2 ADD SWAP1 PUSH2 0x26B SWAP2 SWAP1 PUSH2 0xE87 JUMP JUMPDEST PUSH2 0x9A2 JUMP JUMPDEST PUSH1 0x40 MLOAD PUSH2 0x281 SWAP6 SWAP5 SWAP4 SWAP3 SWAP2 SWAP1 PUSH2 0x107F JUMP JUMPDEST PUSH1 0x40 MLOAD DUP1 SWAP2 SUB SWAP1 RETURN JUMPDEST CALLVALUE DUP1 ISZERO PUSH2 0x296 JUMPI PUSH1 0x0 DUP1 REVERT JUMPDEST POP PUSH2 0x29F PUSH2 0xA8D JUMP JUMPDEST PUSH1 0x40 MLOAD PUSH2 0x2AC SWAP2 SWAP1 PUSH2 0x11F9 JUMP JUMPDEST PUSH1 0x40 MLOAD DUP1 SWAP2 SUB SWAP1 RETURN JUMPDEST CALLVALUE DUP1 ISZERO PUSH2 0x2C1 JUMPI PUSH1 0x0 DUP1 REVERT JUMPDEST POP PUSH2 0x2CA PUSH2 0xA93 JUMP JUMPDEST PUSH1 0x40 MLOAD PUSH2 0x2D7 SWAP2 SWAP1 PUSH2 0x11F9 JUMP JUMPDEST PUSH1 0x40 MLOAD DUP1 SWAP2 SUB SWAP1 RETURN JUMPDEST CALLVALUE DUP1 ISZERO PUSH2 0x2EC JUMPI PUSH1 0x0 DUP1 REVERT JUMPDEST POP PUSH2 0x2F5 PUSH2 0xA99 JUMP JUMPDEST PUSH1 0x40 MLOAD PUSH2 0x302 SWAP2 SWAP1 PUSH2 0x11F9 JUMP JUMPDEST PUSH1 0x40 MLOAD DUP1 SWAP2 SUB SWAP1 RETURN JUMPDEST CALLVALUE DUP1 ISZERO PUSH2 0x317 JUMPI PUSH1 0x0 DUP1 REVERT JUMPDEST POP PUSH2 0x332 PUSH1 0x4 DUP1 CALLDATASIZE SUB DUP2 ADD SWAP1 PUSH2 0x32D SWAP2 SWAP1 PUSH2 0xE87 JUMP JUMPDEST PUSH2 0xA9F JUMP JUMPDEST STOP JUMPDEST CALLVALUE DUP1 ISZERO PUSH2 0x340 JUMPI PUSH1 0x0 DUP1 REVERT JUMPDEST POP PUSH2 0x349 PUSH2 0xC93 JUMP JUMPDEST PUSH1 0x40 MLOAD PUSH2 0x356 SWAP2 SWAP1 PUSH2 0x11F9 JUMP JUMPDEST PUSH1 0x40 MLOAD DUP1 SWAP2 SUB SWAP1 RETURN JUMPDEST PUSH1 0x5 SLOAD DUP2 JUMP JUMPDEST PUSH1 0x2 SLOAD DUP2 JUMP JUMPDEST PUSH1 0x0 PUSH1 0x20 MSTORE DUP1 PUSH1 0x0 MSTORE PUSH1 0x40 PUSH1 0x0 KECCAK256 PUSH1 0x0 SWAP2 POP SWAP1 POP SLOAD DUP2 JUMP JUMPDEST PUSH1 0x1 PUSH1 0x0 SWAP1 SLOAD SWAP1 PUSH2 0x100 EXP SWAP1 DIV PUSH20 0xFFFFFFFFFFFFFFFFFFFFFFFFFFFFFFFFFFFFFFFF AND PUSH20 0xFFFFFFFFFFFFFFFFFFFFFFFFFFFFFFFFFFFFFFFF AND CALLER PUSH20 0xFFFFFFFFFFFFFFFFFFFFFFFFFFFFFFFFFFFFFFFF AND EQ PUSH2 0x413 JUMPI PUSH1 0x40 MLOAD PUSH32 0x8C379A000000000000000000000000000000000000000000000000000000000 DUP2 MSTORE PUSH1 0x4 ADD PUSH2 0x40A SWAP1 PUSH2 0x1199 JUMP JUMPDEST PUSH1 0x40 MLOAD DUP1 SWAP2 SUB SWAP1 REVERT JUMPDEST PUSH1 0x0 PUSH1 0x7 PUSH1 0x0 PUSH1 0x8 SLOAD DUP2 MSTORE PUSH1 0x20 ADD SWAP1 DUP2 MSTORE PUSH1 0x20 ADD PUSH1 0x0 KECCAK256 SWAP1 POP PUSH1 0x8 PUSH1 0x0 DUP2 SLOAD DUP1 SWAP3 SWAP2 SWAP1 PUSH2 0x43F SWAP1 PUSH2 0x140C JUMP JUMPDEST SWAP2 SWAP1 POP SSTORE POP DUP4 DUP2 PUSH1 0x0 ADD SWAP1 DUP1 MLOAD SWAP1 PUSH1 0x20 ADD SWAP1 PUSH2 0x45C SWAP3 SWAP2 SWAP1 PUSH2 0xC99 JUMP JUMPDEST POP DUP3 DUP2 PUSH1 0x1 ADD PUSH1 0x0 PUSH2 0x100 EXP DUP2 SLOAD DUP2 PUSH20 0xFFFFFFFFFFFFFFFFFFFFFFFFFFFFFFFFFFFFFFFF MUL NOT AND SWAP1 DUP4 PUSH20 0xFFFFFFFFFFFFFFFFFFFFFFFFFFFFFFFFFFFFFFFF AND MUL OR SWAP1 SSTORE POP DUP2 DUP2 PUSH1 0x2 ADD DUP2 SWAP1 SSTORE POP PUSH1 0x0 DUP2 PUSH1 0x3 ADD PUSH1 0x0 PUSH2 0x100 EXP DUP2 SLOAD DUP2 PUSH1 0xFF MUL NOT AND SWAP1 DUP4 ISZERO ISZERO MUL OR SWAP1 SSTORE POP PUSH1 0x0 DUP2 PUSH1 0x4 ADD DUP2 SWAP1 SSTORE POP POP POP POP POP JUMP JUMPDEST PUSH1 0x1 PUSH1 0x0 SWAP1 SLOAD SWAP1 PUSH2 0x100 EXP SWAP1 DIV PUSH20 0xFFFFFFFFFFFFFFFFFFFFFFFFFFFFFFFFFFFFFFFF AND DUP2 JUMP JUMPDEST PUSH1 0x0 DUP1 PUSH1 0x0 CALLER PUSH20 0xFFFFFFFFFFFFFFFFFFFFFFFFFFFFFFFFFFFFFFFF AND PUSH20 0xFFFFFFFFFFFFFFFFFFFFFFFFFFFFFFFFFFFFFFFF AND DUP2 MSTORE PUSH1 0x20 ADD SWAP1 DUP2 MSTORE PUSH1 0x20 ADD PUSH1 0x0 KECCAK256 SLOAD GT PUSH2 0x57D JUMPI PUSH1 0x40 MLOAD PUSH32 0x8C379A000000000000000000000000000000000000000000000000000000000 DUP2 MSTORE PUSH1 0x4 ADD PUSH2 0x574 SWAP1 PUSH2 0x1179 JUMP JUMPDEST PUSH1 0x40 MLOAD DUP1 SWAP2 SUB SWAP1 REVERT JUMPDEST PUSH1 0x0 PUSH1 0x7 PUSH1 0x0 DUP4 DUP2 MSTORE PUSH1 0x20 ADD SWAP1 DUP2 MSTORE PUSH1 0x20 ADD PUSH1 0x0 KECCAK256 SWAP1 POP PUSH1 0x0 ISZERO ISZERO DUP2 PUSH1 0x5 ADD PUSH1 0x0 CALLER PUSH20 0xFFFFFFFFFFFFFFFFFFFFFFFFFFFFFFFFFFFFFFFF AND PUSH20 0xFFFFFFFFFFFFFFFFFFFFFFFFFFFFFFFFFFFFFFFF AND DUP2 MSTORE PUSH1 0x20 ADD SWAP1 DUP2 MSTORE PUSH1 0x20 ADD PUSH1 0x0 KECCAK256 PUSH1 0x0 SWAP1 SLOAD SWAP1 PUSH2 0x100 EXP SWAP1 DIV PUSH1 0xFF AND ISZERO ISZERO EQ PUSH2 0x629 JUMPI PUSH1 0x40 MLOAD PUSH32 0x8C379A000000000000000000000000000000000000000000000000000000000 DUP2 MSTORE PUSH1 0x4 ADD PUSH2 0x620 SWAP1 PUSH2 0x10F9 JUMP JUMPDEST PUSH1 0x40 MLOAD DUP1 SWAP2 SUB SWAP1 REVERT JUMPDEST PUSH1 0x1 DUP2 PUSH1 0x5 ADD PUSH1 0x0 CALLER PUSH20 0xFFFFFFFFFFFFFFFFFFFFFFFFFFFFFFFFFFFFFFFF AND PUSH20 0xFFFFFFFFFFFFFFFFFFFFFFFFFFFFFFFFFFFFFFFF AND DUP2 MSTORE PUSH1 0x20 ADD SWAP1 DUP2 MSTORE PUSH1 0x20 ADD PUSH1 0x0 KECCAK256 PUSH1 0x0 PUSH2 0x100 EXP DUP2 SLOAD DUP2 PUSH1 0xFF MUL NOT AND SWAP1 DUP4 ISZERO ISZERO MUL OR SWAP1 SSTORE POP DUP1 PUSH1 0x4 ADD PUSH1 0x0 DUP2 SLOAD DUP1 SWAP3 SWAP2 SWAP1 PUSH2 0x698 SWAP1 PUSH2 0x140C JUMP JUMPDEST SWAP2 SWAP1 POP SSTORE POP POP POP JUMP JUMPDEST PUSH1 0x2 SLOAD TIMESTAMP GT DUP1 ISZERO PUSH2 0x6B5 JUMPI POP PUSH1 0x3 SLOAD PUSH1 0x4 SLOAD LT JUMPDEST PUSH2 0x6F4 JUMPI PUSH1 0x40 MLOAD PUSH32 0x8C379A000000000000000000000000000000000000000000000000000000000 DUP2 MSTORE PUSH1 0x4 ADD PUSH2 0x6EB SWAP1 PUSH2 0x11D9 JUMP JUMPDEST PUSH1 0x40 MLOAD DUP1 SWAP2 SUB SWAP1 REVERT JUMPDEST PUSH1 0x0 DUP1 PUSH1 0x0 CALLER PUSH20 0xFFFFFFFFFFFFFFFFFFFFFFFFFFFFFFFFFFFFFFFF AND PUSH20 0xFFFFFFFFFFFFFFFFFFFFFFFFFFFFFFFFFFFFFFFF AND DUP2 MSTORE PUSH1 0x20 ADD SWAP1 DUP2 MSTORE PUSH1 0x20 ADD PUSH1 0x0 KECCAK256 SLOAD GT PUSH2 0x775 JUMPI PUSH1 0x40 MLOAD PUSH32 0x8C379A000000000000000000000000000000000000000000000000000000000 DUP2 MSTORE PUSH1 0x4 ADD PUSH2 0x76C SWAP1 PUSH2 0x1119 JUMP JUMPDEST PUSH1 0x40 MLOAD DUP1 SWAP2 SUB SWAP1 REVERT JUMPDEST PUSH1 0x0 CALLER SWAP1 POP DUP1 PUSH20 0xFFFFFFFFFFFFFFFFFFFFFFFFFFFFFFFFFFFFFFFF AND PUSH2 0x8FC PUSH1 0x0 DUP1 CALLER PUSH20 0xFFFFFFFFFFFFFFFFFFFFFFFFFFFFFFFFFFFFFFFF AND PUSH20 0xFFFFFFFFFFFFFFFFFFFFFFFFFFFFFFFFFFFFFFFF AND DUP2 MSTORE PUSH1 0x20 ADD SWAP1 DUP2 MSTORE PUSH1 0x20 ADD PUSH1 0x0 KECCAK256 SLOAD SWAP1 DUP2 ISZERO MUL SWAP1 PUSH1 0x40 MLOAD PUSH1 0x0 PUSH1 0x40 MLOAD DUP1 DUP4 SUB DUP2 DUP6 DUP9 DUP9 CALL SWAP4 POP POP POP POP ISZERO DUP1 ISZERO PUSH2 0x7FE JUMPI RETURNDATASIZE PUSH1 0x0 DUP1 RETURNDATACOPY RETURNDATASIZE PUSH1 0x0 REVERT JUMPDEST POP PUSH1 0x0 DUP1 PUSH1 0x0 CALLER PUSH20 0xFFFFFFFFFFFFFFFFFFFFFFFFFFFFFFFFFFFFFFFF AND PUSH20 0xFFFFFFFFFFFFFFFFFFFFFFFFFFFFFFFFFFFFFFFF AND DUP2 MSTORE PUSH1 0x20 ADD SWAP1 DUP2 MSTORE PUSH1 0x20 ADD PUSH1 0x0 KECCAK256 DUP2 SWAP1 SSTORE POP POP JUMP JUMPDEST PUSH1 0x2 SLOAD TIMESTAMP LT PUSH2 0x88A JUMPI PUSH1 0x40 MLOAD PUSH32 0x8C379A000000000000000000000000000000000000000000000000000000000 DUP2 MSTORE PUSH1 0x4 ADD PUSH2 0x881 SWAP1 PUSH2 0x1159 JUMP JUMPDEST PUSH1 0x40 MLOAD DUP1 SWAP2 SUB SWAP1 REVERT JUMPDEST PUSH1 0x6 SLOAD CALLVALUE LT ISZERO PUSH2 0x8CF JUMPI PUSH1 0x40 MLOAD PUSH32 0x8C379A000000000000000000000000000000000000000000000000000000000 DUP2 MSTORE PUSH1 0x4 ADD PUSH2 0x8C6 SWAP1 PUSH2 0x1139 JUMP JUMPDEST PUSH1 0x40 MLOAD DUP1 SWAP2 SUB SWAP1 REVERT JUMPDEST PUSH1 0x0 DUP1 PUSH1 0x0 CALLER PUSH20 0xFFFFFFFFFFFFFFFFFFFFFFFFFFFFFFFFFFFFFFFF AND PUSH20 0xFFFFFFFFFFFFFFFFFFFFFFFFFFFFFFFFFFFFFFFF AND DUP2 MSTORE PUSH1 0x20 ADD SWAP1 DUP2 MSTORE PUSH1 0x20 ADD PUSH1 0x0 KECCAK256 SLOAD EQ ISZERO PUSH2 0x92F JUMPI PUSH1 0x5 PUSH1 0x0 DUP2 SLOAD DUP1 SWAP3 SWAP2 SWAP1 PUSH2 0x929 SWAP1 PUSH2 0x140C JUMP JUMPDEST SWAP2 SWAP1 POP SSTORE POP JUMPDEST CALLVALUE PUSH1 0x0 DUP1 CALLER PUSH20 0xFFFFFFFFFFFFFFFFFFFFFFFFFFFFFFFFFFFFFFFF AND PUSH20 0xFFFFFFFFFFFFFFFFFFFFFFFFFFFFFFFFFFFFFFFF AND DUP2 MSTORE PUSH1 0x20 ADD SWAP1 DUP2 MSTORE PUSH1 0x20 ADD PUSH1 0x0 KECCAK256 PUSH1 0x0 DUP3 DUP3 SLOAD PUSH2 0x97D SWAP2 SWAP1 PUSH2 0x1286 JUMP JUMPDEST SWAP3 POP POP DUP2 SWAP1 SSTORE POP CALLVALUE PUSH1 0x4 SLOAD PUSH2 0x992 SWAP2 SWAP1 PUSH2 0x1286 JUMP JUMPDEST PUSH1 0x4 DUP2 SWAP1 SSTORE POP JUMP JUMPDEST PUSH1 0x0 SELFBALANCE SWAP1 POP SWAP1 JUMP JUMPDEST PUSH1 0x7 PUSH1 0x20 MSTORE DUP1 PUSH1 0x0 MSTORE PUSH1 0x40 PUSH1 0x0 KECCAK256 PUSH1 0x0 SWAP2 POP SWAP1 POP DUP1 PUSH1 0x0 ADD DUP1 SLOAD PUSH2 0x9C5 SWAP1 PUSH2 0x13A9 JUMP JUMPDEST DUP1 PUSH1 0x1F ADD PUSH1 0x20 DUP1 SWAP2 DIV MUL PUSH1 0x20 ADD PUSH1 0x40 MLOAD SWAP1 DUP2 ADD PUSH1 0x40 MSTORE DUP1 SWAP3 SWAP2 SWAP1 DUP2 DUP2 MSTORE PUSH1 0x20 ADD DUP3 DUP1 SLOAD PUSH2 0x9F1 SWAP1 PUSH2 0x13A9 JUMP JUMPDEST DUP1 ISZERO PUSH2 0xA3E JUMPI DUP1 PUSH1 0x1F LT PUSH2 0xA13 JUMPI PUSH2 0x100 DUP1 DUP4 SLOAD DIV MUL DUP4 MSTORE SWAP2 PUSH1 0x20 ADD SWAP2 PUSH2 0xA3E JUMP JUMPDEST DUP3 ADD SWAP2 SWAP1 PUSH1 0x0 MSTORE PUSH1 0x20 PUSH1 0x0 KECCAK256 SWAP1 JUMPDEST DUP2 SLOAD DUP2 MSTORE SWAP1 PUSH1 0x1 ADD SWAP1 PUSH1 0x20 ADD DUP1 DUP4 GT PUSH2 0xA21 JUMPI DUP3 SWAP1 SUB PUSH1 0x1F AND DUP3 ADD SWAP2 JUMPDEST POP POP POP POP POP SWAP1 DUP1 PUSH1 0x1 ADD PUSH1 0x0 SWAP1 SLOAD SWAP1 PUSH2 0x100 EXP SWAP1 DIV PUSH20 0xFFFFFFFFFFFFFFFFFFFFFFFFFFFFFFFFFFFFFFFF AND SWAP1 DUP1 PUSH1 0x2 ADD SLOAD SWAP1 DUP1 PUSH1 0x3 ADD PUSH1 0x0 SWAP1 SLOAD SWAP1 PUSH2 0x100 EXP SWAP1 DIV PUSH1 0xFF AND SWAP1 DUP1 PUSH1 0x4 ADD SLOAD SWAP1 POP DUP6 JUMP JUMPDEST PUSH1 0x6 SLOAD DUP2 JUMP JUMPDEST PUSH1 0x8 SLOAD DUP2 JUMP JUMPDEST PUSH1 0x4 SLOAD DUP2 JUMP JUMPDEST PUSH1 0x1 PUSH1 0x0 SWAP1 SLOAD SWAP1 PUSH2 0x100 EXP SWAP1 DIV PUSH20 0xFFFFFFFFFFFFFFFFFFFFFFFFFFFFFFFFFFFFFFFF AND PUSH20 0xFFFFFFFFFFFFFFFFFFFFFFFFFFFFFFFFFFFFFFFF AND CALLER PUSH20 0xFFFFFFFFFFFFFFFFFFFFFFFFFFFFFFFFFFFFFFFF AND EQ PUSH2 0xB2F JUMPI PUSH1 0x40 MLOAD PUSH32 0x8C379A000000000000000000000000000000000000000000000000000000000 DUP2 MSTORE PUSH1 0x4 ADD PUSH2 0xB26 SWAP1 PUSH2 0x1199 JUMP JUMPDEST PUSH1 0x40 MLOAD DUP1 SWAP2 SUB SWAP1 REVERT JUMPDEST PUSH1 0x3 SLOAD PUSH1 0x4 SLOAD LT ISZERO PUSH2 0xB40 JUMPI PUSH1 0x0 DUP1 REVERT JUMPDEST PUSH1 0x0 PUSH1 0x7 PUSH1 0x0 DUP4 DUP2 MSTORE PUSH1 0x20 ADD SWAP1 DUP2 MSTORE PUSH1 0x20 ADD PUSH1 0x0 KECCAK256 SWAP1 POP PUSH1 0x0 ISZERO ISZERO DUP2 PUSH1 0x3 ADD PUSH1 0x0 SWAP1 SLOAD SWAP1 PUSH2 0x100 EXP SWAP1 DIV PUSH1 0xFF AND ISZERO ISZERO EQ PUSH2 0xBAF JUMPI PUSH1 0x40 MLOAD PUSH32 0x8C379A000000000000000000000000000000000000000000000000000000000 DUP2 MSTORE PUSH1 0x4 ADD PUSH2 0xBA6 SWAP1 PUSH2 0x11B9 JUMP JUMPDEST PUSH1 0x40 MLOAD DUP1 SWAP2 SUB SWAP1 REVERT JUMPDEST PUSH1 0x2 PUSH1 0x5 SLOAD PUSH2 0xBBE SWAP2 SWAP1 PUSH2 0x12DC JUMP JUMPDEST DUP2 PUSH1 0x4 ADD SLOAD GT PUSH2 0xC03 JUMPI PUSH1 0x40 MLOAD PUSH32 0x8C379A000000000000000000000000000000000000000000000000000000000 DUP2 MSTORE PUSH1 0x4 ADD PUSH2 0xBFA SWAP1 PUSH2 0x10D9 JUMP JUMPDEST PUSH1 0x40 MLOAD DUP1 SWAP2 SUB SWAP1 REVERT JUMPDEST DUP1 PUSH1 0x1 ADD PUSH1 0x0 SWAP1 SLOAD SWAP1 PUSH2 0x100 EXP SWAP1 DIV PUSH20 0xFFFFFFFFFFFFFFFFFFFFFFFFFFFFFFFFFFFFFFFF AND PUSH20 0xFFFFFFFFFFFFFFFFFFFFFFFFFFFFFFFFFFFFFFFF AND PUSH2 0x8FC DUP3 PUSH1 0x2 ADD SLOAD SWAP1 DUP2 ISZERO MUL SWAP1 PUSH1 0x40 MLOAD PUSH1 0x0 PUSH1 0x40 MLOAD DUP1 DUP4 SUB DUP2 DUP6 DUP9 DUP9 CALL SWAP4 POP POP POP POP ISZERO DUP1 ISZERO PUSH2 0xC71 JUMPI RETURNDATASIZE PUSH1 0x0 DUP1 RETURNDATACOPY RETURNDATASIZE PUSH1 0x0 REVERT JUMPDEST POP PUSH1 0x1 DUP2 PUSH1 0x3 ADD PUSH1 0x0 PUSH2 0x100 EXP DUP2 SLOAD DUP2 PUSH1 0xFF MUL NOT AND SWAP1 DUP4 ISZERO ISZERO MUL OR SWAP1 SSTORE POP POP POP JUMP JUMPDEST PUSH1 0x3 SLOAD DUP2 JUMP JUMPDEST DUP3 DUP1 SLOAD PUSH2 0xCA5 SWAP1 PUSH2 0x13A9 JUMP JUMPDEST SWAP1 PUSH1 0x0 MSTORE PUSH1 0x20 PUSH1 0x0 KECCAK256 SWAP1 PUSH1 0x1F ADD PUSH1 0x20 SWAP1 DIV DUP2 ADD SWAP3 DUP3 PUSH2 0xCC7 JUMPI PUSH1 0x0 DUP6 SSTORE PUSH2 0xD0E JUMP JUMPDEST DUP3 PUSH1 0x1F LT PUSH2 0xCE0 JUMPI DUP1 MLOAD PUSH1 0xFF NOT AND DUP4 DUP1 ADD OR DUP6 SSTORE PUSH2 0xD0E JUMP JUMPDEST DUP3 DUP1 ADD PUSH1 0x1 ADD DUP6 SSTORE DUP3 ISZERO PUSH2 0xD0E JUMPI SWAP2 DUP3 ADD JUMPDEST DUP3 DUP2 GT ISZERO PUSH2 0xD0D JUMPI DUP3 MLOAD DUP3 SSTORE SWAP2 PUSH1 0x20 ADD SWAP2 SWAP1 PUSH1 0x1 ADD SWAP1 PUSH2 0xCF2 JUMP JUMPDEST JUMPDEST POP SWAP1 POP PUSH2 0xD1B SWAP2 SWAP1 PUSH2 0xD1F JUMP JUMPDEST POP SWAP1 JUMP JUMPDEST JUMPDEST DUP1 DUP3 GT ISZERO PUSH2 0xD38 JUMPI PUSH1 0x0 DUP2 PUSH1 0x0 SWAP1 SSTORE POP PUSH1 0x1 ADD PUSH2 0xD20 JUMP JUMPDEST POP SWAP1 JUMP JUMPDEST PUSH1 0x0 PUSH2 0xD4F PUSH2 0xD4A DUP5 PUSH2 0x1239 JUMP JUMPDEST PUSH2 0x1214 JUMP JUMPDEST SWAP1 POP DUP3 DUP2 MSTORE PUSH1 0x20 DUP2 ADD DUP5 DUP5 DUP5 ADD GT ISZERO PUSH2 0xD6B JUMPI PUSH2 0xD6A PUSH2 0x1516 JUMP JUMPDEST JUMPDEST PUSH2 0xD76 DUP5 DUP3 DUP6 PUSH2 0x1367 JUMP JUMPDEST POP SWAP4 SWAP3 POP POP POP JUMP JUMPDEST PUSH1 0x0 DUP2 CALLDATALOAD SWAP1 POP PUSH2 0xD8D DUP2 PUSH2 0x16F3 JUMP JUMPDEST SWAP3 SWAP2 POP POP JUMP JUMPDEST PUSH1 0x0 DUP2 CALLDATALOAD SWAP1 POP PUSH2 0xDA2 DUP2 PUSH2 0x170A JUMP JUMPDEST SWAP3 SWAP2 POP POP JUMP JUMPDEST PUSH1 0x0 DUP3 PUSH1 0x1F DUP4 ADD SLT PUSH2 0xDBD JUMPI PUSH2 0xDBC PUSH2 0x1511 JUMP JUMPDEST JUMPDEST DUP2 CALLDATALOAD PUSH2 0xDCD DUP5 DUP3 PUSH1 0x20 DUP7 ADD PUSH2 0xD3C JUMP JUMPDEST SWAP2 POP POP SWAP3 SWAP2 POP POP JUMP JUMPDEST PUSH1 0x0 DUP2 CALLDATALOAD SWAP1 POP PUSH2 0xDE5 DUP2 PUSH2 0x1721 JUMP JUMPDEST SWAP3 SWAP2 POP POP JUMP JUMPDEST PUSH1 0x0 PUSH1 0x20 DUP3 DUP5 SUB SLT ISZERO PUSH2 0xE01 JUMPI PUSH2 0xE00 PUSH2 0x1520 JUMP JUMPDEST JUMPDEST PUSH1 0x0 PUSH2 0xE0F DUP5 DUP3 DUP6 ADD PUSH2 0xD7E JUMP JUMPDEST SWAP2 POP POP SWAP3 SWAP2 POP POP JUMP JUMPDEST PUSH1 0x0 DUP1 PUSH1 0x0 PUSH1 0x60 DUP5 DUP7 SUB SLT ISZERO PUSH2 0xE31 JUMPI PUSH2 0xE30 PUSH2 0x1520 JUMP JUMPDEST JUMPDEST PUSH1 0x0 DUP5 ADD CALLDATALOAD PUSH8 0xFFFFFFFFFFFFFFFF DUP2 GT ISZERO PUSH2 0xE4F JUMPI PUSH2 0xE4E PUSH2 0x151B JUMP JUMPDEST JUMPDEST PUSH2 0xE5B DUP7 DUP3 DUP8 ADD PUSH2 0xDA8 JUMP JUMPDEST SWAP4 POP POP PUSH1 0x20 PUSH2 0xE6C DUP7 DUP3 DUP8 ADD PUSH2 0xD93 JUMP JUMPDEST SWAP3 POP POP PUSH1 0x40 PUSH2 0xE7D DUP7 DUP3 DUP8 ADD PUSH2 0xDD6 JUMP JUMPDEST SWAP2 POP POP SWAP3 POP SWAP3 POP SWAP3 JUMP JUMPDEST PUSH1 0x0 PUSH1 0x20 DUP3 DUP5 SUB SLT ISZERO PUSH2 0xE9D JUMPI PUSH2 0xE9C PUSH2 0x1520 JUMP JUMPDEST JUMPDEST PUSH1 0x0 PUSH2 0xEAB DUP5 DUP3 DUP6 ADD PUSH2 0xDD6 JUMP JUMPDEST SWAP2 POP POP SWAP3 SWAP2 POP POP JUMP JUMPDEST PUSH2 0xEBD DUP2 PUSH2 0x131F JUMP JUMPDEST DUP3 MSTORE POP POP JUMP JUMPDEST PUSH2 0xECC DUP2 PUSH2 0x130D JUMP JUMPDEST DUP3 MSTORE POP POP JUMP JUMPDEST PUSH2 0xEDB DUP2 PUSH2 0x1331 JUMP JUMPDEST DUP3 MSTORE POP POP JUMP JUMPDEST PUSH1 0x0 PUSH2 0xEEC DUP3 PUSH2 0x126A JUMP JUMPDEST PUSH2 0xEF6 DUP2 DUP6 PUSH2 0x1275 JUMP JUMPDEST SWAP4 POP PUSH2 0xF06 DUP2 DUP6 PUSH1 0x20 DUP7 ADD PUSH2 0x1376 JUMP JUMPDEST PUSH2 0xF0F DUP2 PUSH2 0x1525 JUMP JUMPDEST DUP5 ADD SWAP2 POP POP SWAP3 SWAP2 POP POP JUMP JUMPDEST PUSH1 0x0 PUSH2 0xF27 PUSH1 0x19 DUP4 PUSH2 0x1275 JUMP JUMPDEST SWAP2 POP PUSH2 0xF32 DUP3 PUSH2 0x1536 JUMP JUMPDEST PUSH1 0x20 DUP3 ADD SWAP1 POP SWAP2 SWAP1 POP JUMP JUMPDEST PUSH1 0x0 PUSH2 0xF4A PUSH1 0x16 DUP4 PUSH2 0x1275 JUMP JUMPDEST SWAP2 POP PUSH2 0xF55 DUP3 PUSH2 0x155F JUMP JUMPDEST PUSH1 0x20 DUP3 ADD SWAP1 POP SWAP2 SWAP1 POP JUMP JUMPDEST PUSH1 0x0 PUSH2 0xF6D PUSH1 0x21 DUP4 PUSH2 0x1275 JUMP JUMPDEST SWAP2 POP PUSH2 0xF78 DUP3 PUSH2 0x1588 JUMP JUMPDEST PUSH1 0x40 DUP3 ADD SWAP1 POP SWAP2 SWAP1 POP JUMP JUMPDEST PUSH1 0x0 PUSH2 0xF90 PUSH1 0x1E DUP4 PUSH2 0x1275 JUMP JUMPDEST SWAP2 POP PUSH2 0xF9B DUP3 PUSH2 0x15D7 JUMP JUMPDEST PUSH1 0x20 DUP3 ADD SWAP1 POP SWAP2 SWAP1 POP JUMP JUMPDEST PUSH1 0x0 PUSH2 0xFB3 PUSH1 0x13 DUP4 PUSH2 0x1275 JUMP JUMPDEST SWAP2 POP PUSH2 0xFBE DUP3 PUSH2 0x1600 JUMP JUMPDEST PUSH1 0x20 DUP3 ADD SWAP1 POP SWAP2 SWAP1 POP JUMP JUMPDEST PUSH1 0x0 PUSH2 0xFD6 PUSH1 0x17 DUP4 PUSH2 0x1275 JUMP JUMPDEST SWAP2 POP PUSH2 0xFE1 DUP3 PUSH2 0x1629 JUMP JUMPDEST PUSH1 0x20 DUP3 ADD SWAP1 POP SWAP2 SWAP1 POP JUMP JUMPDEST PUSH1 0x0 PUSH2 0xFF9 PUSH1 0x23 DUP4 PUSH2 0x1275 JUMP JUMPDEST SWAP2 POP PUSH2 0x1004 DUP3 PUSH2 0x1652 JUMP JUMPDEST PUSH1 0x40 DUP3 ADD SWAP1 POP SWAP2 SWAP1 POP JUMP JUMPDEST PUSH1 0x0 PUSH2 0x101C PUSH1 0x1A DUP4 PUSH2 0x1275 JUMP JUMPDEST SWAP2 POP PUSH2 0x1027 DUP3 PUSH2 0x16A1 JUMP JUMPDEST PUSH1 0x20 DUP3 ADD SWAP1 POP SWAP2 SWAP1 POP JUMP JUMPDEST PUSH1 0x0 PUSH2 0x103F PUSH1 0x1F DUP4 PUSH2 0x1275 JUMP JUMPDEST SWAP2 POP PUSH2 0x104A DUP3 PUSH2 0x16CA JUMP JUMPDEST PUSH1 0x20 DUP3 ADD SWAP1 POP SWAP2 SWAP1 POP JUMP JUMPDEST PUSH2 0x105E DUP2 PUSH2 0x135D JUMP JUMPDEST DUP3 MSTORE POP POP JUMP JUMPDEST PUSH1 0x0 PUSH1 0x20 DUP3 ADD SWAP1 POP PUSH2 0x1079 PUSH1 0x0 DUP4 ADD DUP5 PUSH2 0xEC3 JUMP JUMPDEST SWAP3 SWAP2 POP POP JUMP JUMPDEST PUSH1 0x0 PUSH1 0xA0 DUP3 ADD SWAP1 POP DUP2 DUP2 SUB PUSH1 0x0 DUP4 ADD MSTORE PUSH2 0x1099 DUP2 DUP9 PUSH2 0xEE1 JUMP JUMPDEST SWAP1 POP PUSH2 0x10A8 PUSH1 0x20 DUP4 ADD DUP8 PUSH2 0xEB4 JUMP JUMPDEST PUSH2 0x10B5 PUSH1 0x40 DUP4 ADD DUP7 PUSH2 0x1055 JUMP JUMPDEST PUSH2 0x10C2 PUSH1 0x60 DUP4 ADD DUP6 PUSH2 0xED2 JUMP JUMPDEST PUSH2 0x10CF PUSH1 0x80 DUP4 ADD DUP5 PUSH2 0x1055 JUMP JUMPDEST SWAP7 SWAP6 POP POP POP POP POP POP JUMP JUMPDEST PUSH1 0x0 PUSH1 0x20 DUP3 ADD SWAP1 POP DUP2 DUP2 SUB PUSH1 0x0 DUP4 ADD MSTORE PUSH2 0x10F2 DUP2 PUSH2 0xF1A JUMP JUMPDEST SWAP1 POP SWAP2 SWAP1 POP JUMP JUMPDEST PUSH1 0x0 PUSH1 0x20 DUP3 ADD SWAP1 POP DUP2 DUP2 SUB PUSH1 0x0 DUP4 ADD MSTORE PUSH2 0x1112 DUP2 PUSH2 0xF3D JUMP JUMPDEST SWAP1 POP SWAP2 SWAP1 POP JUMP JUMPDEST PUSH1 0x0 PUSH1 0x20 DUP3 ADD SWAP1 POP DUP2 DUP2 SUB PUSH1 0x0 DUP4 ADD MSTORE PUSH2 0x1132 DUP2 PUSH2 0xF60 JUMP JUMPDEST SWAP1 POP SWAP2 SWAP1 POP JUMP JUMPDEST PUSH1 0x0 PUSH1 0x20 DUP3 ADD SWAP1 POP DUP2 DUP2 SUB PUSH1 0x0 DUP4 ADD MSTORE PUSH2 0x1152 DUP2 PUSH2 0xF83 JUMP JUMPDEST SWAP1 POP SWAP2 SWAP1 POP JUMP JUMPDEST PUSH1 0x0 PUSH1 0x20 DUP3 ADD SWAP1 POP DUP2 DUP2 SUB PUSH1 0x0 DUP4 ADD MSTORE PUSH2 0x1172 DUP2 PUSH2 0xFA6 JUMP JUMPDEST SWAP1 POP SWAP2 SWAP1 POP JUMP JUMPDEST PUSH1 0x0 PUSH1 0x20 DUP3 ADD SWAP1 POP DUP2 DUP2 SUB PUSH1 0x0 DUP4 ADD MSTORE PUSH2 0x1192 DUP2 PUSH2 0xFC9 JUMP JUMPDEST SWAP1 POP SWAP2 SWAP1 POP JUMP JUMPDEST PUSH1 0x0 PUSH1 0x20 DUP3 ADD SWAP1 POP DUP2 DUP2 SUB PUSH1 0x0 DUP4 ADD MSTORE PUSH2 0x11B2 DUP2 PUSH2 0xFEC JUMP JUMPDEST SWAP1 POP SWAP2 SWAP1 POP JUMP JUMPDEST PUSH1 0x0 PUSH1 0x20 DUP3 ADD SWAP1 POP DUP2 DUP2 SUB PUSH1 0x0 DUP4 ADD MSTORE PUSH2 0x11D2 DUP2 PUSH2 0x100F JUMP JUMPDEST SWAP1 POP SWAP2 SWAP1 POP JUMP JUMPDEST PUSH1 0x0 PUSH1 0x20 DUP3 ADD SWAP1 POP DUP2 DUP2 SUB PUSH1 0x0 DUP4 ADD MSTORE PUSH2 0x11F2 DUP2 PUSH2 0x1032 JUMP JUMPDEST SWAP1 POP SWAP2 SWAP1 POP JUMP JUMPDEST PUSH1 0x0 PUSH1 0x20 DUP3 ADD SWAP1 POP PUSH2 0x120E PUSH1 0x0 DUP4 ADD DUP5 PUSH2 0x1055 JUMP JUMPDEST SWAP3 SWAP2 POP POP JUMP JUMPDEST PUSH1 0x0 PUSH2 0x121E PUSH2 0x122F JUMP JUMPDEST SWAP1 POP PUSH2 0x122A DUP3 DUP3 PUSH2 0x13DB JUMP JUMPDEST SWAP2 SWAP1 POP JUMP JUMPDEST PUSH1 0x0 PUSH1 0x40 MLOAD SWAP1 POP SWAP1 JUMP JUMPDEST PUSH1 0x0 PUSH8 0xFFFFFFFFFFFFFFFF DUP3 GT ISZERO PUSH2 0x1254 JUMPI PUSH2 0x1253 PUSH2 0x14E2 JUMP JUMPDEST JUMPDEST PUSH2 0x125D DUP3 PUSH2 0x1525 JUMP JUMPDEST SWAP1 POP PUSH1 0x20 DUP2 ADD SWAP1 POP SWAP2 SWAP1 POP JUMP JUMPDEST PUSH1 0x0 DUP2 MLOAD SWAP1 POP SWAP2 SWAP1 POP JUMP JUMPDEST PUSH1 0x0 DUP3 DUP3 MSTORE PUSH1 0x20 DUP3 ADD SWAP1 POP SWAP3 SWAP2 POP POP JUMP JUMPDEST PUSH1 0x0 PUSH2 0x1291 DUP3 PUSH2 0x135D JUMP JUMPDEST SWAP2 POP PUSH2 0x129C DUP4 PUSH2 0x135D JUMP JUMPDEST SWAP3 POP DUP3 PUSH32 0xFFFFFFFFFFFFFFFFFFFFFFFFFFFFFFFFFFFFFFFFFFFFFFFFFFFFFFFFFFFFFFFF SUB DUP3 GT ISZERO PUSH2 0x12D1 JUMPI PUSH2 0x12D0 PUSH2 0x1455 JUMP JUMPDEST JUMPDEST DUP3 DUP3 ADD SWAP1 POP SWAP3 SWAP2 POP POP JUMP JUMPDEST PUSH1 0x0 PUSH2 0x12E7 DUP3 PUSH2 0x135D JUMP JUMPDEST SWAP2 POP PUSH2 0x12F2 DUP4 PUSH2 0x135D JUMP JUMPDEST SWAP3 POP DUP3 PUSH2 0x1302 JUMPI PUSH2 0x1301 PUSH2 0x1484 JUMP JUMPDEST JUMPDEST DUP3 DUP3 DIV SWAP1 POP SWAP3 SWAP2 POP POP JUMP JUMPDEST PUSH1 0x0 PUSH2 0x1318 DUP3 PUSH2 0x133D JUMP JUMPDEST SWAP1 POP SWAP2 SWAP1 POP JUMP JUMPDEST PUSH1 0x0 PUSH2 0x132A DUP3 PUSH2 0x133D JUMP JUMPDEST SWAP1 POP SWAP2 SWAP1 POP JUMP JUMPDEST PUSH1 0x0 DUP2 ISZERO ISZERO SWAP1 POP SWAP2 SWAP1 POP JUMP JUMPDEST PUSH1 0x0 PUSH20 0xFFFFFFFFFFFFFFFFFFFFFFFFFFFFFFFFFFFFFFFF DUP3 AND SWAP1 POP SWAP2 SWAP1 POP JUMP JUMPDEST PUSH1 0x0 DUP2 SWAP1 POP SWAP2 SWAP1 POP JUMP JUMPDEST DUP3 DUP2 DUP4 CALLDATACOPY PUSH1 0x0 DUP4 DUP4 ADD MSTORE POP POP POP JUMP JUMPDEST PUSH1 0x0 JUMPDEST DUP4 DUP2 LT ISZERO PUSH2 0x1394 JUMPI DUP1 DUP3 ADD MLOAD DUP2 DUP5 ADD MSTORE PUSH1 0x20 DUP2 ADD SWAP1 POP PUSH2 0x1379 JUMP JUMPDEST DUP4 DUP2 GT ISZERO PUSH2 0x13A3 JUMPI PUSH1 0x0 DUP5 DUP5 ADD MSTORE JUMPDEST POP POP POP POP JUMP JUMPDEST PUSH1 0x0 PUSH1 0x2 DUP3 DIV SWAP1 POP PUSH1 0x1 DUP3 AND DUP1 PUSH2 0x13C1 JUMPI PUSH1 0x7F DUP3 AND SWAP2 POP JUMPDEST PUSH1 0x20 DUP3 LT DUP2 EQ ISZERO PUSH2 0x13D5 JUMPI PUSH2 0x13D4 PUSH2 0x14B3 JUMP JUMPDEST JUMPDEST POP SWAP2 SWAP1 POP JUMP JUMPDEST PUSH2 0x13E4 DUP3 PUSH2 0x1525 JUMP JUMPDEST DUP2 ADD DUP2 DUP2 LT PUSH8 0xFFFFFFFFFFFFFFFF DUP3 GT OR ISZERO PUSH2 0x1403 JUMPI PUSH2 0x1402 PUSH2 0x14E2 JUMP JUMPDEST JUMPDEST DUP1 PUSH1 0x40 MSTORE POP POP POP JUMP JUMPDEST PUSH1 0x0 PUSH2 0x1417 DUP3 PUSH2 0x135D JUMP JUMPDEST SWAP2 POP PUSH32 0xFFFFFFFFFFFFFFFFFFFFFFFFFFFFFFFFFFFFFFFFFFFFFFFFFFFFFFFFFFFFFFFF DUP3 EQ ISZERO PUSH2 0x144A JUMPI PUSH2 0x1449 PUSH2 0x1455 JUMP JUMPDEST JUMPDEST PUSH1 0x1 DUP3 ADD SWAP1 POP SWAP2 SWAP1 POP JUMP JUMPDEST PUSH32 0x4E487B7100000000000000000000000000000000000000000000000000000000 PUSH1 0x0 MSTORE PUSH1 0x11 PUSH1 0x4 MSTORE PUSH1 0x24 PUSH1 0x0 REVERT JUMPDEST PUSH32 0x4E487B7100000000000000000000000000000000000000000000000000000000 PUSH1 0x0 MSTORE PUSH1 0x12 PUSH1 0x4 MSTORE PUSH1 0x24 PUSH1 0x0 REVERT JUMPDEST PUSH32 0x4E487B7100000000000000000000000000000000000000000000000000000000 PUSH1 0x0 MSTORE PUSH1 0x22 PUSH1 0x4 MSTORE PUSH1 0x24 PUSH1 0x0 REVERT JUMPDEST PUSH32 0x4E487B7100000000000000000000000000000000000000000000000000000000 PUSH1 0x0 MSTORE PUSH1 0x41 PUSH1 0x4 MSTORE PUSH1 0x24 PUSH1 0x0 REVERT JUMPDEST PUSH1 0x0 DUP1 REVERT JUMPDEST PUSH1 0x0 DUP1 REVERT JUMPDEST PUSH1 0x0 DUP1 REVERT JUMPDEST PUSH1 0x0 DUP1 REVERT JUMPDEST PUSH1 0x0 PUSH1 0x1F NOT PUSH1 0x1F DUP4 ADD AND SWAP1 POP SWAP2 SWAP1 POP JUMP JUMPDEST PUSH32 0x6D616A6F7269747920646F6573206E6F7420737570706F727400000000000000 PUSH1 0x0 DUP3 ADD MSTORE POP JUMP JUMPDEST PUSH32 0x796F75206861766520616C726561647920766F74656400000000000000000000 PUSH1 0x0 DUP3 ADD MSTORE POP JUMP JUMPDEST PUSH32 0x796F752068617665206E6F7420636F6E747269627574656420616E797468696E PUSH1 0x0 DUP3 ADD MSTORE PUSH32 0x6700000000000000000000000000000000000000000000000000000000000000 PUSH1 0x20 DUP3 ADD MSTORE POP JUMP JUMPDEST PUSH32 0x6D696E696D756E20436F6E7472627574696F6E206973206E6F74206D65740000 PUSH1 0x0 DUP3 ADD MSTORE POP JUMP JUMPDEST PUSH32 0x646561646C696E65206861732070617373656400000000000000000000000000 PUSH1 0x0 DUP3 ADD MSTORE POP JUMP JUMPDEST PUSH32 0x796F75206D75737420626520636F6E7472696275746572000000000000000000 PUSH1 0x0 DUP3 ADD MSTORE POP JUMP JUMPDEST PUSH32 0x6F6E6C79206D616E616765722063616E2063616C6C20746869732066756E6374 PUSH1 0x0 DUP3 ADD MSTORE PUSH32 0x696F6E0000000000000000000000000000000000000000000000000000000000 PUSH1 0x20 DUP3 ADD MSTORE POP JUMP JUMPDEST PUSH32 0x7265717565737420686173206265656E20636F6D706C65746564000000000000 PUSH1 0x0 DUP3 ADD MSTORE POP JUMP JUMPDEST PUSH32 0x796F7520617265206E6F7420656C696769626C6520666F7220726566756E6400 PUSH1 0x0 DUP3 ADD MSTORE POP JUMP JUMPDEST PUSH2 0x16FC DUP2 PUSH2 0x130D JUMP JUMPDEST DUP2 EQ PUSH2 0x1707 JUMPI PUSH1 0x0 DUP1 REVERT JUMPDEST POP JUMP JUMPDEST PUSH2 0x1713 DUP2 PUSH2 0x131F JUMP JUMPDEST DUP2 EQ PUSH2 0x171E JUMPI PUSH1 0x0 DUP1 REVERT JUMPDEST POP JUMP JUMPDEST PUSH2 0x172A DUP2 PUSH2 0x135D JUMP JUMPDEST DUP2 EQ PUSH2 0x1735 JUMPI PUSH1 0x0 DUP1 REVERT JUMPDEST POP JUMP INVALID LOG2 PUSH5 0x6970667358 0x22 SLT KECCAK256 REVERT CALLDATASIZE CALLDATACOPY SWAP16 0xFB 0xBA CODECOPY 0xBC DIV MSIZE 0xDB EXTCODEHASH CREATE SHR DUP5 PUSH24 0x507068F5320E49F9F3C34352A61A7A1C64736F6C63430008 SMOD STOP CALLER "
		},
		"gasEstimates": {
			"creation": {
				"codeDepositCost": "1199600",
				"executionCost": "infinite",
				"totalCost": "infinite"
			},
			"external": {
				"contributers(address)": "2882",
				"createRequests(string,address,uint256)": "infinite",
				"deadline()": "2475",
				"getContractBalance()": "384",
				"makepayment(uint256)": "infinite",
				"manager()": "2559",
				"minimumContribution()": "2518",
				"noOfContributers()": "2453",
				"numRequests()": "2451",
				"raisedAmount()": "2473",
				"refund()": "infinite",
				"requests(uint256)": "infinite",
				"sedEth()": "infinite",
				"target()": "2517",
				"voteRequest(uint256)": "infinite"
			}
		},
		"methodIdentifiers": {
			"contributers(address)": "34b66460",
			"createRequests(string,address,uint256)": "3eb7647b",
			"deadline()": "29dcb0cf",
			"getContractBalance()": "6f9fb98a",
			"makepayment(uint256)": "cbaf8671",
			"manager()": "481c6a75",
			"minimumContribution()": "937e09b1",
			"noOfContributers()": "24274ee9",
			"numRequests()": "9fb42b1f",
			"raisedAmount()": "c59ee1dc",
			"refund()": "590e1ae3",
			"requests(uint256)": "81d12c58",
			"sedEth()": "5edec2c4",
			"target()": "d4b83992",
			"voteRequest(uint256)": "4cb6f4a5"
		}
	},
	"abi": [
		{
			"inputs": [
				{
					"internalType": "uint256",
					"name": "_target",
					"type": "uint256"
				},
				{
					"internalType": "uint256",
					"name": "_deadline",
					"type": "uint256"
				}
			],
			"stateMutability": "nonpayable",
			"type": "constructor"
		},
		{
			"inputs": [
				{
					"internalType": "address",
					"name": "",
					"type": "address"
				}
			],
			"name": "contributers",
			"outputs": [
				{
					"internalType": "uint256",
					"name": "",
					"type": "uint256"
				}
			],
			"stateMutability": "view",
			"type": "function"
		},
		{
			"inputs": [
				{
					"internalType": "string",
					"name": "_description",
					"type": "string"
				},
				{
					"internalType": "address payable",
					"name": "_recipient",
					"type": "address"
				},
				{
					"internalType": "uint256",
					"name": "_value",
					"type": "uint256"
				}
			],
			"name": "createRequests",
			"outputs": [],
			"stateMutability": "nonpayable",
			"type": "function"
		},
		{
			"inputs": [],
			"name": "deadline",
			"outputs": [
				{
					"internalType": "uint256",
					"name": "",
					"type": "uint256"
				}
			],
			"stateMutability": "view",
			"type": "function"
		},
		{
			"inputs": [],
			"name": "getContractBalance",
			"outputs": [
				{
					"internalType": "uint256",
					"name": "",
					"type": "uint256"
				}
			],
			"stateMutability": "view",
			"type": "function"
		},
		{
			"inputs": [
				{
					"internalType": "uint256",
					"name": "_requestNo",
					"type": "uint256"
				}
			],
			"name": "makepayment",
			"outputs": [],
			"stateMutability": "nonpayable",
			"type": "function"
		},
		{
			"inputs": [],
			"name": "manager",
			"outputs": [
				{
					"internalType": "address",
					"name": "",
					"type": "address"
				}
			],
			"stateMutability": "view",
			"type": "function"
		},
		{
			"inputs": [],
			"name": "minimumContribution",
			"outputs": [
				{
					"internalType": "uint256",
					"name": "",
					"type": "uint256"
				}
			],
			"stateMutability": "view",
			"type": "function"
		},
		{
			"inputs": [],
			"name": "noOfContributers",
			"outputs": [
				{
					"internalType": "uint256",
					"name": "",
					"type": "uint256"
				}
			],
			"stateMutability": "view",
			"type": "function"
		},
		{
			"inputs": [],
			"name": "numRequests",
			"outputs": [
				{
					"internalType": "uint256",
					"name": "",
					"type": "uint256"
				}
			],
			"stateMutability": "view",
			"type": "function"
		},
		{
			"inputs": [],
			"name": "raisedAmount",
			"outputs": [
				{
					"internalType": "uint256",
					"name": "",
					"type": "uint256"
				}
			],
			"stateMutability": "view",
			"type": "function"
		},
		{
			"inputs": [],
			"name": "refund",
			"outputs": [],
			"stateMutability": "nonpayable",
			"type": "function"
		},
		{
			"inputs": [
				{
					"internalType": "uint256",
					"name": "",
					"type": "uint256"
				}
			],
			"name": "requests",
			"outputs": [
				{
					"internalType": "string",
					"name": "description",
					"type": "string"
				},
				{
					"internalType": "address payable",
					"name": "recipient",
					"type": "address"
				},
				{
					"internalType": "uint256",
					"name": "value",
					"type": "uint256"
				},
				{
					"internalType": "bool",
					"name": "completed",
					"type": "bool"
				},
				{
					"internalType": "uint256",
					"name": "noofvoters",
					"type": "uint256"
				}
			],
			"stateMutability": "view",
			"type": "function"
		},
		{
			"inputs": [],
			"name": "sedEth",
			"outputs": [],
			"stateMutability": "payable",
			"type": "function"
		},
		{
			"inputs": [],
			"name": "target",
			"outputs": [
				{
					"internalType": "uint256",
					"name": "",
					"type": "uint256"
				}
			],
			"stateMutability": "view",
			"type": "function"
		},
		{
			"inputs": [
				{
					"internalType": "uint256",
					"name": "_requestNo",
					"type": "uint256"
				}
			],
			"name": "voteRequest",
			"outputs": [],
			"stateMutability": "nonpayable",
			"type": "function"
		}
	]
}