{
	"data": {
		"bytecode": {
			"linkReferences": {},
			"object": "6080604052601e600055600a60015534801561001a57600080fd5b506101478061002a6000396000f3fe608060405234801561001057600080fd5b506004361061004c5760003560e01c80630c55699c1461005157806373d4a13a1461006f578063a56dfe4a1461008d578063de292789146100ab575b600080fd5b6100596100c9565b6040518082815260200191505060405180910390f35b6100776100db565b6040518082815260200191505060405180910390f35b6100956100e1565b6040518082815260200191505060405180910390f35b6100b36100f3565b6040518082815260200191505060405180910390f35b60006003600081905550600054905090565b60005481565b60006003600181905550600154905090565b600080600190506000600290506000818301905060025493505050509056fea265627a7a723158200da6f5297251f3ffb7e4d7b396e8767190323cca1827016f00bd376d71d8059664736f6c63430005110032",
			"opcodes": "PUSH1 0x80 PUSH1 0x40 MSTORE PUSH1 0x1E PUSH1 0x0 SSTORE PUSH1 0xA PUSH1 0x1 SSTORE CALLVALUE DUP1 ISZERO PUSH2 0x1A JUMPI PUSH1 0x0 DUP1 REVERT JUMPDEST POP PUSH2 0x147 DUP1 PUSH2 0x2A PUSH1 0x0 CODECOPY PUSH1 0x0 RETURN INVALID PUSH1 0x80 PUSH1 0x40 MSTORE CALLVALUE DUP1 ISZERO PUSH2 0x10 JUMPI PUSH1 0x0 DUP1 REVERT JUMPDEST POP PUSH1 0x4 CALLDATASIZE LT PUSH2 0x4C JUMPI PUSH1 0x0 CALLDATALOAD PUSH1 0xE0 SHR DUP1 PUSH4 0xC55699C EQ PUSH2 0x51 JUMPI DUP1 PUSH4 0x73D4A13A EQ PUSH2 0x6F JUMPI DUP1 PUSH4 0xA56DFE4A EQ PUSH2 0x8D JUMPI DUP1 PUSH4 0xDE292789 EQ PUSH2 0xAB JUMPI JUMPDEST PUSH1 0x0 DUP1 REVERT JUMPDEST PUSH2 0x59 PUSH2 0xC9 JUMP JUMPDEST PUSH1 0x40 MLOAD DUP1 DUP3 DUP2 MSTORE PUSH1 0x20 ADD SWAP2 POP POP PUSH1 0x40 MLOAD DUP1 SWAP2 SUB SWAP1 RETURN JUMPDEST PUSH2 0x77 PUSH2 0xDB JUMP JUMPDEST PUSH1 0x40 MLOAD DUP1 DUP3 DUP2 MSTORE PUSH1 0x20 ADD SWAP2 POP POP PUSH1 0x40 MLOAD DUP1 SWAP2 SUB SWAP1 RETURN JUMPDEST PUSH2 0x95 PUSH2 0xE1 JUMP JUMPDEST PUSH1 0x40 MLOAD DUP1 DUP3 DUP2 MSTORE PUSH1 0x20 ADD SWAP2 POP POP PUSH1 0x40 MLOAD DUP1 SWAP2 SUB SWAP1 RETURN JUMPDEST PUSH2 0xB3 PUSH2 0xF3 JUMP JUMPDEST PUSH1 0x40 MLOAD DUP1 DUP3 DUP2 MSTORE PUSH1 0x20 ADD SWAP2 POP POP PUSH1 0x40 MLOAD DUP1 SWAP2 SUB SWAP1 RETURN JUMPDEST PUSH1 0x0 PUSH1 0x3 PUSH1 0x0 DUP2 SWAP1 SSTORE POP PUSH1 0x0 SLOAD SWAP1 POP SWAP1 JUMP JUMPDEST PUSH1 0x0 SLOAD DUP2 JUMP JUMPDEST PUSH1 0x0 PUSH1 0x3 PUSH1 0x1 DUP2 SWAP1 SSTORE POP PUSH1 0x1 SLOAD SWAP1 POP SWAP1 JUMP JUMPDEST PUSH1 0x0 DUP1 PUSH1 0x1 SWAP1 POP PUSH1 0x0 PUSH1 0x2 SWAP1 POP PUSH1 0x0 DUP2 DUP4 ADD SWAP1 POP PUSH1 0x2 SLOAD SWAP4 POP POP POP POP SWAP1 JUMP INVALID LOG2 PUSH6 0x627A7A723158 KECCAK256 0xD 0xA6 CREATE2 0x29 PUSH19 0x51F3FFB7E4D7B396E8767190323CCA1827016F STOP 0xBD CALLDATACOPY PUSH14 0x71D8059664736F6C634300051100 ORIGIN "
		},
		"gasEstimates": {
			"creation": {
				"codeDepositCost": "65400",
				"executionCost": "40129",
				"totalCost": "105529"
			},
			"external": {
				"data()": "1005",
				"getResult()": "1102",
				"x()": "21005",
				"y()": "21049"
			}
		},
		"methodIdentifiers": {
			"data()": "73d4a13a",
			"getResult()": "de292789",
			"x()": "0c55699c",
			"y()": "a56dfe4a"
		}
	},
	"abi": [
		{
			"constant": true,
			"inputs": [],
			"name": "data",
			"outputs": [
				{
					"internalType": "uint256",
					"name": "",
					"type": "uint256"
				}
			],
			"payable": false,
			"stateMutability": "view",
			"type": "function"
		},
		{
			"constant": true,
			"inputs": [],
			"name": "getResult",
			"outputs": [
				{
					"internalType": "uint256",
					"name": "",
					"type": "uint256"
				}
			],
			"payable": false,
			"stateMutability": "view",
			"type": "function"
		},
		{
			"constant": false,
			"inputs": [],
			"name": "x",
			"outputs": [
				{
					"internalType": "uint256",
					"name": "",
					"type": "uint256"
				}
			],
			"payable": false,
			"stateMutability": "nonpayable",
			"type": "function"
		},
		{
			"constant": false,
			"inputs": [],
			"name": "y",
			"outputs": [
				{
					"internalType": "uint256",
					"name": "",
					"type": "uint256"
				}
			],
			"payable": false,
			"stateMutability": "nonpayable",
			"type": "function"
		}
	]
}