{
	"data": {
		"bytecode": {
			"linkReferences": {},
			"object": "608060405234801561001057600080fd5b5060e38061001f6000396000f3fe6080604052348015600f57600080fd5b506004361060325760003560e01c8063b69ef8a8146037578063e8e3735414607f575b600080fd5b603d6087565b604051808273ffffffffffffffffffffffffffffffffffffffff1673ffffffffffffffffffffffffffffffffffffffff16815260200191505060405180910390f35b608560ac565b005b6000809054906101000a900473ffffffffffffffffffffffffffffffffffffffff1681565b56fea265627a7a72315820cff79ed18370d0b1b8f9fce3aafa2221e551e0126f1b0688e866185ca08c84ac64736f6c63430005110032",
			"opcodes": "PUSH1 0x80 PUSH1 0x40 MSTORE CALLVALUE DUP1 ISZERO PUSH2 0x10 JUMPI PUSH1 0x0 DUP1 REVERT JUMPDEST POP PUSH1 0xE3 DUP1 PUSH2 0x1F PUSH1 0x0 CODECOPY PUSH1 0x0 RETURN INVALID PUSH1 0x80 PUSH1 0x40 MSTORE CALLVALUE DUP1 ISZERO PUSH1 0xF JUMPI PUSH1 0x0 DUP1 REVERT JUMPDEST POP PUSH1 0x4 CALLDATASIZE LT PUSH1 0x32 JUMPI PUSH1 0x0 CALLDATALOAD PUSH1 0xE0 SHR DUP1 PUSH4 0xB69EF8A8 EQ PUSH1 0x37 JUMPI DUP1 PUSH4 0xE8E37354 EQ PUSH1 0x7F JUMPI JUMPDEST PUSH1 0x0 DUP1 REVERT JUMPDEST PUSH1 0x3D PUSH1 0x87 JUMP JUMPDEST PUSH1 0x40 MLOAD DUP1 DUP3 PUSH20 0xFFFFFFFFFFFFFFFFFFFFFFFFFFFFFFFFFFFFFFFF AND PUSH20 0xFFFFFFFFFFFFFFFFFFFFFFFFFFFFFFFFFFFFFFFF AND DUP2 MSTORE PUSH1 0x20 ADD SWAP2 POP POP PUSH1 0x40 MLOAD DUP1 SWAP2 SUB SWAP1 RETURN JUMPDEST PUSH1 0x85 PUSH1 0xAC JUMP JUMPDEST STOP JUMPDEST PUSH1 0x0 DUP1 SWAP1 SLOAD SWAP1 PUSH2 0x100 EXP SWAP1 DIV PUSH20 0xFFFFFFFFFFFFFFFFFFFFFFFFFFFFFFFFFFFFFFFF AND DUP2 JUMP JUMPDEST JUMP INVALID LOG2 PUSH6 0x627A7A723158 KECCAK256 0xCF 0xF7 SWAP15 0xD1 DUP4 PUSH17 0xD0B1B8F9FCE3AAFA2221E551E0126F1B06 DUP9 0xE8 PUSH7 0x185CA08C84AC64 PUSH20 0x6F6C634300051100320000000000000000000000 "
		},
		"gasEstimates": {
			"creation": {
				"codeDepositCost": "45400",
				"executionCost": "99",
				"totalCost": "45499"
			},
			"external": {
				"balance()": "1031",
				"showbalance()": "144"
			}
		},
		"methodIdentifiers": {
			"balance()": "b69ef8a8",
			"showbalance()": "e8e37354"
		}
	},
	"abi": [
		{
			"constant": true,
			"inputs": [],
			"name": "balance",
			"outputs": [
				{
					"internalType": "address",
					"name": "",
					"type": "address"
				}
			],
			"payable": false,
			"stateMutability": "view",
			"type": "function"
		},
		{
			"constant": false,
			"inputs": [],
			"name": "showbalance",
			"outputs": [],
			"payable": false,
			"stateMutability": "nonpayable",
			"type": "function"
		}
	]
}